Component: ARM Compiler 5.06 update 7 (build 960) Tool: armlink [4d3601]

==============================================================================

Section Cross References

    main.o(i.main) refers to system.o(i.systemInit) for systemInit
    main.o(i.main) refers to tasks.o(i.xTaskCreate) for xTaskCreate
    main.o(i.main) refers to tasks.o(i.vTaskStartScheduler) for vTaskStartScheduler
    main.o(i.main) refers to main.o(.data) for .data
    main.o(i.main) refers to main.o(i.start_task) for start_task
    main.o(i.start_task) refers to port.o(i.vPortEnterCritical) for vPortEnterCritical
    main.o(i.start_task) refers to tasks.o(i.xTaskCreate) for xTaskCreate
    main.o(i.start_task) refers to tasks.o(i.vTaskDelete) for vTaskDelete
    main.o(i.start_task) refers to port.o(i.vPortExitCritical) for vPortExitCritical
    main.o(i.start_task) refers to balance.o(i.Balance_task) for Balance_task
    main.o(i.start_task) refers to mpu6050.o(i.MPU6050_task) for MPU6050_task
    main.o(i.start_task) refers to show.o(i.show_task) for show_task
    main.o(i.start_task) refers to led.o(i.led_task) for led_task
    main.o(i.start_task) refers to pstwo.o(i.pstwo_task) for pstwo_task
    main.o(i.start_task) refers to usartx.o(i.data_task) for data_task
    main.o(i.start_task) refers to main.o(.data) for .data
    system_stm32f4xx.o(i.SystemCoreClockUpdate) refers to system_stm32f4xx.o(.data) for .data
    system_stm32f4xx.o(i.SystemInit) refers to system_stm32f4xx.o(i.SetSysClock) for SetSysClock
==============================================================================

Removing Unused input sections from the image.

    Removing main.o(.rev16_text), (4 bytes).
    Removing main.o(.revsh_text), (4 bytes).
    Removing stm32f4xx_it.o(.rev16_text), (4 bytes).
    Removing stm32f4xx_it.o(.revsh_text), (4 bytes).
    Removing system_stm32f4xx.o(.rev16_text), (4 bytes).
    Removing system_stm32f4xx.o(.revsh_text), (4 bytes).
    Removing system_stm32f4xx.o(i.SystemCoreClockUpdate), (120 bytes).
    Removing adc.o(.rev16_text), (4 bytes).
    Removing adc.o(.revsh_text), (4 bytes).
    Removing adc.o(.constdata), (4 bytes).
    Removing adc.o(.data), (4 bytes).
    Removing can.o(.rev16_text), (4 bytes).
    Removing can.o(.revsh_text), (4 bytes).
    Removing can.o(i.CAN1_Msg_Pend), (32 bytes).
    Removing can.o(i.CAN1_Receive_Msg), (66 bytes).
    Removing can.o(i.CAN1_Send_Msg), (58 bytes).
    Removing can.o(i.CAN1_Send_MsgTEST), (58 bytes).
    Removing encoder.o(.rev16_text), (4 bytes).
==============================================================================

Image Symbol Table

    Local Symbols

    Symbol Name                              Value     Ov Type        Size  Object(Section)

    ../clib/angel/boardlib.s                 0x00000000   Number         0  boardshut.o ABSOLUTE
    ../clib/angel/boardlib.s                 0x00000000   Number         0  boardinit2.o ABSOLUTE
    ../clib/angel/boardlib.s                 0x00000000   Number         0  boardinit1.o ABSOLUTE
    ../clib/angel/boardlib.s                 0x00000000   Number         0  boardinit3.o ABSOLUTE
    ../clib/angel/dczerorl2.s                0x00000000   Number         0  __dczerorl2.o ABSOLUTE
    ../clib/angel/handlers.s                 0x00000000   Number         0  __scatter_zi.o ABSOLUTE
    ../clib/angel/kernel.s                   0x00000000   Number         0  __rtentry.o ABSOLUTE
    ../clib/angel/kernel.s                   0x00000000   Number         0  __rtentry4.o ABSOLUTE
    ../clib/angel/kernel.s                   0x00000000   Number         0  __rtentry2.o ABSOLUTE
    ../clib/angel/kernel.s                   0x00000000   Number         0  rtexit.o ABSOLUTE
    ../clib/angel/kernel.s                   0x00000000   Number         0  rtexit2.o ABSOLUTE
    ../clib/angel/rt.s                       0x00000000   Number         0  rt_errno_addr_intlibspace.o ABSOLUTE
    ../clib/angel/rt.s                       0x00000000   Number         0  rt_raise.o ABSOLUTE
    ../clib/angel/rt.s                       0x00000000   Number         0  rt_errno_addr.o ABSOLUTE
    ../clib/angel/scatter.s                  0x00000000   Number         0  __scatter.o ABSOLUTE
    ../clib/angel/startup.s                  0x00000000   Number         0  __main.o ABSOLUTE
    ../clib/angel/sys.s                      0x00000000   Number         0  indicate_semi.o ABSOLUTE
    ../clib/angel/sys.s                      0x00000000   Number         0  use_no_semi.o ABSOLUTE
    ../clib/angel/sys.s                      0x00000000   Number         0  use_no_semi_2.o ABSOLUTE
    ../clib/angel/sys.s                      0x00000000   Number         0  sys_stackheap_outer.o ABSOLUTE
    ../clib/angel/sys.s                      0x00000000   Number         0  libspace.o ABSOLUTE
    ../clib/angel/sysapp.c                   0x00000000   Number         0  sys_wrch.o ABSOLUTE
    ../clib/angel/sysapp.c                   0x00000000   Number         0  sys_command.o ABSOLUTE
    ../clib/armsys.c                         0x00000000   Number         0  argv_veneer.o ABSOLUTE
    ../clib/armsys.c                         0x00000000   Number         0  argv_veneer.o ABSOLUTE
    ../clib/armsys.c                         0x00000000   Number         0  no_argv.o ABSOLUTE
    ../clib/armsys.c                         0x00000000   Number         0  _get_argv_nomalloc.o ABSOLUTE
    ../clib/fenv.c                           0x00000000   Number         0  _rserrno.o ABSOLUTE
    ../clib/heapalloc.c                      0x00000000   Number         0  hrguard.o ABSOLUTE
    ../clib/heapaux.c                        0x00000000   Number         0  heapauxi.o ABSOLUTE
    ../clib/libinit.s                        0x00000000   Number         0  libshutdown.o ABSOLUTE
    ../clib/libinit.s                        0x00000000   Number         0  libinit.o ABSOLUTE
    ../clib/libinit.s                        0x00000000   Number         0  libinit2.o ABSOLUTE
    ../clib/libinit.s                        0x00000000   Number         0  libshutdown2.o ABSOLUTE
    ../clib/memcpset.s                       0x00000000   Number         0  rt_memcpy_v6.o ABSOLUTE
    ../clib/memcpset.s                       0x00000000   Number         0  aeabi_memset.o ABSOLUTE
    ../clib/memcpset.s                       0x00000000   Number         0  rt_memcpy_w.o ABSOLUTE
    ../clib/memcpset.s                       0x00000000   Number         0  rt_memclr_w.o ABSOLUTE
    ../clib/memcpset.s                       0x00000000   Number         0  rt_memclr.o ABSOLUTE
    ../clib/printf.c                         0x00000000   Number         0  _printf_char.o ABSOLUTE
    ../clib/printf.c                         0x00000000   Number         0  _printf_char_file.o ABSOLUTE
    ../clib/printf.c                         0x00000000   Number         0  _printf_char_common.o ABSOLUTE
    ../clib/printf.c                         0x00000000   Number         0  _sputc.o ABSOLUTE
    ../clib/printf.c                         0x00000000   Number         0  __2sprintf.o ABSOLUTE
    ../clib/printf.c                         0x00000000   Number         0  __printf_ss_wp.o ABSOLUTE
    ../clib/printf.c                         0x00000000   Number         0  __2printf.o ABSOLUTE
    ../clib/printf.c                         0x00000000   Number         0  __printf_flags_ss_wp.o ABSOLUTE
    ../clib/printf.c                         0x00000000   Number         0  _printf_intcommon.o ABSOLUTE
    ../clib/printf.c                         0x00000000   Number         0  __printf_flags.o ABSOLUTE
    ../clib/printf.c                         0x00000000   Number         0  __printf_ss.o ABSOLUTE
    ../clib/printf.c                         0x00000000   Number         0  __printf_nopercent.o ABSOLUTE
    ../clib/printf.c                         0x00000000   Number         0  __printf_flags_wp.o ABSOLUTE
    ../clib/printf.c                         0x00000000   Number         0  __printf_wp.o ABSOLUTE
    ../clib/printf.c                         0x00000000   Number         0  __printf_flags_ss.o ABSOLUTE
    ../clib/printf.c                         0x00000000   Number         0  _printf_dec.o ABSOLUTE
    ../clib/printf.c                         0x00000000   Number         0  _printf_str.o ABSOLUTE
    ../clib/printf.c                         0x00000000   Number         0  __printf.o ABSOLUTE
    ../clib/printf.c                         0x00000000   Number         0  noretval__2sprintf.o ABSOLUTE
    ../clib/printf.c                         0x00000000   Number         0  noretval__2printf.o ABSOLUTE
    ../clib/printf_percent.s                 0x00000000   Number         0  _printf_u.o ABSOLUTE
    ../clib/printf_percent.s                 0x00000000   Number         0  _printf_percent_end.o ABSOLUTE
    ../clib/printf_percent.s                 0x00000000   Number         0  _printf_d.o ABSOLUTE
    ../clib/printf_percent.s                 0x00000000   Number         0  _printf_s.o ABSOLUTE
    ../clib/printf_percent.s                 0x00000000   Number         0  _printf_percent.o ABSOLUTE
    ../clib/printf_percent.s                 0x00000000   Number         0  _printf_c.o ABSOLUTE
    ../clib/signal.c                         0x00000000   Number         0  defsig_segv_inner.o ABSOLUTE
    ../clib/signal.c                         0x00000000   Number         0  defsig_other.o ABSOLUTE
    ../clib/signal.c                         0x00000000   Number         0  defsig_cppl_inner.o ABSOLUTE
    ../clib/signal.c                         0x00000000   Number         0  defsig_pvfn_inner.o ABSOLUTE
    ../clib/signal.c                         0x00000000   Number         0  defsig_stak_inner.o ABSOLUTE
    ../clib/signal.c                         0x00000000   Number         0  defsig_rtmem_inner.o ABSOLUTE
    ../clib/signal.c                         0x00000000   Number         0  __raise.o ABSOLUTE
    ../clib/signal.c                         0x00000000   Number         0  defsig_rtmem_outer.o ABSOLUTE
    ../clib/signal.c                         0x00000000   Number         0  defsig_rtmem_formal.o ABSOLUTE
    ../clib/signal.c                         0x00000000   Number         0  defsig_general.o ABSOLUTE
    ../clib/signal.c                         0x00000000   Number         0  defsig_exit.o ABSOLUTE
    ../clib/signal.c                         0x00000000   Number         0  defsig_abrt_inner.o ABSOLUTE
    ../clib/signal.c                         0x00000000   Number         0  defsig_fpe_inner.o ABSOLUTE
    ../clib/signal.c                         0x00000000   Number         0  defsig_rtred_inner.o ABSOLUTE
    ../clib/signal.s                         0x00000000   Number         0  defsig.o ABSOLUTE
    ../clib/stdio.c                          0x00000000   Number         0  ferror_locked.o ABSOLUTE
    ../clib/stdio.c                          0x00000000   Number         0  ferror.o ABSOLUTE
    ../clib/stdlib.c                         0x00000000   Number         0  exit.o ABSOLUTE
    ../clib/string.c                         0x00000000   Number         0  strcpy.o ABSOLUTE
    ../clib/string.c                         0x00000000   Number         0  strlen.o ABSOLUTE
    ../fplib/basic.s                         0x00000000   Number         0  basic.o ABSOLUTE
    ../fplib/d2f.s                           0x00000000   Number         0  d2f.o ABSOLUTE
    ../fplib/daddsub.s                       0x00000000   Number         0  daddsub_clz.o ABSOLUTE
    ../fplib/dcheck1.s                       0x00000000   Number         0  dcheck1.o ABSOLUTE
    ../fplib/dcmpi.s                         0x00000000   Number         0  dcmpi.o ABSOLUTE
    ../fplib/ddiv.s                          0x00000000   Number         0  ddiv.o ABSOLUTE
    ../fplib/dfix.s                          0x00000000   Number         0  dfix.o ABSOLUTE
    ../fplib/dflt.s                          0x00000000   Number         0  dflt_clz.o ABSOLUTE
    ../fplib/dleqf.s                         0x00000000   Number         0  dleqf.o ABSOLUTE
    ../fplib/dmul.s                          0x00000000   Number         0  dmul.o ABSOLUTE
    ../fplib/dnaninf.s                       0x00000000   Number         0  dnaninf.o ABSOLUTE
    ../fplib/dretinf.s                       0x00000000   Number         0  dretinf.o ABSOLUTE
    ../fplib/drleqf.s                        0x00000000   Number         0  drleqf.o ABSOLUTE
    ../fplib/dsqrt.s                         0x00000000   Number         0  dsqrt_umaal.o ABSOLUTE
    ../fplib/f2d.s                           0x00000000   Number         0  f2d.o ABSOLUTE
    ../fplib/fnaninf.s                       0x00000000   Number         0  fnaninf.o ABSOLUTE
    ../fplib/fpinit.s                        0x00000000   Number         0  fpinit.o ABSOLUTE
    ../fplib/fretinf.s                       0x00000000   Number         0  fretinf.o ABSOLUTE
    ../fplib/retnan.s                        0x00000000   Number         0  retnan.o ABSOLUTE
    ../fplib/scalbn.s                        0x00000000   Number         0  scalbn.o ABSOLUTE
    ../fplib/trapv.s                         0x00000000   Number         0  trapv.o ABSOLUTE
    ../fplib/usenofp.s                       0x00000000   Number         0  usenofp.o ABSOLUTE
    ../mathlib/atan.c                        0x00000000   Number         0  atan_x.o ABSOLUTE
    ../mathlib/atan.c                        0x00000000   Number         0  atan.o ABSOLUTE
    ../mathlib/dunder.c                      0x00000000   Number         0  dunder.o ABSOLUTE
    ../mathlib/fabs.c                        0x00000000   Number         0  fabs.o ABSOLUTE
    ../mathlib/fpclassify.c                  0x00000000   Number         0  fpclassify.o ABSOLUTE
    ../mathlib/poly.c                        0x00000000   Number         0  poly.o ABSOLUTE
    ../mathlib/pow.c                         0x00000000   Number         0  pow.o ABSOLUTE
    ../mathlib/pow.c                         0x00000000   Number         0  pow_x.o ABSOLUTE
    ../mathlib/qnan.c                        0x00000000   Number         0  qnan.o ABSOLUTE
    ../mathlib/rred.c                        0x00000000   Number         0  rred.o ABSOLUTE
    ../mathlib/sqrt.c                        0x00000000   Number         0  sqrt_x.o ABSOLUTE
    ../mathlib/sqrt.c                        0x00000000   Number         0  sqrt.o ABSOLUTE
    ../mathlib/tan.c                         0x00000000   Number         0  tan_x.o ABSOLUTE
    ../mathlib/tan.c                         0x00000000   Number         0  tan.o ABSOLUTE
    ../mathlib/tan_i.c                       0x00000000   Number         0  tan_i.o ABSOLUTE
    ../mathlib/tan_i.c                       0x00000000   Number         0  tan_i_x.o ABSOLUTE
    ..\BALANCE\balance.c                     0x00000000   Number         0  balance.o ABSOLUTE
    ..\BALANCE\robot_select_init.c           0x00000000   Number         0  robot_select_init.o ABSOLUTE
    ..\BALANCE\show.c                        0x00000000   Number         0  show.o ABSOLUTE
    ..\BALANCE\system.c                      0x00000000   Number         0  system.o ABSOLUTE
    ..\CORE\startup_stm32f40_41xxx.s         0x00000000   Number         0  startup_stm32f40_41xxx.o ABSOLUTE
    ..\FWLIB\src\misc.c                      0x00000000   Number         0  misc.o ABSOLUTE
    ..\FWLIB\src\stm32f4xx_adc.c             0x00000000   Number         0  stm32f4xx_adc.o ABSOLUTE
    ..\FWLIB\src\stm32f4xx_can.c             0x00000000   Number         0  stm32f4xx_can.o ABSOLUTE
    ..\FWLIB\src\stm32f4xx_gpio.c            0x00000000   Number         0  stm32f4xx_gpio.o ABSOLUTE
    ..\FWLIB\src\stm32f4xx_pwr.c             0x00000000   Number         0  stm32f4xx_pwr.o ABSOLUTE
    ..\FWLIB\src\stm32f4xx_rcc.c             0x00000000   Number         0  stm32f4xx_rcc.o ABSOLUTE
    ..\FWLIB\src\stm32f4xx_syscfg.c          0x00000000   Number         0  stm32f4xx_syscfg.o ABSOLUTE
    ..\FWLIB\src\stm32f4xx_tim.c             0x00000000   Number         0  stm32f4xx_tim.o ABSOLUTE
    ..\FWLIB\src\stm32f4xx_usart.c           0x00000000   Number         0  stm32f4xx_usart.o ABSOLUTE
    ..\FreeRTOS\croutine.c                   0x00000000   Number         0  croutine.o ABSOLUTE
    ..\FreeRTOS\event_groups.c               0x00000000   Number         0  event_groups.o ABSOLUTE
    ..\FreeRTOS\list.c                       0x00000000   Number         0  list.o ABSOLUTE
    ..\FreeRTOS\portable\MemMang\heap_4.c    0x00000000   Number         0  heap_4.o ABSOLUTE
    ..\FreeRTOS\portable\RVDS\ARM_CM4F\port.c 0x00000000   Number         0  port.o ABSOLUTE
    ..\FreeRTOS\queue.c                      0x00000000   Number         0  queue.o ABSOLUTE
    ..\FreeRTOS\tasks.c                      0x00000000   Number         0  tasks.o ABSOLUTE
    ..\FreeRTOS\timers.c                     0x00000000   Number         0  timers.o ABSOLUTE
    ..\HARDWARE\LED.C                        0x00000000   Number         0  led.o ABSOLUTE
    ..\HARDWARE\MPU6050\I2C.c                0x00000000   Number         0  i2c.o ABSOLUTE
    ..\HARDWARE\MPU6050\MPU6050.c            0x00000000   Number         0  mpu6050.o ABSOLUTE
    ..\HARDWARE\adc.c                        0x00000000   Number         0  adc.o ABSOLUTE
    ..\HARDWARE\can.c                        0x00000000   Number         0  can.o ABSOLUTE
    ..\HARDWARE\encoder.c                    0x00000000   Number         0  encoder.o ABSOLUTE
    ..\HARDWARE\key.c                        0x00000000   Number         0  key.o ABSOLUTE
    ..\HARDWARE\motor.c                      0x00000000   Number         0  motor.o ABSOLUTE
    ..\HARDWARE\oled.c                       0x00000000   Number         0  oled.o ABSOLUTE
    ..\HARDWARE\pstwo.c                      0x00000000   Number         0  pstwo.o ABSOLUTE
    ..\HARDWARE\timer.c                      0x00000000   Number         0  timer.o ABSOLUTE
    ..\HARDWARE\usartx.c                     0x00000000   Number         0  usartx.o ABSOLUTE
    ..\SYSTEM\delay\delay.c                  0x00000000   Number         0  delay.o ABSOLUTE
    ..\SYSTEM\sys\sys.c                      0x00000000   Number         0  sys.o ABSOLUTE
    ..\SYSTEM\usart\usart.c                  0x00000000   Number         0  usart.o ABSOLUTE
    ..\\BALANCE\\balance.c                   0x00000000   Number         0  balance.o ABSOLUTE
    ..\\BALANCE\\robot_select_init.c         0x00000000   Number         0  robot_select_init.o ABSOLUTE
    ..\\BALANCE\\show.c                      0x00000000   Number         0  show.o ABSOLUTE
    ..\\BALANCE\\system.c                    0x00000000   Number         0  system.o ABSOLUTE
    ..\\FWLIB\\src\\misc.c                   0x00000000   Number         0  misc.o ABSOLUTE
    ..\\FWLIB\\src\\stm32f4xx_adc.c          0x00000000   Number         0  stm32f4xx_adc.o ABSOLUTE
    ..\\FWLIB\\src\\stm32f4xx_can.c          0x00000000   Number         0  stm32f4xx_can.o ABSOLUTE
    ..\\FWLIB\\src\\stm32f4xx_gpio.c         0x00000000   Number         0  stm32f4xx_gpio.o ABSOLUTE
    ..\\FWLIB\\src\\stm32f4xx_pwr.c          0x00000000   Number         0  stm32f4xx_pwr.o ABSOLUTE
    ..\\FWLIB\\src\\stm32f4xx_rcc.c          0x00000000   Number         0  stm32f4xx_rcc.o ABSOLUTE
    ..\\FWLIB\\src\\stm32f4xx_syscfg.c       0x00000000   Number         0  stm32f4xx_syscfg.o ABSOLUTE
    ..\\FWLIB\\src\\stm32f4xx_tim.c          0x00000000   Number         0  stm32f4xx_tim.o ABSOLUTE
    ..\\FWLIB\\src\\stm32f4xx_usart.c        0x00000000   Number         0  stm32f4xx_usart.o ABSOLUTE
    ..\\FreeRTOS\\croutine.c                 0x00000000   Number         0  croutine.o ABSOLUTE
    ..\\FreeRTOS\\event_groups.c             0x00000000   Number         0  event_groups.o ABSOLUTE
    ..\\FreeRTOS\\list.c                     0x00000000   Number         0  list.o ABSOLUTE
    ..\\FreeRTOS\\portable\\MemMang\\heap_4.c 0x00000000   Number         0  heap_4.o ABSOLUTE
    ..\\FreeRTOS\\portable\\RVDS\\ARM_CM4F\\port.c 0x00000000   Number         0  port.o ABSOLUTE
    ..\\FreeRTOS\\queue.c                    0x00000000   Number         0  queue.o ABSOLUTE
    ..\\FreeRTOS\\tasks.c                    0x00000000   Number         0  tasks.o ABSOLUTE
    ..\\FreeRTOS\\timers.c                   0x00000000   Number         0  timers.o ABSOLUTE
    ..\\HARDWARE\\LED.C                      0x00000000   Number         0  led.o ABSOLUTE
    ..\\HARDWARE\\MPU6050\\I2C.c             0x00000000   Number         0  i2c.o ABSOLUTE
    ..\\HARDWARE\\MPU6050\\MPU6050.c         0x00000000   Number         0  mpu6050.o ABSOLUTE
    ..\\HARDWARE\\adc.c                      0x00000000   Number         0  adc.o ABSOLUTE
    ..\\HARDWARE\\can.c                      0x00000000   Number         0  can.o ABSOLUTE
    ..\\HARDWARE\\encoder.c                  0x00000000   Number         0  encoder.o ABSOLUTE
    ..\\HARDWARE\\key.c                      0x00000000   Number         0  key.o ABSOLUTE
    ..\\HARDWARE\\motor.c                    0x00000000   Number         0  motor.o ABSOLUTE
    ..\\HARDWARE\\oled.c                     0x00000000   Number         0  oled.o ABSOLUTE
    ..\\HARDWARE\\pstwo.c                    0x00000000   Number         0  pstwo.o ABSOLUTE
    ..\\HARDWARE\\timer.c                    0x00000000   Number         0  timer.o ABSOLUTE
    ..\\HARDWARE\\usartx.c                   0x00000000   Number         0  usartx.o ABSOLUTE
    ..\\SYSTEM\\delay\\delay.c               0x00000000   Number         0  delay.o ABSOLUTE
    ..\\SYSTEM\\sys\\sys.c                   0x00000000   Number         0  sys.o ABSOLUTE
    ..\\SYSTEM\\usart\\usart.c               0x00000000   Number         0  usart.o ABSOLUTE
    dc.s                                     0x00000000   Number         0  dc.o ABSOLUTE
    main.c                                   0x00000000   Number         0  main.o ABSOLUTE
    main.c                                   0x00000000   Number         0  main.o ABSOLUTE
    stm32f4xx_it.c                           0x00000000   Number         0  stm32f4xx_it.o ABSOLUTE
    stm32f4xx_it.c                           0x00000000   Number         0  stm32f4xx_it.o ABSOLUTE
    system_stm32f4xx.c                       0x00000000   Number         0  system_stm32f4xx.o ABSOLUTE
    system_stm32f4xx.c                       0x00000000   Number         0  system_stm32f4xx.o ABSOLUTE
    RESET                                    0x08000000   Section      392  startup_stm32f40_41xxx.o(RESET)
    !!!main                                  0x08000188   Section        8  __main.o(!!!main)
    !!!scatter                               0x08000190   Section       52  __scatter.o(!!!scatter)
    !!dczerorl2                              0x080001c4   Section       90  __dczerorl2.o(!!dczerorl2)
    !!handler_zi                             0x08000220   Section       28  __scatter_zi.o(!!handler_zi)
    .ARM.Collect$$_printf_percent$$00000000  0x0800023c   Section        0  _printf_percent.o(.ARM.Collect$$_printf_percent$$00000000)
    .ARM.Collect$$_printf_percent$$00000009  0x0800023c   Section        6  _printf_d.o(.ARM.Collect$$_printf_percent$$00000009)
    .ARM.Collect$$_printf_percent$$00000014  0x08000242   Section        6  _printf_s.o(.ARM.Collect$$_printf_percent$$00000014)
    .ARM.Collect$$_printf_percent$$00000017  0x08000248   Section        4  _printf_percent_end.o(.ARM.Collect$$_printf_percent$$00000017)
    .ARM.Collect$$libinit$$00000000          0x0800024c   Section        2  libinit.o(.ARM.Collect$$libinit$$00000000)
    .ARM.Collect$$libinit$$00000001          0x0800024e   Section        4  libinit2.o(.ARM.Collect$$libinit$$00000001)
    .ARM.Collect$$libinit$$00000004          0x08000252   Section        0  libinit2.o(.ARM.Collect$$libinit$$00000004)
    .ARM.Collect$$libinit$$0000000A          0x08000252   Section        0  libinit2.o(.ARM.Collect$$libinit$$0000000A)
    .ARM.Collect$$libinit$$0000000C          0x08000252   Section        0  libinit2.o(.ARM.Collect$$libinit$$0000000C)
    .ARM.Collect$$libinit$$0000000E          0x08000252   Section        0  libinit2.o(.ARM.Collect$$libinit$$0000000E)
    .ARM.Collect$$libinit$$00000011          0x08000252   Section        0  libinit2.o(.ARM.Collect$$libinit$$00000011)
    .ARM.Collect$$libinit$$00000013          0x08000252   Section        0  libinit2.o(.ARM.Collect$$libinit$$00000013)
    .ARM.Collect$$libinit$$00000015          0x08000252   Section        0  libinit2.o(.ARM.Collect$$libinit$$00000015)
    .ARM.Collect$$libinit$$00000017          0x08000252   Section        0  libinit2.o(.ARM.Collect$$libinit$$00000017)
    .ARM.Collect$$libinit$$00000019          0x08000252   Section        0  libinit2.o(.ARM.Collect$$libinit$$00000019)
    .ARM.Collect$$libinit$$0000001B          0x08000252   Section        0  libinit2.o(.ARM.Collect$$libinit$$0000001B)
    .ARM.Collect$$libinit$$0000001D          0x08000252   Section        0  libinit2.o(.ARM.Collect$$libinit$$0000001D)
    .ARM.Collect$$libinit$$0000001F          0x08000252   Section        0  libinit2.o(.ARM.Collect$$libinit$$0000001F)
    .ARM.Collect$$libinit$$00000021          0x08000252   Section        0  libinit2.o(.ARM.Collect$$libinit$$00000021)
    .ARM.Collect$$libinit$$00000023          0x08000252   Section        0  libinit2.o(.ARM.Collect$$libinit$$00000023)
    .ARM.Collect$$libinit$$00000025          0x08000252   Section        0  libinit2.o(.ARM.Collect$$libinit$$00000025)
    .ARM.Collect$$libinit$$0000002C          0x08000252   Section        0  libinit2.o(.ARM.Collect$$libinit$$0000002C)
    .ARM.Collect$$libinit$$0000002E          0x08000252   Section        0  libinit2.o(.ARM.Collect$$libinit$$0000002E)
    .ARM.Collect$$libinit$$00000030          0x08000252   Section        0  libinit2.o(.ARM.Collect$$libinit$$00000030)
    .ARM.Collect$$libinit$$00000032          0x08000252   Section        0  libinit2.o(.ARM.Collect$$libinit$$00000032)
    .ARM.Collect$$libinit$$00000033          0x08000252   Section        2  libinit2.o(.ARM.Collect$$libinit$$00000033)
    .ARM.Collect$$libshutdown$$00000000      0x08000254   Section        2  libshutdown.o(.ARM.Collect$$libshutdown$$00000000)
    .ARM.Collect$$libshutdown$$00000002      0x08000256   Section        0  libshutdown2.o(.ARM.Collect$$libshutdown$$00000002)
    .ARM.Collect$$libshutdown$$00000004      0x08000256   Section        0  libshutdown2.o(.ARM.Collect$$libshutdown$$00000004)
    .ARM.Collect$$libshutdown$$00000006      0x08000256   Section        0  libshutdown2.o(.ARM.Collect$$libshutdown$$00000006)
    .ARM.Collect$$libshutdown$$00000009      0x08000256   Section        0  libshutdown2.o(.ARM.Collect$$libshutdown$$00000009)
    .ARM.Collect$$libshutdown$$0000000C      0x08000256   Section        0  libshutdown2.o(.ARM.Collect$$libshutdown$$0000000C)
    .ARM.Collect$$libshutdown$$0000000E      0x08000256   Section        0  libshutdown2.o(.ARM.Collect$$libshutdown$$0000000E)
    .ARM.Collect$$libshutdown$$00000011      0x08000256   Section        0  libshutdown2.o(.ARM.Collect$$libshutdown$$00000011)
    .ARM.Collect$$libshutdown$$00000012      0x08000256   Section        2  libshutdown2.o(.ARM.Collect$$libshutdown$$00000012)
    .ARM.Collect$$rtentry$$00000000          0x08000258   Section        0  __rtentry.o(.ARM.Collect$$rtentry$$00000000)
    .ARM.Collect$$rtentry$$00000002          0x08000258   Section        0  __rtentry2.o(.ARM.Collect$$rtentry$$00000002)
    .ARM.Collect$$rtentry$$00000004          0x08000258   Section        6  __rtentry4.o(.ARM.Collect$$rtentry$$00000004)
    .ARM.Collect$$rtentry$$00000009          0x0800025e   Section        0  __rtentry2.o(.ARM.Collect$$rtentry$$00000009)
    .ARM.Collect$$rtentry$$0000000A          0x0800025e   Section        4  __rtentry2.o(.ARM.Collect$$rtentry$$0000000A)
    .ARM.Collect$$rtentry$$0000000C          0x08000262   Section        0  __rtentry2.o(.ARM.Collect$$rtentry$$0000000C)
    .ARM.Collect$$rtentry$$0000000D          0x08000262   Section        8  __rtentry2.o(.ARM.Collect$$rtentry$$0000000D)
    .ARM.Collect$$rtexit$$00000000           0x0800026a   Section        2  rtexit.o(.ARM.Collect$$rtexit$$00000000)
    .ARM.Collect$$rtexit$$00000002           0x0800026c   Section        0  rtexit2.o(.ARM.Collect$$rtexit$$00000002)
    .ARM.Collect$$rtexit$$00000003           0x0800026c   Section        4  rtexit2.o(.ARM.Collect$$rtexit$$00000003)
    .ARM.Collect$$rtexit$$00000004           0x08000270   Section        6  rtexit2.o(.ARM.Collect$$rtexit$$00000004)
    .emb_text                                0x08000278   Section      182  port.o(.emb_text)
    $v0                                      0x08000278   Number         0  port.o(.emb_text)
    .text                                    0x08000330   Section       64  startup_stm32f40_41xxx.o(.text)
    $v0                                      0x08000330   Number         0  startup_stm32f40_41xxx.o(.text)
    .text                                    0x08000370   Section        2  use_no_semi_2.o(.text)
    .text                                    0x08000374   Section        0  noretval__2printf.o(.text)
    .text                                    0x0800038c   Section        0  __printf.o(.text)
    .text                                    0x080003f4   Section        0  _printf_str.o(.text)
    .text                                    0x08000448   Section        0  _printf_dec.o(.text)
    .text                                    0x080004c0   Section      138  rt_memcpy_v6.o(.text)
    .text                                    0x0800054a   Section       16  aeabi_memset.o(.text)
    .text                                    0x0800055a   Section       68  rt_memclr.o(.text)
    .text                                    0x0800059e   Section        0  heapauxi.o(.text)
    .text                                    0x080005a4   Section        2  use_no_semi.o(.text)
    .text                                    0x080005a6   Section        0  _rserrno.o(.text)
    .text                                    0x080005bc   Section        0  _printf_intcommon.o(.text)
    .text                                    0x08000670   Section        0  _printf_char_common.o(.text)
    _printf_input_char                       0x08000671   Thumb Code    10  _printf_char_common.o(.text)
    .text                                    0x080006a0   Section        0  _printf_char.o(.text)
    .text                                    0x080006cc   Section        0  _printf_char_file.o(.text)
    .text                                    0x080006f0   Section      100  rt_memcpy_w.o(.text)
    .text                                    0x08000754   Section       78  rt_memclr_w.o(.text)
    .text                                    0x080007a4   Section        8  rt_errno_addr_intlibspace.o(.text)
    .text                                    0x080007ac   Section        0  ferror.o(.text)
    .text                                    0x080007b4   Section        8  libspace.o(.text)
    .text                                    0x080007bc   Section       74  sys_stackheap_outer.o(.text)
    .text                                    0x08000806   Section        0  exit.o(.text)
    i.ADC_Cmd                                0x08000818   Section        0  stm32f4xx_adc.o(i.ADC_Cmd)
    i.ADC_CommonInit                         0x0800082c   Section        0  stm32f4xx_adc.o(i.ADC_CommonInit)
    i.ADC_GetConversionValue                 0x08000858   Section        0  stm32f4xx_adc.o(i.ADC_GetConversionValue)
    i.ADC_GetFlagStatus                      0x0800085e   Section        0  stm32f4xx_adc.o(i.ADC_GetFlagStatus)
    i.ADC_Init                               0x0800086c   Section        0  stm32f4xx_adc.o(i.ADC_Init)
    i.ADC_RegularChannelConfig               0x080008b8   Section        0  stm32f4xx_adc.o(i.ADC_RegularChannelConfig)
    i.ADC_SoftwareStartConv                  0x0800092c   Section        0  stm32f4xx_adc.o(i.ADC_SoftwareStartConv)
    i.APP_Show                               0x08000938   Section        0  show.o(i.APP_Show)
    i.Adc_Init                               0x08000a70   Section        0  adc.o(i.Adc_Init)
    i.Adc_POWER_Init                         0x08000af0   Section        0  adc.o(i.Adc_POWER_Init)
    i.Balance_task                           0x08000b70   Section        0  balance.o(i.Balance_task)
    i.BusFault_Handler                       0x08000d68   Section        0  stm32f4xx_it.o(i.BusFault_Handler)
    i.Buzzer_Init                            0x08000d6c   Section        0  led.o(i.Buzzer_Init)
    i.CAN1_Mode_Init                         0x08000da0   Section        0  can.o(i.CAN1_Mode_Init)
    i.CAN1_RX0_IRQHandler                    0x08000f38   Section        0  can.o(i.CAN1_RX0_IRQHandler)
    i.CAN1_Rx_Msg                            0x08001030   Section        0  can.o(i.CAN1_Rx_Msg)
    i.CAN1_Send_Num                          0x080010c4   Section        0  can.o(i.CAN1_Send_Num)
    i.CAN1_Tx_Msg                            0x080010fc   Section        0  can.o(i.CAN1_Tx_Msg)
    i.CAN1_Tx_Staus                          0x080011bc   Section        0  can.o(i.CAN1_Tx_Staus)
    i.CAN_ITConfig                           0x08001220   Section        0  stm32f4xx_can.o(i.CAN_ITConfig)
    i.CAN_SEND                               0x08001230   Section        0  usartx.o(i.CAN_SEND)
    i.Check_Sum                              0x08001288   Section        0  usartx.o(i.Check_Sum)
    i.DebugMon_Handler                       0x080012c0   Section        0  stm32f4xx_it.o(i.DebugMon_Handler)
    i.Drive_Motor                            0x080012c4   Section        0  balance.o(i.Drive_Motor)
    i.Enable_Pin                             0x0800177c   Section        0  motor.o(i.Enable_Pin)
    i.Encoder_Init_TIM2                      0x080017ac   Section        0  encoder.o(i.Encoder_Init_TIM2)
    i.Encoder_Init_TIM3                      0x08001888   Section        0  encoder.o(i.Encoder_Init_TIM3)
    i.Encoder_Init_TIM4                      0x08001944   Section        0  encoder.o(i.Encoder_Init_TIM4)
    i.Encoder_Init_TIM5                      0x08001a00   Section        0  encoder.o(i.Encoder_Init_TIM5)
    i.GPIO_Init                              0x08001abc   Section        0  stm32f4xx_gpio.o(i.GPIO_Init)
    i.GPIO_PinAFConfig                       0x08001b34   Section        0  stm32f4xx_gpio.o(i.GPIO_PinAFConfig)
    i.GPIO_SetBits                           0x08001b54   Section        0  stm32f4xx_gpio.o(i.GPIO_SetBits)
    i.Get_Adc                                0x08001b58   Section        0  adc.o(i.Get_Adc)
    i.Get_Adc2                               0x08001b88   Section        0  adc.o(i.Get_Adc2)
    i.Get_RC                                 0x08001bb8   Section        0  balance.o(i.Get_RC)
    i.Get_Velocity_Form_Encoder              0x08001da0   Section        0  balance.o(i.Get_Velocity_Form_Encoder)
    i.Get_adc_Average                        0x08001eb8   Section        0  adc.o(i.Get_adc_Average)
    i.Get_battery_volt                       0x08001ee8   Section        0  adc.o(i.Get_battery_volt)
    i.HardFault_Handler                      0x08001f50   Section        0  stm32f4xx_it.o(i.HardFault_Handler)
    i.I2C_Ack                                0x08001f54   Section        0  i2c.o(i.I2C_Ack)
    i.I2C_GPIOInit                           0x08001f94   Section        0  i2c.o(i.I2C_GPIOInit)
    i.I2C_NAck                               0x08001fd8   Section        0  i2c.o(i.I2C_NAck)
    i.I2C_ReadByte                           0x08002018   Section        0  i2c.o(i.I2C_ReadByte)
    i.I2C_ReadOneByte                        0x08002088   Section        0  i2c.o(i.I2C_ReadOneByte)
    i.I2C_Start                              0x080020c8   Section        0  i2c.o(i.I2C_Start)
    i.I2C_Stop                               0x08002118   Section        0  i2c.o(i.I2C_Stop)
    i.I2C_WaiteForAck                        0x08002158   Section        0  i2c.o(i.I2C_WaiteForAck)
    i.I2C_WriteBits                          0x080021ac   Section        0  i2c.o(i.I2C_WriteBits)
    i.I2C_WriteByte                          0x080021f8   Section        0  i2c.o(i.I2C_WriteByte)
    i.I2C_WriteOneByte                       0x08002258   Section        0  i2c.o(i.I2C_WriteOneByte)
    i.Incremental_PI_A                       0x0800228c   Section        0  balance.o(i.Incremental_PI_A)
    i.Incremental_PI_B                       0x08002308   Section        0  balance.o(i.Incremental_PI_B)
    i.Incremental_PI_C                       0x08002384   Section        0  balance.o(i.Incremental_PI_C)
    i.Incremental_PI_D                       0x08002400   Section        0  balance.o(i.Incremental_PI_D)
    i.KEY_Init                               0x0800247c   Section        0  key.o(i.KEY_Init)
    i.Key                                    0x080024a8   Section        0  balance.o(i.Key)
    i.LED_Init                               0x080024e0   Section        0  led.o(i.LED_Init)
    i.Limit_Pwm                              0x08002520   Section        0  balance.o(i.Limit_Pwm)
    i.MPU6050_Set_LPF                        0x080025b0   Section        0  mpu6050.o(i.MPU6050_Set_LPF)
    i.MPU6050_Set_Rate                       0x080025e2   Section        0  mpu6050.o(i.MPU6050_Set_Rate)
    i.MPU6050_initialize                     0x08002612   Section        0  mpu6050.o(i.MPU6050_initialize)
    i.MPU6050_setFullScaleAccelRange         0x08002696   Section        0  mpu6050.o(i.MPU6050_setFullScaleAccelRange)
    i.MPU6050_setFullScaleGyroRange          0x080026a8   Section        0  mpu6050.o(i.MPU6050_setFullScaleGyroRange)
    i.MPU6050_task                           0x080026bc   Section        0  mpu6050.o(i.MPU6050_task)
    i.MPU_Get_Accelscope                     0x080026fc   Section        0  mpu6050.o(i.MPU_Get_Accelscope)
    i.MPU_Get_Gyroscope                      0x08002784   Section        0  mpu6050.o(i.MPU_Get_Gyroscope)
    i.MemManage_Handler                      0x08002828   Section        0  stm32f4xx_it.o(i.MemManage_Handler)
    i.NMI_Handler                            0x0800282a   Section        0  stm32f4xx_it.o(i.NMI_Handler)
    i.NVIC_Init                              0x0800282c   Section        0  misc.o(i.NVIC_Init)
    i.NVIC_PriorityGroupConfig               0x08002890   Section        0  misc.o(i.NVIC_PriorityGroupConfig)
    i.OLED_Clear                             0x080028a4   Section        0  oled.o(i.OLED_Clear)
    i.OLED_DrawPoint                         0x080028d0   Section        0  oled.o(i.OLED_DrawPoint)
    i.OLED_Init                              0x0800290c   Section        0  oled.o(i.OLED_Init)
    i.OLED_Refresh_Gram                      0x08002a3c   Section        0  oled.o(i.OLED_Refresh_Gram)
    i.OLED_ShowChar                          0x08002a84   Section        0  oled.o(i.OLED_ShowChar)
    i.OLED_ShowNumber                        0x08002b08   Section        0  oled.o(i.OLED_ShowNumber)
    i.OLED_ShowString                        0x08002b80   Section        0  oled.o(i.OLED_ShowString)
    i.OLED_WR_Byte                           0x08002bc0   Section        0  oled.o(i.OLED_WR_Byte)
    i.PS2_ClearData                          0x08002c04   Section        0  pstwo.o(i.PS2_ClearData)
    i.PS2_Cmd                                0x08002c1c   Section        0  pstwo.o(i.PS2_Cmd)
    i.PS2_DataKey                            0x08002ca0   Section        0  pstwo.o(i.PS2_DataKey)
    i.PS2_EnterConfing                       0x08002ce0   Section        0  pstwo.o(i.PS2_EnterConfing)
    i.PS2_ExitConfing                        0x08002d3c   Section        0  pstwo.o(i.PS2_ExitConfing)
    i.PS2_Init                               0x08002d98   Section        0  pstwo.o(i.PS2_Init)
    i.PS2_Read                               0x08002dec   Section        0  pstwo.o(i.PS2_Read)
    i.PS2_ReadData                           0x08002ed0   Section        0  pstwo.o(i.PS2_ReadData)
    i.PS2_SetInit                            0x08002f78   Section        0  pstwo.o(i.PS2_SetInit)
    i.PS2_ShortPoll                          0x08002f98   Section        0  pstwo.o(i.PS2_ShortPoll)
    i.PS2_TurnOnAnalogMode                   0x08002fdc   Section        0  pstwo.o(i.PS2_TurnOnAnalogMode)
    i.PS2_control                            0x08003034   Section        0  balance.o(i.PS2_control)
    i.PWR_BackupAccessCmd                    0x080031d0   Section        0  stm32f4xx_pwr.o(i.PWR_BackupAccessCmd)
    i.RCC_AHB1PeriphClockCmd                 0x080031dc   Section        0  stm32f4xx_rcc.o(i.RCC_AHB1PeriphClockCmd)
    i.RCC_APB1PeriphClockCmd                 0x080031f4   Section        0  stm32f4xx_rcc.o(i.RCC_APB1PeriphClockCmd)
    i.RCC_APB2PeriphClockCmd                 0x0800320c   Section        0  stm32f4xx_rcc.o(i.RCC_APB2PeriphClockCmd)
    i.RCC_APB2PeriphResetCmd                 0x08003224   Section        0  stm32f4xx_rcc.o(i.RCC_APB2PeriphResetCmd)
    i.RCC_GetClocksFreq                      0x0800323c   Section        0  stm32f4xx_rcc.o(i.RCC_GetClocksFreq)
    i.RCC_LSEConfig                          0x080032cc   Section        0  stm32f4xx_rcc.o(i.RCC_LSEConfig)
    i.Read_Encoder                           0x080032e8   Section        0  encoder.o(i.Read_Encoder)
    i.Remote_Control                         0x08003328   Section        0  balance.o(i.Remote_Control)
    i.Robot_Init                             0x080034f0   Section        0  robot_select_init.o(i.Robot_Init)
    i.Robot_Select                           0x08003588   Section        0  robot_select_init.o(i.Robot_Select)
    i.SetSysClock                            0x080036e0   Section        0  system_stm32f4xx.o(i.SetSysClock)
    SetSysClock                              0x080036e1   Thumb Code   162  system_stm32f4xx.o(i.SetSysClock)
    i.Set_Pwm                                0x08003794   Section        0  balance.o(i.Set_Pwm)
    i.Smooth_control                         0x08003808   Section        0  balance.o(i.Smooth_control)
    i.SysTick_CLKSourceConfig                0x08003948   Section        0  misc.o(i.SysTick_CLKSourceConfig)
    i.SysTick_Handler                        0x08003960   Section        0  delay.o(i.SysTick_Handler)
    i.SystemInit                             0x08003974   Section        0  system_stm32f4xx.o(i.SystemInit)
    i.TI1_Config                             0x080039d0   Section        0  stm32f4xx_tim.o(i.TI1_Config)
    TI1_Config                               0x080039d1   Thumb Code    46  stm32f4xx_tim.o(i.TI1_Config)
    i.TI2_Config                             0x080039fe   Section        0  stm32f4xx_tim.o(i.TI2_Config)
    TI2_Config                               0x080039ff   Thumb Code    54  stm32f4xx_tim.o(i.TI2_Config)
    i.TIM10_PWM_Init                         0x08003a34   Section        0  motor.o(i.TIM10_PWM_Init)
    i.TIM11_PWM_Init                         0x08003ad4   Section        0  motor.o(i.TIM11_PWM_Init)
    i.TIM12_SERVO_Init                       0x08003b7c   Section        0  timer.o(i.TIM12_SERVO_Init)
    i.TIM1_PWM_Init                          0x08003c4c   Section        0  motor.o(i.TIM1_PWM_Init)
    i.TIM2_IRQHandler                        0x08003d44   Section        0  encoder.o(i.TIM2_IRQHandler)
    i.TIM3_IRQHandler                        0x08003d54   Section        0  encoder.o(i.TIM3_IRQHandler)
    i.TIM4_IRQHandler                        0x08003d68   Section        0  encoder.o(i.TIM4_IRQHandler)
    i.TIM5_IRQHandler                        0x08003d7c   Section        0  encoder.o(i.TIM5_IRQHandler)
    i.TIM8_BRK_TIM12_IRQHandler              0x08003d90   Section        0  encoder.o(i.TIM8_BRK_TIM12_IRQHandler)
    i.TIM8_CC_IRQHandler                     0x08003da4   Section        0  timer.o(i.TIM8_CC_IRQHandler)
    i.TIM8_Cap_Init                          0x08004008   Section        0  timer.o(i.TIM8_Cap_Init)
    i.TIM8_UP_TIM13_IRQHandler               0x08004144   Section        0  timer.o(i.TIM8_UP_TIM13_IRQHandler)
    i.TIM9_PWM_Init                          0x08004154   Section        0  motor.o(i.TIM9_PWM_Init)
    i.TIM_ARRPreloadConfig                   0x0800420c   Section        0  stm32f4xx_tim.o(i.TIM_ARRPreloadConfig)
    i.TIM_ClearFlag                          0x08004220   Section        0  stm32f4xx_tim.o(i.TIM_ClearFlag)
    i.TIM_ClearITPendingBit                  0x08004226   Section        0  stm32f4xx_tim.o(i.TIM_ClearITPendingBit)
    i.TIM_Cmd                                0x0800422c   Section        0  stm32f4xx_tim.o(i.TIM_Cmd)
    i.TIM_CtrlPWMOutputs                     0x08004240   Section        0  stm32f4xx_tim.o(i.TIM_CtrlPWMOutputs)
    i.TIM_EncoderInterfaceConfig             0x08004256   Section        0  stm32f4xx_tim.o(i.TIM_EncoderInterfaceConfig)
    i.TIM_GetCapture1                        0x08004288   Section        0  stm32f4xx_tim.o(i.TIM_GetCapture1)
    i.TIM_GetCapture2                        0x0800428c   Section        0  stm32f4xx_tim.o(i.TIM_GetCapture2)
    i.TIM_GetCapture3                        0x08004290   Section        0  stm32f4xx_tim.o(i.TIM_GetCapture3)
    i.TIM_GetCapture4                        0x08004294   Section        0  stm32f4xx_tim.o(i.TIM_GetCapture4)
    i.TIM_GetITStatus                        0x08004298   Section        0  stm32f4xx_tim.o(i.TIM_GetITStatus)
    i.TIM_ICInit                             0x080042b0   Section        0  stm32f4xx_tim.o(i.TIM_ICInit)
    i.TIM_ICStructInit                       0x0800435c   Section        0  stm32f4xx_tim.o(i.TIM_ICStructInit)
    i.TIM_ITConfig                           0x0800436c   Section        0  stm32f4xx_tim.o(i.TIM_ITConfig)
    i.TIM_OC1Init                            0x0800437c   Section        0  stm32f4xx_tim.o(i.TIM_OC1Init)
    i.TIM_OC1PolarityConfig                  0x080043dc   Section        0  stm32f4xx_tim.o(i.TIM_OC1PolarityConfig)
    i.TIM_OC1PreloadConfig                   0x080043e8   Section        0  stm32f4xx_tim.o(i.TIM_OC1PreloadConfig)
    i.TIM_OC2Init                            0x080043f4   Section        0  stm32f4xx_tim.o(i.TIM_OC2Init)
    i.TIM_OC2PolarityConfig                  0x08004474   Section        0  stm32f4xx_tim.o(i.TIM_OC2PolarityConfig)
    i.TIM_OC2PreloadConfig                   0x08004488   Section        0  stm32f4xx_tim.o(i.TIM_OC2PreloadConfig)
    i.TIM_OC3Init                            0x0800449c   Section        0  stm32f4xx_tim.o(i.TIM_OC3Init)
    i.TIM_OC3PolarityConfig                  0x08004518   Section        0  stm32f4xx_tim.o(i.TIM_OC3PolarityConfig)
    i.TIM_OC3PreloadConfig                   0x0800452c   Section        0  stm32f4xx_tim.o(i.TIM_OC3PreloadConfig)
    i.TIM_OC4Init                            0x08004538   Section        0  stm32f4xx_tim.o(i.TIM_OC4Init)
    i.TIM_OC4PolarityConfig                  0x08004598   Section        0  stm32f4xx_tim.o(i.TIM_OC4PolarityConfig)
    i.TIM_OC4PreloadConfig                   0x080045ac   Section        0  stm32f4xx_tim.o(i.TIM_OC4PreloadConfig)
    i.TIM_SetCounter                         0x080045c0   Section        0  stm32f4xx_tim.o(i.TIM_SetCounter)
    i.TIM_SetIC1Prescaler                    0x080045c4   Section        0  stm32f4xx_tim.o(i.TIM_SetIC1Prescaler)
    i.TIM_SetIC2Prescaler                    0x080045d4   Section        0  stm32f4xx_tim.o(i.TIM_SetIC2Prescaler)
    i.TIM_SetIC3Prescaler                    0x080045ec   Section        0  stm32f4xx_tim.o(i.TIM_SetIC3Prescaler)
    i.TIM_SetIC4Prescaler                    0x080045fc   Section        0  stm32f4xx_tim.o(i.TIM_SetIC4Prescaler)
    i.TIM_TimeBaseInit                       0x08004614   Section        0  stm32f4xx_tim.o(i.TIM_TimeBaseInit)
    i.TIM_TimeBaseStructInit                 0x08004690   Section        0  stm32f4xx_tim.o(i.TIM_TimeBaseStructInit)
    i.Turn_Off                               0x080046a4   Section        0  balance.o(i.Turn_Off)
    i.UART5_IRQHandler                       0x080046f4   Section        0  usartx.o(i.UART5_IRQHandler)
    i.USART1_IRQHandler                      0x080047ec   Section        0  usartx.o(i.USART1_IRQHandler)
    i.USART1_SEND                            0x080048f4   Section        0  usartx.o(i.USART1_SEND)
    i.USART2_IRQHandler                      0x08004910   Section        0  usartx.o(i.USART2_IRQHandler)
    i.USART3_IRQHandler                      0x08004b44   Section        0  usartx.o(i.USART3_IRQHandler)
    i.USART3_SEND                            0x08004c44   Section        0  usartx.o(i.USART3_SEND)
    i.USART5_SEND                            0x08004c60   Section        0  usartx.o(i.USART5_SEND)
    i.USART_Cmd                              0x08004c7c   Section        0  stm32f4xx_usart.o(i.USART_Cmd)
    i.USART_GetITStatus                      0x08004c90   Section        0  stm32f4xx_usart.o(i.USART_GetITStatus)
    i.USART_ITConfig                         0x08004cce   Section        0  stm32f4xx_usart.o(i.USART_ITConfig)
    i.USART_Init                             0x08004d00   Section        0  stm32f4xx_usart.o(i.USART_Init)
    i.USART_ReceiveData                      0x08004dac   Section        0  stm32f4xx_usart.o(i.USART_ReceiveData)
    i.UsageFault_Handler                     0x08004db4   Section        0  stm32f4xx_it.o(i.UsageFault_Handler)
    i.Vz_to_Akm_Angle                        0x08004db8   Section        0  usartx.o(i.Vz_to_Akm_Angle)
    i.XYZ_Target_Speed_transition            0x08004e64   Section        0  usartx.o(i.XYZ_Target_Speed_transition)
    i.__ARM_fpclassify                       0x08004eb8   Section        0  fpclassify.o(i.__ARM_fpclassify)
    i.__hardfp_atan                          0x08004ee8   Section        0  atan.o(i.__hardfp_atan)
    i.__hardfp_pow                           0x080051c0   Section        0  pow.o(i.__hardfp_pow)
    i.__hardfp_sqrt                          0x08005e10   Section        0  sqrt.o(i.__hardfp_sqrt)
    i.__hardfp_tan                           0x08005e90   Section        0  tan.o(i.__hardfp_tan)
    i.__ieee754_rem_pio2                     0x08005f10   Section        0  rred.o(i.__ieee754_rem_pio2)
    i.__kernel_poly                          0x08006348   Section        0  poly.o(i.__kernel_poly)
    i.__kernel_tan                           0x08006440   Section        0  tan_i.o(i.__kernel_tan)
    i.__mathlib_dbl_divzero                  0x08006790   Section        0  dunder.o(i.__mathlib_dbl_divzero)
    i.__mathlib_dbl_infnan                   0x080067c0   Section        0  dunder.o(i.__mathlib_dbl_infnan)
    i.__mathlib_dbl_infnan2                  0x080067d4   Section        0  dunder.o(i.__mathlib_dbl_infnan2)
    i.__mathlib_dbl_invalid                  0x080067e8   Section        0  dunder.o(i.__mathlib_dbl_invalid)
    i.__mathlib_dbl_overflow                 0x08006808   Section        0  dunder.o(i.__mathlib_dbl_overflow)
    i.__mathlib_dbl_underflow                0x08006828   Section        0  dunder.o(i.__mathlib_dbl_underflow)
    i._sys_exit                              0x08006848   Section        0  usart.o(i._sys_exit)
    i.click_N_Double_MPU6050                 0x0800684c   Section        0  key.o(i.click_N_Double_MPU6050)
    i.data_task                              0x080068d8   Section        0  usartx.o(i.data_task)
    i.data_transition                        0x08006900   Section        0  usartx.o(i.data_transition)
    i.delay_init                             0x08006b9c   Section        0  delay.o(i.delay_init)
    i.delay_ms                               0x08006bd4   Section        0  delay.o(i.delay_ms)
    i.delay_us                               0x08006c0c   Section        0  delay.o(i.delay_us)
    i.fabs                                   0x08006c40   Section        0  fabs.o(i.fabs)
    i.float_abs                              0x08006c58   Section        0  balance.o(i.float_abs)
    i.fputc                                  0x08006c68   Section        0  usart.o(i.fputc)
    i.getSysTickCnt                          0x08006c80   Section        0  delay.o(i.getSysTickCnt)
    i.led_task                               0x08006c9c   Section        0  led.o(i.led_task)
    i.main                                   0x08006cbc   Section        0  main.o(i.main)
    i.oled_pow                               0x08006cf4   Section        0  oled.o(i.oled_pow)
    i.oled_show                              0x08006d04   Section        0  show.o(i.oled_show)
    i.prvAddCurrentTaskToDelayedList         0x08007588   Section        0  tasks.o(i.prvAddCurrentTaskToDelayedList)
    prvAddCurrentTaskToDelayedList           0x08007589   Thumb Code   102  tasks.o(i.prvAddCurrentTaskToDelayedList)
    i.prvAddNewTaskToReadyList               0x080075f8   Section        0  tasks.o(i.prvAddNewTaskToReadyList)
    prvAddNewTaskToReadyList                 0x080075f9   Thumb Code   192  tasks.o(i.prvAddNewTaskToReadyList)
    i.prvCheckForValidListAndQueue           0x080076c8   Section        0  timers.o(i.prvCheckForValidListAndQueue)
    prvCheckForValidListAndQueue             0x080076c9   Thumb Code    62  timers.o(i.prvCheckForValidListAndQueue)
    i.prvCheckTasksWaitingTermination        0x08007718   Section        0  tasks.o(i.prvCheckTasksWaitingTermination)
    prvCheckTasksWaitingTermination          0x08007719   Thumb Code    74  tasks.o(i.prvCheckTasksWaitingTermination)
    i.prvCopyDataFromQueue                   0x0800776c   Section        0  queue.o(i.prvCopyDataFromQueue)
    prvCopyDataFromQueue                     0x0800776d   Thumb Code    38  queue.o(i.prvCopyDataFromQueue)
    i.prvCopyDataToQueue                     0x08007792   Section        0  queue.o(i.prvCopyDataToQueue)
    prvCopyDataToQueue                       0x08007793   Thumb Code   108  queue.o(i.prvCopyDataToQueue)
    i.prvDeleteTCB                           0x080077fe   Section        0  tasks.o(i.prvDeleteTCB)
    prvDeleteTCB                             0x080077ff   Thumb Code    20  tasks.o(i.prvDeleteTCB)
    i.prvHeapInit                            0x08007814   Section        0  heap_4.o(i.prvHeapInit)
    prvHeapInit                              0x08007815   Thumb Code    66  heap_4.o(i.prvHeapInit)
    i.prvIdleTask                            0x08007860   Section        0  tasks.o(i.prvIdleTask)
    prvIdleTask                              0x08007861   Thumb Code    30  tasks.o(i.prvIdleTask)
    i.prvInitialiseNewTask                   0x08007888   Section        0  tasks.o(i.prvInitialiseNewTask)
    prvInitialiseNewTask                     0x08007889   Thumb Code   154  tasks.o(i.prvInitialiseNewTask)
    i.prvInsertBlockIntoFreeList             0x08007948   Section        0  heap_4.o(i.prvInsertBlockIntoFreeList)
    prvInsertBlockIntoFreeList               0x08007949   Thumb Code    72  heap_4.o(i.prvInsertBlockIntoFreeList)
    i.prvInsertTimerInActiveList             0x08007994   Section        0  timers.o(i.prvInsertTimerInActiveList)
    prvInsertTimerInActiveList               0x08007995   Thumb Code    52  timers.o(i.prvInsertTimerInActiveList)
    i.prvIsQueueEmpty                        0x080079cc   Section        0  queue.o(i.prvIsQueueEmpty)
    prvIsQueueEmpty                          0x080079cd   Thumb Code    26  queue.o(i.prvIsQueueEmpty)
    i.prvNotifyQueueSetContainer             0x080079e8   Section        0  queue.o(i.prvNotifyQueueSetContainer)
    prvNotifyQueueSetContainer               0x080079e9   Thumb Code   108  queue.o(i.prvNotifyQueueSetContainer)
    i.prvProcessExpiredTimer                 0x08007a78   Section        0  timers.o(i.prvProcessExpiredTimer)
    prvProcessExpiredTimer                   0x08007a79   Thumb Code    86  timers.o(i.prvProcessExpiredTimer)
    i.prvProcessReceivedCommands             0x08007ad8   Section        0  timers.o(i.prvProcessReceivedCommands)
    prvProcessReceivedCommands               0x08007ad9   Thumb Code   196  timers.o(i.prvProcessReceivedCommands)
    i.prvProcessTimerOrBlockTask             0x08007bc8   Section        0  timers.o(i.prvProcessTimerOrBlockTask)
    prvProcessTimerOrBlockTask               0x08007bc9   Thumb Code    98  timers.o(i.prvProcessTimerOrBlockTask)
    i.prvResetNextTaskUnblockTime            0x08007c34   Section        0  tasks.o(i.prvResetNextTaskUnblockTime)
    prvResetNextTaskUnblockTime              0x08007c35   Thumb Code    26  tasks.o(i.prvResetNextTaskUnblockTime)
    i.prvSampleTimeNow                       0x08007c54   Section        0  timers.o(i.prvSampleTimeNow)
    prvSampleTimeNow                         0x08007c55   Thumb Code    36  timers.o(i.prvSampleTimeNow)
    i.prvSwitchTimerLists                    0x08007c7c   Section        0  timers.o(i.prvSwitchTimerLists)
    prvSwitchTimerLists                      0x08007c7d   Thumb Code   100  timers.o(i.prvSwitchTimerLists)
    i.prvTaskExitError                       0x08007ce8   Section        0  port.o(i.prvTaskExitError)
    prvTaskExitError                         0x08007ce9   Thumb Code    36  port.o(i.prvTaskExitError)
    i.prvTimerTask                           0x08007d4c   Section        0  timers.o(i.prvTimerTask)
    prvTimerTask                             0x08007d4d   Thumb Code    34  timers.o(i.prvTimerTask)
    i.prvUnlockQueue                         0x08007d74   Section        0  queue.o(i.prvUnlockQueue)
    prvUnlockQueue                           0x08007d75   Thumb Code   120  queue.o(i.prvUnlockQueue)
    i.pstwo_task                             0x08007dec   Section        0  pstwo.o(i.pstwo_task)
    i.pvPortMalloc                           0x08007e04   Section        0  heap_4.o(i.pvPortMalloc)
    i.pvTaskIncrementMutexHeldCount          0x08007f18   Section        0  tasks.o(i.pvTaskIncrementMutexHeldCount)
    i.pxPortInitialiseStack                  0x08007f30   Section        0  port.o(i.pxPortInitialiseStack)
    i.show_task                              0x08007f5c   Section        0  show.o(i.show_task)
    i.sqrt                                   0x08008084   Section        0  sqrt.o(i.sqrt)
    i.start_task                             0x080080f4   Section        0  main.o(i.start_task)
    i.systemInit                             0x080081e4   Section        0  system.o(i.systemInit)
    i.target_limit_float                     0x0800829e   Section        0  balance.o(i.target_limit_float)
    i.target_limit_int                       0x080082be   Section        0  balance.o(i.target_limit_int)
    i.uart1_init                             0x080082d0   Section        0  usartx.o(i.uart1_init)
    i.uart2_init                             0x0800837c   Section        0  usartx.o(i.uart2_init)
    i.uart3_init                             0x08008424   Section        0  usartx.o(i.uart3_init)
    i.uart5_init                             0x080084d4   Section        0  usartx.o(i.uart5_init)
    i.usart1_send                            0x080085b0   Section        0  usartx.o(i.usart1_send)
    i.usart3_send                            0x080085c0   Section        0  usartx.o(i.usart3_send)
    i.usart5_send                            0x080085d4   Section        0  usartx.o(i.usart5_send)
    i.uxListRemove                           0x080085e4   Section        0  list.o(i.uxListRemove)
    i.vListInitialise                        0x08008608   Section        0  list.o(i.vListInitialise)
    i.vListInitialiseItem                    0x0800861e   Section        0  list.o(i.vListInitialiseItem)
    i.vListInsert                            0x08008624   Section        0  list.o(i.vListInsert)
    i.vListInsertEnd                         0x08008654   Section        0  list.o(i.vListInsertEnd)
    i.vPortEnterCritical                     0x0800866c   Section        0  port.o(i.vPortEnterCritical)
    i.vPortExitCritical                      0x080086e4   Section        0  port.o(i.vPortExitCritical)
    i.vPortFree                              0x08008748   Section        0  heap_4.o(i.vPortFree)
    i.vPortSetupTimerInterrupt               0x080087e4   Section        0  port.o(i.vPortSetupTimerInterrupt)
    i.vPortValidateInterruptPriority         0x08008804   Section        0  port.o(i.vPortValidateInterruptPriority)
    i.vQueueAddToRegistry                    0x08008890   Section        0  queue.o(i.vQueueAddToRegistry)
    i.vQueueWaitForMessageRestricted         0x080088b4   Section        0  queue.o(i.vQueueWaitForMessageRestricted)
    i.vTaskDelay                             0x080088f8   Section        0  tasks.o(i.vTaskDelay)
    i.vTaskDelayUntil                        0x08008964   Section        0  tasks.o(i.vTaskDelayUntil)
    i.vTaskDelete                            0x08008a10   Section        0  tasks.o(i.vTaskDelete)
    i.vTaskMissedYield                       0x08008adc   Section        0  tasks.o(i.vTaskMissedYield)
    i.vTaskPlaceOnEventList                  0x08008ae8   Section        0  tasks.o(i.vTaskPlaceOnEventList)
    i.vTaskPlaceOnEventListRestricted        0x08008b3c   Section        0  tasks.o(i.vTaskPlaceOnEventListRestricted)
    i.vTaskPriorityInherit                   0x08008b98   Section        0  tasks.o(i.vTaskPriorityInherit)
    i.vTaskSetTimeOutState                   0x08008c1c   Section        0  tasks.o(i.vTaskSetTimeOutState)
    i.vTaskStartScheduler                    0x08008c64   Section        0  tasks.o(i.vTaskStartScheduler)
    i.vTaskSuspendAll                        0x08008cf8   Section        0  tasks.o(i.vTaskSuspendAll)
    i.vTaskSwitchContext                     0x08008d08   Section        0  tasks.o(i.vTaskSwitchContext)
    i.xPortStartScheduler                    0x08008d84   Section        0  port.o(i.xPortStartScheduler)
    i.xPortSysTickHandler                    0x08008e98   Section        0  port.o(i.xPortSysTickHandler)
    i.xQueueGenericCreate                    0x08008ec4   Section        0  queue.o(i.xQueueGenericCreate)
    i.xQueueGenericReceive                   0x08008f3c   Section        0  queue.o(i.xQueueGenericReceive)
    i.xQueueGenericReset                     0x080090c0   Section        0  queue.o(i.xQueueGenericReset)
    i.xQueueGenericSend                      0x08009168   Section        0  queue.o(i.xQueueGenericSend)
    i.xQueueGenericSendFromISR               0x080092f0   Section        0  queue.o(i.xQueueGenericSendFromISR)
    i.xTaskCheckForTimeOut                   0x080093d0   Section        0  tasks.o(i.xTaskCheckForTimeOut)
    i.xTaskCreate                            0x08009458   Section        0  tasks.o(i.xTaskCreate)
    i.xTaskGetSchedulerState                 0x080094b0   Section        0  tasks.o(i.xTaskGetSchedulerState)
    i.xTaskGetTickCount                      0x080094cc   Section        0  tasks.o(i.xTaskGetTickCount)
    i.xTaskIncrementTick                     0x080094d8   Section        0  tasks.o(i.xTaskIncrementTick)
    i.xTaskPriorityDisinherit                0x080095c0   Section        0  tasks.o(i.xTaskPriorityDisinherit)
    i.xTaskRemoveFromEventList               0x08009674   Section        0  tasks.o(i.xTaskRemoveFromEventList)
    i.xTaskResumeAll                         0x0800970c   Section        0  tasks.o(i.xTaskResumeAll)
    i.xTimerCreate                           0x080097f0   Section        0  timers.o(i.xTimerCreate)
    i.xTimerCreateTimerTask                  0x08009864   Section        0  timers.o(i.xTimerCreateTimerTask)
    i.xTimerGenericCommand                   0x080098d8   Section        0  timers.o(i.xTimerGenericCommand)
    x$fpl$basic                              0x08009968   Section       24  basic.o(x$fpl$basic)
    $v0                                      0x08009968   Number         0  basic.o(x$fpl$basic)
    x$fpl$d2f                                0x08009980   Section       98  d2f.o(x$fpl$d2f)
    $v0                                      0x08009980   Number         0  d2f.o(x$fpl$d2f)
    x$fpl$dadd                               0x080099e4   Section      336  daddsub_clz.o(x$fpl$dadd)
    $v0                                      0x080099e4   Number         0  daddsub_clz.o(x$fpl$dadd)
    _dadd1                                   0x080099f5   Thumb Code     0  daddsub_clz.o(x$fpl$dadd)
    x$fpl$dcheck1                            0x08009b34   Section       16  dcheck1.o(x$fpl$dcheck1)
    $v0                                      0x08009b34   Number         0  dcheck1.o(x$fpl$dcheck1)
    x$fpl$dcmpinf                            0x08009b44   Section       24  dcmpi.o(x$fpl$dcmpinf)
    $v0                                      0x08009b44   Number         0  dcmpi.o(x$fpl$dcmpinf)
    x$fpl$ddiv                               0x08009b5c   Section      688  ddiv.o(x$fpl$ddiv)
    $v0                                      0x08009b5c   Number         0  ddiv.o(x$fpl$ddiv)
    ddiv_entry                               0x08009b63   Thumb Code     0  ddiv.o(x$fpl$ddiv)
    x$fpl$dfix                               0x08009e0c   Section       94  dfix.o(x$fpl$dfix)
    $v0                                      0x08009e0c   Number         0  dfix.o(x$fpl$dfix)
    x$fpl$dflt                               0x08009e6a   Section       46  dflt_clz.o(x$fpl$dflt)
    $v0                                      0x08009e6a   Number         0  dflt_clz.o(x$fpl$dflt)
    x$fpl$dfltu                              0x08009e98   Section       38  dflt_clz.o(x$fpl$dfltu)
    $v0                                      0x08009e98   Number         0  dflt_clz.o(x$fpl$dfltu)
    x$fpl$dleqf                              0x08009ec0   Section      120  dleqf.o(x$fpl$dleqf)
    $v0                                      0x08009ec0   Number         0  dleqf.o(x$fpl$dleqf)
    x$fpl$dmul                               0x08009f38   Section      340  dmul.o(x$fpl$dmul)
    $v0                                      0x08009f38   Number         0  dmul.o(x$fpl$dmul)
    x$fpl$dnaninf                            0x0800a08c   Section      156  dnaninf.o(x$fpl$dnaninf)
    $v0                                      0x0800a08c   Number         0  dnaninf.o(x$fpl$dnaninf)
    x$fpl$dretinf                            0x0800a128   Section       12  dretinf.o(x$fpl$dretinf)
    $v0                                      0x0800a128   Number         0  dretinf.o(x$fpl$dretinf)
    x$fpl$drleqf                             0x0800a134   Section      108  drleqf.o(x$fpl$drleqf)
    $v0                                      0x0800a134   Number         0  drleqf.o(x$fpl$drleqf)
    x$fpl$drsb                               0x0800a1a0   Section       22  daddsub_clz.o(x$fpl$drsb)
    $v0                                      0x0800a1a0   Number         0  daddsub_clz.o(x$fpl$drsb)
    x$fpl$dsqrt                              0x0800a1b8   Section      408  dsqrt_umaal.o(x$fpl$dsqrt)
    $v0                                      0x0800a1b8   Number         0  dsqrt_umaal.o(x$fpl$dsqrt)
    x$fpl$dsub                               0x0800a350   Section      468  daddsub_clz.o(x$fpl$dsub)
    $v0                                      0x0800a350   Number         0  daddsub_clz.o(x$fpl$dsub)
    _dsub1                                   0x0800a361   Thumb Code     0  daddsub_clz.o(x$fpl$dsub)
    x$fpl$f2d                                0x0800a524   Section       86  f2d.o(x$fpl$f2d)
    $v0                                      0x0800a524   Number         0  f2d.o(x$fpl$f2d)
    x$fpl$fnaninf                            0x0800a57a   Section      140  fnaninf.o(x$fpl$fnaninf)
    $v0                                      0x0800a57a   Number         0  fnaninf.o(x$fpl$fnaninf)
    x$fpl$fpinit                             0x0800a606   Section       10  fpinit.o(x$fpl$fpinit)
    $v0                                      0x0800a606   Number         0  fpinit.o(x$fpl$fpinit)
    x$fpl$fretinf                            0x0800a610   Section       10  fretinf.o(x$fpl$fretinf)
    $v0                                      0x0800a610   Number         0  fretinf.o(x$fpl$fretinf)
    x$fpl$retnan                             0x0800a61a   Section      100  retnan.o(x$fpl$retnan)
    $v0                                      0x0800a61a   Number         0  retnan.o(x$fpl$retnan)
    x$fpl$scalbn                             0x0800a67e   Section       92  scalbn.o(x$fpl$scalbn)
    $v0                                      0x0800a67e   Number         0  scalbn.o(x$fpl$scalbn)
    x$fpl$trapveneer                         0x0800a6da   Section       48  trapv.o(x$fpl$trapveneer)
    $v0                                      0x0800a6da   Number         0  trapv.o(x$fpl$trapveneer)
    .constdata                               0x0800a70a   Section     5284  oled.o(.constdata)
    x$fpl$usenofp                            0x0800a70a   Section        0  usenofp.o(x$fpl$usenofp)
    .constdata                               0x0800bbb0   Section      152  atan.o(.constdata)
    atanhi                                   0x0800bbb0   Data          32  atan.o(.constdata)
    atanlo                                   0x0800bbd0   Data          32  atan.o(.constdata)
    aTodd                                    0x0800bbf0   Data          40  atan.o(.constdata)
    aTeven                                   0x0800bc18   Data          48  atan.o(.constdata)
    .constdata                               0x0800bc48   Section      136  pow.o(.constdata)
    bp                                       0x0800bc48   Data          16  pow.o(.constdata)
    dp_h                                     0x0800bc58   Data          16  pow.o(.constdata)
    dp_l                                     0x0800bc68   Data          16  pow.o(.constdata)
    L                                        0x0800bc78   Data          48  pow.o(.constdata)
    P                                        0x0800bca8   Data          40  pow.o(.constdata)
    .constdata                               0x0800bcd0   Section        8  qnan.o(.constdata)
    .constdata                               0x0800bcd8   Section      200  rred.o(.constdata)
    pio2s                                    0x0800bcd8   Data          48  rred.o(.constdata)
    twooverpi                                0x0800bd08   Data         152  rred.o(.constdata)
    .constdata                               0x0800bda0   Section       96  tan_i.o(.constdata)
    Todd                                     0x0800bda0   Data          48  tan_i.o(.constdata)
    Teven                                    0x0800bdd0   Data          48  tan_i.o(.constdata)
    .data                                    0x20000000   Section        4  main.o(.data)
    .data                                    0x20000004   Section       20  system_stm32f4xx.o(.data)
    .data                                    0x20000018   Section        4  adc.o(.data)
    .data                                    0x2000001c   Section        4  adc.o(.data)
    .data                                    0x20000020   Section       20  key.o(.data)
    flag_key                                 0x20000020   Data           1  key.o(.data)
    flag_key                                 0x20000021   Data           1  key.o(.data)
    count_key                                0x20000022   Data           1  key.o(.data)
    double_key                               0x20000023   Data           1  key.o(.data)
    flag_key                                 0x20000024   Data           1  key.o(.data)
    count_key                                0x20000025   Data           1  key.o(.data)
    double_key                               0x20000026   Data           1  key.o(.data)
    count_single                             0x20000028   Data           2  key.o(.data)
    Forever_count                            0x2000002a   Data           2  key.o(.data)
    count_single                             0x2000002c   Data           2  key.o(.data)
    Forever_count                            0x2000002e   Data           2  key.o(.data)
    Long_Press_count                         0x20000030   Data           2  key.o(.data)
    Long_Press                               0x20000032   Data           2  key.o(.data)
    .data                                    0x20000034   Section        8  led.o(.data)
    temp                                     0x20000038   Data           4  led.o(.data)
    .data                                    0x2000003c   Section       40  pstwo.o(.data)
    Strat                                    0x20000040   Data           4  pstwo.o(.data)
    .data                                    0x20000064   Section       68  timer.o(.data)
    .data                                    0x200000a8   Section       12  usartx.o(.data)
    Count                                    0x200000a8   Data           1  usartx.o(.data)
    Flag_PID                                 0x200000a9   Data           1  usartx.o(.data)
    i                                        0x200000aa   Data           1  usartx.o(.data)
    j                                        0x200000ab   Data           1  usartx.o(.data)
    Last_Usart_Receive                       0x200000ac   Data           1  usartx.o(.data)
    Count                                    0x200000ad   Data           1  usartx.o(.data)
    Count                                    0x200000ae   Data           1  usartx.o(.data)
    Data                                     0x200000b0   Data           4  usartx.o(.data)
    .data                                    0x200000b4   Section        8  delay.o(.data)
    fac_us                                   0x200000b4   Data           1  delay.o(.data)
    fac_ms                                   0x200000b6   Data           2  delay.o(.data)
    sysTickCnt                               0x200000b8   Data           4  delay.o(.data)
    .data                                    0x200000bc   Section        4  usart.o(.data)
    .data                                    0x200000c0   Section       16  stm32f4xx_rcc.o(.data)
    APBAHBPrescTable                         0x200000c0   Data          16  stm32f4xx_rcc.o(.data)
    .data                                    0x200000d0   Section       60  tasks.o(.data)
    uxDeletedTasksWaitingCleanUp             0x200000d4   Data           4  tasks.o(.data)
    uxCurrentNumberOfTasks                   0x200000d8   Data           4  tasks.o(.data)
    xTickCount                               0x200000dc   Data           4  tasks.o(.data)
    uxTopReadyPriority                       0x200000e0   Data           4  tasks.o(.data)
    xSchedulerRunning                        0x200000e4   Data           4  tasks.o(.data)
    uxPendedTicks                            0x200000e8   Data           4  tasks.o(.data)
    xYieldPending                            0x200000ec   Data           4  tasks.o(.data)
    xNumOfOverflows                          0x200000f0   Data           4  tasks.o(.data)
    uxTaskNumber                             0x200000f4   Data           4  tasks.o(.data)
    xNextTaskUnblockTime                     0x200000f8   Data           4  tasks.o(.data)
    xIdleTaskHandle                          0x200000fc   Data           4  tasks.o(.data)
    uxSchedulerSuspended                     0x20000100   Data           4  tasks.o(.data)
    pxDelayedTaskList                        0x20000104   Data           4  tasks.o(.data)
    pxOverflowDelayedTaskList                0x20000108   Data           4  tasks.o(.data)
    .data                                    0x2000010c   Section       20  timers.o(.data)
    xTimerQueue                              0x2000010c   Data           4  timers.o(.data)
    xTimerTaskHandle                         0x20000110   Data           4  timers.o(.data)
    xLastTime                                0x20000114   Data           4  timers.o(.data)
    pxCurrentTimerList                       0x20000118   Data           4  timers.o(.data)
    pxOverflowTimerList                      0x2000011c   Data           4  timers.o(.data)
    .data                                    0x20000120   Section       12  port.o(.data)
    ucMaxSysCallPriority                     0x20000120   Data           1  port.o(.data)
    uxCriticalNesting                        0x20000124   Data           4  port.o(.data)
    ulMaxPRIGROUPValue                       0x20000128   Data           4  port.o(.data)
    .data                                    0x2000012c   Section       24  heap_4.o(.data)
    pxEnd                                    0x2000012c   Data           4  heap_4.o(.data)
    xFreeBytesRemaining                      0x20000130   Data           4  heap_4.o(.data)
    xMinimumEverFreeBytesRemaining           0x20000134   Data           4  heap_4.o(.data)
    xBlockAllocatedBit                       0x20000138   Data           4  heap_4.o(.data)
    xStart                                   0x2000013c   Data           8  heap_4.o(.data)
    .data                                    0x20000144   Section        1  system.o(.data)
    .data                                    0x20000145   Section        1  system.o(.data)
    .data                                    0x20000148   Section        4  system.o(.data)
    .data                                    0x2000014c   Section        4  system.o(.data)
    .data                                    0x20000150   Section        4  system.o(.data)
    .data                                    0x20000154   Section        1  system.o(.data)
    .data                                    0x20000155   Section        1  system.o(.data)
    .data                                    0x20000156   Section        1  system.o(.data)
    .data                                    0x20000157   Section        1  system.o(.data)
    .data                                    0x20000158   Section        1  system.o(.data)
    .data                                    0x2000015c   Section        4  system.o(.data)
    .data                                    0x20000160   Section        4  system.o(.data)
    .data                                    0x20000164   Section        4  system.o(.data)
    .data                                    0x20000168   Section        4  system.o(.data)
    .data                                    0x2000016c   Section        4  system.o(.data)
    .data                                    0x20000170   Section        4  system.o(.data)
    .data                                    0x20000174   Section        4  system.o(.data)
    .data                                    0x20000178   Section        4  system.o(.data)
    .data                                    0x2000017c   Section        4  system.o(.data)
    .data                                    0x20000180   Section        4  system.o(.data)
    .data                                    0x20000184   Section        4  system.o(.data)
    .data                                    0x20000188   Section        4  system.o(.data)
    .data                                    0x2000018c   Section        4  system.o(.data)
    .data                                    0x20000190   Section        1  system.o(.data)
    .data                                    0x20000191   Section        1  system.o(.data)
    .data                                    0x20000192   Section        1  system.o(.data)
    .data                                    0x20000193   Section        1  system.o(.data)
    .data                                    0x20000194   Section        1  system.o(.data)
    .data                                    0x20000195   Section        1  system.o(.data)
    .data                                    0x20000198   Section        4  system.o(.data)
    .data                                    0x2000019c   Section        4  system.o(.data)
    .data                                    0x200001a0   Section        4  system.o(.data)
    .data                                    0x200001a4   Section        4  system.o(.data)
    .data                                    0x200001a8   Section        4  system.o(.data)
    .data                                    0x200001ac   Section       60  balance.o(.data)
    thrice                                   0x200001ac   Data           1  balance.o(.data)
    error                                    0x200001ad   Data           1  balance.o(.data)
    Bias                                     0x200001b8   Data           4  balance.o(.data)
    Pwm                                      0x200001bc   Data           4  balance.o(.data)
    Last_bias                                0x200001c0   Data           4  balance.o(.data)
    Bias                                     0x200001c4   Data           4  balance.o(.data)
    Pwm                                      0x200001c8   Data           4  balance.o(.data)
    Last_bias                                0x200001cc   Data           4  balance.o(.data)
    Bias                                     0x200001d0   Data           4  balance.o(.data)
    Pwm                                      0x200001d4   Data           4  balance.o(.data)
    Last_bias                                0x200001d8   Data           4  balance.o(.data)
    Bias                                     0x200001dc   Data           4  balance.o(.data)
    Pwm                                      0x200001e0   Data           4  balance.o(.data)
    Last_bias                                0x200001e4   Data           4  balance.o(.data)
    .data                                    0x200001e8   Section        1  balance.o(.data)
    .data                                    0x200001ec   Section       24  show.o(.data)
    flag_show                                0x200001ec   Data           1  show.o(.data)
    LowVoltage_1                             0x200001f4   Data           4  show.o(.data)
    LowVoltage_2                             0x200001f8   Data           4  show.o(.data)
    count                                    0x200001fc   Data           4  show.o(.data)
    .data                                    0x20000204   Section       40  mpu6050.o(.data)
    .bss                                     0x2000022c   Section     1024  oled.o(.bss)
    .bss                                     0x2000062c   Section        9  pstwo.o(.bss)
    .bss                                     0x20000638   Section      144  usartx.o(.bss)
    rxbuf                                    0x20000638   Data          11  usartx.o(.bss)
    Receive                                  0x20000643   Data          50  usartx.o(.bss)
    .bss                                     0x200006c8   Section       64  queue.o(.bss)
    .bss                                     0x20000708   Section      740  tasks.o(.bss)
    pxReadyTasksLists                        0x20000708   Data         640  tasks.o(.bss)
    xDelayedTaskList1                        0x20000988   Data          20  tasks.o(.bss)
    xDelayedTaskList2                        0x2000099c   Data          20  tasks.o(.bss)
    xPendingReadyList                        0x200009b0   Data          20  tasks.o(.bss)
    xTasksWaitingTermination                 0x200009c4   Data          20  tasks.o(.bss)
    xSuspendedTaskList                       0x200009d8   Data          20  tasks.o(.bss)
    .bss                                     0x200009ec   Section       40  timers.o(.bss)
    xActiveTimerList1                        0x200009ec   Data          20  timers.o(.bss)
    xActiveTimerList2                        0x20000a00   Data          20  timers.o(.bss)
    .bss                                     0x20000a14   Section    20480  heap_4.o(.bss)
    ucHeap                                   0x20000a14   Data       20480  heap_4.o(.bss)
    .bss                                     0x20005a14   Section       12  system.o(.bss)
    .bss                                     0x20005a20   Section       20  system.o(.bss)
    .bss                                     0x20005a34   Section       20  system.o(.bss)
    .bss                                     0x20005a48   Section       20  system.o(.bss)
    .bss                                     0x20005a5c   Section       20  system.o(.bss)
    .bss                                     0x20005a70   Section       16  balance.o(.bss)
    .bss                                     0x20005a80   Section       24  robot_select_init.o(.bss)
    .bss                                     0x20005a98   Section       96  libspace.o(.bss)
    HEAP                                     0x20005af8   Section      512  startup_stm32f40_41xxx.o(HEAP)
    Heap_Mem                                 0x20005af8   Data         512  startup_stm32f40_41xxx.o(HEAP)
    STACK                                    0x20005cf8   Section     1024  startup_stm32f40_41xxx.o(STACK)
    Stack_Mem                                0x20005cf8   Data        1024  startup_stm32f40_41xxx.o(STACK)
    __initial_sp                             0x200060f8   Data           0  startup_stm32f40_41xxx.o(STACK)

    Global Symbols

    Symbol Name                              Value     Ov Type        Size  Object(Section)

    BuildAttributes$$THM_ISAv4$E$P$D$K$B$S$7EM$VFPi3$EXTD16$VFPS$VFMA$PE$A:L22UL41UL21$X:L11$S22US41US21$IEEE1$IW$USESV6$~STKCKD$USESV7$~SHL$OTIME$ROPI$IEEEX$EBA8$UX$STANDARDLIB$REQ8$PRES8$EABIv2 0x00000000   Number         0  anon$$obj.o ABSOLUTE
    __ARM_use_no_argv                        0x00000000   Number         0  main.o ABSOLUTE
    __ARM_exceptions_init                     - Undefined Weak Reference
    __alloca_initialize                       - Undefined Weak Reference
    __arm_fini_                               - Undefined Weak Reference
    __arm_preinit_                            - Undefined Weak Reference
    __cpp_initialize__aeabi_                  - Undefined Weak Reference
    __cxa_finalize                            - Undefined Weak Reference
    __rt_locale                               - Undefined Weak Reference
    __sigvec_lookup                           - Undefined Weak Reference
    _atexit_init                              - Undefined Weak Reference
    _call_atexit_fns                          - Undefined Weak Reference
    _clock_init                               - Undefined Weak Reference
    _fp_trap_init                             - Undefined Weak Reference
    _fp_trap_shutdown                         - Undefined Weak Reference
    _get_lc_collate                           - Undefined Weak Reference
    _get_lc_ctype                             - Undefined Weak Reference
    _get_lc_monetary                          - Undefined Weak Reference
    _get_lc_numeric                           - Undefined Weak Reference
    _get_lc_time                              - Undefined Weak Reference
    _getenv_init                              - Undefined Weak Reference
    _handle_redirection                       - Undefined Weak Reference
    _init_alloc                               - Undefined Weak Reference
    _init_user_alloc                          - Undefined Weak Reference
    _initio                                   - Undefined Weak Reference
    _mutex_acquire                            - Undefined Weak Reference
    _mutex_release                            - Undefined Weak Reference
    _printf_mbtowc                            - Undefined Weak Reference
    _printf_post_padding                      - Undefined Weak Reference
    _printf_pre_padding                       - Undefined Weak Reference
    _printf_truncate_signed                   - Undefined Weak Reference
    _printf_truncate_unsigned                 - Undefined Weak Reference
    _rand_init                                - Undefined Weak Reference
    _signal_finish                            - Undefined Weak Reference
    _signal_init                              - Undefined Weak Reference
    _terminate_alloc                          - Undefined Weak Reference
    _terminate_user_alloc                     - Undefined Weak Reference
    _terminateio                              - Undefined Weak Reference
    __Vectors_Size                           0x00000188   Number         0  startup_stm32f40_41xxx.o ABSOLUTE
    __Vectors                                0x08000000   Data           4  startup_stm32f40_41xxx.o(RESET)
    __Vectors_End                            0x08000188   Data           0  startup_stm32f40_41xxx.o(RESET)
    __main                                   0x08000189   Thumb Code     8  __main.o(!!!main)
    __scatterload                            0x08000191   Thumb Code     0  __scatter.o(!!!scatter)
    __scatterload_rt2                        0x08000191   Thumb Code    44  __scatter.o(!!!scatter)
    __scatterload_rt2_thumb_only             0x08000191   Thumb Code     0  __scatter.o(!!!scatter)
    __scatterload_null                       0x0800019f   Thumb Code     0  __scatter.o(!!!scatter)
    __decompress                             0x080001c5   Thumb Code    90  __dczerorl2.o(!!dczerorl2)
    __decompress1                            0x080001c5   Thumb Code     0  __dczerorl2.o(!!dczerorl2)
    __scatterload_zeroinit                   0x08000221   Thumb Code    28  __scatter_zi.o(!!handler_zi)
    _printf_d                                0x0800023d   Thumb Code     0  _printf_d.o(.ARM.Collect$$_printf_percent$$00000009)
    _printf_percent                          0x0800023d   Thumb Code     0  _printf_percent.o(.ARM.Collect$$_printf_percent$$00000000)
    _printf_s                                0x08000243   Thumb Code     0  _printf_s.o(.ARM.Collect$$_printf_percent$$00000014)
    _printf_percent_end                      0x08000249   Thumb Code     0  _printf_percent_end.o(.ARM.Collect$$_printf_percent$$00000017)
    __rt_lib_init                            0x0800024d   Thumb Code     0  libinit.o(.ARM.Collect$$libinit$$00000000)
    __rt_lib_init_fp_1                       0x0800024f   Thumb Code     0  libinit2.o(.ARM.Collect$$libinit$$00000001)
    __rt_lib_init_alloca_1                   0x08000253   Thumb Code     0  libinit2.o(.ARM.Collect$$libinit$$0000002E)
    __rt_lib_init_argv_1                     0x08000253   Thumb Code     0  libinit2.o(.ARM.Collect$$libinit$$0000002C)
    __rt_lib_init_atexit_1                   0x08000253   Thumb Code     0  libinit2.o(.ARM.Collect$$libinit$$0000001B)
    __rt_lib_init_clock_1                    0x08000253   Thumb Code     0  libinit2.o(.ARM.Collect$$libinit$$00000021)
    __rt_lib_init_cpp_1                      0x08000253   Thumb Code     0  libinit2.o(.ARM.Collect$$libinit$$00000032)
    __rt_lib_init_exceptions_1               0x08000253   Thumb Code     0  libinit2.o(.ARM.Collect$$libinit$$00000030)
    __rt_lib_init_fp_trap_1                  0x08000253   Thumb Code     0  libinit2.o(.ARM.Collect$$libinit$$0000001F)
    __rt_lib_init_getenv_1                   0x08000253   Thumb Code     0  libinit2.o(.ARM.Collect$$libinit$$00000023)
    __rt_lib_init_heap_1                     0x08000253   Thumb Code     0  libinit2.o(.ARM.Collect$$libinit$$0000000A)
    __rt_lib_init_lc_collate_1               0x08000253   Thumb Code     0  libinit2.o(.ARM.Collect$$libinit$$00000011)
    __rt_lib_init_lc_ctype_1                 0x08000253   Thumb Code     0  libinit2.o(.ARM.Collect$$libinit$$00000013)
    __rt_lib_init_lc_monetary_1              0x08000253   Thumb Code     0  libinit2.o(.ARM.Collect$$libinit$$00000015)
    __rt_lib_init_lc_numeric_1               0x08000253   Thumb Code     0  libinit2.o(.ARM.Collect$$libinit$$00000017)
    __rt_lib_init_lc_time_1                  0x08000253   Thumb Code     0  libinit2.o(.ARM.Collect$$libinit$$00000019)
    __rt_lib_init_preinit_1                  0x08000253   Thumb Code     0  libinit2.o(.ARM.Collect$$libinit$$00000004)
    __rt_lib_init_rand_1                     0x08000253   Thumb Code     0  libinit2.o(.ARM.Collect$$libinit$$0000000E)
    __rt_lib_init_return                     0x08000253   Thumb Code     0  libinit2.o(.ARM.Collect$$libinit$$00000033)
    __rt_lib_init_signal_1                   0x08000253   Thumb Code     0  libinit2.o(.ARM.Collect$$libinit$$0000001D)
    __rt_lib_init_stdio_1                    0x08000253   Thumb Code     0  libinit2.o(.ARM.Collect$$libinit$$00000025)
    __rt_lib_init_user_alloc_1               0x08000253   Thumb Code     0  libinit2.o(.ARM.Collect$$libinit$$0000000C)
    __rt_lib_shutdown                        0x08000255   Thumb Code     0  libshutdown.o(.ARM.Collect$$libshutdown$$00000000)
    __rt_lib_shutdown_cpp_1                  0x08000257   Thumb Code     0  libshutdown2.o(.ARM.Collect$$libshutdown$$00000004)
    __rt_lib_shutdown_fini_1                 0x08000257   Thumb Code     0  libshutdown2.o(.ARM.Collect$$libshutdown$$00000002)
    __rt_lib_shutdown_fp_trap_1              0x08000257   Thumb Code     0  libshutdown2.o(.ARM.Collect$$libshutdown$$00000009)
    __rt_lib_shutdown_heap_1                 0x08000257   Thumb Code     0  libshutdown2.o(.ARM.Collect$$libshutdown$$00000011)
    __rt_lib_shutdown_return                 0x08000257   Thumb Code     0  libshutdown2.o(.ARM.Collect$$libshutdown$$00000012)
    __rt_lib_shutdown_signal_1               0x08000257   Thumb Code     0  libshutdown2.o(.ARM.Collect$$libshutdown$$0000000C)
    __rt_lib_shutdown_stdio_1                0x08000257   Thumb Code     0  libshutdown2.o(.ARM.Collect$$libshutdown$$00000006)
    __rt_lib_shutdown_user_alloc_1           0x08000257   Thumb Code     0  libshutdown2.o(.ARM.Collect$$libshutdown$$0000000E)
    __rt_entry                               0x08000259   Thumb Code     0  __rtentry.o(.ARM.Collect$$rtentry$$00000000)
    __rt_entry_presh_1                       0x08000259   Thumb Code     0  __rtentry2.o(.ARM.Collect$$rtentry$$00000002)
    __rt_entry_sh                            0x08000259   Thumb Code     0  __rtentry4.o(.ARM.Collect$$rtentry$$00000004)
    __rt_entry_li                            0x0800025f   Thumb Code     0  __rtentry2.o(.ARM.Collect$$rtentry$$0000000A)
    __rt_entry_postsh_1                      0x0800025f   Thumb Code     0  __rtentry2.o(.ARM.Collect$$rtentry$$00000009)
    __rt_entry_main                          0x08000263   Thumb Code     0  __rtentry2.o(.ARM.Collect$$rtentry$$0000000D)
    __rt_entry_postli_1                      0x08000263   Thumb Code     0  __rtentry2.o(.ARM.Collect$$rtentry$$0000000C)
    __rt_exit                                0x0800026b   Thumb Code     0  rtexit.o(.ARM.Collect$$rtexit$$00000000)
    __rt_exit_ls                             0x0800026d   Thumb Code     0  rtexit2.o(.ARM.Collect$$rtexit$$00000003)
    __rt_exit_prels_1                        0x0800026d   Thumb Code     0  rtexit2.o(.ARM.Collect$$rtexit$$00000002)
    __rt_exit_exit                           0x08000271   Thumb Code     0  rtexit2.o(.ARM.Collect$$rtexit$$00000004)
    SVC_Handler                              0x08000279   Thumb Code    28  port.o(.emb_text)
    __asm___6_port_c_39a90d8d__prvStartFirstTask 0x08000299   Thumb Code    28  port.o(.emb_text)
    __asm___6_port_c_39a90d8d__prvEnableVFP  0x080002b9   Thumb Code    16  port.o(.emb_text)
    PendSV_Handler                           0x080002cd   Thumb Code    88  port.o(.emb_text)
    vPortGetIPSR                             0x08000329   Thumb Code     6  port.o(.emb_text)
    Reset_Handler                            0x08000331   Thumb Code     8  startup_stm32f40_41xxx.o(.text)
    ADC_IRQHandler                           0x0800034b   Thumb Code     0  startup_stm32f40_41xxx.o(.text)
    CAN1_RX1_IRQHandler                      0x0800034b   Thumb Code     0  startup_stm32f40_41xxx.o(.text)
    CAN1_SCE_IRQHandler                      0x0800034b   Thumb Code     0  startup_stm32f40_41xxx.o(.text)
    CAN1_TX_IRQHandler                       0x0800034b   Thumb Code     0  startup_stm32f40_41xxx.o(.text)
    CAN2_RX0_IRQHandler                      0x0800034b   Thumb Code     0  startup_stm32f40_41xxx.o(.text)
    CAN2_RX1_IRQHandler                      0x0800034b   Thumb Code     0  startup_stm32f40_41xxx.o(.text)
    CAN2_SCE_IRQHandler                      0x0800034b   Thumb Code     0  startup_stm32f40_41xxx.o(.text)
    CAN2_TX_IRQHandler                       0x0800034b   Thumb Code     0  startup_stm32f40_41xxx.o(.text)
    CRYP_IRQHandler                          0x0800034b   Thumb Code     0  startup_stm32f40_41xxx.o(.text)
    DCMI_IRQHandler                          0x0800034b   Thumb Code     0  startup_stm32f40_41xxx.o(.text)
    DMA1_Stream0_IRQHandler                  0x0800034b   Thumb Code     0  startup_stm32f40_41xxx.o(.text)
    DMA1_Stream1_IRQHandler                  0x0800034b   Thumb Code     0  startup_stm32f40_41xxx.o(.text)
    DMA1_Stream2_IRQHandler                  0x0800034b   Thumb Code     0  startup_stm32f40_41xxx.o(.text)
    DMA1_Stream3_IRQHandler                  0x0800034b   Thumb Code     0  startup_stm32f40_41xxx.o(.text)
    DMA1_Stream4_IRQHandler                  0x0800034b   Thumb Code     0  startup_stm32f40_41xxx.o(.text)
    DMA1_Stream5_IRQHandler                  0x0800034b   Thumb Code     0  startup_stm32f40_41xxx.o(.text)
    DMA1_Stream6_IRQHandler                  0x0800034b   Thumb Code     0  startup_stm32f40_41xxx.o(.text)
    DMA1_Stream7_IRQHandler                  0x0800034b   Thumb Code     0  startup_stm32f40_41xxx.o(.text)
    DMA2_Stream0_IRQHandler                  0x0800034b   Thumb Code     0  startup_stm32f40_41xxx.o(.text)
    DMA2_Stream1_IRQHandler                  0x0800034b   Thumb Code     0  startup_stm32f40_41xxx.o(.text)
    DMA2_Stream2_IRQHandler                  0x0800034b   Thumb Code     0  startup_stm32f40_41xxx.o(.text)
    DMA2_Stream3_IRQHandler                  0x0800034b   Thumb Code     0  startup_stm32f40_41xxx.o(.text)
    DMA2_Stream4_IRQHandler                  0x0800034b   Thumb Code     0  startup_stm32f40_41xxx.o(.text)
    DMA2_Stream5_IRQHandler                  0x0800034b   Thumb Code     0  startup_stm32f40_41xxx.o(.text)
    DMA2_Stream6_IRQHandler                  0x0800034b   Thumb Code     0  startup_stm32f40_41xxx.o(.text)
    DMA2_Stream7_IRQHandler                  0x0800034b   Thumb Code     0  startup_stm32f40_41xxx.o(.text)
    ETH_IRQHandler                           0x0800034b   Thumb Code     0  startup_stm32f40_41xxx.o(.text)
    ETH_WKUP_IRQHandler                      0x0800034b   Thumb Code     0  startup_stm32f40_41xxx.o(.text)
    EXTI0_IRQHandler                         0x0800034b   Thumb Code     0  startup_stm32f40_41xxx.o(.text)
    EXTI15_10_IRQHandler                     0x0800034b   Thumb Code     0  startup_stm32f40_41xxx.o(.text)
    EXTI1_IRQHandler                         0x0800034b   Thumb Code     0  startup_stm32f40_41xxx.o(.text)
    EXTI2_IRQHandler                         0x0800034b   Thumb Code     0  startup_stm32f40_41xxx.o(.text)
    EXTI3_IRQHandler                         0x0800034b   Thumb Code     0  startup_stm32f40_41xxx.o(.text)
    EXTI4_IRQHandler                         0x0800034b   Thumb Code     0  startup_stm32f40_41xxx.o(.text)
    EXTI9_5_IRQHandler                       0x0800034b   Thumb Code     0  startup_stm32f40_41xxx.o(.text)
    FLASH_IRQHandler                         0x0800034b   Thumb Code     0  startup_stm32f40_41xxx.o(.text)
    FPU_IRQHandler                           0x0800034b   Thumb Code     0  startup_stm32f40_41xxx.o(.text)
    FSMC_IRQHandler                          0x0800034b   Thumb Code     0  startup_stm32f40_41xxx.o(.text)
    HASH_RNG_IRQHandler                      0x0800034b   Thumb Code     0  startup_stm32f40_41xxx.o(.text)
    I2C1_ER_IRQHandler                       0x0800034b   Thumb Code     0  startup_stm32f40_41xxx.o(.text)
    I2C1_EV_IRQHandler                       0x0800034b   Thumb Code     0  startup_stm32f40_41xxx.o(.text)
    I2C2_ER_IRQHandler                       0x0800034b   Thumb Code     0  startup_stm32f40_41xxx.o(.text)
    I2C2_EV_IRQHandler                       0x0800034b   Thumb Code     0  startup_stm32f40_41xxx.o(.text)
    I2C3_ER_IRQHandler                       0x0800034b   Thumb Code     0  startup_stm32f40_41xxx.o(.text)
    I2C3_EV_IRQHandler                       0x0800034b   Thumb Code     0  startup_stm32f40_41xxx.o(.text)
    OTG_FS_IRQHandler                        0x0800034b   Thumb Code     0  startup_stm32f40_41xxx.o(.text)
    OTG_FS_WKUP_IRQHandler                   0x0800034b   Thumb Code     0  startup_stm32f40_41xxx.o(.text)
    OTG_HS_EP1_IN_IRQHandler                 0x0800034b   Thumb Code     0  startup_stm32f40_41xxx.o(.text)
    OTG_HS_EP1_OUT_IRQHandler                0x0800034b   Thumb Code     0  startup_stm32f40_41xxx.o(.text)
    OTG_HS_IRQHandler                        0x0800034b   Thumb Code     0  startup_stm32f40_41xxx.o(.text)
    OTG_HS_WKUP_IRQHandler                   0x0800034b   Thumb Code     0  startup_stm32f40_41xxx.o(.text)
    PVD_IRQHandler                           0x0800034b   Thumb Code     0  startup_stm32f40_41xxx.o(.text)
    RCC_IRQHandler                           0x0800034b   Thumb Code     0  startup_stm32f40_41xxx.o(.text)
    RTC_Alarm_IRQHandler                     0x0800034b   Thumb Code     0  startup_stm32f40_41xxx.o(.text)
    RTC_WKUP_IRQHandler                      0x0800034b   Thumb Code     0  startup_stm32f40_41xxx.o(.text)
    SDIO_IRQHandler                          0x0800034b   Thumb Code     0  startup_stm32f40_41xxx.o(.text)
    SPI1_IRQHandler                          0x0800034b   Thumb Code     0  startup_stm32f40_41xxx.o(.text)
    SPI2_IRQHandler                          0x0800034b   Thumb Code     0  startup_stm32f40_41xxx.o(.text)
    SPI3_IRQHandler                          0x0800034b   Thumb Code     0  startup_stm32f40_41xxx.o(.text)
    TAMP_STAMP_IRQHandler                    0x0800034b   Thumb Code     0  startup_stm32f40_41xxx.o(.text)
    TIM1_BRK_TIM9_IRQHandler                 0x0800034b   Thumb Code     0  startup_stm32f40_41xxx.o(.text)
    TIM1_CC_IRQHandler                       0x0800034b   Thumb Code     0  startup_stm32f40_41xxx.o(.text)
    TIM1_TRG_COM_TIM11_IRQHandler            0x0800034b   Thumb Code     0  startup_stm32f40_41xxx.o(.text)
    TIM1_UP_TIM10_IRQHandler                 0x0800034b   Thumb Code     0  startup_stm32f40_41xxx.o(.text)
    TIM6_DAC_IRQHandler                      0x0800034b   Thumb Code     0  startup_stm32f40_41xxx.o(.text)
    TIM7_IRQHandler                          0x0800034b   Thumb Code     0  startup_stm32f40_41xxx.o(.text)
    TIM8_TRG_COM_TIM14_IRQHandler            0x0800034b   Thumb Code     0  startup_stm32f40_41xxx.o(.text)
    UART4_IRQHandler                         0x0800034b   Thumb Code     0  startup_stm32f40_41xxx.o(.text)
    USART6_IRQHandler                        0x0800034b   Thumb Code     0  startup_stm32f40_41xxx.o(.text)
    WWDG_IRQHandler                          0x0800034b   Thumb Code     0  startup_stm32f40_41xxx.o(.text)
    __user_initial_stackheap                 0x0800034d   Thumb Code     0  startup_stm32f40_41xxx.o(.text)
    __use_no_semihosting                     0x08000371   Thumb Code     2  use_no_semi_2.o(.text)
    __2printf                                0x08000375   Thumb Code    20  noretval__2printf.o(.text)
    __printf                                 0x0800038d   Thumb Code   104  __printf.o(.text)
    _printf_str                              0x080003f5   Thumb Code    82  _printf_str.o(.text)
    _printf_int_dec                          0x08000449   Thumb Code   104  _printf_dec.o(.text)
    __aeabi_memcpy                           0x080004c1   Thumb Code     0  rt_memcpy_v6.o(.text)
    __rt_memcpy                              0x080004c1   Thumb Code   138  rt_memcpy_v6.o(.text)
    _memcpy_lastbytes                        0x08000527   Thumb Code     0  rt_memcpy_v6.o(.text)
    __aeabi_memset                           0x0800054b   Thumb Code    16  aeabi_memset.o(.text)
    __aeabi_memclr                           0x0800055b   Thumb Code     0  rt_memclr.o(.text)
    __rt_memclr                              0x0800055b   Thumb Code    68  rt_memclr.o(.text)
    _memset                                  0x0800055f   Thumb Code     0  rt_memclr.o(.text)
    __use_two_region_memory                  0x0800059f   Thumb Code     2  heapauxi.o(.text)
    __rt_heap_escrow$2region                 0x080005a1   Thumb Code     2  heapauxi.o(.text)
    __rt_heap_expand$2region                 0x080005a3   Thumb Code     2  heapauxi.o(.text)
    __I$use$semihosting                      0x080005a5   Thumb Code     0  use_no_semi.o(.text)
    __use_no_semihosting_swi                 0x080005a5   Thumb Code     2  use_no_semi.o(.text)
    __read_errno                             0x080005a7   Thumb Code    10  _rserrno.o(.text)
    __set_errno                              0x080005b1   Thumb Code    12  _rserrno.o(.text)
    _printf_int_common                       0x080005bd   Thumb Code   178  _printf_intcommon.o(.text)
    _printf_char_common                      0x0800067b   Thumb Code    32  _printf_char_common.o(.text)
    _printf_cs_common                        0x080006a1   Thumb Code    20  _printf_char.o(.text)
    _printf_char                             0x080006b5   Thumb Code    16  _printf_char.o(.text)
    _printf_string                           0x080006c5   Thumb Code     8  _printf_char.o(.text)
    _printf_char_file                        0x080006cd   Thumb Code    32  _printf_char_file.o(.text)
    __aeabi_memcpy4                          0x080006f1   Thumb Code     0  rt_memcpy_w.o(.text)
    __aeabi_memcpy8                          0x080006f1   Thumb Code     0  rt_memcpy_w.o(.text)
    __rt_memcpy_w                            0x080006f1   Thumb Code   100  rt_memcpy_w.o(.text)
    _memcpy_lastbytes_aligned                0x08000739   Thumb Code     0  rt_memcpy_w.o(.text)
    __aeabi_memclr4                          0x08000755   Thumb Code     0  rt_memclr_w.o(.text)
    __aeabi_memclr8                          0x08000755   Thumb Code     0  rt_memclr_w.o(.text)
    __rt_memclr_w                            0x08000755   Thumb Code    78  rt_memclr_w.o(.text)
    _memset_w                                0x08000759   Thumb Code     0  rt_memclr_w.o(.text)
    __aeabi_errno_addr                       0x080007a5   Thumb Code     8  rt_errno_addr_intlibspace.o(.text)
    __errno$intlibspace                      0x080007a5   Thumb Code     0  rt_errno_addr_intlibspace.o(.text)
    __rt_errno_addr$intlibspace              0x080007a5   Thumb Code     0  rt_errno_addr_intlibspace.o(.text)
    ferror                                   0x080007ad   Thumb Code     8  ferror.o(.text)
    __user_libspace                          0x080007b5   Thumb Code     8  libspace.o(.text)
    __user_perproc_libspace                  0x080007b5   Thumb Code     0  libspace.o(.text)
    __user_perthread_libspace                0x080007b5   Thumb Code     0  libspace.o(.text)
    __user_setup_stackheap                   0x080007bd   Thumb Code    74  sys_stackheap_outer.o(.text)
    exit                                     0x08000807   Thumb Code    18  exit.o(.text)
    ADC_Cmd                                  0x08000819   Thumb Code    20  stm32f4xx_adc.o(i.ADC_Cmd)
    ADC_CommonInit                           0x0800082d   Thumb Code    34  stm32f4xx_adc.o(i.ADC_CommonInit)
    ADC_GetConversionValue                   0x08000859   Thumb Code     6  stm32f4xx_adc.o(i.ADC_GetConversionValue)
    ADC_GetFlagStatus                        0x0800085f   Thumb Code    14  stm32f4xx_adc.o(i.ADC_GetFlagStatus)
    ADC_Init                                 0x0800086d   Thumb Code    66  stm32f4xx_adc.o(i.ADC_Init)
    ADC_RegularChannelConfig                 0x080008b9   Thumb Code   116  stm32f4xx_adc.o(i.ADC_RegularChannelConfig)
    ADC_SoftwareStartConv                    0x0800092d   Thumb Code    10  stm32f4xx_adc.o(i.ADC_SoftwareStartConv)
    APP_Show                                 0x08000939   Thumb Code   214  show.o(i.APP_Show)
    Adc_Init                                 0x08000a71   Thumb Code   120  adc.o(i.Adc_Init)
    Adc_POWER_Init                           0x08000af1   Thumb Code   118  adc.o(i.Adc_POWER_Init)
    Balance_task                             0x08000b71   Thumb Code   442  balance.o(i.Balance_task)
    BusFault_Handler                         0x08000d69   Thumb Code     2  stm32f4xx_it.o(i.BusFault_Handler)
    Buzzer_Init                              0x08000d6d   Thumb Code    48  led.o(i.Buzzer_Init)
    CAN1_Mode_Init                           0x08000da1   Thumb Code   394  can.o(i.CAN1_Mode_Init)
    CAN1_RX0_IRQHandler                      0x08000f39   Thumb Code   200  can.o(i.CAN1_RX0_IRQHandler)
    CAN1_Rx_Msg                              0x08001031   Thumb Code   140  can.o(i.CAN1_Rx_Msg)
    CAN1_Send_Num                            0x080010c5   Thumb Code    54  can.o(i.CAN1_Send_Num)
    CAN1_Tx_Msg                              0x080010fd   Thumb Code   184  can.o(i.CAN1_Tx_Msg)
    CAN1_Tx_Staus                            0x080011bd   Thumb Code    94  can.o(i.CAN1_Tx_Staus)
    CAN_ITConfig                             0x08001221   Thumb Code    16  stm32f4xx_can.o(i.CAN_ITConfig)
    CAN_SEND                                 0x08001231   Thumb Code    84  usartx.o(i.CAN_SEND)
    Check_Sum                                0x08001289   Thumb Code    52  usartx.o(i.Check_Sum)
    DebugMon_Handler                         0x080012c1   Thumb Code     2  stm32f4xx_it.o(i.DebugMon_Handler)
    Drive_Motor                              0x080012c5   Thumb Code  1206  balance.o(i.Drive_Motor)
    Enable_Pin                               0x0800177d   Thumb Code    42  motor.o(i.Enable_Pin)
    Encoder_Init_TIM2                        0x080017ad   Thumb Code   212  encoder.o(i.Encoder_Init_TIM2)
    Encoder_Init_TIM3                        0x08001889   Thumb Code   180  encoder.o(i.Encoder_Init_TIM3)
    Encoder_Init_TIM4                        0x08001945   Thumb Code   180  encoder.o(i.Encoder_Init_TIM4)
    Encoder_Init_TIM5                        0x08001a01   Thumb Code   178  encoder.o(i.Encoder_Init_TIM5)
    GPIO_Init                                0x08001abd   Thumb Code   120  stm32f4xx_gpio.o(i.GPIO_Init)
    GPIO_PinAFConfig                         0x08001b35   Thumb Code    32  stm32f4xx_gpio.o(i.GPIO_PinAFConfig)
    GPIO_SetBits                             0x08001b55   Thumb Code     4  stm32f4xx_gpio.o(i.GPIO_SetBits)
    Get_Adc                                  0x08001b59   Thumb Code    44  adc.o(i.Get_Adc)
    Get_Adc2                                 0x08001b89   Thumb Code    44  adc.o(i.Get_Adc2)
    Get_RC                                   0x08001bb9   Thumb Code   430  balance.o(i.Get_RC)
    Get_Velocity_Form_Encoder                0x08001da1   Thumb Code   242  balance.o(i.Get_Velocity_Form_Encoder)
    Get_adc_Average                          0x08001eb9   Thumb Code    46  adc.o(i.Get_adc_Average)
    Get_battery_volt                         0x08001ee9   Thumb Code    70  adc.o(i.Get_battery_volt)
    HardFault_Handler                        0x08001f51   Thumb Code     2  stm32f4xx_it.o(i.HardFault_Handler)
    I2C_Ack                                  0x08001f55   Thumb Code    54  i2c.o(i.I2C_Ack)
    I2C_GPIOInit                             0x08001f95   Thumb Code    58  i2c.o(i.I2C_GPIOInit)
    I2C_NAck                                 0x08001fd9   Thumb Code    56  i2c.o(i.I2C_NAck)
    I2C_ReadByte                             0x08002019   Thumb Code   102  i2c.o(i.I2C_ReadByte)
    I2C_ReadOneByte                          0x08002089   Thumb Code    62  i2c.o(i.I2C_ReadOneByte)
    I2C_Start                                0x080020c9   Thumb Code    70  i2c.o(i.I2C_Start)
    I2C_Stop                                 0x08002119   Thumb Code    56  i2c.o(i.I2C_Stop)
    I2C_WaiteForAck                          0x08002159   Thumb Code    76  i2c.o(i.I2C_WaiteForAck)
    I2C_WriteBits                            0x080021ad   Thumb Code    74  i2c.o(i.I2C_WriteBits)
    I2C_WriteByte                            0x080021f9   Thumb Code    86  i2c.o(i.I2C_WriteByte)
    I2C_WriteOneByte                         0x08002259   Thumb Code    50  i2c.o(i.I2C_WriteOneByte)
    Incremental_PI_A                         0x0800228d   Thumb Code    96  balance.o(i.Incremental_PI_A)
    Incremental_PI_B                         0x08002309   Thumb Code    96  balance.o(i.Incremental_PI_B)
    Incremental_PI_C                         0x08002385   Thumb Code    96  balance.o(i.Incremental_PI_C)
    Incremental_PI_D                         0x08002401   Thumb Code    96  balance.o(i.Incremental_PI_D)
    KEY_Init                                 0x0800247d   Thumb Code    40  key.o(i.KEY_Init)
    Key                                      0x080024a9   Thumb Code    38  balance.o(i.Key)
    LED_Init                                 0x080024e1   Thumb Code    58  led.o(i.LED_Init)
    Limit_Pwm                                0x08002521   Thumb Code   126  balance.o(i.Limit_Pwm)
    MPU6050_Set_LPF                          0x080025b1   Thumb Code    50  mpu6050.o(i.MPU6050_Set_LPF)
    MPU6050_Set_Rate                         0x080025e3   Thumb Code    48  mpu6050.o(i.MPU6050_Set_Rate)
    MPU6050_initialize                       0x08002613   Thumb Code   132  mpu6050.o(i.MPU6050_initialize)
    MPU6050_setFullScaleAccelRange           0x08002697   Thumb Code    18  mpu6050.o(i.MPU6050_setFullScaleAccelRange)
    MPU6050_setFullScaleGyroRange            0x080026a9   Thumb Code    18  mpu6050.o(i.MPU6050_setFullScaleGyroRange)
    MPU6050_task                             0x080026bd   Thumb Code    60  mpu6050.o(i.MPU6050_task)
    MPU_Get_Accelscope                       0x080026fd   Thumb Code   130  mpu6050.o(i.MPU_Get_Accelscope)
    MPU_Get_Gyroscope                        0x08002785   Thumb Code   152  mpu6050.o(i.MPU_Get_Gyroscope)
    MemManage_Handler                        0x08002829   Thumb Code     2  stm32f4xx_it.o(i.MemManage_Handler)
    NMI_Handler                              0x0800282b   Thumb Code     2  stm32f4xx_it.o(i.NMI_Handler)
    NVIC_Init                                0x0800282d   Thumb Code    96  misc.o(i.NVIC_Init)
    NVIC_PriorityGroupConfig                 0x08002891   Thumb Code    10  misc.o(i.NVIC_PriorityGroupConfig)
    OLED_Clear                               0x080028a5   Thumb Code    38  oled.o(i.OLED_Clear)
    OLED_DrawPoint                           0x080028d1   Thumb Code    54  oled.o(i.OLED_DrawPoint)
    OLED_Init                                0x0800290d   Thumb Code   294  oled.o(i.OLED_Init)
    OLED_Refresh_Gram                        0x08002a3d   Thumb Code    66  oled.o(i.OLED_Refresh_Gram)
    OLED_ShowChar                            0x08002a85   Thumb Code   124  oled.o(i.OLED_ShowChar)
    OLED_ShowNumber                          0x08002b09   Thumb Code   120  oled.o(i.OLED_ShowNumber)
    OLED_ShowString                          0x08002b81   Thumb Code    62  oled.o(i.OLED_ShowString)
    OLED_WR_Byte                             0x08002bc1   Thumb Code    62  oled.o(i.OLED_WR_Byte)
    PS2_ClearData                            0x08002c05   Thumb Code    18  pstwo.o(i.PS2_ClearData)
    PS2_Cmd                                  0x08002c1d   Thumb Code   124  pstwo.o(i.PS2_Cmd)
    PS2_DataKey                              0x08002ca1   Thumb Code    56  pstwo.o(i.PS2_DataKey)
    PS2_EnterConfing                         0x08002ce1   Thumb Code    88  pstwo.o(i.PS2_EnterConfing)
    PS2_ExitConfing                          0x08002d3d   Thumb Code    88  pstwo.o(i.PS2_ExitConfing)
    PS2_Init                                 0x08002d99   Thumb Code    78  pstwo.o(i.PS2_Init)
    PS2_Read                                 0x08002ded   Thumb Code   168  pstwo.o(i.PS2_Read)
    PS2_ReadData                             0x08002ed1   Thumb Code   156  pstwo.o(i.PS2_ReadData)
    PS2_SetInit                              0x08002f79   Thumb Code    30  pstwo.o(i.PS2_SetInit)
    PS2_ShortPoll                            0x08002f99   Thumb Code    64  pstwo.o(i.PS2_ShortPoll)
    PS2_TurnOnAnalogMode                     0x08002fdd   Thumb Code    82  pstwo.o(i.PS2_TurnOnAnalogMode)
    PS2_control                              0x08003035   Thumb Code   344  balance.o(i.PS2_control)
    PWR_BackupAccessCmd                      0x080031d1   Thumb Code     6  stm32f4xx_pwr.o(i.PWR_BackupAccessCmd)
    RCC_AHB1PeriphClockCmd                   0x080031dd   Thumb Code    18  stm32f4xx_rcc.o(i.RCC_AHB1PeriphClockCmd)
    RCC_APB1PeriphClockCmd                   0x080031f5   Thumb Code    18  stm32f4xx_rcc.o(i.RCC_APB1PeriphClockCmd)
    RCC_APB2PeriphClockCmd                   0x0800320d   Thumb Code    18  stm32f4xx_rcc.o(i.RCC_APB2PeriphClockCmd)
    RCC_APB2PeriphResetCmd                   0x08003225   Thumb Code    18  stm32f4xx_rcc.o(i.RCC_APB2PeriphResetCmd)
    RCC_GetClocksFreq                        0x0800323d   Thumb Code   132  stm32f4xx_rcc.o(i.RCC_GetClocksFreq)
    RCC_LSEConfig                            0x080032cd   Thumb Code    22  stm32f4xx_rcc.o(i.RCC_LSEConfig)
    Read_Encoder                             0x080032e9   Thumb Code    52  encoder.o(i.Read_Encoder)
    Remote_Control                           0x08003329   Thumb Code   398  balance.o(i.Remote_Control)
    Robot_Init                               0x080034f1   Thumb Code   124  robot_select_init.o(i.Robot_Init)
    Robot_Select                             0x08003589   Thumb Code   242  robot_select_init.o(i.Robot_Select)
    Set_Pwm                                  0x08003795   Thumb Code    94  balance.o(i.Set_Pwm)
    Smooth_control                           0x08003809   Thumb Code   308  balance.o(i.Smooth_control)
    SysTick_CLKSourceConfig                  0x08003949   Thumb Code    24  misc.o(i.SysTick_CLKSourceConfig)
    SysTick_Handler                          0x08003961   Thumb Code    20  delay.o(i.SysTick_Handler)
    SystemInit                               0x08003975   Thumb Code    74  system_stm32f4xx.o(i.SystemInit)
    TIM10_PWM_Init                           0x08003a35   Thumb Code   150  motor.o(i.TIM10_PWM_Init)
    TIM11_PWM_Init                           0x08003ad5   Thumb Code   158  motor.o(i.TIM11_PWM_Init)
    TIM12_SERVO_Init                         0x08003b7d   Thumb Code   198  timer.o(i.TIM12_SERVO_Init)
    TIM1_PWM_Init                            0x08003c4d   Thumb Code   238  motor.o(i.TIM1_PWM_Init)
    TIM2_IRQHandler                          0x08003d45   Thumb Code    16  encoder.o(i.TIM2_IRQHandler)
    TIM3_IRQHandler                          0x08003d55   Thumb Code    14  encoder.o(i.TIM3_IRQHandler)
    TIM4_IRQHandler                          0x08003d69   Thumb Code    14  encoder.o(i.TIM4_IRQHandler)
    TIM5_IRQHandler                          0x08003d7d   Thumb Code    14  encoder.o(i.TIM5_IRQHandler)
    TIM8_BRK_TIM12_IRQHandler                0x08003d91   Thumb Code    14  encoder.o(i.TIM8_BRK_TIM12_IRQHandler)
    TIM8_CC_IRQHandler                       0x08003da5   Thumb Code   576  timer.o(i.TIM8_CC_IRQHandler)
    TIM8_Cap_Init                            0x08004009   Thumb Code   306  timer.o(i.TIM8_Cap_Init)
    TIM8_UP_TIM13_IRQHandler                 0x08004145   Thumb Code    12  timer.o(i.TIM8_UP_TIM13_IRQHandler)
    TIM9_PWM_Init                            0x08004155   Thumb Code   176  motor.o(i.TIM9_PWM_Init)
    TIM_ARRPreloadConfig                     0x0800420d   Thumb Code    20  stm32f4xx_tim.o(i.TIM_ARRPreloadConfig)
    TIM_ClearFlag                            0x08004221   Thumb Code     6  stm32f4xx_tim.o(i.TIM_ClearFlag)
    TIM_ClearITPendingBit                    0x08004227   Thumb Code     6  stm32f4xx_tim.o(i.TIM_ClearITPendingBit)
    TIM_Cmd                                  0x0800422d   Thumb Code    20  stm32f4xx_tim.o(i.TIM_Cmd)
    TIM_CtrlPWMOutputs                       0x08004241   Thumb Code    22  stm32f4xx_tim.o(i.TIM_CtrlPWMOutputs)
    TIM_EncoderInterfaceConfig               0x08004257   Thumb Code    50  stm32f4xx_tim.o(i.TIM_EncoderInterfaceConfig)
    TIM_GetCapture1                          0x08004289   Thumb Code     4  stm32f4xx_tim.o(i.TIM_GetCapture1)
    TIM_GetCapture2                          0x0800428d   Thumb Code     4  stm32f4xx_tim.o(i.TIM_GetCapture2)
    TIM_GetCapture3                          0x08004291   Thumb Code     4  stm32f4xx_tim.o(i.TIM_GetCapture3)
    TIM_GetCapture4                          0x08004295   Thumb Code     4  stm32f4xx_tim.o(i.TIM_GetCapture4)
    TIM_GetITStatus                          0x08004299   Thumb Code    24  stm32f4xx_tim.o(i.TIM_GetITStatus)
    TIM_ICInit                               0x080042b1   Thumb Code   172  stm32f4xx_tim.o(i.TIM_ICInit)
    TIM_ICStructInit                         0x0800435d   Thumb Code    16  stm32f4xx_tim.o(i.TIM_ICStructInit)
    TIM_ITConfig                             0x0800436d   Thumb Code    16  stm32f4xx_tim.o(i.TIM_ITConfig)
    TIM_OC1Init                              0x0800437d   Thumb Code    88  stm32f4xx_tim.o(i.TIM_OC1Init)
    TIM_OC1PolarityConfig                    0x080043dd   Thumb Code    12  stm32f4xx_tim.o(i.TIM_OC1PolarityConfig)
    TIM_OC1PreloadConfig                     0x080043e9   Thumb Code    12  stm32f4xx_tim.o(i.TIM_OC1PreloadConfig)
    TIM_OC2Init                              0x080043f5   Thumb Code   120  stm32f4xx_tim.o(i.TIM_OC2Init)
    TIM_OC2PolarityConfig                    0x08004475   Thumb Code    20  stm32f4xx_tim.o(i.TIM_OC2PolarityConfig)
    TIM_OC2PreloadConfig                     0x08004489   Thumb Code    20  stm32f4xx_tim.o(i.TIM_OC2PreloadConfig)
    TIM_OC3Init                              0x0800449d   Thumb Code   116  stm32f4xx_tim.o(i.TIM_OC3Init)
    TIM_OC3PolarityConfig                    0x08004519   Thumb Code    20  stm32f4xx_tim.o(i.TIM_OC3PolarityConfig)
    TIM_OC3PreloadConfig                     0x0800452d   Thumb Code    12  stm32f4xx_tim.o(i.TIM_OC3PreloadConfig)
    TIM_OC4Init                              0x08004539   Thumb Code    88  stm32f4xx_tim.o(i.TIM_OC4Init)
    TIM_OC4PolarityConfig                    0x08004599   Thumb Code    20  stm32f4xx_tim.o(i.TIM_OC4PolarityConfig)
    TIM_OC4PreloadConfig                     0x080045ad   Thumb Code    20  stm32f4xx_tim.o(i.TIM_OC4PreloadConfig)
    TIM_SetCounter                           0x080045c1   Thumb Code     4  stm32f4xx_tim.o(i.TIM_SetCounter)
    TIM_SetIC1Prescaler                      0x080045c5   Thumb Code    16  stm32f4xx_tim.o(i.TIM_SetIC1Prescaler)
    TIM_SetIC2Prescaler                      0x080045d5   Thumb Code    24  stm32f4xx_tim.o(i.TIM_SetIC2Prescaler)
    TIM_SetIC3Prescaler                      0x080045ed   Thumb Code    16  stm32f4xx_tim.o(i.TIM_SetIC3Prescaler)
    TIM_SetIC4Prescaler                      0x080045fd   Thumb Code    24  stm32f4xx_tim.o(i.TIM_SetIC4Prescaler)
    TIM_TimeBaseInit                         0x08004615   Thumb Code    96  stm32f4xx_tim.o(i.TIM_TimeBaseInit)
    TIM_TimeBaseStructInit                   0x08004691   Thumb Code    18  stm32f4xx_tim.o(i.TIM_TimeBaseStructInit)
    Turn_Off                                 0x080046a5   Thumb Code    54  balance.o(i.Turn_Off)
    UART5_IRQHandler                         0x080046f5   Thumb Code   190  usartx.o(i.UART5_IRQHandler)
    USART1_IRQHandler                        0x080047ed   Thumb Code   206  usartx.o(i.USART1_IRQHandler)
    USART1_SEND                              0x080048f5   Thumb Code    22  usartx.o(i.USART1_SEND)
    USART2_IRQHandler                        0x08004911   Thumb Code   474  usartx.o(i.USART2_IRQHandler)
    USART3_IRQHandler                        0x08004b45   Thumb Code   194  usartx.o(i.USART3_IRQHandler)
    USART3_SEND                              0x08004c45   Thumb Code    22  usartx.o(i.USART3_SEND)
    USART5_SEND                              0x08004c61   Thumb Code    22  usartx.o(i.USART5_SEND)
    USART_Cmd                                0x08004c7d   Thumb Code    20  stm32f4xx_usart.o(i.USART_Cmd)
    USART_GetITStatus                        0x08004c91   Thumb Code    62  stm32f4xx_usart.o(i.USART_GetITStatus)
    USART_ITConfig                           0x08004ccf   Thumb Code    48  stm32f4xx_usart.o(i.USART_ITConfig)
    USART_Init                               0x08004d01   Thumb Code   164  stm32f4xx_usart.o(i.USART_Init)
    USART_ReceiveData                        0x08004dad   Thumb Code     8  stm32f4xx_usart.o(i.USART_ReceiveData)
    UsageFault_Handler                       0x08004db5   Thumb Code     2  stm32f4xx_it.o(i.UsageFault_Handler)
    Vz_to_Akm_Angle                          0x08004db9   Thumb Code   156  usartx.o(i.Vz_to_Akm_Angle)
    XYZ_Target_Speed_transition              0x08004e65   Thumb Code    74  usartx.o(i.XYZ_Target_Speed_transition)
    __ARM_fpclassify                         0x08004eb9   Thumb Code    48  fpclassify.o(i.__ARM_fpclassify)
    __hardfp_atan                            0x08004ee9   Thumb Code   622  atan.o(i.__hardfp_atan)
    __hardfp_pow                             0x080051c1   Thumb Code  3072  pow.o(i.__hardfp_pow)
    __hardfp_sqrt                            0x08005e11   Thumb Code   122  sqrt.o(i.__hardfp_sqrt)
    __hardfp_tan                             0x08005e91   Thumb Code   108  tan.o(i.__hardfp_tan)
    __ieee754_rem_pio2                       0x08005f11   Thumb Code   938  rred.o(i.__ieee754_rem_pio2)
    __kernel_poly                            0x08006349   Thumb Code   248  poly.o(i.__kernel_poly)
    __kernel_tan                             0x08006441   Thumb Code   764  tan_i.o(i.__kernel_tan)
    __mathlib_dbl_divzero                    0x08006791   Thumb Code    28  dunder.o(i.__mathlib_dbl_divzero)
    __mathlib_dbl_infnan                     0x080067c1   Thumb Code    20  dunder.o(i.__mathlib_dbl_infnan)
    __mathlib_dbl_infnan2                    0x080067d5   Thumb Code    20  dunder.o(i.__mathlib_dbl_infnan2)
    __mathlib_dbl_invalid                    0x080067e9   Thumb Code    24  dunder.o(i.__mathlib_dbl_invalid)
    __mathlib_dbl_overflow                   0x08006809   Thumb Code    24  dunder.o(i.__mathlib_dbl_overflow)
    __mathlib_dbl_underflow                  0x08006829   Thumb Code    24  dunder.o(i.__mathlib_dbl_underflow)
    _sys_exit                                0x08006849   Thumb Code     2  usart.o(i._sys_exit)
    click_N_Double_MPU6050                   0x0800684d   Thumb Code   132  key.o(i.click_N_Double_MPU6050)
    data_task                                0x080068d9   Thumb Code    38  usartx.o(i.data_task)
    data_transition                          0x08006901   Thumb Code   586  usartx.o(i.data_transition)
    delay_init                               0x08006b9d   Thumb Code    50  delay.o(i.delay_init)
    delay_ms                                 0x08006bd5   Thumb Code    52  delay.o(i.delay_ms)
    delay_us                                 0x08006c0d   Thumb Code    48  delay.o(i.delay_us)
    fabs                                     0x08006c41   Thumb Code    24  fabs.o(i.fabs)
    float_abs                                0x08006c59   Thumb Code    16  balance.o(i.float_abs)
    fputc                                    0x08006c69   Thumb Code    18  usart.o(i.fputc)
    getSysTickCnt                            0x08006c81   Thumb Code    24  delay.o(i.getSysTickCnt)
    led_task                                 0x08006c9d   Thumb Code    22  led.o(i.led_task)
    main                                     0x08006cbd   Thumb Code    34  main.o(i.main)
    oled_pow                                 0x08006cf5   Thumb Code    16  oled.o(i.oled_pow)
    oled_show                                0x08006d05   Thumb Code  2044  show.o(i.oled_show)
    pstwo_task                               0x08007ded   Thumb Code    22  pstwo.o(i.pstwo_task)
    pvPortMalloc                             0x08007e05   Thumb Code   214  heap_4.o(i.pvPortMalloc)
    pvTaskIncrementMutexHeldCount            0x08007f19   Thumb Code    18  tasks.o(i.pvTaskIncrementMutexHeldCount)
    pxPortInitialiseStack                    0x08007f31   Thumb Code    40  port.o(i.pxPortInitialiseStack)
    show_task                                0x08007f5d   Thumb Code   258  show.o(i.show_task)
    sqrt                                     0x08008085   Thumb Code   110  sqrt.o(i.sqrt)
    start_task                               0x080080f5   Thumb Code   132  main.o(i.start_task)
    systemInit                               0x080081e5   Thumb Code   186  system.o(i.systemInit)
    target_limit_float                       0x0800829f   Thumb Code    32  balance.o(i.target_limit_float)
    target_limit_int                         0x080082bf   Thumb Code    16  balance.o(i.target_limit_int)
    uart1_init                               0x080082d1   Thumb Code   162  usartx.o(i.uart1_init)
    uart2_init                               0x0800837d   Thumb Code   160  usartx.o(i.uart2_init)
    uart3_init                               0x08008425   Thumb Code   168  usartx.o(i.uart3_init)
    uart5_init                               0x080084d5   Thumb Code   206  usartx.o(i.uart5_init)
    usart1_send                              0x080085b1   Thumb Code    12  usartx.o(i.usart1_send)
    usart3_send                              0x080085c1   Thumb Code    14  usartx.o(i.usart3_send)
    usart5_send                              0x080085d5   Thumb Code    12  usartx.o(i.usart5_send)
    uxListRemove                             0x080085e5   Thumb Code    36  list.o(i.uxListRemove)
    vListInitialise                          0x08008609   Thumb Code    22  list.o(i.vListInitialise)
    vListInitialiseItem                      0x0800861f   Thumb Code     6  list.o(i.vListInitialiseItem)
    vListInsert                              0x08008625   Thumb Code    48  list.o(i.vListInsert)
    vListInsertEnd                           0x08008655   Thumb Code    24  list.o(i.vListInsertEnd)
    vPortEnterCritical                       0x0800866d   Thumb Code    50  port.o(i.vPortEnterCritical)
    vPortExitCritical                        0x080086e5   Thumb Code    34  port.o(i.vPortExitCritical)
    vPortFree                                0x08008749   Thumb Code    94  heap_4.o(i.vPortFree)
    vPortSetupTimerInterrupt                 0x080087e5   Thumb Code    26  port.o(i.vPortSetupTimerInterrupt)
    vPortValidateInterruptPriority           0x08008805   Thumb Code    70  port.o(i.vPortValidateInterruptPriority)
    vQueueAddToRegistry                      0x08008891   Thumb Code    32  queue.o(i.vQueueAddToRegistry)
    vQueueWaitForMessageRestricted           0x080088b5   Thumb Code    68  queue.o(i.vQueueWaitForMessageRestricted)
    vTaskDelay                               0x080088f9   Thumb Code    62  tasks.o(i.vTaskDelay)
    vTaskDelayUntil                          0x08008965   Thumb Code   128  tasks.o(i.vTaskDelayUntil)
    vTaskDelete                              0x08008a11   Thumb Code   152  tasks.o(i.vTaskDelete)
    vTaskMissedYield                         0x08008add   Thumb Code     8  tasks.o(i.vTaskMissedYield)
    vTaskPlaceOnEventList                    0x08008ae9   Thumb Code    44  tasks.o(i.vTaskPlaceOnEventList)
    vTaskPlaceOnEventListRestricted          0x08008b3d   Thumb Code    52  tasks.o(i.vTaskPlaceOnEventListRestricted)
    vTaskPriorityInherit                     0x08008b99   Thumb Code   124  tasks.o(i.vTaskPriorityInherit)
    vTaskSetTimeOutState                     0x08008c1d   Thumb Code    30  tasks.o(i.vTaskSetTimeOutState)
    vTaskStartScheduler                      0x08008c65   Thumb Code    96  tasks.o(i.vTaskStartScheduler)
    vTaskSuspendAll                          0x08008cf9   Thumb Code    10  tasks.o(i.vTaskSuspendAll)
    vTaskSwitchContext                       0x08008d09   Thumb Code    80  tasks.o(i.vTaskSwitchContext)
    xPortStartScheduler                      0x08008d85   Thumb Code   196  port.o(i.xPortStartScheduler)
    xPortSysTickHandler                      0x08008e99   Thumb Code    38  port.o(i.xPortSysTickHandler)
    xQueueGenericCreate                      0x08008ec5   Thumb Code    82  queue.o(i.xQueueGenericCreate)
    xQueueGenericReceive                     0x08008f3d   Thumb Code   348  queue.o(i.xQueueGenericReceive)
    xQueueGenericReset                       0x080090c1   Thumb Code   128  queue.o(i.xQueueGenericReset)
    xQueueGenericSend                        0x08009169   Thumb Code   350  queue.o(i.xQueueGenericSend)
    xQueueGenericSendFromISR                 0x080092f1   Thumb Code   188  queue.o(i.xQueueGenericSendFromISR)
    xTaskCheckForTimeOut                     0x080093d1   Thumb Code    94  tasks.o(i.xTaskCheckForTimeOut)
    xTaskCreate                              0x08009459   Thumb Code    86  tasks.o(i.xTaskCreate)
    xTaskGetSchedulerState                   0x080094b1   Thumb Code    22  tasks.o(i.xTaskGetSchedulerState)
    xTaskGetTickCount                        0x080094cd   Thumb Code     6  tasks.o(i.xTaskGetTickCount)
    xTaskIncrementTick                       0x080094d9   Thumb Code   188  tasks.o(i.xTaskIncrementTick)
    xTaskPriorityDisinherit                  0x080095c1   Thumb Code   136  tasks.o(i.xTaskPriorityDisinherit)
    xTaskRemoveFromEventList                 0x08009675   Thumb Code   102  tasks.o(i.xTaskRemoveFromEventList)
    xTaskResumeAll                           0x0800970d   Thumb Code   180  tasks.o(i.xTaskResumeAll)
    xTimerCreate                             0x080097f1   Thumb Code    74  timers.o(i.xTimerCreate)
    xTimerCreateTimerTask                    0x08009865   Thumb Code    58  timers.o(i.xTimerCreateTimerTask)
    xTimerGenericCommand                     0x080098d9   Thumb Code    98  timers.o(i.xTimerGenericCommand)
    __aeabi_dneg                             0x08009969   Thumb Code     0  basic.o(x$fpl$basic)
    _dneg                                    0x08009969   Thumb Code     6  basic.o(x$fpl$basic)
    __aeabi_fneg                             0x0800996f   Thumb Code     0  basic.o(x$fpl$basic)
    _fneg                                    0x0800996f   Thumb Code     6  basic.o(x$fpl$basic)
    _dabs                                    0x08009975   Thumb Code     6  basic.o(x$fpl$basic)
    _fabs                                    0x0800997b   Thumb Code     6  basic.o(x$fpl$basic)
    __aeabi_d2f                              0x08009981   Thumb Code     0  d2f.o(x$fpl$d2f)
    _d2f                                     0x08009981   Thumb Code    98  d2f.o(x$fpl$d2f)
    __aeabi_dadd                             0x080099e5   Thumb Code     0  daddsub_clz.o(x$fpl$dadd)
    _dadd                                    0x080099e5   Thumb Code   332  daddsub_clz.o(x$fpl$dadd)
    __fpl_dcheck_NaN1                        0x08009b35   Thumb Code    10  dcheck1.o(x$fpl$dcheck1)
    __fpl_dcmp_Inf                           0x08009b45   Thumb Code    24  dcmpi.o(x$fpl$dcmpinf)
    __aeabi_ddiv                             0x08009b5d   Thumb Code     0  ddiv.o(x$fpl$ddiv)
    _ddiv                                    0x08009b5d   Thumb Code   552  ddiv.o(x$fpl$ddiv)
    __aeabi_d2iz                             0x08009e0d   Thumb Code     0  dfix.o(x$fpl$dfix)
    _dfix                                    0x08009e0d   Thumb Code    94  dfix.o(x$fpl$dfix)
    __aeabi_i2d                              0x08009e6b   Thumb Code     0  dflt_clz.o(x$fpl$dflt)
    _dflt                                    0x08009e6b   Thumb Code    46  dflt_clz.o(x$fpl$dflt)
    __aeabi_ui2d                             0x08009e99   Thumb Code     0  dflt_clz.o(x$fpl$dfltu)
    _dfltu                                   0x08009e99   Thumb Code    38  dflt_clz.o(x$fpl$dfltu)
    __aeabi_cdcmple                          0x08009ec1   Thumb Code     0  dleqf.o(x$fpl$dleqf)
    _dcmple                                  0x08009ec1   Thumb Code   120  dleqf.o(x$fpl$dleqf)
    __fpl_dcmple_InfNaN                      0x08009f23   Thumb Code     0  dleqf.o(x$fpl$dleqf)
    __aeabi_dmul                             0x08009f39   Thumb Code     0  dmul.o(x$fpl$dmul)
    _dmul                                    0x08009f39   Thumb Code   332  dmul.o(x$fpl$dmul)
    __fpl_dnaninf                            0x0800a08d   Thumb Code   156  dnaninf.o(x$fpl$dnaninf)
    __fpl_dretinf                            0x0800a129   Thumb Code    12  dretinf.o(x$fpl$dretinf)
    __aeabi_cdrcmple                         0x0800a135   Thumb Code     0  drleqf.o(x$fpl$drleqf)
    _drcmple                                 0x0800a135   Thumb Code   108  drleqf.o(x$fpl$drleqf)
    __aeabi_drsub                            0x0800a1a1   Thumb Code     0  daddsub_clz.o(x$fpl$drsb)
    _drsb                                    0x0800a1a1   Thumb Code    22  daddsub_clz.o(x$fpl$drsb)
    _dsqrt                                   0x0800a1b9   Thumb Code   404  dsqrt_umaal.o(x$fpl$dsqrt)
    __aeabi_dsub                             0x0800a351   Thumb Code     0  daddsub_clz.o(x$fpl$dsub)
    _dsub                                    0x0800a351   Thumb Code   464  daddsub_clz.o(x$fpl$dsub)
    __aeabi_f2d                              0x0800a525   Thumb Code     0  f2d.o(x$fpl$f2d)
    _f2d                                     0x0800a525   Thumb Code    86  f2d.o(x$fpl$f2d)
    __fpl_fnaninf                            0x0800a57b   Thumb Code   140  fnaninf.o(x$fpl$fnaninf)
    _fp_init                                 0x0800a607   Thumb Code    10  fpinit.o(x$fpl$fpinit)
    __fplib_config_fpu_vfp                   0x0800a60f   Thumb Code     0  fpinit.o(x$fpl$fpinit)
    __fplib_config_pureend_doubles           0x0800a60f   Thumb Code     0  fpinit.o(x$fpl$fpinit)
    __fpl_fretinf                            0x0800a611   Thumb Code    10  fretinf.o(x$fpl$fretinf)
    __fpl_return_NaN                         0x0800a61b   Thumb Code   100  retnan.o(x$fpl$retnan)
    __ARM_scalbn                             0x0800a67f   Thumb Code    92  scalbn.o(x$fpl$scalbn)
    __fpl_cmpreturn                          0x0800a6db   Thumb Code    48  trapv.o(x$fpl$trapveneer)
    __I$use$fp                               0x0800a70a   Number         0  usenofp.o(x$fpl$usenofp)
    oled_asc2_1206                           0x0800a70a   Data        1140  oled.o(.constdata)
    oled_asc2_1608                           0x0800ab7e   Data        1520  oled.o(.constdata)
    Hzk16                                    0x0800b16e   Data        2624  oled.o(.constdata)
    __mathlib_zero                           0x0800bcd0   Data           8  qnan.o(.constdata)
    Region$$Table$$Base                      0x0800be00   Number         0  anon$$obj.o(Region$$Table)
    Region$$Table$$Limit                     0x0800be20   Number         0  anon$$obj.o(Region$$Table)
    StartTask_Handler                        0x20000000   Data           4  main.o(.data)
    SystemCoreClock                          0x20000004   Data           4  system_stm32f4xx.o(.data)
    AHBPrescTable                            0x20000008   Data          16  system_stm32f4xx.o(.data)
    Voltage                                  0x20000018   Data           4  adc.o(.data)
    Voltage_All                              0x2000001c   Data           4  adc.o(.data)
    Led_Count                                0x20000034   Data           4  led.o(.data)
    Comd                                     0x2000003c   Data           2  pstwo.o(.data)
    Handkey                                  0x2000003e   Data           2  pstwo.o(.data)
    MASK                                     0x20000044   Data          32  pstwo.o(.data)
    TIM8CH1_CAPTURE_STA                      0x20000064   Data           1  timer.o(.data)
    TIM8CH2_CAPTURE_STA                      0x20000065   Data           1  timer.o(.data)
    TIM8CH3_CAPTURE_STA                      0x20000066   Data           1  timer.o(.data)
    TIM8CH4_CAPTURE_STA                      0x20000067   Data           1  timer.o(.data)
    TIM8CH1_CAPTURE_UPVAL                    0x20000068   Data           2  timer.o(.data)
    TIM8CH1_CAPTURE_DOWNVAL                  0x2000006a   Data           2  timer.o(.data)
    TIM8CH2_CAPTURE_UPVAL                    0x2000006c   Data           2  timer.o(.data)
    TIM8CH2_CAPTURE_DOWNVAL                  0x2000006e   Data           2  timer.o(.data)
    TIM8CH3_CAPTURE_UPVAL                    0x20000070   Data           2  timer.o(.data)
    TIM8CH3_CAPTURE_DOWNVAL                  0x20000072   Data           2  timer.o(.data)
    TIM8CH4_CAPTURE_UPVAL                    0x20000074   Data           2  timer.o(.data)
    TIM8CH4_CAPTURE_DOWNVAL                  0x20000076   Data           2  timer.o(.data)
    Remoter_Ch1                              0x20000078   Data           4  timer.o(.data)
    Remoter_Ch2                              0x2000007c   Data           4  timer.o(.data)
    Remoter_Ch3                              0x20000080   Data           4  timer.o(.data)
    Remoter_Ch4                              0x20000084   Data           4  timer.o(.data)
    L_Remoter_Ch1                            0x20000088   Data           4  timer.o(.data)
    L_Remoter_Ch2                            0x2000008c   Data           4  timer.o(.data)
    L_Remoter_Ch3                            0x20000090   Data           4  timer.o(.data)
    L_Remoter_Ch4                            0x20000094   Data           4  timer.o(.data)
    TIM8_T1                                  0x20000098   Data           4  timer.o(.data)
    TIM8_T2                                  0x2000009c   Data           4  timer.o(.data)
    TIM8_T3                                  0x200000a0   Data           4  timer.o(.data)
    TIM8_T4                                  0x200000a4   Data           4  timer.o(.data)
    __stdout                                 0x200000bc   Data           4  usart.o(.data)
    pxCurrentTCB                             0x200000d0   Data           4  tasks.o(.data)
    Flag_Stop                                0x20000144   Data           1  system.o(.data)
    Car_Mode                                 0x20000145   Data           1  system.o(.data)
    RC_Velocity                              0x20000148   Data           4  system.o(.data)
    Velocity_KP                              0x2000014c   Data           4  system.o(.data)
    Velocity_KI                              0x20000150   Data           4  system.o(.data)
    PS2_ON_Flag                              0x20000154   Data           1  system.o(.data)
    APP_ON_Flag                              0x20000155   Data           1  system.o(.data)
    Remote_ON_Flag                           0x20000156   Data           1  system.o(.data)
    CAN_ON_Flag                              0x20000157   Data           1  system.o(.data)
    Flag_Direction                           0x20000158   Data           1  system.o(.data)
    Check                                    0x2000015c   Data           4  system.o(.data)
    CheckPhrase1                             0x20000160   Data           4  system.o(.data)
    CheckPhrase2                             0x20000164   Data           4  system.o(.data)
    Divisor_Mode                             0x20000168   Data           4  system.o(.data)
    Servo                                    0x2000016c   Data           4  system.o(.data)
    Move_X                                   0x20000170   Data           4  system.o(.data)
    Move_Y                                   0x20000174   Data           4  system.o(.data)
    Move_Z                                   0x20000178   Data           4  system.o(.data)
    Encoder_precision                        0x2000017c   Data           4  system.o(.data)
    Wheel_perimeter                          0x20000180   Data           4  system.o(.data)
    Wheel_spacing                            0x20000184   Data           4  system.o(.data)
    Axle_spacing                             0x20000188   Data           4  system.o(.data)
    Omni_turn_radiaus                        0x2000018c   Data           4  system.o(.data)
    Usart1_ON_Flag                           0x20000190   Data           1  system.o(.data)
    Usart5_ON_Flag                           0x20000191   Data           1  system.o(.data)
    Flag_Left                                0x20000192   Data           1  system.o(.data)
    Flag_Right                               0x20000193   Data           1  system.o(.data)
    Turn_Flag                                0x20000194   Data           1  system.o(.data)
    PID_Send                                 0x20000195   Data           1  system.o(.data)
    PS2_LX                                   0x20000198   Data           4  system.o(.data)
    PS2_LY                                   0x2000019c   Data           4  system.o(.data)
    PS2_RX                                   0x200001a0   Data           4  system.o(.data)
    PS2_RY                                   0x200001a4   Data           4  system.o(.data)
    PS2_KEY                                  0x200001a8   Data           4  system.o(.data)
    Time_count                               0x200001b0   Data           4  balance.o(.data)
    robot_mode_check_flag                    0x200001b4   Data           4  balance.o(.data)
    command_lost_count                       0x200001e8   Data           1  balance.o(.data)
    Buzzer_count                             0x200001f0   Data           4  show.o(.data)
    Voltage_Show                             0x20000200   Data           4  show.o(.data)
    Deviation_Count                          0x20000204   Data           4  mpu6050.o(.data)
    gyro                                     0x20000208   Data           6  mpu6050.o(.data)
    accel                                    0x2000020e   Data           6  mpu6050.o(.data)
    Deviation_gyro                           0x20000214   Data           6  mpu6050.o(.data)
    Original_gyro                            0x2000021a   Data           6  mpu6050.o(.data)
    Deviation_accel                          0x20000220   Data           6  mpu6050.o(.data)
    Original_accel                           0x20000226   Data           6  mpu6050.o(.data)
    OLED_GRAM                                0x2000022c   Data        1024  oled.o(.bss)
    Data                                     0x2000062c   Data           9  pstwo.o(.bss)
    Send_Data                                0x20000676   Data          48  usartx.o(.bss)
    Receive_Data                             0x200006a8   Data          32  usartx.o(.bss)
    xQueueRegistry                           0x200006c8   Data          64  queue.o(.bss)
    smooth_control                           0x20005a14   Data          12  system.o(.bss)
    MOTOR_A                                  0x20005a20   Data          20  system.o(.bss)
    MOTOR_B                                  0x20005a34   Data          20  system.o(.bss)
    MOTOR_C                                  0x20005a48   Data          20  system.o(.bss)
    MOTOR_D                                  0x20005a5c   Data          20  system.o(.bss)
    OriginalEncoder                          0x20005a70   Data          16  balance.o(.bss)
    Robot_Parament                           0x20005a80   Data          24  robot_select_init.o(.bss)
    __libspace_start                         0x20005a98   Data          96  libspace.o(.bss)
    __temporary_stack_top$libspace           0x20005af8   Data           0  libspace.o(.bss)



==============================================================================

Memory Map of the image

  Image Entry point : 0x08000189

  Load Region LR_IROM1 (Base: 0x08000000, Size: 0x0000c04c, Max: 0x00080000, ABSOLUTE, COMPRESSED[0x0000be7c])

    Execution Region ER_IROM1 (Exec base: 0x08000000, Load base: 0x08000000, Size: 0x0000be20, Max: 0x00080000, ABSOLUTE)

    Exec Addr    Load Addr    Size         Type   Attr      Idx    E Section Name        Object

    0x08000000   0x08000000   0x00000188   Data   RO         1273    RESET               startup_stm32f40_41xxx.o
    0x08000188   0x08000188   0x00000008   Code   RO         4673  * !!!main             c_w.l(__main.o)
    0x08000190   0x08000190   0x00000034   Code   RO         5001    !!!scatter          c_w.l(__scatter.o)
    0x080001c4   0x080001c4   0x0000005a   Code   RO         4999    !!dczerorl2         c_w.l(__dczerorl2.o)
    0x0800021e   0x0800021e   0x00000002   PAD
    0x08000220   0x08000220   0x0000001c   Code   RO         5003    !!handler_zi        c_w.l(__scatter_zi.o)
    0x0800023c   0x0800023c   0x00000000   Code   RO         4660    .ARM.Collect$$_printf_percent$$00000000  c_w.l(_printf_percent.o)
    0x0800023c   0x0800023c   0x00000006   Code   RO         4658    .ARM.Collect$$_printf_percent$$00000009  c_w.l(_printf_d.o)
    0x08000242   0x08000242   0x00000006   Code   RO         4657    .ARM.Collect$$_printf_percent$$00000014  c_w.l(_printf_s.o)
    0x08000248   0x08000248   0x00000004   Code   RO         4768    .ARM.Collect$$_printf_percent$$00000017  c_w.l(_printf_percent_end.o)
    0x0800024c   0x0800024c   0x00000002   Code   RO         4870    .ARM.Collect$$libinit$$00000000  c_w.l(libinit.o)
    0x0800024e   0x0800024e   0x00000004   Code   RO         4875    .ARM.Collect$$libinit$$00000001  c_w.l(libinit2.o)
    0x08000252   0x08000252   0x00000000   Code   RO         4878    .ARM.Collect$$libinit$$00000004  c_w.l(libinit2.o)
    0x08000252   0x08000252   0x00000000   Code   RO         4881    .ARM.Collect$$libinit$$0000000A  c_w.l(libinit2.o)
    0x08000252   0x08000252   0x00000000   Code   RO         4883    .ARM.Collect$$libinit$$0000000C  c_w.l(libinit2.o)
    0x08000252   0x08000252   0x00000000   Code   RO         4885    .ARM.Collect$$libinit$$0000000E  c_w.l(libinit2.o)
    0x08000252   0x08000252   0x00000000   Code   RO         4888    .ARM.Collect$$libinit$$00000011  c_w.l(libinit2.o)
    0x08000252   0x08000252   0x00000000   Code   RO         4890    .ARM.Collect$$libinit$$00000013  c_w.l(libinit2.o)
    0x08000252   0x08000252   0x00000000   Code   RO         4892    .ARM.Collect$$libinit$$00000015  c_w.l(libinit2.o)
    0x08000252   0x08000252   0x00000000   Code   RO         4894    .ARM.Collect$$libinit$$00000017  c_w.l(libinit2.o)
    0x08000252   0x08000252   0x00000000   Code   RO         4896    .ARM.Collect$$libinit$$00000019  c_w.l(libinit2.o)
    0x08000252   0x08000252   0x00000000   Code   RO         4898    .ARM.Collect$$libinit$$0000001B  c_w.l(libinit2.o)
    0x08000252   0x08000252   0x00000000   Code   RO         4900    .ARM.Collect$$libinit$$0000001D  c_w.l(libinit2.o)
    0x08000252   0x08000252   0x00000000   Code   RO         4902    .ARM.Collect$$libinit$$0000001F  c_w.l(libinit2.o)
    0x08000252   0x08000252   0x00000000   Code   RO         4904    .ARM.Collect$$libinit$$00000021  c_w.l(libinit2.o)
    0x08000252   0x08000252   0x00000000   Code   RO         4906    .ARM.Collect$$libinit$$00000023  c_w.l(libinit2.o)
    0x08000252   0x08000252   0x00000000   Code   RO         4908    .ARM.Collect$$libinit$$00000025  c_w.l(libinit2.o)
    0x08000252   0x08000252   0x00000000   Code   RO         4912    .ARM.Collect$$libinit$$0000002C  c_w.l(libinit2.o)
    0x08000252   0x08000252   0x00000000   Code   RO         4914    .ARM.Collect$$libinit$$0000002E  c_w.l(libinit2.o)
    0x08000252   0x08000252   0x00000000   Code   RO         4916    .ARM.Collect$$libinit$$00000030  c_w.l(libinit2.o)
    0x08000252   0x08000252   0x00000000   Code   RO         4918    .ARM.Collect$$libinit$$00000032  c_w.l(libinit2.o)
    0x08000252   0x08000252   0x00000002   Code   RO         4919    .ARM.Collect$$libinit$$00000033  c_w.l(libinit2.o)
    0x08000254   0x08000254   0x00000002   Code   RO         4939    .ARM.Collect$$libshutdown$$00000000  c_w.l(libshutdown.o)
    0x08000256   0x08000256   0x00000000   Code   RO         4949    .ARM.Collect$$libshutdown$$00000002  c_w.l(libshutdown2.o)
    0x08000256   0x08000256   0x00000000   Code   RO         4951    .ARM.Collect$$libshutdown$$00000004  c_w.l(libshutdown2.o)
    0x08000256   0x08000256   0x00000000   Code   RO         4953    .ARM.Collect$$libshutdown$$00000006  c_w.l(libshutdown2.o)
    0x08000256   0x08000256   0x00000000   Code   RO         4956    .ARM.Collect$$libshutdown$$00000009  c_w.l(libshutdown2.o)
    0x08000256   0x08000256   0x00000000   Code   RO         4959    .ARM.Collect$$libshutdown$$0000000C  c_w.l(libshutdown2.o)
    0x08000256   0x08000256   0x00000000   Code   RO         4961    .ARM.Collect$$libshutdown$$0000000E  c_w.l(libshutdown2.o)
    0x08000256   0x08000256   0x00000000   Code   RO         4964    .ARM.Collect$$libshutdown$$00000011  c_w.l(libshutdown2.o)
    0x08000256   0x08000256   0x00000002   Code   RO         4965    .ARM.Collect$$libshutdown$$00000012  c_w.l(libshutdown2.o)
    0x08000258   0x08000258   0x00000000   Code   RO         4755    .ARM.Collect$$rtentry$$00000000  c_w.l(__rtentry.o)
    0x08000258   0x08000258   0x00000000   Code   RO         4829    .ARM.Collect$$rtentry$$00000002  c_w.l(__rtentry2.o)
    0x08000258   0x08000258   0x00000006   Code   RO         4841    .ARM.Collect$$rtentry$$00000004  c_w.l(__rtentry4.o)
    0x0800025e   0x0800025e   0x00000000   Code   RO         4831    .ARM.Collect$$rtentry$$00000009  c_w.l(__rtentry2.o)
    0x0800025e   0x0800025e   0x00000004   Code   RO         4832    .ARM.Collect$$rtentry$$0000000A  c_w.l(__rtentry2.o)
    0x08000262   0x08000262   0x00000000   Code   RO         4834    .ARM.Collect$$rtentry$$0000000C  c_w.l(__rtentry2.o)
    0x08000262   0x08000262   0x00000008   Code   RO         4835    .ARM.Collect$$rtentry$$0000000D  c_w.l(__rtentry2.o)
    0x0800026a   0x0800026a   0x00000002   Code   RO         4873    .ARM.Collect$$rtexit$$00000000  c_w.l(rtexit.o)
    0x0800026c   0x0800026c   0x00000000   Code   RO         4923    .ARM.Collect$$rtexit$$00000002  c_w.l(rtexit2.o)
    0x0800026c   0x0800026c   0x00000004   Code   RO         4924    .ARM.Collect$$rtexit$$00000003  c_w.l(rtexit2.o)
    0x08000270   0x08000270   0x00000006   Code   RO         4925    .ARM.Collect$$rtexit$$00000004  c_w.l(rtexit2.o)
    0x08000276   0x08000276   0x00000002   PAD
    0x08000278   0x08000278   0x000000b6   Code   RO         3975    .emb_text           port.o
    0x0800032e   0x0800032e   0x00000002   PAD
    0x08000330   0x08000330   0x00000040   Code   RO         1274    .text               startup_stm32f40_41xxx.o
    0x08000370   0x08000370   0x00000002   Code   RO         4620    .text               c_w.l(use_no_semi_2.o)
    0x08000372   0x08000372   0x00000002   PAD
    0x08000374   0x08000374   0x00000018   Code   RO         4626    .text               c_w.l(noretval__2printf.o)
    0x0800038c   0x0800038c   0x00000068   Code   RO         4630    .text               c_w.l(__printf.o)
    0x080003f4   0x080003f4   0x00000052   Code   RO         4632    .text               c_w.l(_printf_str.o)
    0x08000446   0x08000446   0x00000002   PAD
    0x08000448   0x08000448   0x00000078   Code   RO         4634    .text               c_w.l(_printf_dec.o)
    0x080004c0   0x080004c0   0x0000008a   Code   RO         4665    .text               c_w.l(rt_memcpy_v6.o)
    0x0800054a   0x0800054a   0x00000010   Code   RO         4667    .text               c_w.l(aeabi_memset.o)
    0x0800055a   0x0800055a   0x00000044   Code   RO         4669    .text               c_w.l(rt_memclr.o)
    0x0800059e   0x0800059e   0x00000006   Code   RO         4671    .text               c_w.l(heapauxi.o)
    0x080005a4   0x080005a4   0x00000002   Code   RO         4753    .text               c_w.l(use_no_semi.o)
    0x080005a6   0x080005a6   0x00000016   Code   RO         4756    .text               c_w.l(_rserrno.o)
    0x080005bc   0x080005bc   0x000000b2   Code   RO         4758    .text               c_w.l(_printf_intcommon.o)
    0x0800066e   0x0800066e   0x00000002   PAD
    0x08000670   0x08000670   0x00000030   Code   RO         4760    .text               c_w.l(_printf_char_common.o)
    0x080006a0   0x080006a0   0x0000002c   Code   RO         4764    .text               c_w.l(_printf_char.o)
    0x080006cc   0x080006cc   0x00000024   Code   RO         4766    .text               c_w.l(_printf_char_file.o)
    0x080006f0   0x080006f0   0x00000064   Code   RO         4769    .text               c_w.l(rt_memcpy_w.o)
    0x08000754   0x08000754   0x0000004e   Code   RO         4771    .text               c_w.l(rt_memclr_w.o)
    0x080007a2   0x080007a2   0x00000002   PAD
    0x080007a4   0x080007a4   0x00000008   Code   RO         4846    .text               c_w.l(rt_errno_addr_intlibspace.o)
    0x080007ac   0x080007ac   0x00000008   Code   RO         4850    .text               c_w.l(ferror.o)
    0x080007b4   0x080007b4   0x00000008   Code   RO         4858    .text               c_w.l(libspace.o)
    0x080007bc   0x080007bc   0x0000004a   Code   RO         4861    .text               c_w.l(sys_stackheap_outer.o)
    0x08000806   0x08000806   0x00000012   Code   RO         4863    .text               c_w.l(exit.o)
    0x08000818   0x08000818   0x00000014   Code   RO         2006    i.ADC_Cmd           stm32f4xx_adc.o
    0x0800082c   0x0800082c   0x0000002c   Code   RO         2007    i.ADC_CommonInit    stm32f4xx_adc.o
    0x08000858   0x08000858   0x00000006   Code   RO         2018    i.ADC_GetConversionValue  stm32f4xx_adc.o
    0x0800085e   0x0800085e   0x0000000e   Code   RO         2019    i.ADC_GetFlagStatus  stm32f4xx_adc.o
    0x0800086c   0x0800086c   0x0000004c   Code   RO         2026    i.ADC_Init          stm32f4xx_adc.o
    0x080008b8   0x080008b8   0x00000074   Code   RO         2031    i.ADC_RegularChannelConfig  stm32f4xx_adc.o
    0x0800092c   0x0800092c   0x0000000a   Code   RO         2033    i.ADC_SoftwareStartConv  stm32f4xx_adc.o
    0x08000936   0x08000936   0x00000002   PAD
    0x08000938   0x08000938   0x00000138   Code   RO         4355    i.APP_Show          show.o
    0x08000a70   0x08000a70   0x00000080   Code   RO          382    i.Adc_Init          adc.o
    0x08000af0   0x08000af0   0x00000080   Code   RO          383    i.Adc_POWER_Init    adc.o
    0x08000b70   0x08000b70   0x000001f8   Code   RO         4185    i.Balance_task      balance.o
    0x08000d68   0x08000d68   0x00000002   Code   RO          266    i.BusFault_Handler  stm32f4xx_it.o
    0x08000d6a   0x08000d6a   0x00000002   PAD
    0x08000d6c   0x08000d6c   0x00000034   Code   RO          640    i.Buzzer_Init       led.o
    0x08000da0   0x08000da0   0x00000198   Code   RO          441    i.CAN1_Mode_Init    can.o
    0x08000f38   0x08000f38   0x000000f8   Code   RO          443    i.CAN1_RX0_IRQHandler  can.o
    0x08001030   0x08001030   0x00000094   Code   RO          445    i.CAN1_Rx_Msg       can.o
    0x080010c4   0x080010c4   0x00000036   Code   RO          448    i.CAN1_Send_Num     can.o
    0x080010fa   0x080010fa   0x00000002   PAD
    0x080010fc   0x080010fc   0x000000c0   Code   RO          449    i.CAN1_Tx_Msg       can.o
    0x080011bc   0x080011bc   0x00000064   Code   RO          450    i.CAN1_Tx_Staus     can.o
    0x08001220   0x08001220   0x00000010   Code   RO         2254    i.CAN_ITConfig      stm32f4xx_can.o
    0x08001230   0x08001230   0x00000058   Code   RO          997    i.CAN_SEND          usartx.o
    0x08001288   0x08001288   0x00000038   Code   RO          998    i.Check_Sum         usartx.o
    0x080012c0   0x080012c0   0x00000002   Code   RO          267    i.DebugMon_Handler  stm32f4xx_it.o
    0x080012c2   0x080012c2   0x00000002   PAD
    0x080012c4   0x080012c4   0x000004b6   Code   RO         4186    i.Drive_Motor       balance.o
    0x0800177a   0x0800177a   0x00000002   PAD
    0x0800177c   0x0800177c   0x00000030   Code   RO          684    i.Enable_Pin        motor.o
    0x080017ac   0x080017ac   0x000000dc   Code   RO          515    i.Encoder_Init_TIM2  encoder.o
    0x08001888   0x08001888   0x000000bc   Code   RO          516    i.Encoder_Init_TIM3  encoder.o
    0x08001944   0x08001944   0x000000bc   Code   RO          517    i.Encoder_Init_TIM4  encoder.o
    0x08001a00   0x08001a00   0x000000bc   Code   RO          518    i.Encoder_Init_TIM5  encoder.o
    0x08001abc   0x08001abc   0x00000078   Code   RO         1325    i.GPIO_Init         stm32f4xx_gpio.o
    0x08001b34   0x08001b34   0x00000020   Code   RO         1326    i.GPIO_PinAFConfig  stm32f4xx_gpio.o
    0x08001b54   0x08001b54   0x00000004   Code   RO         1333    i.GPIO_SetBits      stm32f4xx_gpio.o
    0x08001b58   0x08001b58   0x00000030   Code   RO          384    i.Get_Adc           adc.o
    0x08001b88   0x08001b88   0x00000030   Code   RO          385    i.Get_Adc2          adc.o
    0x08001bb8   0x08001bb8   0x000001e8   Code   RO         4187    i.Get_RC            balance.o
    0x08001da0   0x08001da0   0x00000118   Code   RO         4188    i.Get_Velocity_Form_Encoder  balance.o
    0x08001eb8   0x08001eb8   0x0000002e   Code   RO          386    i.Get_adc_Average   adc.o
    0x08001ee6   0x08001ee6   0x00000002   PAD
    0x08001ee8   0x08001ee8   0x00000068   Code   RO          387    i.Get_battery_volt  adc.o
    0x08001f50   0x08001f50   0x00000002   Code   RO          268    i.HardFault_Handler  stm32f4xx_it.o
    0x08001f52   0x08001f52   0x00000002   PAD
    0x08001f54   0x08001f54   0x00000040   Code   RO         4518    i.I2C_Ack           i2c.o
    0x08001f94   0x08001f94   0x00000044   Code   RO         4519    i.I2C_GPIOInit      i2c.o
    0x08001fd8   0x08001fd8   0x00000040   Code   RO         4520    i.I2C_NAck          i2c.o
    0x08002018   0x08002018   0x00000070   Code   RO         4522    i.I2C_ReadByte      i2c.o
    0x08002088   0x08002088   0x0000003e   Code   RO         4523    i.I2C_ReadOneByte   i2c.o
    0x080020c6   0x080020c6   0x00000002   PAD
    0x080020c8   0x080020c8   0x00000050   Code   RO         4524    i.I2C_Start         i2c.o
    0x08002118   0x08002118   0x00000040   Code   RO         4525    i.I2C_Stop          i2c.o
    0x08002158   0x08002158   0x00000054   Code   RO         4526    i.I2C_WaiteForAck   i2c.o
    0x080021ac   0x080021ac   0x0000004a   Code   RO         4527    i.I2C_WriteBits     i2c.o
    0x080021f6   0x080021f6   0x00000002   PAD
    0x080021f8   0x080021f8   0x00000060   Code   RO         4529    i.I2C_WriteByte     i2c.o
    0x08002258   0x08002258   0x00000032   Code   RO         4531    i.I2C_WriteOneByte  i2c.o
    0x0800228a   0x0800228a   0x00000002   PAD
    0x0800228c   0x0800228c   0x0000007c   Code   RO         4189    i.Incremental_PI_A  balance.o
    0x08002308   0x08002308   0x0000007c   Code   RO         4190    i.Incremental_PI_B  balance.o
    0x08002384   0x08002384   0x0000007c   Code   RO         4191    i.Incremental_PI_C  balance.o
    0x08002400   0x08002400   0x0000007c   Code   RO         4192    i.Incremental_PI_D  balance.o
    0x0800247c   0x0800247c   0x0000002c   Code   RO          590    i.KEY_Init          key.o
    0x080024a8   0x080024a8   0x00000038   Code   RO         4193    i.Key               balance.o
    0x080024e0   0x080024e0   0x00000040   Code   RO          641    i.LED_Init          led.o
    0x08002520   0x08002520   0x00000090   Code   RO         4194    i.Limit_Pwm         balance.o
    0x080025b0   0x080025b0   0x00000032   Code   RO         4393    i.MPU6050_Set_LPF   mpu6050.o
    0x080025e2   0x080025e2   0x00000030   Code   RO         4394    i.MPU6050_Set_Rate  mpu6050.o
    0x08002612   0x08002612   0x00000084   Code   RO         4396    i.MPU6050_initialize  mpu6050.o
    0x08002696   0x08002696   0x00000012   Code   RO         4399    i.MPU6050_setFullScaleAccelRange  mpu6050.o
    0x080026a8   0x080026a8   0x00000012   Code   RO         4400    i.MPU6050_setFullScaleGyroRange  mpu6050.o
    0x080026ba   0x080026ba   0x00000002   PAD
    0x080026bc   0x080026bc   0x00000040   Code   RO         4404    i.MPU6050_task      mpu6050.o
    0x080026fc   0x080026fc   0x00000088   Code   RO         4406    i.MPU_Get_Accelscope  mpu6050.o
    0x08002784   0x08002784   0x000000a4   Code   RO         4407    i.MPU_Get_Gyroscope  mpu6050.o
    0x08002828   0x08002828   0x00000002   Code   RO          269    i.MemManage_Handler  stm32f4xx_it.o
    0x0800282a   0x0800282a   0x00000002   Code   RO          270    i.NMI_Handler       stm32f4xx_it.o
    0x0800282c   0x0800282c   0x00000064   Code   RO         1280    i.NVIC_Init         misc.o
    0x08002890   0x08002890   0x00000014   Code   RO         1281    i.NVIC_PriorityGroupConfig  misc.o
    0x080028a4   0x080028a4   0x0000002c   Code   RO          728    i.OLED_Clear        oled.o
    0x080028d0   0x080028d0   0x0000003c   Code   RO          731    i.OLED_DrawPoint    oled.o
    0x0800290c   0x0800290c   0x00000130   Code   RO          732    i.OLED_Init         oled.o
    0x08002a3c   0x08002a3c   0x00000048   Code   RO          733    i.OLED_Refresh_Gram  oled.o
    0x08002a84   0x08002a84   0x00000084   Code   RO          736    i.OLED_ShowChar     oled.o
    0x08002b08   0x08002b08   0x00000078   Code   RO          737    i.OLED_ShowNumber   oled.o
    0x08002b80   0x08002b80   0x0000003e   Code   RO          738    i.OLED_ShowString   oled.o
    0x08002bbe   0x08002bbe   0x00000002   PAD
    0x08002bc0   0x08002bc0   0x00000044   Code   RO          739    i.OLED_WR_Byte      oled.o
    0x08002c04   0x08002c04   0x00000018   Code   RO          826    i.PS2_ClearData     pstwo.o
    0x08002c1c   0x08002c1c   0x00000084   Code   RO          827    i.PS2_Cmd           pstwo.o
    0x08002ca0   0x08002ca0   0x00000040   Code   RO          828    i.PS2_DataKey       pstwo.o
    0x08002ce0   0x08002ce0   0x0000005c   Code   RO          829    i.PS2_EnterConfing  pstwo.o
    0x08002d3c   0x08002d3c   0x0000005c   Code   RO          830    i.PS2_ExitConfing   pstwo.o
    0x08002d98   0x08002d98   0x00000054   Code   RO          831    i.PS2_Init          pstwo.o
    0x08002dec   0x08002dec   0x000000e4   Code   RO          832    i.PS2_Read          pstwo.o
    0x08002ed0   0x08002ed0   0x000000a8   Code   RO          833    i.PS2_ReadData      pstwo.o
    0x08002f78   0x08002f78   0x0000001e   Code   RO          836    i.PS2_SetInit       pstwo.o
    0x08002f96   0x08002f96   0x00000002   PAD
    0x08002f98   0x08002f98   0x00000044   Code   RO          837    i.PS2_ShortPoll     pstwo.o
    0x08002fdc   0x08002fdc   0x00000058   Code   RO          838    i.PS2_TurnOnAnalogMode  pstwo.o
    0x08003034   0x08003034   0x0000019c   Code   RO         4195    i.PS2_control       balance.o
    0x080031d0   0x080031d0   0x0000000c   Code   RO         2952    i.PWR_BackupAccessCmd  stm32f4xx_pwr.o
    0x080031dc   0x080031dc   0x00000018   Code   RO         1422    i.RCC_AHB1PeriphClockCmd  stm32f4xx_rcc.o
    0x080031f4   0x080031f4   0x00000018   Code   RO         1431    i.RCC_APB1PeriphClockCmd  stm32f4xx_rcc.o
    0x0800320c   0x0800320c   0x00000018   Code   RO         1434    i.RCC_APB2PeriphClockCmd  stm32f4xx_rcc.o
    0x08003224   0x08003224   0x00000018   Code   RO         1436    i.RCC_APB2PeriphResetCmd  stm32f4xx_rcc.o
    0x0800323c   0x0800323c   0x00000090   Code   RO         1443    i.RCC_GetClocksFreq  stm32f4xx_rcc.o
    0x080032cc   0x080032cc   0x0000001c   Code   RO         1452    i.RCC_LSEConfig     stm32f4xx_rcc.o
    0x080032e8   0x080032e8   0x00000040   Code   RO          519    i.Read_Encoder      encoder.o
    0x08003328   0x08003328   0x000001c8   Code   RO         4196    i.Remote_Control    balance.o
    0x080034f0   0x080034f0   0x00000098   Code   RO         4326    i.Robot_Init        robot_select_init.o
    0x08003588   0x08003588   0x00000158   Code   RO         4327    i.Robot_Select      robot_select_init.o
    0x080036e0   0x080036e0   0x000000b4   Code   RO          345    i.SetSysClock       system_stm32f4xx.o
    0x08003794   0x08003794   0x00000074   Code   RO         4197    i.Set_Pwm           balance.o
    0x08003808   0x08003808   0x00000140   Code   RO         4198    i.Smooth_control    balance.o
    0x08003948   0x08003948   0x00000018   Code   RO         1284    i.SysTick_CLKSourceConfig  misc.o
    0x08003960   0x08003960   0x00000014   Code   RO         1152    i.SysTick_Handler   delay.o
    0x08003974   0x08003974   0x0000005c   Code   RO          347    i.SystemInit        system_stm32f4xx.o
    0x080039d0   0x080039d0   0x0000002e   Code   RO         2405    i.TI1_Config        stm32f4xx_tim.o
    0x080039fe   0x080039fe   0x00000036   Code   RO         2406    i.TI2_Config        stm32f4xx_tim.o
    0x08003a34   0x08003a34   0x000000a0   Code   RO          685    i.TIM10_PWM_Init    motor.o
    0x08003ad4   0x08003ad4   0x000000a8   Code   RO          686    i.TIM11_PWM_Init    motor.o
    0x08003b7c   0x08003b7c   0x000000d0   Code   RO          947    i.TIM12_SERVO_Init  timer.o
    0x08003c4c   0x08003c4c   0x000000f8   Code   RO          687    i.TIM1_PWM_Init     motor.o
    0x08003d44   0x08003d44   0x00000010   Code   RO          520    i.TIM2_IRQHandler   encoder.o
    0x08003d54   0x08003d54   0x00000014   Code   RO          521    i.TIM3_IRQHandler   encoder.o
    0x08003d68   0x08003d68   0x00000014   Code   RO          522    i.TIM4_IRQHandler   encoder.o
    0x08003d7c   0x08003d7c   0x00000014   Code   RO          523    i.TIM5_IRQHandler   encoder.o
    0x08003d90   0x08003d90   0x00000014   Code   RO          524    i.TIM8_BRK_TIM12_IRQHandler  encoder.o
    0x08003da4   0x08003da4   0x00000264   Code   RO          948    i.TIM8_CC_IRQHandler  timer.o
    0x08004008   0x08004008   0x0000013c   Code   RO          949    i.TIM8_Cap_Init     timer.o
    0x08004144   0x08004144   0x00000010   Code   RO          951    i.TIM8_UP_TIM13_IRQHandler  timer.o
    0x08004154   0x08004154   0x000000b8   Code   RO          688    i.TIM9_PWM_Init     motor.o
    0x0800420c   0x0800420c   0x00000014   Code   RO         2407    i.TIM_ARRPreloadConfig  stm32f4xx_tim.o
    0x08004220   0x08004220   0x00000006   Code   RO         2413    i.TIM_ClearFlag     stm32f4xx_tim.o
    0x08004226   0x08004226   0x00000006   Code   RO         2414    i.TIM_ClearITPendingBit  stm32f4xx_tim.o
    0x0800422c   0x0800422c   0x00000014   Code   RO         2419    i.TIM_Cmd           stm32f4xx_tim.o
    0x08004240   0x08004240   0x00000016   Code   RO         2421    i.TIM_CtrlPWMOutputs  stm32f4xx_tim.o
    0x08004256   0x08004256   0x00000032   Code   RO         2428    i.TIM_EncoderInterfaceConfig  stm32f4xx_tim.o
    0x08004288   0x08004288   0x00000004   Code   RO         2434    i.TIM_GetCapture1   stm32f4xx_tim.o
    0x0800428c   0x0800428c   0x00000004   Code   RO         2435    i.TIM_GetCapture2   stm32f4xx_tim.o
    0x08004290   0x08004290   0x00000004   Code   RO         2436    i.TIM_GetCapture3   stm32f4xx_tim.o
    0x08004294   0x08004294   0x00000004   Code   RO         2437    i.TIM_GetCapture4   stm32f4xx_tim.o
    0x08004298   0x08004298   0x00000018   Code   RO         2440    i.TIM_GetITStatus   stm32f4xx_tim.o
    0x080042b0   0x080042b0   0x000000ac   Code   RO         2442    i.TIM_ICInit        stm32f4xx_tim.o
    0x0800435c   0x0800435c   0x00000010   Code   RO         2443    i.TIM_ICStructInit  stm32f4xx_tim.o
    0x0800436c   0x0800436c   0x00000010   Code   RO         2444    i.TIM_ITConfig      stm32f4xx_tim.o
    0x0800437c   0x0800437c   0x00000060   Code   RO         2448    i.TIM_OC1Init       stm32f4xx_tim.o
    0x080043dc   0x080043dc   0x0000000c   Code   RO         2450    i.TIM_OC1PolarityConfig  stm32f4xx_tim.o
    0x080043e8   0x080043e8   0x0000000c   Code   RO         2451    i.TIM_OC1PreloadConfig  stm32f4xx_tim.o
    0x080043f4   0x080043f4   0x00000080   Code   RO         2453    i.TIM_OC2Init       stm32f4xx_tim.o
    0x08004474   0x08004474   0x00000014   Code   RO         2455    i.TIM_OC2PolarityConfig  stm32f4xx_tim.o
    0x08004488   0x08004488   0x00000014   Code   RO         2456    i.TIM_OC2PreloadConfig  stm32f4xx_tim.o
    0x0800449c   0x0800449c   0x0000007c   Code   RO         2458    i.TIM_OC3Init       stm32f4xx_tim.o
    0x08004518   0x08004518   0x00000014   Code   RO         2460    i.TIM_OC3PolarityConfig  stm32f4xx_tim.o
    0x0800452c   0x0800452c   0x0000000c   Code   RO         2461    i.TIM_OC3PreloadConfig  stm32f4xx_tim.o
    0x08004538   0x08004538   0x00000060   Code   RO         2463    i.TIM_OC4Init       stm32f4xx_tim.o
    0x08004598   0x08004598   0x00000014   Code   RO         2464    i.TIM_OC4PolarityConfig  stm32f4xx_tim.o
    0x080045ac   0x080045ac   0x00000014   Code   RO         2465    i.TIM_OC4PreloadConfig  stm32f4xx_tim.o
    0x080045c0   0x080045c0   0x00000004   Code   RO         2485    i.TIM_SetCounter    stm32f4xx_tim.o
    0x080045c4   0x080045c4   0x00000010   Code   RO         2486    i.TIM_SetIC1Prescaler  stm32f4xx_tim.o
    0x080045d4   0x080045d4   0x00000018   Code   RO         2487    i.TIM_SetIC2Prescaler  stm32f4xx_tim.o
    0x080045ec   0x080045ec   0x00000010   Code   RO         2488    i.TIM_SetIC3Prescaler  stm32f4xx_tim.o
    0x080045fc   0x080045fc   0x00000018   Code   RO         2489    i.TIM_SetIC4Prescaler  stm32f4xx_tim.o
    0x08004614   0x08004614   0x0000007c   Code   RO         2491    i.TIM_TimeBaseInit  stm32f4xx_tim.o
    0x08004690   0x08004690   0x00000012   Code   RO         2492    i.TIM_TimeBaseStructInit  stm32f4xx_tim.o
    0x080046a2   0x080046a2   0x00000002   PAD
    0x080046a4   0x080046a4   0x00000050   Code   RO         4199    i.Turn_Off          balance.o
    0x080046f4   0x080046f4   0x000000f8   Code   RO          999    i.UART5_IRQHandler  usartx.o
    0x080047ec   0x080047ec   0x00000108   Code   RO         1000    i.USART1_IRQHandler  usartx.o
    0x080048f4   0x080048f4   0x0000001c   Code   RO         1001    i.USART1_SEND       usartx.o
    0x08004910   0x08004910   0x00000234   Code   RO         1002    i.USART2_IRQHandler  usartx.o
    0x08004b44   0x08004b44   0x00000100   Code   RO         1003    i.USART3_IRQHandler  usartx.o
    0x08004c44   0x08004c44   0x0000001c   Code   RO         1004    i.USART3_SEND       usartx.o
    0x08004c60   0x08004c60   0x0000001c   Code   RO         1005    i.USART5_SEND       usartx.o
    0x08004c7c   0x08004c7c   0x00000014   Code   RO         1816    i.USART_Cmd         stm32f4xx_usart.o
    0x08004c90   0x08004c90   0x0000003e   Code   RO         1820    i.USART_GetITStatus  stm32f4xx_usart.o
    0x08004cce   0x08004cce   0x00000030   Code   RO         1822    i.USART_ITConfig    stm32f4xx_usart.o
    0x08004cfe   0x08004cfe   0x00000002   PAD
    0x08004d00   0x08004d00   0x000000ac   Code   RO         1823    i.USART_Init        stm32f4xx_usart.o
    0x08004dac   0x08004dac   0x00000008   Code   RO         1830    i.USART_ReceiveData  stm32f4xx_usart.o
    0x08004db4   0x08004db4   0x00000002   Code   RO          271    i.UsageFault_Handler  stm32f4xx_it.o
    0x08004db6   0x08004db6   0x00000002   PAD
    0x08004db8   0x08004db8   0x000000ac   Code   RO         1006    i.Vz_to_Akm_Angle   usartx.o
    0x08004e64   0x08004e64   0x00000054   Code   RO         1007    i.XYZ_Target_Speed_transition  usartx.o
    0x08004eb8   0x08004eb8   0x00000030   Code   RO         4812    i.__ARM_fpclassify  m_wm.l(fpclassify.o)
    0x08004ee8   0x08004ee8   0x000002d8   Code   RO         4701    i.__hardfp_atan     m_wm.l(atan.o)
    0x080051c0   0x080051c0   0x00000c50   Code   RO         4715    i.__hardfp_pow      m_wm.l(pow.o)
    0x08005e10   0x08005e10   0x0000007a   Code   RO         4729    i.__hardfp_sqrt     m_wm.l(sqrt.o)
    0x08005e8a   0x08005e8a   0x00000006   PAD
    0x08005e90   0x08005e90   0x00000080   Code   RO         4741    i.__hardfp_tan      m_wm.l(tan.o)
    0x08005f10   0x08005f10   0x00000438   Code   RO         4817    i.__ieee754_rem_pio2  m_wm.l(rred.o)
    0x08006348   0x08006348   0x000000f8   Code   RO         4814    i.__kernel_poly     m_wm.l(poly.o)
    0x08006440   0x08006440   0x00000350   Code   RO         4822    i.__kernel_tan      m_wm.l(tan_i.o)
    0x08006790   0x08006790   0x00000030   Code   RO         4792    i.__mathlib_dbl_divzero  m_wm.l(dunder.o)
    0x080067c0   0x080067c0   0x00000014   Code   RO         4793    i.__mathlib_dbl_infnan  m_wm.l(dunder.o)
    0x080067d4   0x080067d4   0x00000014   Code   RO         4794    i.__mathlib_dbl_infnan2  m_wm.l(dunder.o)
    0x080067e8   0x080067e8   0x00000020   Code   RO         4795    i.__mathlib_dbl_invalid  m_wm.l(dunder.o)
    0x08006808   0x08006808   0x00000020   Code   RO         4796    i.__mathlib_dbl_overflow  m_wm.l(dunder.o)
    0x08006828   0x08006828   0x00000020   Code   RO         4798    i.__mathlib_dbl_underflow  m_wm.l(dunder.o)
    0x08006848   0x08006848   0x00000002   Code   RO         1226    i._sys_exit         usart.o
    0x0800684a   0x0800684a   0x00000002   PAD
    0x0800684c   0x0800684c   0x0000008c   Code   RO          594    i.click_N_Double_MPU6050  key.o
    0x080068d8   0x080068d8   0x00000026   Code   RO         1008    i.data_task         usartx.o
    0x080068fe   0x080068fe   0x00000002   PAD
    0x08006900   0x08006900   0x0000029c   Code   RO         1009    i.data_transition   usartx.o
    0x08006b9c   0x08006b9c   0x00000038   Code   RO         1153    i.delay_init        delay.o
    0x08006bd4   0x08006bd4   0x00000038   Code   RO         1154    i.delay_ms          delay.o
    0x08006c0c   0x08006c0c   0x00000034   Code   RO         1155    i.delay_us          delay.o
    0x08006c40   0x08006c40   0x00000018   Code   RO         4808    i.fabs              m_wm.l(fabs.o)
    0x08006c58   0x08006c58   0x00000010   Code   RO         4200    i.float_abs         balance.o
    0x08006c68   0x08006c68   0x00000018   Code   RO         1227    i.fputc             usart.o
    0x08006c80   0x08006c80   0x0000001c   Code   RO         1157    i.getSysTickCnt     delay.o
    0x08006c9c   0x08006c9c   0x00000020   Code   RO          643    i.led_task          led.o
    0x08006cbc   0x08006cbc   0x00000038   Code   RO            3    i.main              main.o
    0x08006cf4   0x08006cf4   0x00000010   Code   RO          740    i.oled_pow          oled.o
    0x08006d04   0x08006d04   0x00000884   Code   RO         4356    i.oled_show         show.o
    0x08007588   0x08007588   0x00000070   Code   RO         3494    i.prvAddCurrentTaskToDelayedList  tasks.o
    0x080075f8   0x080075f8   0x000000d0   Code   RO         3495    i.prvAddNewTaskToReadyList  tasks.o
    0x080076c8   0x080076c8   0x00000050   Code   RO         3847    i.prvCheckForValidListAndQueue  timers.o
    0x08007718   0x08007718   0x00000054   Code   RO         3496    i.prvCheckTasksWaitingTermination  tasks.o
    0x0800776c   0x0800776c   0x00000026   Code   RO         3271    i.prvCopyDataFromQueue  queue.o
    0x08007792   0x08007792   0x0000006c   Code   RO         3272    i.prvCopyDataToQueue  queue.o
    0x080077fe   0x080077fe   0x00000014   Code   RO         3497    i.prvDeleteTCB      tasks.o
    0x08007812   0x08007812   0x00000002   PAD
    0x08007814   0x08007814   0x0000004c   Code   RO         4060    i.prvHeapInit       heap_4.o
    0x08007860   0x08007860   0x00000028   Code   RO         3498    i.prvIdleTask       tasks.o
    0x08007888   0x08007888   0x000000c0   Code   RO         3499    i.prvInitialiseNewTask  tasks.o
    0x08007948   0x08007948   0x0000004c   Code   RO         4061    i.prvInsertBlockIntoFreeList  heap_4.o
    0x08007994   0x08007994   0x00000038   Code   RO         3848    i.prvInsertTimerInActiveList  timers.o
    0x080079cc   0x080079cc   0x0000001a   Code   RO         3273    i.prvIsQueueEmpty   queue.o
    0x080079e6   0x080079e6   0x00000002   PAD
    0x080079e8   0x080079e8   0x00000090   Code   RO         3274    i.prvNotifyQueueSetContainer  queue.o
    0x08007a78   0x08007a78   0x00000060   Code   RO         3849    i.prvProcessExpiredTimer  timers.o
    0x08007ad8   0x08007ad8   0x000000f0   Code   RO         3850    i.prvProcessReceivedCommands  timers.o
    0x08007bc8   0x08007bc8   0x0000006c   Code   RO         3851    i.prvProcessTimerOrBlockTask  timers.o
    0x08007c34   0x08007c34   0x00000020   Code   RO         3501    i.prvResetNextTaskUnblockTime  tasks.o
    0x08007c54   0x08007c54   0x00000028   Code   RO         3852    i.prvSampleTimeNow  timers.o
    0x08007c7c   0x08007c7c   0x0000006c   Code   RO         3853    i.prvSwitchTimerLists  timers.o
    0x08007ce8   0x08007ce8   0x00000064   Code   RO         3976    i.prvTaskExitError  port.o
    0x08007d4c   0x08007d4c   0x00000028   Code   RO         3854    i.prvTimerTask      timers.o
    0x08007d74   0x08007d74   0x00000078   Code   RO         3275    i.prvUnlockQueue    queue.o
    0x08007dec   0x08007dec   0x00000016   Code   RO          841    i.pstwo_task        pstwo.o
    0x08007e02   0x08007e02   0x00000002   PAD
    0x08007e04   0x08007e04   0x00000114   Code   RO         4062    i.pvPortMalloc      heap_4.o
    0x08007f18   0x08007f18   0x00000018   Code   RO         3503    i.pvTaskIncrementMutexHeldCount  tasks.o
    0x08007f30   0x08007f30   0x0000002c   Code   RO         3977    i.pxPortInitialiseStack  port.o
    0x08007f5c   0x08007f5c   0x00000128   Code   RO         4357    i.show_task         show.o
    0x08008084   0x08008084   0x0000006e   Code   RO         4731    i.sqrt              m_wm.l(sqrt.o)
    0x080080f2   0x080080f2   0x00000002   PAD
    0x080080f4   0x080080f4   0x000000f0   Code   RO            4    i.start_task        main.o
    0x080081e4   0x080081e4   0x000000ba   Code   RO         4117    i.systemInit        system.o
    0x0800829e   0x0800829e   0x00000020   Code   RO         4203    i.target_limit_float  balance.o
    0x080082be   0x080082be   0x00000010   Code   RO         4204    i.target_limit_int  balance.o
    0x080082ce   0x080082ce   0x00000002   PAD
    0x080082d0   0x080082d0   0x000000ac   Code   RO         1010    i.uart1_init        usartx.o
    0x0800837c   0x0800837c   0x000000a8   Code   RO         1011    i.uart2_init        usartx.o
    0x08008424   0x08008424   0x000000b0   Code   RO         1012    i.uart3_init        usartx.o
    0x080084d4   0x080084d4   0x000000dc   Code   RO         1013    i.uart5_init        usartx.o
    0x080085b0   0x080085b0   0x00000010   Code   RO         1014    i.usart1_send       usartx.o
    0x080085c0   0x080085c0   0x00000014   Code   RO         1016    i.usart3_send       usartx.o
    0x080085d4   0x080085d4   0x00000010   Code   RO         1017    i.usart5_send       usartx.o
    0x080085e4   0x080085e4   0x00000024   Code   RO         3226    i.uxListRemove      list.o
    0x08008608   0x08008608   0x00000016   Code   RO         3227    i.vListInitialise   list.o
    0x0800861e   0x0800861e   0x00000006   Code   RO         3228    i.vListInitialiseItem  list.o
    0x08008624   0x08008624   0x00000030   Code   RO         3229    i.vListInsert       list.o
    0x08008654   0x08008654   0x00000018   Code   RO         3230    i.vListInsertEnd    list.o
    0x0800866c   0x0800866c   0x00000078   Code   RO         3979    i.vPortEnterCritical  port.o
    0x080086e4   0x080086e4   0x00000064   Code   RO         3980    i.vPortExitCritical  port.o
    0x08008748   0x08008748   0x0000009c   Code   RO         4063    i.vPortFree         heap_4.o
    0x080087e4   0x080087e4   0x00000020   Code   RO         3981    i.vPortSetupTimerInterrupt  port.o
    0x08008804   0x08008804   0x0000008c   Code   RO         3982    i.vPortValidateInterruptPriority  port.o
    0x08008890   0x08008890   0x00000024   Code   RO         3281    i.vQueueAddToRegistry  queue.o
    0x080088b4   0x080088b4   0x00000044   Code   RO         3285    i.vQueueWaitForMessageRestricted  queue.o
    0x080088f8   0x080088f8   0x0000006c   Code   RO         3511    i.vTaskDelay        tasks.o
    0x08008964   0x08008964   0x000000ac   Code   RO         3512    i.vTaskDelayUntil   tasks.o
    0x08008a10   0x08008a10   0x000000cc   Code   RO         3513    i.vTaskDelete       tasks.o
    0x08008adc   0x08008adc   0x0000000c   Code   RO         3517    i.vTaskMissedYield  tasks.o
    0x08008ae8   0x08008ae8   0x00000054   Code   RO         3519    i.vTaskPlaceOnEventList  tasks.o
    0x08008b3c   0x08008b3c   0x0000005c   Code   RO         3520    i.vTaskPlaceOnEventListRestricted  tasks.o
    0x08008b98   0x08008b98   0x00000084   Code   RO         3522    i.vTaskPriorityInherit  tasks.o
    0x08008c1c   0x08008c1c   0x00000048   Code   RO         3526    i.vTaskSetTimeOutState  tasks.o
    0x08008c64   0x08008c64   0x00000094   Code   RO         3527    i.vTaskStartScheduler  tasks.o
    0x08008cf8   0x08008cf8   0x00000010   Code   RO         3529    i.vTaskSuspendAll   tasks.o
    0x08008d08   0x08008d08   0x0000007c   Code   RO         3530    i.vTaskSwitchContext  tasks.o
    0x08008d84   0x08008d84   0x00000114   Code   RO         3983    i.xPortStartScheduler  port.o
    0x08008e98   0x08008e98   0x0000002c   Code   RO         3984    i.xPortSysTickHandler  port.o
    0x08008ec4   0x08008ec4   0x00000078   Code   RO         3290    i.xQueueGenericCreate  queue.o
    0x08008f3c   0x08008f3c   0x00000184   Code   RO         3291    i.xQueueGenericReceive  queue.o
    0x080090c0   0x080090c0   0x000000a8   Code   RO         3292    i.xQueueGenericReset  queue.o
    0x08009168   0x08009168   0x00000188   Code   RO         3293    i.xQueueGenericSend  queue.o
    0x080092f0   0x080092f0   0x000000e0   Code   RO         3294    i.xQueueGenericSendFromISR  queue.o
    0x080093d0   0x080093d0   0x00000088   Code   RO         3531    i.xTaskCheckForTimeOut  tasks.o
    0x08009458   0x08009458   0x00000056   Code   RO         3532    i.xTaskCreate       tasks.o
    0x080094ae   0x080094ae   0x00000002   PAD
    0x080094b0   0x080094b0   0x0000001c   Code   RO         3536    i.xTaskGetSchedulerState  tasks.o
    0x080094cc   0x080094cc   0x0000000c   Code   RO         3537    i.xTaskGetTickCount  tasks.o
    0x080094d8   0x080094d8   0x000000e8   Code   RO         3539    i.xTaskIncrementTick  tasks.o
    0x080095c0   0x080095c0   0x000000b4   Code   RO         3542    i.xTaskPriorityDisinherit  tasks.o
    0x08009674   0x08009674   0x00000098   Code   RO         3543    i.xTaskRemoveFromEventList  tasks.o
    0x0800970c   0x0800970c   0x000000e4   Code   RO         3545    i.xTaskResumeAll    tasks.o
    0x080097f0   0x080097f0   0x00000074   Code   RO         3857    i.xTimerCreate      timers.o
    0x08009864   0x08009864   0x00000074   Code   RO         3858    i.xTimerCreateTimerTask  timers.o
    0x080098d8   0x080098d8   0x00000090   Code   RO         3859    i.xTimerGenericCommand  timers.o
    0x08009968   0x08009968   0x00000018   Code   RO         4773    x$fpl$basic         fz_wm.l(basic.o)
    0x08009980   0x08009980   0x00000062   Code   RO         4675    x$fpl$d2f           fz_wm.l(d2f.o)
    0x080099e2   0x080099e2   0x00000002   PAD
    0x080099e4   0x080099e4   0x00000150   Code   RO         4677    x$fpl$dadd          fz_wm.l(daddsub_clz.o)
    0x08009b34   0x08009b34   0x00000010   Code   RO         4854    x$fpl$dcheck1       fz_wm.l(dcheck1.o)
    0x08009b44   0x08009b44   0x00000018   Code   RO         4856    x$fpl$dcmpinf       fz_wm.l(dcmpi.o)
    0x08009b5c   0x08009b5c   0x000002b0   Code   RO         4684    x$fpl$ddiv          fz_wm.l(ddiv.o)
    0x08009e0c   0x08009e0c   0x0000005e   Code   RO         4687    x$fpl$dfix          fz_wm.l(dfix.o)
    0x08009e6a   0x08009e6a   0x0000002e   Code   RO         4692    x$fpl$dflt          fz_wm.l(dflt_clz.o)
    0x08009e98   0x08009e98   0x00000026   Code   RO         4691    x$fpl$dfltu         fz_wm.l(dflt_clz.o)
    0x08009ebe   0x08009ebe   0x00000002   PAD
    0x08009ec0   0x08009ec0   0x00000078   Code   RO         4775    x$fpl$dleqf         fz_wm.l(dleqf.o)
    0x08009f38   0x08009f38   0x00000154   Code   RO         4697    x$fpl$dmul          fz_wm.l(dmul.o)
    0x0800a08c   0x0800a08c   0x0000009c   Code   RO         4777    x$fpl$dnaninf       fz_wm.l(dnaninf.o)
    0x0800a128   0x0800a128   0x0000000c   Code   RO         4779    x$fpl$dretinf       fz_wm.l(dretinf.o)
    0x0800a134   0x0800a134   0x0000006c   Code   RO         4781    x$fpl$drleqf        fz_wm.l(drleqf.o)
    0x0800a1a0   0x0800a1a0   0x00000016   Code   RO         4678    x$fpl$drsb          fz_wm.l(daddsub_clz.o)
    0x0800a1b6   0x0800a1b6   0x00000002   PAD
    0x0800a1b8   0x0800a1b8   0x00000198   Code   RO         4783    x$fpl$dsqrt         fz_wm.l(dsqrt_umaal.o)
    0x0800a350   0x0800a350   0x000001d4   Code   RO         4679    x$fpl$dsub          fz_wm.l(daddsub_clz.o)
    0x0800a524   0x0800a524   0x00000056   Code   RO         4699    x$fpl$f2d           fz_wm.l(f2d.o)
    0x0800a57a   0x0800a57a   0x0000008c   Code   RO         4785    x$fpl$fnaninf       fz_wm.l(fnaninf.o)
    0x0800a606   0x0800a606   0x0000000a   Code   RO         4931    x$fpl$fpinit        fz_wm.l(fpinit.o)
    0x0800a610   0x0800a610   0x0000000a   Code   RO         4787    x$fpl$fretinf       fz_wm.l(fretinf.o)
    0x0800a61a   0x0800a61a   0x00000064   Code   RO         4871    x$fpl$retnan        fz_wm.l(retnan.o)
    0x0800a67e   0x0800a67e   0x0000005c   Code   RO         4789    x$fpl$scalbn        fz_wm.l(scalbn.o)
    0x0800a6da   0x0800a6da   0x00000030   Code   RO         4920    x$fpl$trapveneer    fz_wm.l(trapv.o)
    0x0800a70a   0x0800a70a   0x00000000   Code   RO         4791    x$fpl$usenofp       fz_wm.l(usenofp.o)
    0x0800a70a   0x0800a70a   0x000014a4   Data   RO          742    .constdata          oled.o
    0x0800bbae   0x0800bbae   0x00000002   PAD
    0x0800bbb0   0x0800bbb0   0x00000098   Data   RO         4704    .constdata          m_wm.l(atan.o)
    0x0800bc48   0x0800bc48   0x00000088   Data   RO         4718    .constdata          m_wm.l(pow.o)
    0x0800bcd0   0x0800bcd0   0x00000008   Data   RO         4816    .constdata          m_wm.l(qnan.o)
    0x0800bcd8   0x0800bcd8   0x000000c8   Data   RO         4819    .constdata          m_wm.l(rred.o)
    0x0800bda0   0x0800bda0   0x00000060   Data   RO         4823    .constdata          m_wm.l(tan_i.o)
    0x0800be00   0x0800be00   0x00000020   Data   RO         4997    Region$$Table       anon$$obj.o


    Execution Region RW_IRAM1 (Exec base: 0x20000000, Load base: 0x0800be20, Size: 0x000060f8, Max: 0x00020000, ABSOLUTE, COMPRESSED[0x0000005c])

    Exec Addr    Load Addr    Size         Type   Attr      Idx    E Section Name        Object

    0x20000000   COMPRESSED   0x00000004   Data   RW            5    .data               main.o
    0x20000004   COMPRESSED   0x00000014   Data   RW          348    .data               system_stm32f4xx.o
    0x20000018   COMPRESSED   0x00000004   Data   RW          389    .data               adc.o
    0x2000001c   COMPRESSED   0x00000004   Data   RW          391    .data               adc.o
    0x20000020   COMPRESSED   0x00000014   Data   RW          595    .data               key.o
    0x20000034   COMPRESSED   0x00000008   Data   RW          644    .data               led.o
    0x2000003c   COMPRESSED   0x00000028   Data   RW          843    .data               pstwo.o
    0x20000064   COMPRESSED   0x00000044   Data   RW          952    .data               timer.o
    0x200000a8   COMPRESSED   0x0000000c   Data   RW         1019    .data               usartx.o
    0x200000b4   COMPRESSED   0x00000008   Data   RW         1158    .data               delay.o
    0x200000bc   COMPRESSED   0x00000004   Data   RW         1231    .data               usart.o
    0x200000c0   COMPRESSED   0x00000010   Data   RW         1475    .data               stm32f4xx_rcc.o
    0x200000d0   COMPRESSED   0x0000003c   Data   RW         3548    .data               tasks.o
    0x2000010c   COMPRESSED   0x00000014   Data   RW         3867    .data               timers.o
    0x20000120   COMPRESSED   0x0000000c   Data   RW         3985    .data               port.o
    0x2000012c   COMPRESSED   0x00000018   Data   RW         4068    .data               heap_4.o
    0x20000144   COMPRESSED   0x00000001   Data   RW         4123    .data               system.o
    0x20000145   COMPRESSED   0x00000001   Data   RW         4124    .data               system.o
    0x20000146   COMPRESSED   0x00000002   PAD
    0x20000148   COMPRESSED   0x00000004   Data   RW         4125    .data               system.o
    0x2000014c   COMPRESSED   0x00000004   Data   RW         4126    .data               system.o
    0x20000150   COMPRESSED   0x00000004   Data   RW         4127    .data               system.o
    0x20000154   COMPRESSED   0x00000001   Data   RW         4128    .data               system.o
    0x20000155   COMPRESSED   0x00000001   Data   RW         4129    .data               system.o
    0x20000156   COMPRESSED   0x00000001   Data   RW         4130    .data               system.o
    0x20000157   COMPRESSED   0x00000001   Data   RW         4131    .data               system.o
    0x20000158   COMPRESSED   0x00000001   Data   RW         4132    .data               system.o
    0x20000159   COMPRESSED   0x00000003   PAD
    0x2000015c   COMPRESSED   0x00000004   Data   RW         4133    .data               system.o
    0x20000160   COMPRESSED   0x00000004   Data   RW         4137    .data               system.o
    0x20000164   COMPRESSED   0x00000004   Data   RW         4138    .data               system.o
    0x20000168   COMPRESSED   0x00000004   Data   RW         4140    .data               system.o
    0x2000016c   COMPRESSED   0x00000004   Data   RW         4141    .data               system.o
    0x20000170   COMPRESSED   0x00000004   Data   RW         4142    .data               system.o
    0x20000174   COMPRESSED   0x00000004   Data   RW         4143    .data               system.o
    0x20000178   COMPRESSED   0x00000004   Data   RW         4144    .data               system.o
    0x2000017c   COMPRESSED   0x00000004   Data   RW         4145    .data               system.o
    0x20000180   COMPRESSED   0x00000004   Data   RW         4146    .data               system.o
    0x20000184   COMPRESSED   0x00000004   Data   RW         4147    .data               system.o
    0x20000188   COMPRESSED   0x00000004   Data   RW         4148    .data               system.o
    0x2000018c   COMPRESSED   0x00000004   Data   RW         4149    .data               system.o
    0x20000190   COMPRESSED   0x00000001   Data   RW         4150    .data               system.o
    0x20000191   COMPRESSED   0x00000001   Data   RW         4151    .data               system.o
    0x20000192   COMPRESSED   0x00000001   Data   RW         4152    .data               system.o
    0x20000193   COMPRESSED   0x00000001   Data   RW         4153    .data               system.o
    0x20000194   COMPRESSED   0x00000001   Data   RW         4154    .data               system.o
    0x20000195   COMPRESSED   0x00000001   Data   RW         4155    .data               system.o
    0x20000196   COMPRESSED   0x00000002   PAD
    0x20000198   COMPRESSED   0x00000004   Data   RW         4156    .data               system.o
    0x2000019c   COMPRESSED   0x00000004   Data   RW         4157    .data               system.o
    0x200001a0   COMPRESSED   0x00000004   Data   RW         4158    .data               system.o
    0x200001a4   COMPRESSED   0x00000004   Data   RW         4159    .data               system.o
    0x200001a8   COMPRESSED   0x00000004   Data   RW         4160    .data               system.o
    0x200001ac   COMPRESSED   0x0000003c   Data   RW         4206    .data               balance.o
    0x200001e8   COMPRESSED   0x00000001   Data   RW         4207    .data               balance.o
    0x200001e9   COMPRESSED   0x00000003   PAD
    0x200001ec   COMPRESSED   0x00000018   Data   RW         4358    .data               show.o
    0x20000204   COMPRESSED   0x00000028   Data   RW         4418    .data               mpu6050.o
    0x2000022c        -       0x00000400   Zero   RW          741    .bss                oled.o
    0x2000062c        -       0x00000009   Zero   RW          842    .bss                pstwo.o
    0x20000635   COMPRESSED   0x00000003   PAD
    0x20000638        -       0x00000090   Zero   RW         1018    .bss                usartx.o
    0x200006c8        -       0x00000040   Zero   RW         3305    .bss                queue.o
    0x20000708        -       0x000002e4   Zero   RW         3547    .bss                tasks.o
    0x200009ec        -       0x00000028   Zero   RW         3866    .bss                timers.o
    0x20000a14        -       0x00005000   Zero   RW         4067    .bss                heap_4.o
    0x20005a14        -       0x0000000c   Zero   RW         4118    .bss                system.o
    0x20005a20        -       0x00000014   Zero   RW         4119    .bss                system.o
    0x20005a34        -       0x00000014   Zero   RW         4120    .bss                system.o
    0x20005a48        -       0x00000014   Zero   RW         4121    .bss                system.o
    0x20005a5c        -       0x00000014   Zero   RW         4122    .bss                system.o
    0x20005a70        -       0x00000010   Zero   RW         4205    .bss                balance.o
    0x20005a80        -       0x00000018   Zero   RW         4328    .bss                robot_select_init.o
    0x20005a98        -       0x00000060   Zero   RW         4859    .bss                c_w.l(libspace.o)
    0x20005af8        -       0x00000200   Zero   RW         1272    HEAP                startup_stm32f40_41xxx.o
    0x20005cf8        -       0x00000400   Zero   RW         1271    STACK               startup_stm32f40_41xxx.o


==============================================================================

Image component sizes


      Code (inc. data)   RO Data    RW Data    ZI Data      Debug   Object Name

       502         60          0          8          0       5509   adc.o
      4622        648          0         61         16      19495   balance.o
      1150         84          0          0          0       6939   can.o
       212         18          0          8          0       4461   delay.o
       944         70          0          0          0       8171   encoder.o
         0          0          0          0          0      10020   event_groups.o
       584        138          0         24      20480       5431   heap_4.o
       818         74          0          0          0       9365   i2c.o
       184         12          0         20          0       4130   key.o
       148         20          0          8          0       3308   led.o
       136          0          0          0          0       4506   list.o
       296        130          0          4          0     326524   main.o
       144         14          0          0          0       2969   misc.o
       808         44          0          0          0       4799   motor.o
       630         22          0         40          0       8668   mpu6050.o
       878         42       5284          0       1024      10027   oled.o
      1038        382          0         12          0      13381   port.o
      1092        118          0         40          9      10804   pstwo.o
      1832        236          0          0         64      16453   queue.o
