:020000040800F2
:10000000F8600020310300080B280008311F0008A9
:1000100009280008690D00088D4D00080000000047
:10002000000000000000000000000000790200084D
:10003000C112000800000000CD0200083939000894
:100040004B0300084B0300084B0300084B03000858
:100050004B0300084B0300084B0300084B03000848
:100060004B0300084B0300084B0300084B03000838
:100070004B0300084B0300084B0300084B03000828
:100080004B0300084B0300084B0300084B03000818
:10009000390F00084B0300084B0300084B0300080E
:1000A0004B0300084B0300084B0300084B030008F8
:1000B0001D3D00082D3D0008413D00084B03000890
:1000C0004B0300084B0300084B0300084B030008D8
:1000D0004B030008C5470008E94800081D4B00080D
:1000E0004B0300084B0300084B030008693D000860
:1000F0001D4100084B0300087D3D00084B0300082C
:100100004B0300084B030008553D00084B03000853
:100110004B030008CD4600084B0300084B030008C2
:100120004B0300084B0300084B0300084B03000877
:100130004B0300084B0300084B0300084B03000867
:100140004B0300084B0300084B0300084B03000857
:100150004B0300084B0300084B0300084B03000847
:100160004B0300084B0300084B0300084B03000837
:100170004B0300084B0300084B0300084B03000827
:100180004B0300084B03000800F002F800F064F88D
:100190000AA090E8000C82448344AAF10107DA45E2
:1001A00001D100F059F8AFF2090EBAE80F0013F0D0
:1001B000010F18BFFB1A43F0010318471CBC0000D5
:1001C0003CBC00000A444FF0000C10F8013B13F057
:1001D000070408BF10F8014B1D1108BF10F8015BA0
:1001E000641E05D010F8016B641E01F8016BF9D193
:1001F00013F0080F1EBF10F8014BAD1C0C1B09D1EA
:100200006D1E58BF01F801CBFAD505E014F8016B5B
:1002100001F8016B6D1EF9D59142D6D370470000ED
:100220000023002400250026103A28BF78C1FBD8FF
:10023000520728BF30C148BF0B607047642900F0E7
:100240000381732900F03E82002070471FB50AF039
:10025000C6F91FBD10B510BD00F0B0FA1146FFF78A
:10026000F5FF06F017FD00F0CEFA03B4FFF7F2FF3A
:1002700003BC06F0D5FA00002A4B19680868B0E8FC
:10028000F04F80F30988BFF36F8F4FF0000080F3C9
:10029000118870470000000006480068006880F37D
:1002A000088862B661B6BFF34F8FBFF36F8F00DF70
:1002B00000BF00BF08ED00E0DFF80C00016841F46A
:1002C00070010160704700BF88ED00E0EFF3098026
:1002D000BFF36F8F134B1A681EF0100F08BF20ED8D
:1002E000108A20E9F04F106008B44FF0500080F3FE
:1002F0001188BFF34F8FBFF36F8F08F0F1FC4FF001
:10030000000080F3118808BC19680868B0E8F04F55
:100310001EF0100F08BFB0EC108A80F30988BFF3FD
:100320006F8F7047D0000020EFF30580704700000A
:100330000948804709480047FEE7FEE7FEE7FEE779
:10034000FEE7FEE7FEE7FEE7FEE7FEE704480549B5
:10035000054A064B704700004D3900088901000826
:10036000F85A0020F8600020F85C0020F85C0020BB
:10037000704700000FB4044910B503AA029800F0BA
:10038000A5F910BC5DF814FBBC0000202DE9F0417C
:100390000E460446002020622046E168884730B3BC
:1003A000252805D0D4E901219047206A401CF2E7B6
:1003B000E168204600278847050018D0A5F14100D4
:1003C000192802D820354FF40067324629462046C6
:1003D0002760FFF733FF40B1012804D0F61D26F057
:1003E00007060836D8E7361DD6E72846DAE7206A3A
:1003F000BDE8F08170B50C460546012A05D0287885
:10040000800600D5EA69002302E0012305E05B1CB9
:10041000934202D2E05C0028F9D1A869E618C01A1C
:10042000A861286A184428622846AFF3008004E0D7
:10043000D5E9012114F8010B9047B442F8D32846BE
:10044000AFF3008070BD00002DE9F04106460024A6
:1004500010687529314616A510D0AFF3008000282A
:1004600002DA404213A507E031688A0701D512A5D8
:1004700002E0490704D511A5012401E0AFF3008093
:1004800000210A2206F1240709E0B0FBF2FCB0FBD0
:10049000F2F302FB1C00303078541846491C002847
:1004A000F3D123462A463046BDE8F04100F086B835
:1004B000000000002D0000002B00000020000000C4
:1004C000032A40F2308010F0030C00F0158011F880
:1004D000013BBCF1020F624498BF11F801CB00F858
:1004E000013B38BF11F8013BA2F1040298BF00F8AC
:1004F00001CB38BF00F8013B11F0030300F0F88096
:10050000083AC0F0088051F8043B083A51F804CB8F
:10051000A0E80810F5E7121D5CBF51F8043B40F855
:10052000043BAFF30080D20724BF11F8013B11F860
:1005300001CB48BF11F8012B24BF00F8013B00F8A4
:1005400001CB48BF00F8012B704702F0FF0343EADC
:10055000032242EA024200F002B84FF000020429EE
:10056000C0F0128010F0030C00F0F680CCF1040C07
:10057000BCF1020F18BF00F8012BA8BF20F8022B16
:10058000A1EB0C0100F0E8B85FEAC17C24BF00F8E1
:10059000012B00F8012B48BF00F8012B7047704772
:1005A00070477047704710B500F0FCF8006810BD48
:1005B00010B5044600F0F6F8046010BD2DE9F047D0
:1005C0000D4699469246044600F1240801688806C3
:1005D00004D5E06921F01001216000E00120A8426B
:1005E00001DD471B00E00027A1697A1902EB090031
:1005F000081AA0612078C00602D42046AFF300801C
:10060000002608E0D4E901211AF806009047206A84
:10061000401C761C20624E45F4DB2078C0060AD5CB
:100620002046AFF3008006E0D4E901213020904756
:10063000206A401C2062381EA7F10107F4DC07E0A5
:10064000D4E9012118F805009047206A401C206277
:10065000281EA5F10105F3DC2046AFF300802078C9
:10066000000602D50220BDE8F0870120FBE700006C
:1006700001694A1C02610878704700B58FB0CDE966
:1006800001310021059105497944CDE90310114656
:100690006846FFF77BFE0FB000BD0000E5FFFFFFDF
:1006A00010B5436913B1AFF3008001E0FFF7A2FE7C
:1006B000012010BD127800F124010A7000224A7056
:1006C0000122EDE711684FF0FF32E9E7074B70B503
:1006D0000D467B44FFF7D1FF0446284600F066F83C
:1006E00010B14FF0FF3070BD204670BD6B6500004B
:1006F00010B5203AC0F00B80B1E81850203AA0E8BD
:100700001850B1E81850A0E81850BFF4F5AF5FEAF0
:10071000027C24BFB1E81850A0E8185044BF18C9A3
:1007200018C0BDE810405FEA827C24BF51F8043B4A
:1007300040F8043B08BF7047D20728BF31F8023B9E
:1007400048BF11F8012B28BF20F8023B48BF00F832
:10075000012B70474FF0000200B5134694469646B1
:10076000203922BFA0E80C50A0E80C50B1F12001C4
:10077000BFF4F7AF090728BFA0E80C5048BF0CC072
:100780005DF804EB890028BF40F8042B08BF7047D0
:1007900048BF20F8022B11F0804F18BF00F8012B42
:1007A0007047000000487047985A0020007B00F016
:1007B0008000704700487047985A00207546FFF740
:1007C000F9FFAE4605006946534620F0070085460E
:1007D00018B020B5FFF7BAFDBDE820404FF0000685
:1007E0004FF000074FF000084FF0000B21F0070119
:1007F000AC46ACE8C009ACE8C009ACE8C009ACE85C
:10080000C0098D46704710B50446AFF300802046FE
:10081000BDE81040FFF729BD0029816802D041F0F2
:10082000010101E021F0010181607047084B10B522
:10083000D3F8042307490A40D0E900142143D0E942
:100840000240044321431143C3F8041310BD0000C8
:1008500000200140E030FCFFC06C80B270470246CF
:10086000002012680A4200D00120704730B542686B
:100870000F4B0C791A400B6842EA04221343436081
:1008800082680C4B4D791A40D1E9034323438C68AD
:1008900044EA4504234313438360C26A097D22F47A
:1008A0007002491EC9B242EA0151C16230BD000066
:1008B000FFFEFFFCFDF7FFC070B5072609290AD926
:1008C000C568A1F10A0404EB4404A640B543A34063
:1008D0001D43C56007E0056901EB4104A640B5432F
:1008E000A3401D4305611F23072A09D2446B521EF2
:1008F00002EB820293409C4391400C43446370BDE1
:100900000D2A09D2046BD21F02EB820293409C4352
:1009100091400C43046370BDC46A0D3A02EB82023D
:1009200093409C4391400C43C46270BD816841F088
:10093000804181607047000038B535489FED351A19
:100940009FED350AD0ED000A10EE810AF3EE0B0A96
:1009500080EE201ABDEEC10A10EE103A642B00DDC5
:1009600064232E48DFED2E0A90ED000A20EE200AC7
:10097000BDEEC00A10EE100A002800DA40422949F4
:1009800091ED000A20EE200ABDEEC00A10EE101A0A
:10099000002900DA4942244C2278A2B100222270B8
:1009A000224C2578012D10D0214DB5F904403AB3E1
:1009B000B5F90220B5F9001001B02346BDE830407A
:1009C0001CA0FFF7D7BC0122E9E71E4890ED000A02
:1009D0001D48BDEEC00A10EE103A90ED000A1B480B
:1009E000BDEEC00A10EE102A90ED000A18A0BDEE70
:1009F000C00A10EE101AFFF7BDFC0020207038BDB1
:100A0000CAB2C1B216A00094FFF7B4FC38BD000012
:100A10001800002000007A4400401C46205A0020A4
:100A20000000C842345A0020EC010020950100204B
:100A3000080200207B4225643A25643A25647D241F
:100A400000000000500100204C010020480100205F
:100A50007B4325643A25643A25647D240000000028
:100A60007B4125643A25643A25643A25647D240057
:100A700030B58DB00121022002F0A0FB01210D0252
:100A8000284602F0B3FB032002218DF82C000A91C6
:100A900000248DF82F400AA9134801F00FF8012116
:100AA000284602F0AFFB0021284602F0ABFB06947B
:100AB00068020994CDE9070406A8FFF7B7FE8DF890
:100AC000044000948DF80540029404940120074CE2
:100AD0008DF8140069462046FFF7C8FE0121204624
:100AE000FFF79AFE0DB030BD000402400020014027
:100AF00070B58CB00121022002F060FB01214E0292
:100B0000304602F073FB03208DF82C0001250024F1
:100B10000A958DF82F400AA9134800F0CFFF012154
:100B2000304602F06FFB0021304602F06BFB06946A
:100B300068040994CDE9070406A8FFF777FE8DF84D
:100B4000044000948DF8054002940494074C8DF8FD
:100B5000145069462046FFF789FE01212046FFF721
:100B60005BFE0CB070BD000000040240002101409B
:100B70001CB506F071F8DFF8B4A1DFF8B4B16D4C24
:100B80006D4D6E4EDFF8B88140F6B8390027019000
:100B90000A2101A807F0D2FEDAF80400484502DA7B
:100BA000401CCAF8040001F0EBF8DBF80000002854
:100BB000EED16448007810B100F0FEFF16E0624804
:100BC000007810B102F0A0FB10E06048007810B18E
:100BD00002F020FA0AE05E4890ED001A5D48D0ED80
:100BE000000A5D4890ED000A00F06CFB01F04CFC3F
:100BF0005A4890ED000ABDEEC00A10EE100A03F04C
:100C00003DFD28B100231A4619461846009751E0C9
:100C1000D4ED020A94ED000A01F028FB00EE100A60
:100C2000B8EEC00A84ED010AD5ED020A95ED000A7E
:100C300001F05AFB00EE100AB8EEC00A85ED010A79
:100C4000D6ED020A96ED000A01F08CFB00EE100AC8
:100C50004346B8EEC00A86ED010AD8ED020A98EDC7
:100C6000000A01F0BDFB00EE100A44F23C10B8EEA1
:100C7000C00A83ED010A01F043FC394800780628D8
:100C800086D2DFE800F0031A34500350009793ED4A
:100C9000010ABDEEC00A10EE103A96ED010AB1EE5F
:100CA000400ABDEEC00A10EE102A95ED010AB1EE21
:100CB000400A2DE002F05AFD6AE7009793ED010A21
:100CC000BDEEC00A10EE103A96ED010AB1EE400AF0
:100CD000BDEEC00A10EE102A95ED010ABDEEC00A65
:100CE00010EE101A94ED010AB1EE400A16E01D480C
:100CF0000068009093ED010ABDEEC00A10EE103AB4
:100D000096ED010ABDEEC00A10EE102A95ED010A1B
:100D1000BDEEC00A10EE101A94ED010ABDEEC00A35
:100D200010EE100AC6E70097E4E70000AC010020CF
:100D30005C010020205A0020345A0020485A00202C
:100D40005C5A00205501002056010020540100206B
:100D5000780100207401002070010020180000209C
:100D6000450100206C010020FEE700001CB50121B8
:100D7000084602F023FA4FF48070009001208DF8AD
:100D8000040000218DF8061003218DF805108DF860
:100D900007006946014800F091FE1CBD00000240BA
:100DA0002DE9FE4F0024D8B3D1B3CAB3C3B3401E5C
:100DB000491EC7B2CEB2521E5B1E02F0FF099DB2A1
:100DC0000121082002F0FAF90121480602F002FA96
:100DD00002218DF804104FF0030B4FF000088DF83E
:100DE00006808DF805B04FF0010ACDF800B08DF8FF
:100DF00007A069464D4800F061FE092200214B48DA
:100E000000F098FE09220121484800F093FE48486E
:100E1000C0F80080016841F001010160021D09E095
:100E2000FFE70120BDE8FE8F641CA4B2642C01D949
:100E30000220F7E71168C907F6D03D480168016054
:100E40000168016001680160016841F01001016002
:100E50000168016001680160354943461C31C1F8F1
:100E60000080D1F80080DDF830C048EA8C7CC1F801
:100E700000C0D1F800C04CEA07670F600F6847EA6E
:100E800006560E600F6847EA09460E600E682E434C
:100E90000E60016821F0010101604FF6F07005E07D
:100EA000641CA4B2844201D90320BBE71168C907BE
:100EB000F6D12048016841F0010101601D491C3153
:100EC0000A6822F001020A601A4A0C32146844F0DF
:100ED00001041460021D14681460164A1432146868
:100EE0001460144A40321360121D13600A6842F005
:100EF00001020A60016803600D481430016841F086
:100F00000201016014208DF808008DF809A08DF809
:100F10000AB08DF80BA002A801F078FC0122022192
:100F2000034800F07DF900207CE70000000C02403F
:100F3000006400400066004010B588B002A907A810
:100F4000CDE9000106AB05AA04A9002000F070F865
:100F50000498A0F5807181394BD1294901209FED7A
:100F60002F1A087027490020304C08702649087055
:100F700026490870264908702649087026490870D5
:100F80009DF809009DF8081000EB012000B200EE6A
:100F9000100A2348F8EEC00A80EE810A80ED000AAC
:100FA0009DF80B009DF80A1000EB012000B200EE46
:100FB000900A1C48F8EEE00AC0EE811AC0ED001A53
:100FC0009DF80D009DF80C1000EB012000B200EE22
:100FD000900A1549F8EEE01A09780229C1EE810A53
:100FE00009D000EE100AB8EEC00AC0EE010AC4ED46
:100FF000000A08B010BD03F0CBFE84ED000AF8E74C
:101000005701002054010020560100205501002006
:101010009001002091010020E801002000007A44A6
:10102000700100207401002045010020780100209B
:10103000F0B5224CDDE9057504EB0014D4F8B06579
:1010400016F004061670D4F8B02532D0D2080A6023
:10105000D4F8B01501F002011970D4F8B41501F0FC
:101060000F013970D4F8B8152970D4F8B815090AE9
:101070006970D4F8B815090CA970D4F8B815090E20
:10108000E970D4F8BC152971D4F8BC15090A697146
:10109000D4F8BC15090CA971D4F8BC15090EE97176
:1010A00048B1012804D10648016841F020010160DF
:1010B000F0BD520DCBE70248001FF5E7006000408D
:1010C0001064004038B500240091082322462146D0
:1010D00000F014F8054640F6FF7301E0641CA4B26A
:1010E000284600F06BF8072801D09C42F6D39C42BA
:1010F00001D3012038BD002038BD0000F0B5064600
:101100002C48059D0468640101D5002008E00468AE
:10111000240101D5012003E00068C00046D502206B
:10112000254C002704EB0014C4F88075E9B3F600E1
:10113000D4F880753743C4F88075D4F8806546EAE2
:101140008101C4F88015D4F8801541EA4201C4F841
:101150008015D4F8842503F00F0122F00F02C4F8A3
:101160008425D4F884250A43C4F884252979EA79AA
:101170006B7941EA0261AA79120442EA032211431F
:10118000C4F88C152978EA786B7841EA0261AA786C
:10119000120442EA03221143C4F88815D4F88015DA
:1011A00041F00101C4F88015F0BD01E0FF20FBE72C
:1011B0007605BDE70864004000600040174928B18B
:1011C000012810D002281BD00520704708680A6843
:1011D00000F0010002F002020243086800F08060A3
:1011E00042EA1060704708680A6800F0010002F0E7
:1011F00002020243086800F0006042EA5060704753
:1012000008680A6800F0010002F002020243086860
:1012100000F0805042EA906070470000086400408F
:10122000002A426901D00A4300E08A4342617047C4
:101230007CB5144C00206D46215C2954401CC0B282
:101240000828F9D3294640F20110FFF73BFF0020A0
:101250002118097A2954401CC0B20828F8D36946DD
:101260004FF48170FFF72EFF00202118097C2954CC
:10127000401CC0B20828F8D3694640F20310FFF7BB
:1012800021FF7CBD7606002030B5034600200129F1
:1012900008D10022094C03E0A55C6840521CD2B280
:1012A0009A42F9D3002908D1044A323203E0545C4F
:1012B0006040491CC9B29942F9D330BD760600207E
:1012C000704700002DE9F0472DED0E8BF0EE418ABE
:1012D000B0EE408AB0EE0CEAFD4BDFF8F883FE4E2C
:1012E0001878FE4FB8EE0CCA9FEDFDDBDFEDFECAAD
:1012F000FE4AFF4DFF4CB6EE00AA08B1012810D1FE
:10130000B0EE681AB0EE480A02F06AFAFA4890EDB8
:10131000008A90ED019AD0ED028A187868B301280E
:1013200052D0C0B202287CD0032803D0042879D040
:10133000052878D192ED000AB0EE4E1A68EE800AC8
:10134000B0EE480A00EECA0A00EE8A8AF0EE4C0AB5
:1013500085ED020A84ED028A06F08DFF85ED020A12
:1013600094ED020AB0EE4E1AF0EE4C0A06F083FF3E
:1013700084ED020AC6ED02CAB8E098ED000A92EDCB
:10138000001A79EE080A30EE010A38EE491AF0EE3A
:10139000601A48EEC00A48EE801AC5ED020AB0EEA7
:1013A000602AF0EE410A08EE801A48EEC00AB0EE5C
:1013B000420AC4ED020AC6ED021A87ED021AB0EE27
:1013C0004E1AF0EE4C0A76E1DFF83083F0EE490A6F
:1013D00098ED000A40EE280A20EE280A10EE100AC6
:1013E000C5ED020A09F08AF869EE0AEA41EC1B0B26
:1013F0001EEE900A09F082F841EC1A0B18EE100A62
:1014000009F07CF841EC190BB0EE4D0AF0EE6D0AD4
:1014100004F0EAFC9FEDBA1B51EC100B53EC112BBE
:1014200002E069E02DE163E008F072FD53EC192B56
:1014300008F06EFD53EC1A2B08F076FF53EC1B2BD3
:1014400008F0BCFA08F088FAA06098ED000A20EED7
:10145000280A10EE100A09F051F841EC190B1EEEA3
:10146000900A09F04BF841EC1A0B18EE100A09F03B
:1014700045F841EC180BB0EE4D0AF0EE6D0A04F0A1
:10148000B3FC9FEDA11B51EC100B53EC112B08F09A
:101490003FFD53EC182B08F03BFD53EC1A2B08F0E2
:1014A00043FF53EC192B08F089FA08F055FAB060A5
:1014B00095ED020AB0EE4E1AF0EE4C0A06F0DBFE95
:1014C00085ED020A94ED020AB0EE4E1AF0EE4C0AD7
:1014D00006F0D1FE84ED020A96ED020AB0EE4E1A35
:1014E000F0EE4C0A06F0C7FE86ED020AC7ED02CA0E
:1014F000BDEC0E8BBDE8F087DFED85AA92ED000A0A
:10150000914620EE0A0A10EE100A08F0F7FF41ECAF
:10151000190B18EE900A08F0F1FF41EC100B04F0E3
:10152000A3FCB0EE40BAF0EE60BAD8F8000008F0C4
:10153000E5FF53EC1B2B08F0FDFA53EC192B08F0D8
:10154000F3FE08F009FA02EE100A9FED721ADFEDC1
:10155000720AB0EE680A06F08EFEB5EEC00AF0EE32
:10156000408AF1EE10FA16D099ED000AF0EE420A28
:1015700040EE4A0A60EE880A80EE821AF0EE420AD5
:1015800040EE0A0A20EE880AC0EE020A85ED021A31
:10159000C4ED020A03E085ED028A84ED028A9FED24
:1015A0005F0A28EE800A10EE100A08F0A7FF41EC4F
:1015B0001B0B18EE900A08F0A1FF41EC100B9FEDF9
:1015C000581B03F0E9FD9FED581B51EC100B53EC39
:1015D000112B08F09DFC41EC190B18EE900A08F055
:1015E0008DFF41EC100BB0EE4D1AF0EE6D1A03F0CA
:1015F000D3FD9FED4F1B51EC100B53EC112B08F05A
:1016000087FC53EC192B08F0D9F953EC1B2B08F08D
:101610008BFE9FED491B53EC112B08F0CFF908F01E
:101620009BF900EE100ADFED460A70EE600A9FEDAE
:10163000450A454BB0EE4E1A00EEAA0AF0EE4C0AEF
:10164000BDEEC00A83ED000A95ED020A06F013FE16
:1016500085ED020A94ED020AB0EE4E1AF0EE4C0A45
:1016600006F009FE84ED020AC6ED02CAC7ED02CA01
:1016700040F698024FF44871186806F00CFE1860A6
:1016800036E792ED000AD8ED000AB0EE4E1A30EEC1
:10169000200A60EE280AB0EE480A00EECA0A00EE00
:1016A0008A8AF0EE4C0A85ED020A84ED020A86ED84
:1016B000028A87ED028A06F0DEFD85ED020A94EDCE
:1016C000020AB0EE4E1AF0EE4C0A06F0D4FD3DE0F0
:1016D0004501002088010020485A00205C5A002063
:1016E000000000000000084000000000840100200D
:1016F000205A0020345A0020145A00208C01002067
:10170000000000000000E0BF000000000000E03F1B
:10171000D7231F440AD7A33E48E1FABEE5D0E23FF3
:10172000000000000000004000000000D34DF43F26
:10173000000000809318E4BF00000000022BF93F76
:101740004C37C93F0080BB446C01002084ED020A85
:1017500096ED020AB0EE4E1AF0EE4C0A06F08BFD42
:1017600086ED020A97ED020AB0EE4E1AF0EE4C0A30
:1017700006F081FD87ED020ABAE600001CB50121E2
:10178000082001F01BFD0820009000208DF80400C7
:1017900003208DF8050001208DF8070069460248F6
:1017A00000F08CF91CBD0000000C0240F0B50121D6
:1017B00089B0084601F00EFD0121032001F0FEFC76
:1017C00003258DF8055002264FF400408DF8046083
:1017D00001242B4F00908DF806408DF80740694694
:1017E000384600F06BF98DF805508DF804608DF8DF
:1017F00006408DF807400820224C0090694620469C
:1018000000F05CF901220F21384600F093F9012223
:101810000321204600F08EF902A802F025FF0024E3
:101820004FF6FF70ADF8084003907507ADF8104013
:10183000ADF80A4002A9284602F0D8FE00231A4655
:101840000321284602F0F3FC05A802F073FDADF871
:101850001C4005A9284602F017FD0121284602F088
:10186000CBFC01221146284602F06CFD00212846DF
:1018700002F092FE0121284602F0C4FC09B0F0BD3E
:10188000000002400004024030B589B0012102206E
:1018900001F0A0FC0121022001F090FC3020039017
:1018A00003208DF8110002208DF8100001208DF822
:1018B0001200224C8DF8130003A9204600F0FEF818
:1018C00002220421204600F035F90222052120469B
:1018D00000F030F9684602F0C7FE00244FF6FF70B2
:1018E000174DADF800400190ADF80840ADF802404A
:1018F0006946284602F07AFE00231A46032128464C
:1019000002F095FC05A802F015FDADF81C4005A9F4
:10191000284602F0B9FC0121284602F06DFC0122A4
:101920001146284602F00EFD0021284602F034FE42
:101930000121284602F066FC09B030BD00040240D7
:101940000004004030B589B00121042001F042FCC0
:101950000121022001F032FCC020039003208DF809
:10196000110002208DF8100001208DF81200224C89
:101970008DF8130003A9204600F0A0F802220621EA
:10198000204600F0D7F802220721204600F0D2F8C6
:10199000684602F069FE00244FF6FF70174DADF85F
:1019A00000400190ADF80840ADF802406946284675
:1019B00002F01CFE00231A460321284602F037FCE1
:1019C00005A802F0B7FCADF81C4005A9284602F0B6
:1019D0005BFC0121284602F00FFC0122114628463B
:1019E00002F0B0FC0021284602F0D6FD0121284675
:1019F00002F008FC09B030BD0004024000080040BD
:101A000030B589B00121082001F0E4FB012108462E
:101A100001F0D4FB274C02220021204600F08AF876
:101A200002220121204600F085F802218DF81110D4
:101A30008DF81010012103208DF8121003908DF8FD
:101A4000131003A9204600F039F8684602F00CFE96
:101A500000244FF6FF70184DADF800400190ADF82E
:101A60000840ADF802406946284602F0BFFD002359
:101A70001A460321284602F0DAFB05A802F05AFCB8
:101A8000ADF81C4005A9284602F0FEFB01212846BE
:101A900002F0B2FB01221146284602F053FC00215D
:101AA000284602F079FD0121284602F0ABFB09B07F
:101AB00030BD000000000240000C0040F0B50022E4
:101AC00001274FF0030C0B6807FA02F52B40AB42DD
:101AD0002CD1066853000CFA03F4A64306600E7975
:101AE000D0F800E09E4046EA0E0606600E79012E10
:101AF00001D0022E12D18668A64386604E79D0F8B6
:101B000008E09E4046EA0E0686604668AE434660A0
:101B100045688E799640B6B235434560C568A543A1
:101B2000C560CC799C40C3681C43C460521C102A19
:101B3000C9D3F0BD4B07DB0E9A40C90810B500EBC6
:101B40008100016A0F249C40A1430162016A114394
:101B5000016210BD0183704710B50A4C014607238E
:101B600001222046FEF7A8FE2046FEF7DFFE0221F6
:101B70002046FEF774FE0028F9D02046BDE810404C
:101B8000FEF76ABE0020014010B50A4C014607234B
:101B900001222046FEF790FE2046FEF7C7FE0221F6
:101BA0002046FEF75CFE0028F9D02046BDE8104034
:101BB000FEF752BE00210140F0B464486449027847
:101BC00064480E780578644804789FED641A644B85
:101BD000DFED642ADFED641A644F9FED652A6548E6
:101BE00097ED000A6449F1EE400A52B1012A08D08B
:101BF000092C66D2DFE804F0654346494E51565938
:101C00006200092C24D2DFE804F02305080B10132E
:101C1000181B200080ED000A0CE080ED000A01E0B6
:101C200080ED001AC3ED000A53E0C0ED000AF9E7A9
:101C3000C0ED000A83ED001A4BE0C0ED000A01E0A0
:101C400080ED001A83ED000A43E080ED000AF9E719
:101C500080ED001A83ED001A012E04D0012D07D06B
:101C600081ED001A35E0C0EE220A60EE820A03E040
:101C7000C0EE220A60EEA10AC1ED000A29E080ED63
:101C8000000A0CE080ED000A01E080ED001AC1EDD1
:101C9000001A0EE0C0ED000AF9E7C0ED000A81ED80
:101CA000001A06E0C0ED000A01E080ED001A81EDA7
:101CB000002A012E08D0012D09D00AE080ED000A8B
:101CC000F5E780ED001AEAE781ED002A01E0C1EDB9
:101CD000001A022A06D0032A11D0052A0FD0042A9E
:101CE0000DD01FE091ED000AF0EE000A20EE200A70
:101CF000F2EE020A80EE201A81ED001A12E0D0ED19
:101D0000000AF5EEC00AF1EE10FAD1ED000A03D296
:101D1000F1EE600AC1ED000A20EE800AC0EE220A50
:101D2000C1ED000AD0ED000A9FED141A80EE810A81
:101D300080ED000AD3ED001AC1EE810AC3ED000A5E
:101D400091ED001AF0BCFFF7BDBA0000450100207C
:101D500092010020930100205801002000000000A3
:101D6000740100200000FA43DB0FC9BF48010020C6
:101D7000DB0FC93F700100207801002000007A4489
:101D800010B502202DED048B01F09EFA394C206035
:101D9000032001F099FA6060042001F095FAA06038
:101DA000052001F091FA3449E060097806291BD238
:101DB000DFE801F04903505049502168494200EEE4
:101DC000101A6168F8EEC09A494200EE101AA16834
:101DD000B8EEC09A494200EE101A4042F8EEC08AAE
:101DE00000EE100AB8EEC08A9FED241A244869EE6E
:101DF000810A90ED000A234860EE801AD0ED000AB7
:101E0000214881EEA02A69EE011A61EE801A80ED68
:101E1000002A81EEA02A68EE811A1C4828EE011AD9
:101E200061EE801A21EE000A80EE201A80ED002A71
:101E3000174881EEA02A80ED002A164880ED001A8E
:101E4000BDEC048B10BD94ED000AF8EEC09A94ED41
:101E5000010ABCE794ED000A6168F8EEC09A4942B5
:101E600000EE101AB8EEC09A94ED020AF8EEC08A9D
:101E7000B6E70000705A0020450100200000C8426B
:101E8000800100207C010020205A0020345A0020CC
:101E9000485A00205C5A00202DE9F04100250E46EA
:101EA00007462C4608E03846FFF756FE0544052055
:101EB00004F07CFE641CE4B2B442F4D3B5FBF6F04B
:101EC00080B2BDE8F081000010B50820FFF75CFE8D
:101ED00007F0CEFF9FED0E1B53EC112B08F018F806
:101EE0009FED0D1B53EC112B08F012F89FED0C1B0E
:101EF00053EC112B08F00CF89FED0B1B53EC112B3E
:101F000008F006F807F028FD00EE100A10BD0000EA
:101F10006666666666660A400000000000002640AD
:101F20000000008014AEEF3F000000000000303FD2
:101F3000FEE7000070B50D4C0025C4F8A8520C480F
:101F4000016821F440010160016841F480010160F1
:101F5000C4F8AC52012004F52A7404F043FE0120B9
:101F6000206004F03FFE256070BD0000008040420C
:101F7000000402401CB50121022001F01FF94FF4BA
:101F80004060012400908DF8044000208DF8060088
:101F900003208DF805008DF8074069460448FFF7D7
:101FA0008DFD0448C0F8A842C0F8AC421CBD00003A
:101FB000000402400080404270B50D4C0026C4F879
:101FC000A8620C48016821F440010160016841F4F5
:101FD000800101600125C4F8AC52284604F52A743A
:101FE00004F000FE2560012004F0FCFD266070BDB9
:101FF00000804042000402402DE9F0478146184825
:102000000025016821F44001016001680160154E5E
:102010002C462F464FF00108C6F8A872012004F0A4
:10202000E1FDC6F8A8826806D6F82C12000E11B1A0
:1020300040F0010501E020F00105012004F0D2FD8F
:10204000641CE4B2082CE7D3B9F1000F04D0FFF709
:10205000B3FF2846BDE8F087FFF76CFFF9E7000003
:10206000000402400080404270B50D46044600F076
:102070001BF8204600F0B0F800F05EF8284600F0AB
:10208000ABF800F059F800F00FF844F0010000F050
:10209000A3F800F051F80120FFF7AEFF044600F06E
:1020A0002BF8204670BD000070B51148016821F47E
:1020B00040010160016841F4800101600D4C012084
:1020C000C4F8AC02D4F82C1200290FD0C4F8A8022E
:1020D00004F088FD0025C4F8AC52D4F82C02002886
:1020E00004D1012004F07EFDC4F8A85270BD0000A8
:1020F00000040240008040420D4810B5016821F400
:1021000040010160016841F480010160094C002038
:10211000C4F8A802C4F8AC02012004F52A7404F043
:1021200061FD012020606060BDE8104004F05ABDF0
:10213000000402400080404270B51248002401684B
:1021400021F440010160016801600F4D0126C5F8CE
:10215000AC62304604F046FDC5F8A86207E0641C96
:10216000E4B2322C03D9FFF7C7FF002070BD012075
:1021700004F038FDD5F82C020028F0D1C5F8A802EB
:10218000012070BD00040240008040422DE9F04172
:102190001D4614460F468046069EFFF765FF621CEB
:1021A000FF21C4F1080301FA02F22B445B1ED9405F
:1021B0000A43C5F108018E40D2B2F1B2C4F107035F
:1021C000D940104040EA01023946404600F034F858
:1021D0000120BDE8F08100002DE9F04105461448DA
:1021E000016821F440010160016841F4800101604F
:1021F000104E0027C6F8A8723C464FF00108E809C7
:10220000C6F8AC026806050E012004F0EBFCC6F827
:10221000A882012004F0E6FCC6F8A872012004F0B0
:10222000E1FC641CE4B2082CE9D3BDE8F0810000B5
:10223000000402400080404270B515460E46044638
:10224000FFF732FF2046FFF7C7FFFFF775FF304665
:10225000FFF7C2FFFFF770FF2846FFF7BDFFFFF74C
:102260006BFFFFF749FF012070BD0000174830EEFB
:10227000C00A1749D0ED050A174A91ED001A70EE11
:10228000600A144960EE810A91ED001A41EE000ADD
:1022900090ED041A70EE810A10EE901AC0ED040A57
:1022A000914203DDDFED0D0AC0ED040A10EE901A35
:1022B0000B4A914203D9DFED0B0AC0ED040A80ED11
:1022C000050ABDEEE00A10EE100A7047AC010020CE
:1022D0004C010020500100200078824600788246A0
:1022E000007882C6007882C6174830EEC00A1749C7
:1022F000D0ED080A174A91ED001A70EE600A1449F1
:1023000060EE810A91ED001A41EE000A90ED071A85
:1023100070EE810A10EE901AC0ED070A914203DDBB
:10232000DFED0D0AC0ED070A10EE901A0B4A91423C
:1023300003D9DFED0B0AC0ED070A80ED080ABDEEF8
:10234000E00A10EE100A7047AC0100204C0100209A
:10235000500100200078824600788246007882C6CC
:10236000007882C6174830EEC00A1749D0ED0B0A34
:10237000174A91ED001A70EE600A144960EE810A66
:1023800091ED001A41EE000A90ED0A1A70EE810AF2
:1023900010EE901AC0ED0A0A914203DDDFED0D0A3E
:1023A000C0ED0A0A10EE901A0B4A914203D9DFEDF4
:1023B0000B0AC0ED0A0A80ED0B0ABDEEE00A10EE32
:1023C000100A7047AC0100204C0100205001002091
:1023D0000078824600788246007882C6007882C6FD
:1023E000174830EEC00A1749D0ED0E0A174A91ED92
:1023F000001A70EE600A144960EE810A91ED001A2D
:1024000041EE000A90ED0D1A70EE810A10EE901A5E
:10241000C0ED0D0A914203DDDFED0D0AC0ED0D0A9E
:1024200010EE901A0B4A914203D9DFED0B0AC0ED72
:102430000D0A80ED0E0ABDEEE00A10EE100A70479C
:10244000AC0100204C0100205001002000788246A1
:1024500000788246007882C6007882C61CB50121C9
:10246000102000F0ABFE00218DF8041003210120A4
:102470008DF8051000908DF8070069460148FFF7B8
:102480001DFB1CBD0010024010B5322004F0CAF93B
:1024900002280BD1074906480A68026089888180B2
:1024A000064905480A6802608988818010BD0000DD
:1024B000140200201A020020200200202602002020
:1024C0007CB50121084600F079FE01208DF804005A
:1024D00000228DF8062003218DF80510074D4FF4DA
:1024E00080548DF80700009469462846FFF7E6FA05
:1024F00021462846FFF72EFB7CBD0000000002406D
:1025000000EE900A41421E4AB8EEE01A00EE901A20
:1025100000B592ED010AF8EEE00A05F0ACFE00EE1F
:10252000900A82ED010A174AB8EEE01A00EE901AFE
:1025300092ED010AF8EEE00A05F09DFE00EE900A29
:1025400082ED010A104AB8EEE01A00EE901A92ED00
:10255000010AF8EEE00A05F08EFE00EE900A82ED28
:10256000010A0A4AB8EEE01A00EE901A92ED010A4A
:10257000F8EEE00A05F07FFE82ED010A00BD0000E2
:10258000205A0020345A0020485A00205C5A00206B
:10259000BC2801D3012210E0622801D302220CE002
:1025A0002A2801D3032208E0142801D3042204E0DE
:1025B0000A2801D3052200E006221A21D020FFF7C5
:1025C0003BBE10B504464FF47A70844201D90446EC
:1025D00002E0042C00D20424B0FBF4F0401EC2B28E
:1025E0001921D020FFF728FE6008BDE81040FFF752
:1025F000CFBF10B580226B21D020FFF71DFEC82071
:1026000004F0D4FA00226B21D020FFF715FE012040
:1026100000F03AF8002000F02EF83220FFF7D1FF4A
:1026200000223821D020FFF707FE00226A21D020A7
:10263000FFF702FE00222321D020FFF7FDFD8022BC
:102640003721D020FFF7F8FD7521D020FFF70CFDD2
:10265000682801D0012010BD01226B21D020FFF796
:10266000EBFD00226C21D020FFF7E6FD3220FFF7C2
:10267000A8FF002010BD08B50223009004221C21F1
:10268000D020FFF783FD08BD08B502230090042287
:102690001B21D020FFF77AFD08BD000008B504F02B
:1026A000DBFA0D4C4FF47A7500900A21684606F06B
:1026B00045F92068A8420ADA401C20606068206161
:1026C0002089A082D4F80A00E061E089208400F02B
:1026D00049F800F003F8E8E70402002070B53C2157
:1026E000D020FFF7C1FC04463B21D020FFF7BCFC03
:1026F00004EB00201A4C3E212080D020FFF7B4FCD0
:1027000005463D21D020FFF7AFFC05EB002060809F
:102710004021D020FFF7A8FC05463F21D020FFF73D
:10272000A3FC05EB002000B2A4F10A01A080096817
:10273000B1F57A7F12DB04F11803218819806288D1
:102740005A8098809B1F1D88491B21805988511AE7
:1027500061809988401A00F58040A08070BD00001B
:102760000E02002070B54421D020FFF77DFC044606
:102770004321D020FFF778FC04EB00201F4C4621BA
:102780002080D020FFF770FC05464521D020FFF7C0
:102790006BFC05EB002060804821D020FFF764FC33
:1027A00005464721D020FFF75FFC05EB002000B273
:1027B000211FA08009684FF47A75114A114BA94274
:1027C00003DA01201860107070BDA94201D1002108
:1027D00011704FF496711960084B218812331980DB
:1027E00062885A8098809B1F1D88491B21805988C8
:1027F000511A61809988401AA08070BD080200209B
:102800004401002034000020FEE7704730B50F235C
:10281000C27801780125FAB1144A126801F1E02169
:1028200002F4E062C2F5E062C2F30722C2F10404DE
:10283000D3404278A24084781C401443220181F89E
:102840000024007800F01F018D404009800000F155
:10285000E020C0F8005130BD01F01F00854048095C
:10286000800000F1E020C0F8805130BD0CED00E0A8
:102870000249084302490860704700000000FA0559
:102880000CED00E010B40021084B0A46002003EBD9
:10289000C004401CC0B262548028F8D3491CC9B29D
:1028A0000829F3D310BC00F0B9B800002C020020B6
:1028B00010B57F2816D83F2914D80723A3EBD103DE
:1028C00001F00701C1F107040121A140064CDBB270
:1028D00004EBC000002AC25CC9B201D00A4300E088
:1028E0008A43C25410BD00002C0200207CB5012197
:1028F000082000F063FC01268DF8046000244FF4EA
:10290000F0408DF8064000908DF805408DF80740A6
:1029100069464048FFF7D2F80121080700F05AFC49
:10292000012000F045FC002000F0C0FC002000F079
:102930003FFC394DC5F8B042642005F52C7504F014
:1029400035F92E600021AE2000F02AF90021D520B3
:1029500000F026F90021502000F022F90021A820E3
:1029600000F01EF900213F2000F01AF90021D320C9
:1029700000F016F90021084600F012F9002140206D
:1029800000F00EF900218D2000F00AF9002114203A
:1029900000F006F90021202000F002F900210220B9
:1029A00000F0FEF80021A12000F0FAF80021C0207C
:1029B00000F0F6F80021DA2000F0F2F800211220F1
:1029C00000F0EEF80021812000F0EAF80021EF206D
:1029D00000F0E6F80021D92000F0E2F80021F12013
:1029E00000F0DEF80021DB2000F0DAF800213020D2
:1029F00000F0D6F80021A42000F0D2F80021A62093
:102A000000F0CEF80021AF2000F0CAF8FFF73AFF3F
:102A10007CBD0000000C02400080414270B5104EA9
:102A2000002505F1B000C0B2002100F0B9F8002186
:102A3000084600F0B5F80021102000F0B1F800249D
:102A400006EBC4000121405D00F0AAF8641CE4B26A
:102A5000802CF5D36D1CEDB2082DE2D370BD0000C3
:102A60002C0200202DE9F04F203A98460D4683466F
:102A7000894602F0FF0A00262EE0B8F10C0F08D0BC
:102A8000174901EB0A100027845D200607D5099A33
:102A900008E014490AEB4A0001EB8000F3E70998CB
:102AA00090B1002229465846FFF702FF6D1C6006D0
:102AB000EDB2040EA5EB0901414507D10BF1010070
:102AC0004D4600F0FF0B05E00122EBE77F1CFFB253
:102AD000082FDAD3761CF6B24645CED3BDE8F08F88
:102AE00056AB0008E2A600082DE9FF4F81B0002791
:102AF000DDF838B01D46924680463C464FF001094D
:102B00004FEA5B0627E0281B401EC1B20A2004F0F2
:102B1000DDF8BAFBF0F00A21B0FBF1F201FB120084
:102B200027B9691E8C4201DA48B101273030C2B2A0
:102B300006FB0480C0B25B46CDF8009006E006FBC1
:102B40000480C0B25B462022CDF800900299FFF7C6
:102B500089FF641CE4B2AC42D5D305B0BDE8F08F68
:102B6000F8B516460D460446012714E07A2C02D922
:102B700000241035EDB23A2D03D900242546FFF785
:102B800081FE009732780C2329462046FFF76AFF22
:102B90000834E4B2761C30780028E7D1F8BD000094
:102BA00030B500230E4A012411B1C2F8AC4201E055
:102BB000C2F8AC320021C2F8B832050602D5C2F81C
:102BC000B44201E0C2F8B432C2F8B8424006491C2F
:102BD000000EC9B20829EED3C2F8AC4230BD0000E5
:102BE000008041420020044A01461154401CC0B2FA
:102BF0000928FAD3704700002C0600202DE9F8437D
:102C000001250746ADF800501B4800264670ADF878
:102C100000501A4C80464FF6FF7924E0BDF80000C2
:102C2000384202D0C4F8B05201E0C4F8B062C4F82F
:102C3000A052052003F0D6FFC4F8A062052003F0DF
:102C4000D1FFC4F8A052D4F83C0230B198F801107A
:102C5000BDF80020114388F80110BDF8001009EA02
:102C60004100ADF80000BDF80000FF28D6D9BDE84E
:102C7000F843102003F0B6BF2C06002000004242AB
:102C800070B5FFF7AFFF00F013F90B480B4AB0F82F
:102C900003400A48083244800020012512F8103011
:102CA00000F101005B1E05FA03F12142C0B202D01F
:102CB0001028F3D3002070BD2C0600203C0000201B
:102CC00010B5154C0020C4F8A802102004F52A7491
:102CD00003F088FF0120FFF791FF4320FFF78EFFED
:102CE0000020FFF78BFF0120FFF788FF0020FFF790
:102CF00085FF0020FFF782FF0020FFF77FFF002005
:102D0000FFF77CFF0020FFF779FF01202060BDE87E
:102D10001040102003F066BF0000424210B5154C71
:102D20000020C4F8A802102004F52A7403F05AFF0A
:102D30000120FFF763FF4320FFF760FF0020FFF74C
:102D40005DFF0020FFF75AFF5A20FFF757FF5A2078
:102D5000FFF754FF5A20FFF751FF5A20FFF74EFFAD
:102D60005A20FFF74BFF01202060BDE810401020E3
:102D700003F038BF000042427CB50121102000F072
:102D80001DFA4FF40040002400908DF80440032009
:102D90008DF805000C4E02258DF807506946304627
:102DA000FEF78CFE01218DF804108DF806404FF4DB
:102DB000A8508DF8055000908DF8071069463046F0
:102DC000FEF77CFE7CBD00000010024010B5FFF74E
:102DD00057FF00EE100A27482C4BB8EE400A01229C
:102DE00080ED000A2448C17900EE901A2349F8EEDC
:102DF000600AC1ED000A017A00EE901A2049F8EE4F
:102E0000600AC1ED000A417901EE101A1D49B8EEC1
:102E1000411A81ED001A807910EE101A01EE100AA5
:102E20001948B1F1814FB8EE411A80ED001A1848E7
:102E300001D10178E1B15968002918D010EE901A3B
:102E4000144B994213DA0178002910D1124909680C
:102E5000B1F57A7F0BDB1149027000200870104930
:102E6000087010490870104908701049087010BDAA
:102E70005A60E3E7A80100202C06002098010020FA
:102E80009C010020A0010020A40100203C000020A3
:102E9000540100200000EC420402002056010020F2
:102EA00055010020570100209001002091010020D1
:102EB0002DE9FC4100268DF800600125ADF8045095
:102EC000224CC4F8A862224F3878FFF797FE787832
:102ED000FFF794FE02208DF800001E4F4FF6FF789A
:102EE0002CE0ADF804501DE0C4F8A052052003F01A
:102EF00079FEC4F8A062052003F074FEC4F8A05265
:102F0000D4F83C0240B19DF80000BDF80410385CD4
:102F100008439DF800107854BDF8041008EA4100F9
:102F2000ADF80400BDF80400FF28DDD9102003F03F
:102F300059FE9DF80000401C8DF800009DF800002F
:102F40000928CED3C4F8A852BDE8FC810000424253
:102F50003C0000202C06002010B500F00DF800F019
:102F60000BF800F009F8FFF7ABFE00F027F8BDE81A
:102F70001040FFF7D3BE000010B50F4C0020C4F87E
:102F8000A802102004F52A7403F02CFE0120FFF79C
:102F900035FE4220FFF732FE0020FFF72FFE002013
:102FA000FFF72CFE0020FFF729FE01202060BDE87E
:102FB0001040102003F016BE0000424210B5144C21
:102FC0000020C4F8A802012004F52A74FFF716FEB9
:102FD0004420FFF713FE0020FFF710FE0120FFF74B
:102FE0000DFE0320FFF70AFE0020FFF707FE00207A
:102FF000FFF704FE0020FFF701FE0020FFF7FEFDB3
:1030000001202060BDE81040102003F0EBBD00005F
:1030100000004242554830B4D0ED000A9FED540AFA
:1030200054486FF0130370EE600AFDEEE00A10EEF4
:10303000901AD0ED000A504870EE600AFDEEE00AEA
:1030400010EE902AD0ED000A9A4230EE600ABDEEF2
:10305000C00A10EE100A02DD142A00DA002299429A
:1030600002DD142900DA0021984202DD142800DA7A
:103070000020424B434C424D1B6894ED000AF1EE98
:10308000040AAB4202D130EE200A04E03E4DAB42CE
:1030900003D130EE600A84ED000AB5EEC00AF1EE0D
:1030A00010FA03D29FED390A84ED000A00EE102ACF
:1030B00001EE901AD4ED000AB8EEC00A02EE100A32
:1030C000F8EEE11ADFED352AB8EEC22A20EE201A1A
:1030D0009FED2F0A61EEA01A22EE222A21EE001A9D
:1030E0002C4A61EE801A2C4B22EE000A2C4982ED0C
:1030F000001A2C48C3ED001A81ED000A00789FEDFC
:103100002A2AF0B101281CD0022806D003280FD0AB
:1031100005280DD004280BD019E0F0EE000A20EEAF
:10312000200AF2EE020A80EE202A81ED002A0EE04B
:10313000B5EEC01AF1EE10FA03D2B1EE400A81EDFD
:10314000000A20EE200AC0EE020AC1ED000A9FED3F
:10315000172A81EE020AC1EE820A82ED000AC3ED4F
:10316000000A91ED001A30BCFEF7ACB898010020BF
:10317000000000439C010020A0010020A8010020C5
:103180000000304148010020000010410000000014
:103190000000003C7001002074010020DB0FC93FDB
:1031A00078010020450100200000FA4300007A4425
:1031B000014908627047000000000E42044A0029DD
:1031C000116801D0014300E08143116070470000A5
:1031D00030380240044A0029116801D0014300E060
:1031E000814311607047000040380240044A0029C2
:1031F000116801D0014300E0814311607047000075
:1032000044380240044A0029116801D0014300E01B
:1032100081431160704700002438024070B5204B94
:103220001968204C11F00C0104D06610042903D059
:10323000082903D004601BE0066019E0184A121F39
:103240001168C1F38055116801F03F0115B1B6FB5B
:10325000F1F101E0B4FBF1F114681268C4F38814D1
:103260006143C2F30142521C5200B1FBF2F1016012
:1032700019680F2202EA11110B4A545C0168E140FF
:1032800041601C68072505EA9424145D21FA04F4C2
:1032900084601B6805EA5333D25CD140C16070BDC5
:1032A000083802400024F400C00000200549002234
:1032B0000A700A70012802D0042801D10520087084
:1032C00070470000703802400021022807D0032810
:1032D0000BD004280BD005280BD0002070474FF0EE
:1032E0008042506A516200B27047044A02E0044AC8
:1032F00000E0044A1068116000B2704724040040E6
:1033000024080040240C00402DE9F0414FF4FA66F7
:10331000614B771032463946186804F0BCFF5F4DA8
:10332000186032463946286804F0B5FF5C4C2860C6
:1033300032463946206804F0AEFF3246594E2060CE
:103340003946306804F0A7FF30602A6821681B689E
:103350006FF06304A2F2DC52A0F2DC50A1F2DC5167
:10336000A3F2DC53A24202DD642A00DA0022A0426A
:1033700002DD642800DA0020A14202DD642900DABF
:103380000021A34202DD642B00DA002300EE101AB4
:10339000454CB8EEC00AD4ED000A30EE800ABDEE0E
:1033A000C00A10EE101A002900DA00214FF4FA7555
:1033B0004A4392FBF5F24042484390FBF5F000EEA1
:1033C000102ADFED3C1A394CF8EEC00A00EE100A64
:1033D0005842374DB8EEC01A00EE100A374AC4ED15
:1033E000000AB8EEC00A364885ED001A20EE212A00
:1033F000DFED311A82EE210A82ED000A007850B129
:10340000012808D002280DD0032812D0052810D09A
:1034100004280ED022E002EE101AB8EEC22A20EEE6
:10342000020A17E0F0EE001A20EE210AF2EE021A6C
:1034300010E0F5EEC00AF1EE10FA03D2B1EE400A48
:1034400082ED000AB0EE402A00EE101AB8EEC00A73
:1034500022EE000A80EE212A82ED002A9FED190A51
:103460001949C0EE801AC1EE000AC4ED001AC5ED7C
:10347000000A087838B19FED150A401E84ED000A55
:1034800082ED000A087092ED001A94ED000ABDE882
:10349000F041FDF717BF0000780000207C000020FD
:1034A00080000020840000204801002070010020DE
:1034B00074010020DB0FC93F0000FA4378010020AF
:1034C0004501002000007A44AC010020000000000B
:1034D00010B551EC100B2DED068BB0EE439AF0EECB
:1034E000629AB0EE42AAF0EE618AB0EE418A06F02E
:1034F00033FABDEECA0A154910EE102ABDEEE90AEC
:10350000086081ED018A10EE103AC1ED058AC1E92B
:10351000022381ED049A9900514300EE101A0C49E0
:10352000B8EEC00A81ED000A9FED0A0A0A4929EEA9
:10353000000A81ED000A09490860094880ED008A07
:103540000848C0ED008ABDEC068B10BD805A0020F3
:103550007C010020DB0F4940800100208401002015
:10356000880100208C01002070B5394C4FF4AD70FB
:103570000A2120600920FEF78FFC2168354C90FB62
:10358000F1F0C0B22070052801D905202070C0B22A
:10359000DFED312A9FED311A9FED313A062819D21D
:1035A000DFE800F0030E252E353EF0EE411A9FEDC8
:1035B0002D3AB3EE0E2A9FED2C1A9FED2C0B07E04F
:1035C0009FED2C3AB3EE0E2ADFED2B1A9FED2B0B5D
:1035D000FFF77EFF2578042208242A482A4907237A
:1035E000062D30D2DFE805F0252830302C30F0EE03
:1035F000411AB3EE0E2A9FED251A9FED250BE7E742
:10360000B3EE0E2AF0EE411A9FED230BE0E7F0EE49
:10361000411AB3EE0E2A9FED221A9FED220BD7E737
:103620009FED223AB3EE0E2AF0EE411A9FED200BE9
:10363000CEE704600E2005E0062202600A2001E0C9
:1036400004600B20086070BD02600B6070BD00005C
:1036500068010020450100200000FA43000000003E
:10366000B81E853D9A99993D7B14AE3D022B871675
:10367000D9CEB73F8FC2753D643BDF3D00000000EF
:10368000000000006001002064010020BC74133EB3
:10369000000000806ABCC43F000000A0EFA7C63F46
:1036A000E926313E000000C09DEFC73FC520303DF8
:1036B000000000E07A14CE3F0CB5002227490092AA
:1036C0000192086840F4803008604FF4A043086815
:1036D00000F4003001900098401C0090019810B94F
:1036E00000989842F3D10868800334D501200190F6
:1036F0001A484030026842F080520260184802685E
:1037000042F44042026015480830026802600268D4
:1037100042F400420260026842F4A0520260031FB9
:10372000104A1A600A6842F080720A600A689201C0
:10373000FCD50D4940F205720A60016821F00301D1
:103740000160016841F0020101600168C1F381017B
:103750000229FAD10CBD01920CBD000000380240D4
:103760000070004008544007003C0240F0B5174E7E
:10377000174F059D44F29F14002803DA346020445B
:10378000386002E03C60201A30601248002903DAF9
:1037900044632144816302E08463611A41630E48FB
:1037A000002A03DA84631119416302E04463A11A19
:1037B0008163002B03DA04641919C16302E0C46356
:1037C000E11A016405480560F0BD00003444014081
:1037D00034480140004001400000014038180040DA
:1037E00000B5B0EE412AF0EE602AB0EE401A9FED2F
:1037F000490A4948D0ED001ADFED480AB5EEC01A73
:10380000F1EE10FA02DD71EE801A0EE0B5EEC01A8C
:10381000F1EE10FA02D271EEC01A06E0B5EEC01A4F
:10382000F1EE10FA03D161EEA01AC0ED001A3A4988
:10383000F5EEC02AD1ED011AF1EE10FA02DD71EEBB
:10384000801A0EE0F5EEC02AF1EE10FA02D271EE07
:10385000C01A06E0F5EEC02AF1EE10FA03D161EECF
:10386000A01AC0ED011A2C49B5EEC02AD1ED021AFA
:10387000F1EE10FA02DD31EE800A0EE0B5EEC02A5C
:10388000F1EE10FA02D231EEC00A06E0B5EEC02A1F
:10389000F1EE10FA03D121EEA00A80ED020AB0EE9B
:1038A000410A03F0C5F9F0EE400AB0EE410A03F018
:1038B000BFF9F1EE401AB0EE601A90ED000AF0EE9A
:1038C000610A04F0D8FC80ED000AB0EE620A03F051
:1038D000AFF9B0EE401AB0EE620A03F0A9F9F1EECA
:1038E000400A90ED010A04F0C6FC80ED010AB0EE3A
:1038F000420A03F09DF9B0EE401AB0EE420A03F01E
:1039000097F9F1EE400A90ED020A04F0B4FC80ED64
:10391000020A00BD0AD7233C145A00206666663F9F
:103920004FF0E0210428086903D020F0040008616A
:10393000704740F00400FAE710B505F0A5FD012836
:1039400003D0BDE8104005F093BA10BD124810B581
:10395000016841F4700101601048016841F0010103
:1039600001600E4A00210832116002680C4B1A40B7
:103970000260031D0B4A1A60026822F48022026072
:1039800006480C300160FFF797FE03494FF00060D6
:103990008039086010BD000088ED00E0003802406A
:1039A000FFFFF6FE1030002470B5048C24F00104F3
:1039B0000484058B048C4FF6FF7606EA0313134349
:1039C00025F0F3052B4324F00A020A4342F00101DB
:1039D0000383018470BDF0B5048C24F010040484CA
:1039E000078B068C4FF6FF7404EA011527F4734722
:1039F00004EA0331394304EA02220A4326F0A00113
:103A0000294341F0100102830184F0BD2DE9F0410A
:103A1000884607468AB001210220FFF7CFFB01212B
:103A20004804FFF7E3FB1F4E032208213046FEF750
:103A300081F802208DF804000024C0018DF80640B2
:103A4000012500908DF8075003208DF80500694688
:103A50003046FEF733F8144EADF808800397ADF802
:103A60001040ADF80A4002A9304600F0BFFD6020CA
:103A7000ADF81400ADF81650ADF8204005A9304659
:103A800000F068FC0821304600F09AFC0121304625
:103A900000F0A8FB0121304600F0B4FB0AB0BDE8FD
:103AA000F081000000040240004401402DE9F04193
:103AB000884607468AB001210220FFF77FFB0121DB
:103AC0008804FFF793FB214E032209213046FEF7BD
:103AD00031F802208DF80400002400028DF8064021
:103AE000012500908DF8075003208DF805006946E8
:103AF0003046FDF7E3FF164EADF808800397ADF8AA
:103B00001040ADF80A4002A9304600F06FFD602079
:103B1000ADF81400ADF81650ADF8204005A93046B8
:103B200000F018FC0821304600F04AFC0121304624
:103B300000F072FB0121304600F054FB01213046B9
:103B400000F060FB0AB0BDE8F08100000004024014
:103B5000004801402DE9F041884606468AB001211F
:103B60004020FFF737FB01210220FFF727FB02204F
:103B70008DF818004FF44040059003208DF819008F
:103B80000024264F8DF81A4001258DF81B5005A9F9
:103B90003846FDF793FF09220E213846FDF7CAFF8C
:103BA00009220F213846FDF7C5FF08961C4EADF8D7
:103BB0001C80ADF82440ADF81E4007A9304600F047
:103BC00015FD6020ADF80000ADF802500294ADF88C
:103BD0000C40ADF810406946304600F0BBFB69462A
:103BE000304600F0F3FB0821304600F0E9FB0821E5
:103BF000304600F035FC0121304600F00DFB01217C
:103C0000304600F0FFFA064940F2DC5038310860D7
:103C1000091F08600AB0BDE8F081000000040240FE
:103C2000001800402DE9F0418846074601218AB07E
:103C30000846FFF7DBFA01211020FFF7BFFA354EE7
:103C4000012209213046FDF775FF01220B21304684
:103C5000FDF770FF01220D213046FDF76BFF0122B9
:103C60000E213046FDF766FF4FF4D4400590022048
:103C70008DF8180003208DF8190000248DF81A40E3
:103C800001258DF81B5005A93046FDF717FF224E80
:103C9000ADF81C800897ADF82450ADF81E4007A978
:103CA000304600F0A3FC6020ADF80000ADF80250F3
:103CB000ADF80C406946304600F04CFB6946304692
:103CC00000F084FB6946304600F0D4FB694630467C
:103CD00000F01EFC0121304600F09EFA082130461B
:103CE00000F06EFB0821304600F0BAFB0821304698
:103CF00000F008FC0821304600F044FC0121304669
:103D000000F070FA0121304600F07CFA0AB0BDE8FC
:103D1000F081000000100240000001404FF08040A0
:103D2000018A018A21F0010101827047034801885C
:103D3000018821F00101018070470000100400405B
:103D400003480188018821F00101018070470000CB
:103D50001008004003480188018821F0010101801A
:103D600070470000100C004003480188018821F0D2
:103D70000101018070470000101800402DE9F04754
:103D80008E4800248169B1F5C86F13DD8C490A782B
:103D900082B98C4A1268B2F57A7F0BDB01220A7075
:103DA00089490C7089490C7089490C7089490C70DB
:103DB00089490C7080460078884D000642F20F76E3
:103DC0004FF4FA772DD40221284600F051FA40B37F
:103DD0000221284600F013FA98F800004006284611
:103DE0003DD500F03DFA80B2A8F80600B8F80410FE
:103DF0004246884201D2566300E05463401A516B38
:103E000008445061516A401A00D54042B84200DD72
:103E100051615069506288F800400021284600F046
:103E2000C9FA98F8010000063AD40421284600F0A7
:103E30001FFAA8B30421284600F0E1F998F8010020
:103E4000400628464AD500F00DFA80B2A8F80A00CC
:103E5000B8F80810424688420ED296630DE000F092
:103E6000FFF90146A8F8041098F8001041F040014D
:103E700088F800100221D1E79463401A916B08443E
:103E80009061916A401A00D54042B84200DD9161CC
:103E90009069906288F801400021284600F0D6FA27
:103EA00098F8020000063AD40821284600F0E0F90C
:103EB000A8B30821284600F0A2F998F802004006AD
:103EC00028464BD500F0D0F980B2A8F80E00B8F81B
:103ED0000C10424688420ED2D6630DE000F0C2F9C3
:103EE0000146A8F8081098F8011041F0400188F840
:103EF00001100221D1E7D463401AD16B0844D0618C
:103F0000D16A401A00D54042B84200DDD161D06983
:103F1000D06288F802400021284600F0E9FA98F8BB
:103F20000300C146000647D41021284600F0A0F93E
:103F3000002841D01021A846284600F060F999F8E1
:103F400003004D4640062BD5404600F08FF980B265
:103F50006882298A88420ED22E640DE000F084F92E
:103F60000146A8F80C1098F8021041F0400188F8BA
:103F700002100221D0E72C64401A296C0844286200
:103F8000296B401A00D54042B84200DD2962286AF8
:103F90002863EC7000214046BDE8F04700F0E8BA25
:103FA0004446404600F062F92882E878022140F059
:103FB0004000E8702046EFE7BDE8F087640000208D
:103FC0005601002004020020550100205401002069
:103FD00057010020900100209101002000040140C1
:103FE0002DE9F041884605468AB001210220FFF7FD
:103FF000FDF801210420FFF7E1F84FF4707002266C
:1040000003908DF8106003208DF811000024414FBB
:104010008DF812408DF8136003A93846FDF74EFD68
:10402000032206213846FDF785FD03220721384685
:10403000FDF780FD032208213846FDF77BFD0322B2
:1040400009213846FDF776FD334FADF8148006950B
:10405000ADF81C40ADF8164005A9384600F0C6FA88
:1040600001250F20ADF80040ADF80450ADF8080070
:10407000ADF80240ADF806406946384600F004F954
:104080000420ADF80000ADF80450ADF80240ADF8E2
:104090000640ADF808406946384600F0F5F80820BB
:1040A000ADF80000ADF80450ADF80240ADF80640A0
:1040B000ADF808406946384600F0E6F80C20ADF847
:1040C0000000ADF80450ADF80240ADF80640ADF880
:1040D00008406946384600F0D7F82E208DF82000B9
:1040E0008DF821608DF822608DF8235008A8FEF726
:1040F0008DFB01221E21384600F024F901213846AB
:1041000000F08AF80121384600F07CF80AB0BDE8DA
:10411000F0810000000802400004014002480188CC
:1041200021F0010101807047100401402DE9F043A6
:104130008946804601218BB00804FFF757F801211A
:104140001020FFF73BF8254F032205213846FDF7E5
:10415000F1FC032206213846FDF7ECFC02208DF825
:10416000180003208DF81900002460268DF81A40ED
:10417000012505968DF81B5005A93846FDF79EFCD4
:10418000174FADF81C90CDF82080ADF82440ADF865
:104190001E4007A9384600F029FAADF80060ADF8D6
:1041A0000250ADF80C406946384600F0D3F8694635
:1041B000384600F00BF90821384600F001F90821D3
:1041C000384600F04DF90121384600F00BF8012186
:1041D000384600F017F80BB0BDE8F083001002403D
:1041E000004001400029018802D041F0800101E037
:1041F00021F0800101807047C94301827047C943A3
:10420000018270470029018802D041F0010101E0DC
:1042100021F0010101807047002930F8441F02D0CD
:1042200041F4004101E0C1F30E010180704770B517
:104230000589048B068C25F007050D434FF6FC41DC
:104240000C4040F201110C434FF6FF7101EA0311DB
:1042500026F022061143314305810483018470BD99
:10426000406B7047806B7047C06B7047006C704745
:1042700002460020138A92890B4202EA010202D010
:10428000002A00D0012070472DE9F0410C460E882D
:104290004988A2882389054616B3042E28D0082E03
:1042A0002E8C4FF6FF702BD026F480562E84AF8BC9
:1042B0002E8C00EA022200EA013127F473473A43C8
:1042C00000EA0330104326F420420A4342F48051AE
:1042D000A8832984E1882846BDE8F04100F07AB936
:1042E000FFF762FBE1882846BDE8F04100F056B9CF
:1042F000FFF771FBE1882846BDE8F04100F056B9B0
:1043000026F480762E84AF8B2E8C00EA012100EA01
:104310000310104327F0F307384326F420620A43C2
:1043200042F48071A8832984E1882846BDE8F041E1
:1043300000F048B900210180418001228280C180C3
:1043400001817047002A828901D00A4300E08A4334
:104350008281704730B5028C22F001020284028C07
:104360008388048B22F0020224F073050C882C430E
:104370008D8915434A882A430C4DA84202D00C4D22
:10438000A8420DD122F00805CA8923F440732A43BC
:1043900022F004058A882A430D8A1D434B8A2B4349
:1043A0008380048389684163028430BD000001403A
:1043B00000040140028C22F002020A43028470478A
:1043C000028B22F008020A430283704770B5028C08
:1043D00022F010020284028C8388048B0D8824F45E
:1043E000E6464FF6FF7404EA052535438E8922F030
:1043F000200204EA061616434A8804EA02123243EF
:10440000104EB04202D0104EB04215D122F08006BC
:10441000CA8923F4406304EA0212324322F04006C0
:104420008A8804EA021232430E8A04EA86061E4390
:104430004B8A04EA8303334383800583896881635D
:10444000028470BD0000014000040140028C4FF660
:10445000FF7322F0200203EA011111430184704727
:10446000028B4FF6FF7322F4006203EA012111432D
:104470000183704770B5028C22F480720284028C32
:104480008388848B0D8824F0730425438E894FF62E
:10449000FF7422F4007204EA062616434A8804EAEE
:1044A00002223243104EB04202D0104EB04215D11B
:1044B00022F40066CA8923F4405304EA02223243FC
:1044C00022F480668A8804EA022232430E8A04EAD1
:1044D00006161E434B8A04EA031333438380858305
:1044E0008968C163028470BD00000140000401407E
:1044F000028C4FF6FF7322F4007203EA012111438C
:1045000001847047828B22F008020A43828370473D
:1045100070B5028C22F480520284058C8288838BD1
:104520000C8823F4E6464FF6FF7303EA0424344371
:1045300025F400568D8903EA053535434E8803EA94
:1045400006362E43084DA84202D0084DA84205D198
:1045500022F480450A8A03EA82122A4382808483F5
:1045600089680164068470BD0000014000040140B8
:10457000028C4FF6FF7322F4005203EA013111431B
:1045800001847047828B4FF6FF7322F4006203EAC6
:10459000012111438183704741627047028B22F0F1
:1045A0000C020283028B0A4302837047028B22F4BF
:1045B00040620283028B4FF6FF7303EA01210A4334
:1045C00002837047828B22F00C028283828B0A4323
:1045D00082837047828B22F440628283828B4FF603
:1045E000FF7303EA01210A438283704730B50288D2
:1045F000164C174DA0420DD0A8420BD0B0F1804F01
:1046000008D0144B984205D0134B984202D0134B5C
:10461000984203D122F070034A881A43104B984203
:1046200006D0104B984203D022F440730A891A43F3
:1046300002804A68C2620A880285A04201D0A8426C
:1046400001D1897A01860121818230BD00000140BB
:10465000000401400004004000080040000C00403D
:1046600000100040001400404FF0FF314160002175
:104670000180018141808172704700000A2809DBB6
:104680000C48D0F80C0228B10B480078012801D062
:1046900000207047094A012000211160084A11607A
:1046A000084A51639163084A916391631164D1632D
:1046B0007047000000804142440100203444014022
:1046C00034480140004001400000014070B52F4CCB
:1046D00040F22551204600F0C7FA00284ED020466F
:1046E00000F050FBC1B22A480068B0F57A7F45DB84
:1046F000294A284C002590797B29215400D028B1E3
:10470000401CC0B290710B2802D037E0957135E0A3
:104710009571A07A7D2831D100210920FCF7B4FDE4
:10472000617A88422AD11D4805701D4805701D48D0
:1047300005701D4805701D4805701D4805702179DC
:10474000E07800F07BFB1B4D85ED000AA1796079D4
:1047500000F074FB184880ED000A217AE07900F03F
:104760006DFB1648164EF0EE400A0078022807D07E
:10477000217AE07900F062FB86ED000A002070BD2E
:1047800095ED000A00F004FBF6E700000050004041
:10479000B0010020A8060020A8000020540100203D
:1047A00056010020550100205701002091010020F2
:1047B000E801002070010020740100204501002064
:1047C0007801002070B5334D40F22551284600F0A5
:1047D0004BFA002856D000240126284600F0D2FAD1
:1047E000C1B22D480068B0F57A7F4BDB2C4B2B4DC6
:1047F000002218787B29295400D028B1401CC0B26F
:1048000018700B2802D03DE01A703BE01A70A87AAD
:104810007D2837D10020295C401C4C400928FADB58
:10482000687AA04200D06EBB1E48017849B90121C8
:1048300001701D4802701D4802701D4802701D481D
:1048400002701D4802702979E87800F0F7FA1B4CD5
:1048500084ED000AA979687900F0F0FA184880ED33
:10486000000A297AE87900F0E9FA1648164EF0EEC7
:10487000400A0078022807D0297AE87900F0DEFAA9
:1048800086ED000A002070BD94ED000A00F080FA69
:10489000F6E7000000100140B001002038060020BB
:1048A000A8000020900100205501002054010020A4
:1048B0005601002057010020E8010020700100206F
:1048C00074010020450100207801002000B5054B4F
:1048D0000022985C03F058FE521CD2B2182AF8D37A
:1048E00000BD0000760600202DE9F04140F2255180
:1048F0002DED048B734800F0B7F9002872D0714891
:10490000001D008870490968B1F57A7F6ADB0121D2
:1049100000246E4D412810D12A79412A0DD16C4ACC
:10492000137853B96B4B1C706B4B1C7011706B4A36
:1049300014706B4A14706B4A1470C3B26A4A6B4F9E
:10494000DFF8ACC16B4E2B714B2808D0492808D03A
:104950004A2806D036782EB1012E0BD01EE03170D9
:104960000CE03470A0F14106072E26D9082814DC8B
:10497000137013E0432809D047280BD03C708CF803
:104980000040412819D0452817D006E03C708CF82B
:10499000001002E039708CF8004014709FED560A48
:1049A000564A9FED579A574E58280AD059280DD08D
:1049B0007B2818D07D281CD00EE0A0F14006167090
:1049C000ECE7D6ED000A30EE800A03E0D6ED000AEF
:1049D00030EEC00A86ED000A6878012804D002286B
:1049E00009D060E068E06970A8781354401CA87092
:1049F00059E002206870D078502806D050782328DB
:104A000048D0A878E87090462AE03F48017041E01D
:104A1000A978081A05F015FA41EC110B9FED3B0B34
:104A200000F0BAFBEF78B0EE408A08EB0700F0EE3A
:104A3000608A10F8010C303805F003FA53EC182B9B
:104A400005F066FA41EC180BA86805F057FD53EC29
:104A5000182B04F0B3FF04F07FFF7F1EA860EF70F7
:104A6000E8780428D4D298F801003038032811D20D
:104A7000DFE800F002070B0095ED020A86ED000A60
:104A800008E095ED020A234802E095ED020A22486B
:104A900080ED000A6C70AC70EC7085ED029A3221EA
:104AA0001648FBF75AFD96ED000AB5EEC00AF1EE86
:104AB00010FA01D286ED009A0020BDEC048BBDE80F
:104AC000F08100000044004004020020A800002003
:104AD00055010020540100205601002057010020FC
:104AE0009001002091010020580100209201002037
:104AF00093010020940100200000C84243060020DA
:104B00000000000048010020950100200000000086
:104B1000000024404C0100205001002070B5304CB2
:104B200040F22551204600F09FF8002850D0204642
:104B300000F028F9C1B22B480068B0F57A7F47DB56
:104B40002A4A294D002450797B29295400D028B1C4
:104B5000401CC0B250710B2802D039E0547137E0CC
:104B60005471A87A7D2833D100210920FCF78CFBF1
:104B7000697A88422CD11E4804701E4804701E4871
:104B800004701E4804701E4804701E4804701E48BD
:104B900004702979E87800F051F91C4C84ED000A82
:104BA000A979687900F04AF9194880ED000A297A54
:104BB000E87900F043F91748174EF0EE400A007804
:104BC000022807D0297AE87900F038F986ED000A42
:104BD000002070BD94ED000A00F0DAF8F6E700005E
:104BE00000480040B0010020A8060020A8000020D6
:104BF00054010020560100205501002057010020DB
:104C00009001002091010020E801002070010020A7
:104C100074010020450100207801002000B5054BFB
:104C20000022985C03F0B8FC521CD2B2182AF8D3C8
:104C300000BD00007606002000B5054B0022985C00
:104C400003F0B4FC521CD2B2182AF8D300BD000005
:104C5000760600200029818902D041F4005101E04C
:104C600021F400518181704770B501F01F050126C4
:104C70000024C1F3421306FA05F2012B0FD0022BD8
:104C80000FD0838A4FEA11210088134206FA01F6F9
:104C900000EA060001D000B10124204670BD8389DE
:104CA000F0E7038AEEE710B5C1F3421301F01F04E9
:104CB0000121A140012B07D0022B07D01430002A7C
:104CC000026805D00A4304E00C30F8E71030F6E73C
:104CD0008A43026010BD00007FB50446008A0D467D
:104CE000C98820F4405001432182A08941F20C611F
:104CF0008843A9882A8911436A8902431143A18103
:104D0000A08A20F44071A8890843A0826846FEF773
:104D100085FA1A48844202D01948844201D1039886
:104D200000E00298A189090400EBC00101EB00102A
:104D3000296801D5490000E08900B0FBF1F0642248
:104D4000B0FBF2F109010B096FF018056B4300EBA2
:104D50008300A3891D044FF0320306D503EBC00086
:104D6000B0FBF2F000F0070005E003EB0010B0FB31
:104D7000F2F000F00F00084320817FBD00100140D9
:104D8000001401408088C0F308007047FEE700006F
:104D900010B52DED048BB0EE608AB0EE409ADFEDD9
:104DA000238AB5EEC08AF1EE10FA3CD0B5EEC09A77
:104DB000F1EE10FA37D089EE080A01F039FFB4EEAF
:104DC000E80AF1EE10FA0FD8B5EEC08AF1EE10FA4B
:104DD000B0EE490A02DD01F02BFF03E001F028FFED
:104DE000B1EE400A80EE288A1148B6EE001A90ED26
:104DF000000A1048C9EE080A40EE010A90ED001AB8
:104E000081EE200A10EE100A05F078FB41EC100B41
:104E100000F056F851EC100B04F09EFD00EE100A65
:104E2000BDEC048B10BD9FED040AF9E73333B33EAC
:104E300084010020880100200000000070B501EB13
:104E4000002004B24FF47A7594FBF5F005FB104096
:104E50002DED028B04F0F5FF9FED0B1B53EC112B96
:104E600005F056F841EC180B94FBF5F004F0E9FF5F
:104E700053EC182B04F0A2FD04F06EFDBDEC028B88
:104E800000EE100A70BD0000FCA9F1D24D62503F47
:104E900003B401984100009850EAC12018BF0420D3
:104EA0004A0D18BF40F0010040F2FF72B2EB515FB3
:104EB00008BF40F00200012808BF052002B070477B
:104EC00070B59B482DED020B2DED068B079D25F04F
:104ED0000044A04218DC9748844202DC0AD10698BC
:104EE00040B19DED060BBDEC068B02B0BDE87040F5
:104EF00001F052BC002DCCBF9FED8F0B9FED900BAE
:104F0000BDEC068B02B070BD8F48A04215DD8F4806
:104F1000A042D8BF4FF0FF3458DD9DED060B51EC99
:104F2000100BFFF7B5FF042808BF01F069FC9DEDE9
:104F3000060BBDEC068B02B070BD9DED060B51EC6F
:104F4000100B01F069FECDE9060181489FED828BCF
:104F5000A0423CDD8248A0421FDD00249FED82ABD1
:104F60009DED060B53EC1A2B51EC100B04F026FDB3
:104F70009DED060B41EC190B53EC1A2B51EC100B69
:104F800004F0C6FF53EC182B05F0CEF953EC192BA7
:104F900004F0D0FDCDE9060149E09DED060B0124AA
:104FA00053EC182B51EC100B04F008FD9DED060B93
:104FB00041EC190B53EC182B51EC100B05F0B4F924
:104FC00053EC192B04F0B6FDCDE906012FE068483B
:104FD000A0421FDD02249FED689B9DED060B53EC64
:104FE000192B51EC100B04F093FF53EC182B04F029
:104FF000E5FC9DED060B41EC180B53EC192B51EC25
:10500000100B05F091F953EC182B04F093FDCDE94A
:1050100006010CE09DED060B032453EC102B9FEDD5
:10502000580B51EC100B04F085FDCDE906019DED08
:10503000060B53EC102B51EC100B04F069FF41EC04
:10504000180B53EC182B04F063FF41EC190B4E487E
:105050000621B0EE490AF0EE690A784401F060F9E1
:1050600053EC182B51EC100B04F052FF41EC180BD1
:105070004648B0EE490AF0EE690A0521784401F08D
:105080004FF953EC192B51EC100B04F041FF41EC9C
:10509000100B51EC180B53EC102B002C0EDA04F013
:1050A0008DFC9DED061B53EC112B04F031FF9DEDA3
:1050B000061B53EC112B05F05FF835E004F07EFC85
:1050C0009DED061B53EC112B04F022FF41EC100B5D
:1050D0002F48784400EBC40090ED001B51EC100BFE
:1050E00053EC112B05F020F99DED061B53EC112B11
:1050F00005F01AF941EC100B2648784400EBC40087
:1051000090ED001B51EC100B53EC112B05F034F813
:1051100041EC100B002DA2BFBDEC068B02B070BDA0
:1051200051EC100B04F00CFC41EC100B01E70000FB
:10513000000010440000F07F182D4454FB21F93F7B
:10514000182D4454FB21F9BF0000DC3F0000203E35
:105150000000F33F00000000000000000000F03FEE
:105160000000E63F000000000000000000000040DA
:105170000080034000000000000000000000F83F35
:10518000000000000000F0BF926B0000486B0000C0
:10519000D26A00008A6A00002DE9F04D2DED040B63
:1051A0002DED0E8B96B0DDE92550279CDDF890A003
:1051B00025F0004624F00048BAF1000F14BF012189
:1051C000002101EB4502FC4953184A1093422AD3AF
:1051D000002814BF0123002303EB44030B44F749C9
:1051E0008B4220D358EA00019FEDF59B76D0DFF883
:1051F000D8B35D4503D1BAF1000F05D188E0BAF10B
:10520000000F08BF002100D0012101EB450111F57D
:10521000001F08D8002814BF0121002101EB440120
:1052200011F5001F0BD99DED261B9DED240B16B02B
:10523000BDEC0E8B04B0BDE8F04D01F0B7BA00270D
:10524000002DBCBFE149884521DAE1498845A8BF66
:1052500002271CDAC3451ADCDE4901EB2851142968
:1052600008DDC1F1340220FA02F101FA02F28242B1
:105270000DD108E058B9C1F1140228FA02F101FA7F
:1052800002F2424503D101F00101C1F1020756EAE1
:105290000A0124D1002C22DA002D18BF022F01D0E0
:1052A000012F0AD00220FBF783F916B0BDEC0E8B5C
:1052B00004B0BDE8F04D01F057BA0220FBF778F9D1
:1052C00001F052FA51EC100B04F03AFB41EC100BD8
:1052D00016B0BDEC0E8B04B0BDE8F08D18E09FED6C
:1052E000BEAB9FEDBF8B002871D1B848804522D15D
:1052F00005F1804010F5801008BFBAF1000F07D00B
:10530000B3450ADC002CA8BF9DED260BE0DA0DE0CA
:10531000B0EE490AF0EE690ADAE7002C06DA9DEDF4
:10532000260B51EC100B04F00BFB6FE0AE487844F9
:1053300090ED000BCCE7D8454DD1002C48DA2EB1CA
:1053400086423AD1BAF1000F42D126E0BAF1000FFD
:1053500013D00220FBF72CF901F042FA8DED020B7D
:105360009DED240B8DED000B10EE900A039961F377
:105370001E0003909DED020BAAE78DED02AB9DEDA3
:10538000240B1AEE901A10EE900A8DED000B61F3CB
:105390001E0003909DED020B9AE78DED028B9DEDB3
:1053A000240B18EE901A10EE900A8DED000B61F3AD
:1053B0001E0003909DED020B8AE709DA9DED240B98
:1053C00051EC190B53EC102B04F0B4FB1EE020E061
:1053D0009DED240B7CE786421BDAB4F1804F0DD0A3
:1053E000A4F10050B0F1FF5013D1002D11DB9DED61
:1053F000240B51EC100B02F031FE07E09DED240B65
:1054000053EC102B51EC100B00F0C2BC41EC100B14
:105410005EE79DED240B51EC100B01F0FDFBBAF1A2
:10542000000FCDE90E0142D19FED710B46B3A6F1FD
:10543000E040B0F17F600CD05E4538D1002D00DA3D
:10544000A7B3022F0CBF01204FF0FF3004F0F9FC8E
:10545000DCE7002D01DD002C0DDA002D01DD002C34
:105460001FDB002D16DA002C14DB012F08BF9FED87
:10547000620B3FF42DAFB0EE4A0AF0EE6A0A27E75E
:10548000022F18BF002D0CD0012F0AD1002DFFF6DE
:105490001FAF06E0002DB8BF002C08DA012F3FF443
:1054A00017AFB0EE480AF0EE680A11E71BE00120E2
:1054B00000EBE57050EA070115D0791EB0EE498A7D
:1054C000F0EE698A084308BF9FED4D8B4E480025DA
:1054D000804570DD4D494E48884514DDB0420DDBF6
:1054E000002C19DB2FE00120FBF762F816B0BDECB1
:1054F0000E8B04B0BDE8F04D01F062B9B34502DC9B
:10550000002C09DC1FE0864202DA002C1BDA03E0E3
:105510005E452BDD002C16DD0220FBF749F801F07B
:105520005FF98DED020B53EC1A2B51EC180B04F0C4
:10553000EFFCCDE900010399019861F31E0003908F
:105540009DED020BC4E60220FBF732F801F058F99A
:1055500010EE901A18EE900A8DED020B8DED008B77
:1055600061F31E0003909DED020BB1E69DED0E0B65
:1055700053EC192B51EC100B04F0D6FE9FED260BCB
:10558000CDE9080153EC102B9DED080B51EC100BED
:1055900004F0BEFC9FED221B53EC112B04F0ECFD3C
:1055A0009DED081B53EC112B04F0B2FC9FED1E1B6C
:1055B00053EC112B3CE08CE0FFFF1F00FFFF0F00BE
:1055C000000000000000F03F0000F03F0000F07F0E
:1055D0000000404301FCFFFF000000000000F07FDE
:1055E00000000000000000007669000000000000DC
:1055F0000000000000000080000000000000F0FF3C
:10560000000000000000F0BF0000E0410000F04397
:10561000FFFFEF3F00000000000000000000D03F4F
:10562000555555555555D53F000000000000E03F49
:1056300004F0A2FD9DED080B41EC1A0B53EC102B6E
:1056400051EC100B04F064FC53EC1A2B04F060FCDA
:1056500041EC1A0B9FEDFE0B53EC102B9DED080B4C
:1056600051EC100B04F054FC41EC1B0B9FEDFA0BBA
:1056700051EC1A0B53EC102B04F04AFC41EC1A0BC2
:105680009FEDF70B53EC102B9DED080B51EC100B1D
:1056900004F03EFC53EC1A2B04F046FE41EC1A0BCE
:1056A00051EC1B0B53EC1A2B04F088F90690CDE952
:1056B00006519DED060B53EC1B2B51EC100B04F027
:1056C00033FE53EC1A2B04F057FD41EC100B00F0A5
:1056D000A1B90020B6F5801F0EDA9FEDE30B53EC65
:1056E000102B9DED0E0B51EC100B04F011FCCDE9CD
:1056F0000E016FF034000E4600EB2650A0F2FF378B
:10570000C6F31300DA4940F07F6646F040568842FF
:10571000D8BF002408DDD7498142C8BF012403DC7B
:105720000024A6F580167F1CD348784400EBC40003
:105730000F9690ED00CB9DED0E0B53EC1C2B51EC16
:10574000100B04F0F1FD9DED0E0B41EC1B0B53EC27
:105750001C2B51EC100B04F031F941EC100B51EC07
:10576000190B53EC102B04F0E5F941EC1D0B51EC37
:105770001B0B53EC1D2B04F0CBFB41EC1A0BBF4869
:105780008DED10AB7844109590ED000B4FF000506C
:1057900040EA660000EB84408DED080B00F5002028
:1057A00009909DED080B53EC1C2B51EC100B04F0F1
:1057B000BBFD9DED0E1B53EC112B04F0DDFC41EC09
:1057C000100B53EC102B9DED100B51EC100B04F053
:1057D0009FFB9DED080B41EC1C0B53EC102B9DED3A
:1057E000100B51EC100B04F093FB53EC1B2B04F04B
:1057F000C3FC53EC1C2B04F097FD53EC1D2B04F061
:1058000087FB41EC1C0B53EC1A2B51EC1A0B04F0E8
:105810007FFB41EC1B0B9A480621B0EE4B0AF0EEE1
:105820006B0A784400F07CFDB0EE401AF0EE601A8E
:10583000B0EE41DAF0EE61DA53EC1B2B51EC1B0BAE
:1058400004F066FB53EC1D2B04F062FB9DED100B86
:1058500041EC1B0B53EC1A2B51EC100B04F0AEF87F
:1058600053EC1C2B04F054FB53EC1B2B04F0A6F858
:105870009DED100B41EC1B0B53EC102B51EC100B5E
:1058800004F046FB41EC1D0B9FED7FEB53EC1E2B10
:1058900004F094F853EC1B2B04F090F80890CDE939
:1058A00008519DED080B53EC1E2B51EC100B04F02E
:1058B0003BFD53EC1D2B04F037FD53EC1B2B04F088
:1058C0005BFC9DED080B41EC1D0B53EC102B9DED8B
:1058D000100B51EC100B04F01BFB41EC1B0B53ECB9
:1058E0001A2B51EC1D0B04F013FB9DED080B41EC42
:1058F0001A0B53EC102B51EC1C0B04F009FB53EC6E
:105900001A2B04F05BF841EC1A0B51EC1B0B53EC17
:105910001A2B04F053F80C90CDE90C519DED0C0BB3
:1059200053EC1B2B51EC100B04F0FEFC53EC1A2B28
:1059300004F022FC41EC1B0B9FED550B53EC102B9C
:105940009DED0C0B51EC100B04F0E2FA41EC1A0B3C
:105950009FED510B51EC1B0B53EC102B04F0D8FABC
:1059600041EC1B0B9FED4E0B53EC102B9DED0C0BE4
:1059700051EC100B04F0CCFA53EC1B2B04F01EF886
:1059800041EC100B4848784400EBC40090ED001B3C
:1059900051EC100B53EC112B04F010F841EC1B0BE5
:1059A000384604F04EFACDE9080153EC1B2B51ECBC
:1059B0001A0B04F003F841EC100B3C48784400EB60
:1059C000C40090ED00CB51EC100B53EC1C2B03F0FA
:1059D000F5FF9DED081B53EC112B03F0EFFF069034
:1059E000CDE906519DED080B53EC102B9DED060BF8
:1059F00051EC100B04F098FC53EC1C2B04F094FCBD
:105A000053EC1A2B04F090FC53EC1B2B04F0B4FB6A
:105A100041EC100B9DED261B53EC102B8DED001B64
:105A200000959DED260B51EC100B04F071FA9DEDE5
:105A3000000B41EC1A0B53EC102B9DED260B51EC97
:105A4000100B04F071FC9DED061B53EC112B2FE0A5
:105A5000000000604715F73FFE822B654715F73FB2
:105A600044DF5DF80BAE543E0000000000004043F0
:105A70008E9803007AB60B00F264000020650000E7
:105A80002A64000000000000000000000000084040
:105A9000000000E009C7EE3FFD033ADC09C7EE3F16
:105AA000F5015B14E02F3EBEB6620000706200009C
:105AB00004F02EFA53EC1A2B03F080FF9DED060B39
:105AC00041EC1A0B53EC102B9DED000B51EC100B1D
:105AD00004F01EFACDE90C019DED0C0B51EC1A0BF4
:105AE00053EC102B03F06AFFCDE902010C46AA49E2
:105AF0008C422FDB611A084318D19DED0C0B53EC3F
:105B0000102B9DED020B51EC100B04F00DFC41EC41
:105B10001B0B9FEDA30B51EC1A0B53EC102B03F056
:105B20004DFF53EC1B2B04F0F1FA2DD20220FAF7B3
:105B30003FFD00F055FE10EE901A18EE900A8DED24
:105B4000020B8DED008B61F31E0003909DED020BA7
:105B5000FFF7BEBB944A24F00041914214D393490D
:105B6000214408437FF4EFAC9DED0C0B53EC102B5C
:105B70009DED020B51EC100B04F0D6FB53EC1A2BED
:105B800004F0C4FA7FF6DFAC24F000408849894A6B
:105B9000002601EB205182422BDA481C4FF4801181
:105BA00021FA00F02044844AC0F30A517A44A1F259
:105BB000FF3192ED000B814A8DED080BCA4020EABF
:105BC0000202C0F3130040F48010C1F1140120FA66
:105BD00001F60992002CB8BF76429DED080B53ECFC
:105BE000102B9DED0C0B51EC100B04F09DFBCDE93F
:105BF0000C019DED0C0B51EC1A0B53EC102B03F028
:105C0000DDFE9FED6F0B0890CDE9085153EC102B92
:105C10009DED080B51EC100B04F07AF941EC1B0BD5
:105C20009FED690B53EC102B9DED080B51EC100B05
:105C300004F06EF99DED0C0B41EC1C0B53EC102B9A
:105C40009DED080B51EC100B04F06EFB53EC1A2B7E
:105C500004F092FA9FED5E1B53EC112B04F058F9FF
:105C600053EC1C2B03F0AAFE41EC1A0B51EC1B0B5E
:105C700053EC1A2B03F0A2FECDE902019DED020BBD
:105C800053EC1B2B51EC100B04F04EFB53EC1A2B76
:105C900004F072FA9DED020B41EC1A0B53EC102B41
:105CA00051EC100B04F034F9CDE908014A489DEDA0
:105CB000080B0521784400F033FB9DED081B51ECE7
:105CC000100B53EC112B04F023F99DED021B53EC48
:105CD000112B04F051FACDE906019DED020B53ECB6
:105CE0001A2B51EC100B04F013F953EC1A2B03F0A0
:105CF00065FE9FED3B0B41EC1A0B53EC102B9DED19
:105D0000060B51EC100B04F00FFB9DED060B41EC64
:105D10001B0B53EC102B9DED020B51EC100B04F000
:105D2000F7F853EC1B2B03F005FF53EC1A2B04F090
:105D3000FBFA9DED021B53EC112B04F0F5FA53EC2A
:105D4000192B04F019FACDE9020101EB06500115F7
:105D50000029C8BF039015DC9DED020B324651ECC3
:105D6000100B04F078FCFFF793F8042808BF00F04C
:105D700047FD32469DED020B51EC100B04F06BFC1D
:105D8000CDE902019DED020B51EC180B53EC102BE9
:105D900004F0BEF8FFF73ABB00009040000000009E
:105DA000FE822B654715973C00CC904000346F3F36
:105DB00001FCFFFF0000E03FF8600000FFFF0F0064
:105DC00000000000432EE63F396CA80C615C20BE49
:105DD000EF39FAFE422EE63FC85F000000000000E7
:105DE000000000000000004000B52DED048BB0EE77
:105DF000409AF0EE609A83B051EC190B04F0C8F9A8
:105E000041EC180B18EE100A18EE901A8DED008B6D
:105E1000002818BF0120084320F00040C0F17F6037
:105E200000F1E040C00F14D019EE101A19EE900ADC
:105E30008DED009B002918BF0121084320F0004090
:105E4000C0F17F6000F1E040C00F04BF0120FAF70D
:105E5000AFFBB0EE480A03B0F0EE680ABDEC048B6D
:105E600000BD00000000000010B51D499FED1A1B89
:105E70002DED020B84B0059820F000408842DCBF75
:105E800001209DED040B21DD1649884209D10498BB
:105E900040B94FF00100FAF78BFB00F091FC06B01F
:105EA00010BD05DB9DED040B00F076FC06B010BDC7
:105EB00068469DED040B00F017F800F00100012189
:105EC000A1EB40009DED021B9DED000B00F0A4FA3C
:105ED00006B010BD0000000000000000000000003F
:105EE000FB21E93F0000F07F2DE9F14F04462DED45
:105EF000020B2DED088B8AB09FEDE70B80ED020BB6
:105F0000139EE74826F0004585420ADC9DED120B02
:105F1000002084ED000B0AB0BDEC088B03B0BDE897
:105F2000F08FE0489FEDE0AB9FEDE1BBA84247DD7D
:105F3000E14F9FEDE39B9FEDE48B9DED120B53EC46
:105F40001A2B51EC100B002E1CDD04F0EDF941EC86
:105F5000100BBD4208D053EC1B2B51EC100B04F07E
:105F6000E3F9C4E900010BE053EC192B51EC100BE1
:105F700004F0DAF953EC182B04F0D6F9C4E9000167
:105F80000120C8E703F01AFD41EC100BBD4208D018
:105F900053EC1B2B51EC100B03F010FDC4E9000176
:105FA0000BE053EC192B51EC100B03F007FD53ECF5
:105FB000182B03F003FDC4E900014FF0FF30AAE7FE
:105FC000C348A84279DB9DED120B51EC100B00F099
:105FD00023FE41EC180B9FEDC00B53EC102B03F08C
:105FE00097FF9FEDBF1B53EC112B03F0E7FC03F071
:105FF000F9FE074603F025FF41EC190B53EC1A2B71
:1060000003F086FF53EC182B04F0B6F841EC180BA4
:1060100053EC1B2B51EC190B03F07AFFDFF8C8A2ED
:1060200041EC100B4FEA15580125FA4453EC102BA4
:1060300051EC180B04F078F9032DC4E900013DD0B0
:10604000C1F30A5005EB4511A8EB0000113981425C
:1060500034DA0AEB051BB0EE48AA9BED000BF0EE1C
:1060600068AA53EC102B51EC190B03F051FF41ECD3
:106070001B0B51EC1A0B53EC1B2B04F055F941ECA4
:10608000180B51EC1A0B53EC182B04F04DF953EC90
:106090001B2B04F049F99BED020B41EC1A0B53EC5E
:1060A000102B51EC190B03F033FF53EC1A2B04F0B7
:1060B0003BF941EC100B6D1CB8E70EE0002EA8BFB9
:1060C0003846BFF628AF94ED000B51EC100B03F0EF
:1060D00037FCC4E9000178421DE7C6F3130040F421
:1060E000801EC6F30A50A0F2F530471100F01F05DC
:1060F000C5F12000DDF848B0089000200690079018
:106100000520EC467949002D07EB0002794408BFD1
:1061100051F8221009D051F8223001EB8201AB4036
:106120004A68089922FA01F11943A1FB0E26A1FB46
:106130000B131A449A4234BF0123002303EB0608D1
:106140000CEB8003D3E901A60E448E4234BF01213B
:10615000002192448A4411B1924502D903E092454C
:1061600001D2012100E00021C3E901A641444CF81D
:106170002010011EA0F10100C4DC029800F10050C3
:10618000850F0298DDE903678000DDF8148003F0D5
:1061900058FE41EC1A0B304603F06AFE9FED541B8B
:1061A00053EC112B03F0B4FE41EC1B0B384603F00B
:1061B0005FFE9FED511B53EC112B03F0A9FE41EC48
:1061C000180B404603F054FE9FED4D1B53EC112B72
:1061D00003F09EFE41EC190B51EC180B53EC192BFC
:1061E00003F0ECFB53EC1B2B03F0E8FB53EC1A2BF6
:1061F00003F0E4FBCDE90801002008909DED080BB9
:1062000053EC1A2B51EC100B04F08EF853EC1B2BB3
:1062100004F08AF853EC182B04F086F853EC192B91
:1062200003F0AAFF9FED381B53EC112B03F070FE17
:106230009FED370B41EC180B53EC102B9DED080B29
:1062400051EC100B03F064FE53EC182B03F0B6FB7B
:106250009FED310B41EC180B53EC102B9DED080B0F
:1062600051EC100B03F054FE53EC182B03F0A6FB7B
:1062700041EC100B139810F0004F06D06D4251EC1A
:10628000100B03F05DFB41EC100B284684ED000B76
:1062900041E60000000000000000000000000000D7
:1062A000FB21E93F7CD9024000004054FB21F93F2B
:1062B0003163621A61B4D03DFB21F93F0000000058
:1062C0000000601A61B4D03D7370032E8A19A33B9D
:1062D000FB2139410000000083C8C96D305FE43FF5
:1062E000000000000000E03F825C0000D05B000086
:1062F000000000000000103E000000000000103C04
:10630000000000000000103A182D4454FB21F93D14
:106310003326A611460B113C00000054FB21F93D29
:1063200070B504462DED028B4D1E00EBC500B0EE9E
:10633000408AF0EE608A90ED000B35F0060017D031
:1063400053EC182B51EC100B03F0E2FD41EC100B59
:106350006D1E04EBC50090ED001B51EC100B53ECCF
:10636000112B03F02BFB41EC100B35F00600E7D1AD
:10637000022D36D0042D1CD0062D1CBFBDEC028B87
:1063800070BD53EC182B51EC100B03F0C1FD94EDD4
:106390000A1B53EC112B03F011FB53EC182B03F0E9
:1063A000B7FD94ED081B53EC112B03F007FB41ECF8
:1063B000100B53EC182B51EC100B03F0A9FD94EDCE
:1063C000061B53EC112B03F0F9FA53EC182B03F0D6
:1063D0009FFD94ED040B53EC102B03F0EFFA41EC0E
:1063E000100B53EC182B51EC100B03F091FD94EDB6
:1063F000021B53EC112B03F0E1FA53EC182B03F0C2
:1064000087FD94ED001B53EC112B03F0D7FABDEC84
:10641000028B41EC100B70BDF1B506462DED040B5F
:10642000BD482DED0C8B8AB0B0EE418AF0EE618A4A
:10643000179D25F000449FEDBABB9FEDBBCB844276
:1064400008DA9DED160B51EC100B03F0CBFC002885
:1064500000F0E980B64FA74231DC002D0DDA9DED4A
:10646000160B51EC100B03F06BFACDE9160151EC51
:10647000180B03F065FA41EC180B9FEDAF0B53ECD2
:10648000102B9DED160B51EC100B03F075FE53EC29
:10649000182B9FEDAB0BCDE9040151EC100B03F071
:1064A00043FF41EC100B53EC102B9DED040B51EC12
:1064B000100B03F083FA9FEDA48BCDE916019DED3F
:1064C000160B53EC102B51EC100B03F021FDCDE912
:1064D00004019DED040B53EC102B51EC100B03F059
:1064E00017FD41EC190B9A480621B0EE490AF0EE6F
:1064F000690A7844FFF714FF9648B0EE40DAF0EEF0
:1065000060DAB0EE490AF0EE690A06217844FFF736
:1065100007FF9DED041B51EC100B53EC112B03F006
:10652000F7FC9DED040B41EC1A0B53EC102B9DED89
:10653000160B51EC100B03F0EBFC41EC190B53EC78
:106540001A2B51EC1D0B03F039FA53EC192B03F005
:10655000DFFC53EC182B03F031FA9DED041B53ECD8
:10656000112B03F0D5FC53EC182B03F027FA41EC68
:10657000180B9FED790B51EC190B53EC102B03F01A
:10658000C7FC53EC182B03F019FA41EC190B9DEDE5
:10659000160B53EC192B51EC100B03F00FFA41ECD6
:1065A000180BA74269DC304603F04BFC41EC1A0B98
:1065B00051EC180B53EC1A2B03F000FA41EC1B0BB7
:1065C00053EC182B51EC180B03F0A2FC53EC1B2BD3
:1065D00003F0B0FA53EC192B03F0A6FE9DED161B49
:1065E00053EC112B03F0C8FD9FED5D1B53EC112BF9
:1065F00003F08EFC53EC1A2B03F0BEFD41EC180B9C
:10660000022000EAA570C0F1010003F01AFC53EC6F
:10661000182B03F07DFC00BF41EC100B0AB0BDEC61
:106620000C8B05B0F0BD711C1698214308430CD0AB
:106630009DED160B012E1CBF53EC102B51EC1C0BC7
:1066400010D000BF03F076FAE6E79DED160B51EC93
:10665000100B00F0E1FA41EC100B51EC1B0B53EC6A
:10666000102BEFE751EC100BFEF712FC042808BFCB
:1066700000F0C6F89DED160BD0E7012E04BFB0EE7A
:10668000480AF0EE680AC9D08DED048B002404940A
:106690009DED040B53EC102B9DED160B51EC100BE4
:1066A00003F06AFD53EC192B03F066FD41EC190B66
:1066B00053EC182B51EC1C0B03F03CFA41EC180B7B
:1066C0008DED008B00949DED040B53EC102B9DED94
:1066D000000B51EC100B03F01BFC53EC1B2B03F0D5
:1066E0006DF99DED000B41EC1A0B53EC192B51EC9D
:1066F000100B03F00DFC53EC1A2B03F05FF953EC75
:10670000182B03F005FC9DED001B53EC112B03F03F
:1067100055F981E7000000000000303E0000000055
:10672000000000000000F03F000000000000F0BF8B
:106730002894E53F00000000182D4454FB21E93F58
:10674000075C143326A6813C000000000000000016
:106750008258000098580000635555555555D53F4F
:1067600000000000000000409FED070B10B553EC47
:10677000102B9FED070B51EC100B03F0DBF941ECF4
:10678000100B10BD00000000000000000000000021
:10679000000000000000F03F10B553EC102B51EC4E
:1067A000100B03F00BF941EC100B10BD10B553ECBE
:1067B000112B51EC100B03F001F941EC100B10BD43
:1067C0009FED050B10B553EC102B51EC100B03F0A3
:1067D000B1F941EC100B10BD0000000000000000FA
:1067E0009FED050B10B553EC102B51EC100B03F083
:1067F0008FFB41EC100B10BD00000000000000708A
:106800009FED050B10B553EC102B51EC100B03F062
:106810007FFB41EC100B10BD0000000000000010D9
:106820007047000030B5204AD2F800421F4B0021CB
:106830002CB1D981D2F80052012425B106E0DC89BF
:10684000641CDC81F6E71D7905B91C715D794DB9D1
:106850001D79012D03D19D796D1C9D715C719C7911
:10686000022C04D0D2F80022012A04D005E099714C
:106870009981022030BD197159719A79012A11D17B
:106880009A89521C92B29A81824206D9DA8982424E
:1068900003D299719981012030BDDA89824201D9F0
:1068A00099719981002030BD0000424220000020F3
:1068B00008B500F0D1F900903221684602F03EF8A8
:1068C00000F00AF8FEF702F8FEF7A8F9FEF7B4F9AF
:1068D000FAF7AEFCF0E700002DE9F041914C7B2087
:1068E0002DED068BF5EE004AF6EE00AA20767D200F
:1068F000DFF838828E4E84F82E00D8ED000A96ED2F
:10690000001A8C4F8C4970EE811A97ED003AD1ED48
:10691000002A854831EE830A884A0078884B30EE99
:10692000220A20EE240A9FED878A61EEAA1A92EDD0
:10693000002A20EE080A002561EE881A0628FDEEDE
:10694000C03A93ED000AFDEEE11A32EE004A31EE54
:10695000602A6FD2DFE800F003209898879830EE25
:10696000C10A13EE900A608330EE030A30EE620A29
:1069700020EE240A20EE080ABDEEC00A10EE100A2E
:10698000B1EE600AA08330EE410A30EE030A30EE29
:10699000220A20EE240A74E09FED6B0BFFF724FA25
:1069A0009FED6B1B51EC100B53EC112B03F0B0FA65
:1069B00097ED00AAD6ED008A41EC190B3AEE680A71
:1069C00020EE2A0A10EE100A03F098FD53EC192B62
:1069D00003F0B0F89FED601B53EC112B03F098FA15
:1069E00003F000FA608398ED000AB0EE001AF0EEB2
:1069F000680A50EE010A30EE280A70EECA1AF0EE6C
:106A0000080A81EEA01A21EE081ABDEEC11A11EE95
:106A1000100A30EE0A1AA083514881EE200A90ED48
:106A2000001AC0EE010A20EE880ABDEEC00A10EE80
:106A3000100AE0834B48DFF830C14C4FB0F9023008
:106A40006384018849420AB2A284B0F90410E18447
:106A5000BCF902002085BCF80060764236B266853B
:106A60003F78C7B119E0B1EE410A13EE900A30EE5B
:106A7000600A6083A58330EE030A30EE220A20EE1E
:106A80002A0AC0EE040ACEE7C2EE000A11EE900A0E
:106A90006083A583C7E7BCF80450A585344D95ED08
:106AA000000A20EE080ABDEEC00A10EE105A258436
:106AB00094F818C084F800C06770678B4FEA172CF1
:106AC00084F802C0E770A78B4FEA172C84F804C043
:106AD0006771E78B4FEA172C84F806C0E7711F0A2D
:106AE00027726372130AA372E2720A0A2273617335
:106AF000010AA173E073300A20746674A08D010A44
:106B0000A174E074280A2075657501211620FAF732
:106B1000BBFBA07594F82E00E075BDEC068BBDE8BC
:106B2000F08100007606002045010020205A002058
:106B3000345A0020485A00205C5A00208801002066
:106B40008401002000007A4400000000000008409A
:106B5000000000000000E03F0000000000408F4007
:106B60008C0100200E0200200802002044010020B9
:106B70001800002010B504460420FCF7D1FE0A4896
:106B80004FF47A71047014FB01F1012242804FF03E
:106B9000E020026942F0020202614161016941F0B4
:106BA0000101016110BD0000B400002070B5044671
:106BB00002F06AFC01280CD0094D6888844203D396
:106BC000B4FBF0F001F084FE6888B4FBF0F100FB48
:106BD00011444FF47A706043BDE8704000F002B891
:106BE000B400002070B54FF0E02500216C69094A1F
:106BF000AB6912785043AA699A42FCD002D2A3EB47
:106C0000020302E0A4EB0206334419441346814216
:106C1000F1D370BDB400002082B0CDE9000121F0B5
:106C2000004001909DED000B02B051EC100B70473D
:106C3000B5EEC00AF1EE10FA01DAB1EE400A704783
:106C400004490A885206FCD5024AC1B2121D1180BD
:106C5000704700000044004010B502F015FC012808
:106C600003D0BDE8104002F01DBC0148406810BDD3
:106C7000B4000020054C064DD4F8B002C043C4F85F
:106C8000B002286801F024FEF6E700000000404250
:106C9000340000201CB501F091FA07490120CDE92C
:106CA00000010202002305A1074802F0C1FB01F028
:106CB000C5FF00201CBD000000000020737461723D
:106CC000745F7461736B0000CD800008034601207F
:106CD00000E05843491EC9B2FBD270472DE9F0438A
:106CE0004FF4AD702DED028B81B0FE4C0A21206077
:106CF0000920FBF7D1F8216890FBF1F0052800DDB1
:106D00000520F94991ED000ADFEDF80ADFF8E0937C
:106D1000F84920EE200ABDEEC00A89ED050AD9F82F
:106D20001020521CC9F810200968002977D10628C4
:106D30000BD2DFE800F003051A1C1E20EEA200E0D3
:106D4000EFA200210846FBF70BFFEF4FEF4E0C249C
:106D5000387890B1012810D002282DD003282BD0EC
:106D6000042829D0052827D04CE3E9A2E9E7EAA2C4
:106D7000E7E7EBA2E5E7ECA2E3E7EDA2002137208D
:106D8000FBF7EEFEB6F90400002809DAE9A20021BB
:106D90005020FBF7E5FE0094B6F90400424207E0FC
:106DA000E5A200215020FBF7DBFE0094B6F9042099
:106DB000052300215A201EE0E0A200213720FBF726
:106DC000CFFEE04DB5F90400002809DAD9A2002170
:106DD0005A20FBF7C5FE0094B5F90400424207E0D3
:106DE000D5A200215A20FBF7BBFE0094B5F9042080
:106DF000032300216420FBF777FE38789FEDD28AC9
:106E0000DFEDD28AD24D58B1012809D0042807D02D
:106E1000022850D003284ED005284CD0F2E252E38D
:106E2000CCA20A210020FBF79BFE95ED020AB5EEED
:106E3000C00AF1EE10FA0AD2BEA20A210F20FBF717
:106E40008FFE009495ED020A20EE080A09E0BAA22E
:106E50000A210F20FBF784FE009495ED020A20EE34
:106E6000280A05230A211420BCEEC00A10EE102ABD
:106E7000FBF73AFE95ED000AB5EEC00AF1EE10FA06
:106E80000AD2ACA20A213C20FBF76AFE009495EDE1
:106E9000000A20EE080A09E0A7A20A213C20FBF71D
:106EA0005FFE009495ED000A20EE280ABCEEC00AB1
:106EB00010EE102A1AE0A8A20A210020FBF750FECB
:106EC000B6F90400002809DA9AA20A213C20FBF74F
:106ED00047FE0094B6F90400424207E096A20A2158
:106EE0003C20FBF73DFE0094B6F9042005230A215F
:106EF0004B20FBF7F9FD3878994EB84650B1012880
:106F000008D0042806D002287DD003287BD005288D
:106F100079D077E293A214210020FBF721FE96EDB1
:106F2000020AB5EEC00AF1EE10FA0AD281A21421CB
:106F30000F20FBF715FE009496ED020A20EE080ADA
:106F400009E07DA214210F20FBF70AFE009496EDC4
:106F5000020A20EE280A142105230846BCEEC00AC6
:106F600010EE102AFBF7C0FD96ED000AB5EEC00A40
:106F7000F1EE10FA0AD26FA214213C20FBF7F0FDCB
:106F8000009496ED000A20EE080A09E06AA2142196
:106F90003C20FBF7E5FD009496ED000A20EE280A60
:106FA000052314214B20BCEEC00A10EE102AFBF77B
:106FB0009BFD6DA21E210020FBF7D2FD6B4F97EDCC
:106FC000020AB5EEC00AF1EE10FA0AD259A21E2149
:106FD0000F20FBF7C5FD009497ED020A20EE080A8A
:106FE00009E055A21E210F20FBF7BAFD009497ED92
:106FF000020A20EE280A05231E211420BCEEC00A36
:1070000010EE102A00E01AE0FBF76EFD97ED000A83
:10701000B5EEC00AF1EE10FA08D246A21E213C20BD
:10702000FBF79EFD009497ED000ADEE042A21E21D0
:107030003C20FBF795FD009497ED000AE1E04CA29F
:1070400014210020FBF78CFD95ED020AB5EEC00A75
:10705000F1EE10FA0AD237A214210F20FBF780FDBF
:10706000009495ED020A20EE080A09E032A21421EC
:107070000F20FBF775FD009495ED020A20EE280A1B
:10708000142105230846BCEEC00A10EE102AFBF7B7
:107090002BFD95ED000AB5EEC00AF1EE10FA0AD20A
:1070A00024A214213C20FBF75BFD009495ED000A1F
:1070B00020EE080A09E020A214213C20FBF750FD35
:1070C000009495ED000A20EE280A052314214B2098
:1070D000BCEEC00A10EE102AFBF706FD1E2125A209
:1070E000002049E068010020180000200000C8428C
:1070F000EC0100205C0100204D65632000000000D1
:107100004F6D6E690000000045010020080200205C
:10711000416B6D20000000004469666600000000BD
:10712000345744200000000054616E6B00000000E2
:10713000475A00002D0000002B0000004249415337
:10714000000000001402002000007AC400007A440D
:10715000205A0020410000004759524F5F5A3A0020
:10716000345A00204200000043000000485A00202A
:107170004C3A0000523A0000FBF7F2FC96ED020A8E
:10718000B5EEC00AF1EE10FA0BD2AFF258021E2192
:107190000F20FBF7E5FC009496ED020A20EE080AAA
:1071A0000AE0AFF26C021E210F20FBF7D9FC00941D
:1071B00096ED020A20EE280A05231E211420BCEEBB
:1071C000C00A10EE102AFBF78FFC96ED000AB5EE10
:1071D000C00AF1EE10FA0BD2AFF2A8021E213C2039
:1071E000FBF7BEFC009496ED000A20EE080A0AE0C8
:1071F000AFF2BC021E213C20FBF7B2FC009496EDDE
:10720000000A20EE280A05231E214B20BCEEC00AEE
:1072100010EE102AFBF768FC98F8000050B1042823
:1072200008D0012859D0022878D0032875D0052825
:1072300073D0E7E0A8A228210020FBF791FCA74D1E
:1072400095ED020AB5EEC00AF1EE10FA0BD2AFF2DC
:107250001C1228210F20FBF783FC009495ED020AF5
:1072600020EE080A0AE0AFF2301228210F20FBF7C7
:1072700077FC009495ED020A20EE280A05232821C8
:107280001420BCEEC00A10EE102AFBF72DFC95ED81
:10729000000AB5EEC00AF1EE10FA0BD2AFF26C1292
:1072A00028213C20FBF75CFC009495ED000A20EEC1
:1072B000080A0AE0AFF2801228213C20FBF750FCBC
:1072C000009495ED000A20EE280ABCEEC00A10EEEC
:1072D000102A052328214B2092E081A2282100209A
:1072E000FBF73EFC804DB5F91A0000280ADAAFF230
:1072F000BC1228213C20FBF733FC0094B5F91A009E
:107300004242E6E7AFF2D01228213C20FBF728FCEE
:107310000094B5F91A20DCE700E01FE073A22821F1
:107320000020FBF71DFC734D286800280ADAAFF235
:10733000FC1228213C20FBF713FC0094286804234E
:10734000424208E0AFF2102228213C20FBF708FC63
:1073500000942A6804232821502051E066A22821A5
:107360000020FBF7FDFB95ED010AB5EEC00AF1EE3A
:1073700010FA0BD2AFF2442228211420FBF7F0FBC5
:10738000009495ED010AB1EE400A08E0AFF25822F0
:1073900028211420FBF7E4FB009495ED010A042357
:1073A0002821BCEEC00A1E2010EE102AFBF79CFB21
:1073B00052A228213C20FBF7D3FB96ED010AB5EE43
:1073C000C00AF1EE10FA0BD2AFF298222821502019
:1073D000FBF7C6FB009496ED010AB1EE400A08E007
:1073E000AFF2AC2228215020FBF7BAFB009496EDB7
:1073F000010A04232821BCEEC00A5A2010EE102AEC
:10740000FBF772FB3E480078012813D03D48007816
:10741000012811D03C48007801280FD03B48007863
:1074200001280DD03A483B4900780978084309D033
:1074300039A208E03AA206E03BA204E03CA202E046
:107440003DA200E03EA232210020FBF789FB3E482E
:10745000D0F80C02012802D13C480078D0B33CA2FD
:1074600032212D20FBF77CFBD9F81400642590FB1A
:10747000F5F24E46022332214B200094FBF734FBF9
:1074800034A232215820FBF76BFB7069022390FB7A
:10749000F5F105FB1102322162200094FBF724FB79
:1074A0002DA232216E20FBF75BFB706990FBF5F19A
:1074B00005FB11000A2806DA0223002232215C2093
:1074C0000094FBF711FB01B0BDEC028BBDE8F0436B
:1074D000FBF7A4BA21A2C3E7440000005C5A0020D5
:1074E0004D4F56455F5A00007606002053455256D0
:1074F0004F3A00006C0100204D4100004D42000059
:1075000054010020550100205601002057010020A1
:107510009001002091010020555341525400000079
:107520005053322020000000415050202000000025
:10753000522D43202000000043414E202000000037
:10754000524F53202000000000804142440100209F
:107550004F4646002E000000560000004F204E000F
:107560002DE9F041184E0F460446F5683068001DBD
:1075700001F024F838B9306890F82C1001208840C8
:10758000316981433161601C07D137B13168BDE891
:10759000F0410E48091D01F049B830682C44AC4256
:1075A0004460316805D2B06BBDE8F041091D01F0BF
:1075B00025B8706B091D01F021F8B06A844200D231
:1075C000B462BDE8F0810000D0000020D80900209E
:1075D0002DE9F041054601F035F82D4EB068401C0C
:1075E000B06030682B4F10B1706930B32BE035605C
:1075F000B068012827D1002404EB840007EB800049
:1076000000F0EEFF641C202CF6D3234800F0E8FFC6
:107610002148143000F0E4FF1F48283000F0E0FF5C
:107620001D483C3000F0DCFF1B48503000F0D8FF14
:10763000194870631430B06305E03068E96AC06AC5
:10764000884200D83560706A0121401C706268640D
:10765000E86A326981401143316100EB800007EB39
:107660008000291D00F0E2FF01F028F87069002871
:107670000CD03068E96AC06A884207D207494FF0E7
:1076800080500860BFF34F8FBFF36F8FBDE8F0816C
:10769000D0000020080700208809002004ED00E049
:1076A00010B500F0CFFF0E4C2068A0B90D4800F0D7
:1076B00097FF0C48143000F093FF0A48E060143044
:1076C000206100221021052001F0E8FB206010B1AC
:1076D00005A101F0C9F8BDE8104000F0EFBF0000BF
:1076E0000C010020EC090020546D725100000000D4
:1076F00070B5124E124D1CE001F0EAFA306820B16C
:10770000002401F0EFFFA4B901E00124F9E700F043
:1077100099FFF068C468201D00F050FFA868401E63
:10772000A8606868401E686000F0C8FF204600F04E
:1077300052F868680028DFD170BD0000C40900203D
:10774000D000002030B4026C0B46002A0BD0C16878
:107750001144C1604468A14201D30168C16030BCDA
:107760001846F8F7ADBE30BC70472DE9F041856B87
:10777000174604460026026C82B1C7B1E068F8F7EC
:107780009FFEE168206C091AE1602268914202D2F2
:107790006168081AE060022F16D017E02068A8B9C7
:1077A000606801F0F9FE0646002060600EE0A06807
:1077B000F8F786FE216CA0680844A06061688842E2
:1077C00004D32068A06001E005B16D1E6D1CA563A7
:1077D0003046BDE8F08110B50446006B00F0A0FF14
:1077E0002046BDE8104000F09BBF000010484FF459
:1077F000A041420706D0C01D0D4920F00700411AE4
:10780000C1F5A0410B4A00230144C2E90003083935
:10781000103A21F0070111604B600B600B1AC0E9B0
:10782000001393604FF000405360D0607047000039
:10783000140A00203C010020074E4FF08054074DF1
:10784000FFF756FF30680128FAD92C60BFF34F8F3D
:10785000BFF36F8FF4E700000807002004ED00E09D
:107860002DE9F047DDE909840E461746824691006E
:107870009946089DA522206BF8F767FE6FF003017B
:10788000206B01EB8701084420F00707780705D03B
:1078900040F22B3219A11EA0F8F76CFD002022182F
:1078A000315C82F83410315C11B1401C1028F6D3E1
:1078B000002684F84360202D00D31F25E562C4E92B
:1078C0001356201D00F097FE04F1180000F093FEFF
:1078D0002461C5F120006462A061666584F8586087
:1078E0004A465146384600F00FFB2060B8F1000FC1
:1078F00001D0C8F80040BDE8F08700002E2E5C469D
:1079000072656552544F535C7461736B732E6300E0
:107910004572726F723A25732C25640D0A000000BF
:1079200030B5114900E011460A688242FBD34B682A
:107930005C18844203D14068184448600846436894
:107940001C18944209D1084C103C2468A24209D06A
:1079500052681A4442600A6812680260814200D08C
:10796000086030BD0460F9E73C01002070B50024D8
:1079700041600B4D0061914206D8D11A8269914253
:1079800006D2011D286907E09A4203D2994201D329
:10799000012403E0011DE86800F030FE204670BDC0
:1079A0000C01002010B5044600F04CFEA06B20B185
:1079B000002400F083FE204610BD0124F9E70000FA
:1079C0002DE9F34100980F460026846C2CB940F64F
:1079D000CE1216A11AA0F8F7CDFCA06BE16B88427D
:1079E00005D340F6CF1211A115A0F8F7C3FCA06B88
:1079F000E16B88420CD294F945503A4669462046DC
:107A0000FFF7B3FE0646681C05D06D1C84F8455090
:107A10003046BDE8FC81606A0028F9D004F12400FA
:107A200001F014FE0028F3D00126F1E72E2E5C466B
:107A300072656552544F535C71756575652E6300B0
:107A40004572726F723A25732C25640D0A0000008E
:107A5000F8B5054614480E46C068C068C468201DC5
:107A600000F0ACFDE069012817D1A0692B4641194F
:107A700032462046FFF77AFF78B1002003460146E0
:107A800000902A46204601F013FF30B907494FF411
:107A9000027201F11800F8F76DFC616A01B020462E
:107AA000BDE8F040084700000C01002014980008D1
:107AB00070B586B02F4E53E00198002806DADDE954
:107AC0000301029A90470198002849DB039C6069F2
:107AD00010B1201D00F072FD05A800F0A7F80546C2
:107AE00001980A283CD2DFE800F00505053B27385D
:107AF00005053B270298A169034601442A46204612
:107B0000FFF734FF00282BD0616A20468847E069E0
:107B1000012825D1002000900298A1690023421875
:107B20001946204601F0C4FED0B940F2213212A11C
:107B300017A0F8F71FFC13E00298A06128B94FF4D2
:107B40004E720DA112A0F8F715FCA0692B46411941
:107B50001A462046FFF70AFF02E0204600F0E0FD4B
:107B600000231A4601A9306801F0D4F90028A3D1F6
:107B700006B070BD0C0100202E2E5C467265655269
:107B8000544F535C74696D6572732E63000000007E
:107B90004572726F723A25732C25640D0A0000003D
:107BA000F8B50D46064601F093F8684600F03EF839
:107BB0000446009810B101F095FDF8BD1148ADB133
:107BC00001690968D9B10025311B2A46006800F017
:107BD0005DFE01F087FD0028EFD10B494FF080508A
:107BE0000860BFF34F8FBFF36F8FF8BDA642EBD88D
:107BF00001F078FD21463046FFF72AFFF8BD012548
:107C0000E2E700000C01002004ED00E00648416BB3
:107C1000096829B1416BC968C968496881627047C0
:107C20004FF0FF31FAE70000D000002070B50546A4
:107C300001F038FC064E0446B068844203D200F0DE
:107C400009F8012000E0002028602046B46070BDE3
:107C50000C010020F8B5184E26E0C068C46805681D
:107C6000201D00F0ABFC616A20468847E0690128CE
:107C70001AD1A0692844A84206D924616060211D58
:107C8000F06800F0BBFC0FE00020034601460090C6
:107C90002A46204601F00CFE30B9084940F29232E3
:107CA00001F11800F8F766FBF06801680029D4D1EB
:107CB0003169C6E90310F8BD0C01002014980008D2
:107CC00008484068401C05D040F20F1206A111A0E0
:107CD000F8F750FB502080F31188BFF34F8FBFF3AC
:107CE0006F8FFEE7200100202E2E5C4672656552E4
:107CF000544F535C706F727461626C655C52564491
:107D0000535C41524D5F434D34465C706F72742E2C
:107D1000630000004572726F723A25732C25640D62
:107D20000A000000084CE068016839B1002139B14F
:107D30000020FFF735FFFFF7BBFEF4E70121F6E770
:107D4000C0680068F5E700000C0100202DE9F04153
:107D5000044600F077FC94F9455004F1240610E045
:107D6000A06C20B100212046FFF72AFE04E0606AE3
:107D700048B1304601F06AFC08B100F09BFE6D1E70
:107D80006DB2002DECDC4FF0FF3684F8456000F05A
:107D900095FC00F057FC94F9445004F1100709E0F9
:107DA000206948B1384601F051FC08B100F082FE6C
:107DB0006D1E6DB2002DF3DC84F84460BDE8F04127
:107DC00000F07CBC08B5FEF747FF00900A2168462A
:107DD00000F0B4FDFAF7FAFFF8E700002DE9F041F2
:107DE0000546002600F074FF324F386808B9FFF7E7
:107DF000FDFCF86805424FD1002D4DD008356807CD
:107E00000BD005F00700C0F108000544680704D056
:107E1000BF2229A132A0F8F7ADFA002D3CD0786836
:107E2000854239D8234910310846046801E02146CB
:107E300004466068A84202D220680028F7D138685A
:107E4000B846844228D00E6820680860606808360A
:107E5000401B10280ED96719780704D0EC2216A110
:107E60001FA0F8F787FA6068401B786038466560A5
:107E7000FFF756FD6168D8F804004246401AC8F87A
:107E80000400D8F80830984200D29060D8F80C006E
:107E900001430020C4E9000101F024FC700705D073
:107EA0004FF4967204A10EA0F8F764FA3046BDE8CC
:107EB000F08100002C0100202E2E5C467265655278
:107EC000544F535C706F727461626C655C4D656D8C
:107ED0004D616E675C686561705F342E6300000001
:107EE0004572726F723A25732C25640D0A000000EA
:107EF0000449086818B10868026D521C02650868D8
:107F000070470000D000002010B5031F4FF08074B0
:107F10001C601B1F21F001011960191F044B0B602D
:107F200014390A60091F6FF0020244380A6010BD5C
:107F3000C17C000808B5FEF78FFE3F4E3F4FDFF8CB
:107F400000B1404D4FF001094FF000084FF0020A18
:107F5000009000246421684600F0F0FC3A48006874
:107F6000322801DA484603E03338312802D240464D
:107F7000C6F8A002A86801280BD0E868012808D03C
:107F80006868052809DA401C6860052805DA484653
:107F900006E04046C5F80480F5E7052802D14046D2
:107FA000C6F8A002F9F790FFD7ED000A641C0A2C6E
:107FB00030EE200A87ED000AF4DBF0EE400AB2EE64
:107FC000041A80EE810ADFED210A8BED000AC7ED6D
:107FD000000AA968012901D1C5F808A0E9680129AA
:107FE00001D1C5F80CA010EE101A194A914204DB19
:107FF0009FED180A8BED000A18E010EE100A1649E2
:108000000844B0F5002F05D2A868022802DA401C07
:10801000A8600BE010EE100A0F494942884205DAC9
:10802000A868022802DAE868401CE860F8F784FCD7
:10803000FEF754FE8DE70000000040421C000020C7
:1080400018000020EC010020B0010020000000001A
:108050009A9949419A9949410000E0BE00B52DED39
:10806000048B83B041EC190B02F092F841EC180B31
:1080700018EE100A18EE901A8DED008B002818BF2C
:108080000120084320F00040C0F17F6000F1E04093
:10809000C00F14D019EE101A19EE900A8DED009B46
:1080A000002918BF0121084320F00040C0F17F6083
:1080B00000F1E040C00F04BF0120F8F779FA51EC5D
:1080C000180B03B0BDEC048B00BD00002DE9FC4192
:1080D00000F0B8FA00240425CDE900544FF40078EC
:1080E000234642461AA11E4801F0A2F90326CDE913
:1080F0000064AF0100233A461AA11E4801F098F926
:10810000CDE90064002342461BA11E4801F090F90E
:10811000CDE90064002380221BA11E4801F088F9EC
:10812000CDE9005400233A461BA11E4801F080F916
:10813000CDE90054002342461BA11E4801F078F906
:108140001D48006800F050FCBDE8FC4100F0B6BAE4
:1081500042616C616E63655F7461736B0000000067
:10816000710B00084D5055363035305F7461736BBC
:10817000000000009D26000873686F775F746173CC
:108180006B000000357F00086C65645F7461736B81
:1081900000000000756C0008505354574F5F746125
:1081A000736B0000C57D0008444154415F746173E6
:1081B0006B000000B16800080000002038B54FF4E3
:1081C0004070FAF755FBA820FEF7D4FCFAF778F9CF
:1081D000F8F7CCFDF9F7D2FAFAF788FBFAF73EF98F
:1081E0004FF4E134204600F05FF84FF4165000F0F1
:1081F000B1F8204600F002F9204600F057F9F8F7F0
:1082000037FCF8F775FC00200090032306220721B5
:108210000120F8F7C5FDFBF7A7F9F9F7C7FAF9F759
:1082200033FBF9F78FFBF9F7EBFB42F20F745321A5
:108230002046FBF78FFCA7212046FBF7D1FE44F236
:108240009F1400212046FBF7EDFC00212046FBF7A0
:108250006DFF00212046FBF7D9FB00212046FBF7EC
:1082600025FCF9F787FEFAF7C4F9FAF785FDBDE8B2
:108270003840FAF771BEB4EEE00AF1EE10FA02D21D
:10828000B0EE600A7047B4EEC10AF1EE10FAF9DD03
:10829000B0EE410A7047884201DA084670479042C2
:1082A000FCDD104670470000F0B50746012187B09D
:1082B0000846FAF783FF01211020FAF797FF234EB3
:1082C000072209213046F9F735FC07220A213046FA
:1082D000F9F730FC4FF4C060049002208DF81400D0
:1082E00000248DF816408DF8150001258DF81750E3
:1082F00004A93046F9F7E2FB25208DF818008DF827
:1083000019508DF81A408DF81B5006A8FAF77EFA1E
:10831000ADF80440ADF80640ADF80840ADF80C40AB
:108320000C200B4CADF80A00009769462046FCF77C
:10833000D3FC012240F225512046FCF7B4FC012178
:108340002046FCF787FC07B0F0BD000000000240AB
:1083500000100140F0B5074687B001210820FAF768
:108360002DFF01214804FAF735FF224E072205218F
:108370003046F9F7DFFB072206213046F9F7DAFB32
:108380006020049002208DF8140000248DF816401F
:108390008DF8150001258DF8175004A93046F9F71E
:1083A0008DFB26208DF818008DF819508DF81A4095
:1083B0008DF81B5006A8FAF729FAADF80440ADF87D
:1083C0000640ADF80840ADF80C400C200A4CADF862
:1083D0000A00009769462046FCF77EFC012240F225
:1083E00025512046FCF75FFC01212046FCF732FCBA
:1083F00007B0F0BD000C0240004400402DE9F04100
:10840000804688B001210820FAF7D8FE01218804AF
:10841000FAF7E0FE234F072208213846F9F78AFBD6
:10842000072209213846F9F785FB02258DF81450FB
:1084300000244FF440708DF8164004908DF81550CC
:1084400001268DF8176004A93846F9F737FB272075
:108450008DF818008DF819508DF81A408DF81B60B2
:1084600006A8FAF7D3F9ADF80440ADF80640ADF828
:108470000840ADF80C400C200B4CADF80A00CDF8CC
:10848000008069462046FCF727FC012240F2255176
:108490002046FCF708FC01212046FCF7DBFB08B076
:1084A000BDE8F081000C0240004800402DE9F04397
:1084B000814687B001210420FAF780FE01210820BF
:1084C000FAF77CFE01210805FAF784FE2B4F0822FB
:1084D0000C213846F9F72EFBDFF8A4800822022190
:1084E0004046F9F727FB02258DF804500024B81404
:1084F0008DF8064000908DF8055001268DF8076034
:1085000069463846F9F7DAFA8DF8045004208DF8F8
:10851000064000908DF805508DF80760694640468A
:10852000F9F7CCFA35208DF818008DF819508DF830
:108530001A408DF81B6006A8FAF768F9ADF80C40F0
:10854000ADF80E40ADF81040ADF814400C200D4CC5
:10855000ADF81200CDF8089002A92046FCF7BCFB4C
:10856000012240F225512046FCF79DFB01212046C7
:10857000FCF770FB07B0BDE8F08300000008024084
:10858000000C0240005000400249888008884006E4
:10859000FCD570470010014003490880081F01887E
:1085A0004906FCD570470000044800400249888015
:1085B00008884006FCD5704700500040D0E90132E1
:1085C00001699A60D0E901235A604A68824201D168
:1085D00082684A60002202610868401E0860704795
:1085E00000F108014FF0FF32C0E90112C1600161E2
:1085F00000210160704700210161704730B50C68AF
:10860000621C02D000F1080202E0026904E01A468E
:1086100053681D68A542FAD953684B6099608A6017
:10862000516008610168491C016030BD42684A60C0
:1086300093688B6093685960916008610168491C78
:1086400001607047502080F31188BFF34F8FBFF354
:108650006F8F09494868401C486001280AD10748C3
:10866000006810F0FF0F05D040F2B91204A10FA06E
:10867000F7F780BE704700002001002004ED00E005
:108680002E2E5C4672656552544F535C706F727447
:1086900061626C655C525644535C41524D5F434D80
:1086A00034465C706F72742E630000004572726F06
:1086B000723A25732C25640D0A00000010B5084C91
:1086C000606828B94FF4E07206A111A0F7F752FED6
:1086D0006068401E606001D180F3118810BD000009
:1086E000200100202E2E5C4672656552544F535C6B
:1086F000706F727461626C655C525644535C415297
:108700004D5F434D34465C706F72742E6300000001
:108710004572726F723A25732C25640D0A000000B1
:1087200070B500282AD0164DA0F108046068E968E9
:10873000084205D14FF4A07212A11CA0F7F71AFE4F
:10874000206828B140F241120EA118A0F7F712FEDE
:108750006068E968084211D02268002A0ED1884377
:10876000606000F0B5FA6068696808446860204697
:10877000FFF7D6F8BDE8704000F0B4BF70BD000050
:108780002C0100202E2E5C4672656552544F535CBE
:10879000706F727461626C655C4D656D4D616E6782
:1087A0005C686561705F342E630000004572726F13
:1087B000723A25732C25640D0A00000006484FF418
:1087C0007A710068B0FBF1F14FF0E020491E416181
:1087D00007210161704700000400002010B5F7F781
:1087E000A3FD104C10280CD300F1E02090F8F0030A
:1087F0002178884205D24FF440720BA115A0F7F7FB
:10880000B9FD18480068A16800F4E060884207D903
:10881000BDE810404FF4447203A10EA0F7F7AABDC3
:1088200010BD0000200100202E2E5C4672656552AE
:10883000544F535C706F727461626C655C52564445
:10884000535C41524D5F434D34465C706F72742EE1
:10885000630000004572726F723A25732C25640D17
:108860000A0000000CED00E010B5074B002253F8A1
:1088700032401CB1521C082AF9D310BD43F8321003
:1088800003EBC201486010BDC806002070B5154654
:108890000E460446FFF7D6FE94F944100020491C0A
:1088A00001D184F8440094F94510491C01D184F8A1
:1088B0004500FFF703FFA06B28B92A46314604F1B3
:1088C000240000F027F92046BDE87040FFF73EBACB
:1088D00010B5040012D00E49096B29B140F2CF4205
:1088E0000CA111A0F7F746FD00F0F2F90021204697
:1088F000FEF736FE00F0F6FE002807D10E494FF0D5
:1089000080500860BFF34F8FBFF36F8F10BD000022
:10891000D00000202E2E5C4672656552544F535C89
:108920007461736B732E63004572726F723A2573B4
:108930002C25640D0A00000004ED00E02DE9F04153
:108940000E4605004FF0000405D140F279421BA10C
:108950001FA0F7F70FFD2EB940F27A4217A11CA015
:10896000F7F708FD1E4F386B28B140F27B4213A188
:1089700017A0F7F7FFFC00F0ABF9FA682868811937
:10898000904202D9884202D804E0884201D891423C
:1089900000D9012429601CB1881A0021FEF7E0FDEE
:1089A00000F0A0FE002807D10E494FF0805008606B
:1089B000BFF34F8FBFF36F8FBDE8F0812E2E5C4663
:1089C00072656552544F535C7461736B732E630010
:1089D0004572726F723A25732C25640D0A000000EF
:1089E000D000002004ED00E070B50446FFF72AFE39
:1089F000234D04B92C68201DFFF7E0FD58B9E06A4B
:108A0000204A00EB800152F8211021B90121814058
:108A1000286988432861A06A18B104F11800FFF79B
:108A2000CDFD686A401C68622868844207D1211D18
:108A30001548FFF7FBFD6868401C686007E0A86800
:108A4000401EA8602046FEF7C6FEFFF7DFF8FFF7DE
:108A500035FE6869002812D0286884420FD1286B3F
:108A600028B140F2654209A10DA0F7F783FC104937
:108A70004FF080500860BFF34F8FBFF36F8F70BD12
:108A8000D000002008070020C40900202E2E5C46DC
:108A900072656552544F535C7461736B732E63003F
:108AA0004572726F723A25732C25640D0A0000001E
:108AB00004ED00E001490120C8617047D0000020AA
:108AC00070B50D46040005D140F6063207A10CA092
:108AD000F7F750FC0E48016820461831FFF78EFD6D
:108AE0002846BDE870400121FEF73ABD2E2E5C46B7
:108AF00072656552544F535C7461736B732E6300DF
:108B00004572726F723A25732C25640D0A000000BD
:108B1000D000002070B514460E46050005D140F681
:108B2000313209A10DA0F7F725FC1048016828464D
:108B30001831FFF77BFD0CB14FF0FF362146304670
:108B4000BDE87040FEF70CBD2E2E5C467265655286
:108B5000544F535C7461736B732E63004572726F74
:108B6000723A25732C25640D0A000000D000002005
:108B700070B5040039D01D4DE06A2968C96A884281
:108B800033D2A069002804DB2868C06AC0F1200045
:108B9000A061E06A164E00EB8000616906EB800080
:108BA00081421FD1201DFFF709FD012150B9E06A64
:108BB00000EB800256F8222022B92A6901FA00F05F
:108BC00082432A612868C06AE0622A6981401143B1
:108BD000296100EB800006EB8000211DBDE870409C
:108BE000FFF724BD2868C06AE06270BDD000002095
:108BF0000807002010B5040005D140F6C13205A1D8
:108C000009A0F7F7B7FB0C48016A2160C0686060F3
:108C100010BD00002E2E5C4672656552544F535CA9
:108C20007461736B732E63004572726F723A2573B1
:108C30002C25640D0A000000D00000201CB5174848
:108C40000024CDE900402346822215A1164800F0F9
:108C5000EFFB012803D100F0F1FD01280AD0401CF0
:108C60001BD102B040F28472BDE810400FA114A0E5
:108C7000F7F780BB502080F31188BFF34F8FBFF30D
:108C80006F8F06484FF0FF312C388162012141611E
:108C9000C460BDE81C4000F061B81CBDFC000020B1
:108CA00049444C4500000000397800082E2E5C46EF
:108CB00072656552544F535C7461736B732E63001D
:108CC0004572726F723A25732C25640D0A000000FC
:108CD0000248016B491C016370470000D00000206E
:108CE00070B5134D286B10B10120E86170BD0020F4
:108CF000E86128690F4EB0FA80F0C0F11F0000EB68
:108D0000800456F8240028B940F6F6220AA10FA0E4
:108D1000F7F730FB06EB840000F108024168496870
:108D20004160914201D149684160C868286070BDC6
:108D3000D0000020080700202E2E5C467265655288
:108D4000544F535C7461736B732E63004572726F82
:108D5000723A25732C25640D0A0000001CB5304CB6
:108D600020683049884205D140F259122EA139A01D
:108D7000F7F700FB20682B49491E884205D14FF4C4
:108D8000AD7229A133A0F7F7F5FA364C207801909F
:108D9000FF20207020788DF800009DF800009DF8DD
:108DA000001000F0F000884205D040F273121EA1BE
:108DB00028A0F7F7DFFA9DF800002B4A00F05000DA
:108DC00010700720906007E09068401E90609DF84A
:108DD000000040008DF800009DF800000006F3D46C
:108DE000107A000200F4E0609060019820700C4856
:108DF0002030016841F470010160016841F0704168
:108E00000160FFF7DBFC00205060F7F755FA1748C8
:108E1000016841F040410160F7F73EFA00201CBDB7
:108E200000ED00E071C20F412E2E5C467265655266
:108E3000544F535C706F727461626C655C5256443F
:108E4000535C41524D5F434D34465C706F72742EDB
:108E5000630000004572726F723A25732C25640D11
:108E60000A00000000E400E02001002034EF00E0F0
:108E700010B5502080F31188BFF34F8FBFF36F8F71
:108E800000F016FB18B104494FF080500860002034
:108E900080F3118810BD000004ED00E02DE9F041E1
:108EA00017460E46050005D14FF4C47210A115A057
:108EB000F7F760FABEB105FB06F05430FEF78EFFFF
:108EC00004000ED004F154007EB12060C4E90F56B6
:108ED0002046012100F0E0F884F85070002120467F
:108EE000A164BDE8F0810020E7E72460EEE7000020
:108EF0002E2E5C4672656552544F535C71756575D4
:108F0000652E63004572726F723A25732C25640DCD
:108F10000A0000002DE9FF4F83B09B468A460400FB
:108F20004FF0000605D140F2DC4251A155A0F7F701
:108F300021FABAF1000F07D1206C28B140F2DD42CE
:108F40004BA150A0F7F716FA00F09EFA38B9059831
:108F500028B14FF49C6246A14AA0F7F70BFA4FF0F4
:108F600000094FF08057DFF82C81FFF76BFBA56BF2
:108F700045B351462046E668FEF7E4FBBBF1000F1F
:108F800013D0E660606A50B104F1240000F05EFB8B
:108F900028B1C8F80070BFF34F8FBFF36F8FFFF792
:108FA0008DFB012007B0BDE8F08F6D1EA563206822
:108FB00010B9FEF79DFF606020690028EFD004F132
:108FC0001000E3E7059808B11EB106E0FFF776FB55
:108FD00027E06846FFF70EFE0126FFF76FFBFFF75D
:108FE00077FEFFF72FFB94F94400401C01D184F871
:108FF000449094F94500401C01D184F84590FFF756
:109000005DFB05A9684600F0CFF9002820460AD08C
:10901000FEF79CFE00F066FB2046FEF7C3FC00282E
:10902000A3D00020BEE7FEF7BDFCD8B1206830B960
:10903000FFF708FB6068FFF79BFDFFF73FFB04F1BC
:1090400024000599FFF73CFD2046FEF77FFE00F067
:1090500049FB002889D1C8F80070BFF34F8FBFF3D8
:109060006F8F82E72046FEF771FE00F03BFB7CE746
:109070002E2E5C4672656552544F535C7175657552
:10908000652E63004572726F723A25732C25640D4C
:109090000A00000004ED00E070B50D46040005D1A3
:1090A00040F21B121CA121A0F7F764F9FFF7CAFADE
:1090B000D4E90F20216802FB001161600021A16347
:1090C0002168A1600A46D4E90F01401E00FB01217E
:1090D000E16021464FF0FF3001F8440F487004F181
:1090E00010004DB1FFF77CFA04F12400FFF778FA85
:1090F000FFF7E4FA012070BD21690029F8D000F0E3
:10910000A5FA0028F4D00D494FF080500860BFF355
:109110004F8FBFF36F8FEBE72E2E5C467265655263
:10912000544F535C71756575652E63004572726F9F
:10913000723A25732C25640D0A00000004ED00E04E
:109140002DE9FF4F83B099468B4604004FF000068F
:1091500005D140F2D92252A156A0F7F70BF9BBF185
:10916000000F07D1206C28B140F2DA224CA151A0A7
:10917000F7F700F9B9F1020F08D1E06B012805D02B
:1091800040F2DB2246A14BA0F7F7F4F800F07CF99F
:1091900038B9059828B140F2DE2241A145A0F7F781
:1091A000E9F84FF0000A4FF08057DFF81881FFF719
:1091B00049FAA06BE16B884206D3B9F1020F03D0E4
:1091C000059800B316B325E04A4659462046FEF7F7
:1091D000CCFAA16C21B149462046FEF7F1FB05E02F
:1091E000616A19B104F1240000F030FA28B1C8F81E
:1091F0000070BFF34F8FBFF36F8FFFF75FFA01204F
:1092000007B0BDE8F08FFFF759FA21E06846FFF795
:10921000F1FC0126FFF752FAFFF75AFDFFF712FAA9
:1092200094F94400401C01D184F844A094F945000D
:10923000401C01D184F845A0FFF740FA05A9684613
:1092400000F0B2F830B12046FEF780FD00F04AFA97
:109250000020D5E7FFF7F6F9A06BE16B884201D15A
:10926000012500E00025FFF729FA95B104F110006F
:109270000599FFF725FC2046FEF768FD00F032FA5D
:10928000002894D1C8F80070BFF34F8FBFF36F8FE1
:109290008DE72046FEF75AFD00F024FA87E700002C
:1092A0002E2E5C4672656552544F535C7175657520
:1092B000652E63004572726F723A25732C25640D1A
:1092C0000A00000004ED00E02DE9F047984615463D
:1092D0008946040005D140F29F322AA12EA0F7F75B
:1092E00049F8B9F1000F07D1206C28B14FF468722A
:1092F00024A129A0F7F73EF8B8F1020F08D1E06BDE
:10930000012805D040F2A1321EA123A0F7F732F8C0
:10931000FFF764FA5020EFF3118780F31188BFF351
:109320004F8FBFF36F8FA06BE16B884207D3B8F10B
:10933000020F04D0002087F31188BDE8F08794F96C
:109340004560424649462046FEF70FFA701C04D09D
:10935000761C84F845600120EDE7A06C012620B161
:1093600041462046FEF72CFB06E0606A0028F2D05A
:1093700004F1240000F06AF90028ECD0002DEAD0B6
:109380002E60E8E72E2E5C4672656552544F535CA2
:1093900071756575652E63004572726F723A25733B
:1093A0002C25640D0A00000070B50D46040005D19F
:1093B00040F6CB3214A119A0F6F7DCFF2DB940F628
:1093C000CC3211A115A0F6F7D5FFFFF73BF9174AEC
:1093D000D06829684B1C0FD02368126A934202D0D0
:1093E000626882420AD96268801A884206D2081AE4
:1093F00028602046FFF7FEFB002400E00124FFF771
:109400005DF9204670BD00002E2E5C4672656552E7
:10941000544F535C7461736B732E63004572726FAB
:10942000723A25732C25640D0A000000D00000203C
:109430002DE9FF5F8346DDE90E87994616468A4689
:109440009000FEF7CBFC05001AD05C20FEF7C6FCAE
:10945000040012D025630021CDE90241CDE9008747
:109460004B46324651465846FEF7FAF92046FEF77B
:10947000AFF8012004B0BDE8F09F2846FFF750F98F
:109480004FF0FF30F6E700000548416919B1006B65
:1094900018B100207047012070470220704700007B
:1094A000D00000200148C06870470000D0000020B4
:1094B0002DE9F0412D4F0026386B40B1B869401CB2
:1094C000B861F86900B101263046BDE8F081FD6859
:1094D0006D1CFD6011D1786B006828B140F6D9127F
:1094E00023A128A0F6F746FF786BB96B7963B863C0
:1094F000386A401C3862FEF789FBB86ADFF894804E
:10950000854209D3786B006880B1786BC068C46805
:10951000606885420DD2B8623868C06A00EB80018D
:1095200058F821000128CCD90126CAE74FF0FF30B6
:10953000F1E7201DFFF742F8A06A18B104F1180006
:10954000FFF73CF8E06A01213A6981401143396133
:1095500000EB800108EB8100211DFFF767F8E06A4E
:109560003968C96A8842CDD30126CBE7D0000020F4
:109570002E2E5C4672656552544F535C7461736B5A
:10958000732E63004572726F723A25732C25640D39
:109590000A0000000807002070B504004FF0000624
:1095A0003CD01F4D2868844205D040F6C7621DA1FB
:1095B00021A0F6F7DFFE206D28B940F6C96219A197
:1095C0001DA0F6F7D7FE206D401E2065E26CE16A13
:1095D000914223D010BB201DFEF7F0FF1A49012253
:1095E00050B9E06A00EB800351F8233023B92B69AE
:1095F00002FA00F083432B61E06CE062C0F12000CE
:10960000A061E06A2B6982401A432A6100EB800066
:1096100001EB8000211DFFF709F80126304670BDDF
:10962000D00000202E2E5C4672656552544F535C6C
:109630007461736B732E63004572726F723A257397
:109640002C25640D0A000000080700202DE9F041D8
:10965000C068C4682CB940F6613216A11AA0F6F7AA
:1096600089FE04F118000746FEF7A8FF1A4D286B83
:10967000012660B139461948FEF7D8FFE06A29682B
:10968000C96A884213D90120EE61BDE8F081201D2E
:10969000FEF794FFE06A2A6906FA00F11143296196
:1096A0000F4900EB800001EB8000211DE4E7002062
:1096B000EBE700002E2E5C4672656552544F535CFA
:1096C0007461736B732E63004572726F723A257307
:1096D0002C25640D0A000000D0000020B0090020F5
:1096E000080700202DE9F0472B4D00242746286B62
:1096F00028B94FF4FD6229A12DA0F6F73BFEFEF735
:10970000A1FF286B401E2863286BE8BBA8682C4982
:109710000126C8B3A1F52A798846D8F80010E9B126
:10972000D8F80C00C46804F11800FEF747FF201DAC
:10973000FEF744FFE06A2A6906FA00F11143296145
:1097400000EB800109EB8100211DFEF76FFFE06A4D
:109750002968C96A8842E0D3EE61DEE70CB1FEF702
:1097600055FAAC693CB1FFF7A3FE00B1EE61641E8F
:10977000F9D10020A861E86930B112490127380702
:109780000860BFF34F8F00E001E0BFF36F8FFEF77B
:1097900095FF3846BDE8F087D00000202E2E5C46AD
:1097A00072656552544F535C7461736B732E630022
:1097B0004572726F723A25732C25640D0A00000001
:1097C000B009002004ED00E02DE9F0470746994676
:1097D00016460D462C20DDF820A0FEF7FFFA040007
:1097E00014D0B8464F46D1462DB94FF4C67209A1E0
:1097F0000EA0F6F7BFFDFDF753FF04F11801C4F802
:10980000008081E8E002201DFEF7F5FE2046BDE85D
:10981000F08700002E2E5C4672656552544F535CF3
:1098200074696D6572732E63000000004572726F7B
:10983000723A25732C25640D0A0000001CB5002423
:10984000FDF72EFF0C48006868B10B491F20091D69
:10985000CDE9000100234FF4827208A10948FFF707
:10986000E7FD040005D140F2331207A10CA0F6F782
:1098700081FD20461CBD00000C010020546D7220AB
:1098800053766300257D00082E2E5C467265655276
:10989000544F535C74696D6572732E630000000051
:1098A0004572726F723A25732C25640D0A00000010
:1098B0002DE9FF47DDF830A0994690460D46060099
:1098C0004FF0000705D14FF4D37212A117A0F6F79D
:1098D00051FD1A4C206880B1CDE900580296062D42
:1098E00011DAFFF7D1FD02284FF0000309D0002262
:1098F00069462068FFF724FC074604B03846BDE8F7
:10990000F0875246F4E700234A466946FFF7DCFC3D
:10991000F2E700002E2E5C4672656552544F535C90
:1099200074696D6572732E63000000004572726F7A
:10993000723A25732C25640D0A0000000C010020EA
:1099400081F00041704780F00040704721F00041F5
:10995000704720F00040704721F00042A2F16052B1
:10996000B2F5801F01F0004328BFD2F17F6C0BD904
:109970005FEA001C43EAC20242EB507018BF704716
:1099800028BF20F001007047B2F5801FBCBF184609
:1099900070474FEA410C1CF5001F02D2084600F048
:1099A00023BE70B500F05EFB00000089FFF7F6BF34
:1099B0004FF00040A0F580007047000010B591EA1C
:1099C000030F48BF83F0004300F1B684841A71EBA3
:1099D000030C05D2121943EB0C03001B61EB0C01C5
:1099E000DFF824E14FEA1154A4EB135C1EEA430FA5
:1099F00018BF9EEA445F73D023EA0E03DCF1200E09
:109A000021EA045143F4801332D322FA0CFE10EB06
:109A10000E0023FA0CFE41EB0E01CCF1200E03FAEE
:109A20000EFE10EB0E0051F10001B1F5801FCCF1DC
:109A3000200E32D201EB045112FA0EF2BDE81040B2
:109A400058BF7047401C38BF5FEA420218BF7047DA
:109A5000002814BF20F0010041F100014FEA41034A
:109A600013F5001F38BF7047A1F1C04100F048BB9B
:109A7000012A43EB0302ACF1200CDCF11F0E32BFD4
:109A80004FF0000E23FA0CF310EB030041EB0451EE
:109A9000B4EB115FD0D0A1EB045101F5801149085E
:109AA0005FEA300001EB04510ED350F1000038BFE3
:109AB00012FA0EFE08D1BDE81040C9E7401C38BFBD
:109AC0005FEA4202CAD1C3E7BDE810404FEA410352
:109AD00013F5001F38BF7047A1F1C04100F010BB63
:109AE0009EEA445F08D011EA5E0FBDE8104004BF53
:109AF00001F0004100207047BDE8104070B500F053
:109B0000B1FA00BF64FBBE3E0000E0FF02494FF027
:109B1000000000F06EBD00BF0000F87F491058BF84
:109B2000C1F140415B1058BFC3F140438B42EFF39A
:109B3000008070472DE9C04130B4DFF8A0C23CEA94
:109B4000111418BF3CEA131400F0EC8081EA0305FD
:109B50001CEA111444EAD57418BF1CEA131500F06E
:109B6000C780A4EB05044FF0004545EAC12145EA52
:109B7000C32341EA505143EA525304F17F7499429E
:109B800004F500344FEAC0204FEAC22208BF9042D9
:109B900000F09C804FEA13650FF24016765D4FEAA5
:109BA000134506FB05F7C7F1807706FB07F74FEA79
:109BB000D737A7FB03687642C8F58038A7FB06CEE7
:109BC00038BFA8F1010807FB08E64FF0000EA6FB1E
:109BD000028CE6FB03CEDCF1000CCEF1004E38BF68
:109BE000AEF1010EA6FB0C584FF000074FF0000538
:109BF000E6FB0E87A1FB08C6A0FB07CE16EB0E0600
:109C000045F10005E1FB076515F1E04E7EBFA4F5C7
:109C100080345FEA46066D4116F1800745F1000584
:109C20004FEA17274FEA066647EA0567A6F1DE46C0
:109C3000B6F1805F4FEA15251FD9384624F0010C94
:109C400005EBC471BCF1FE6F01EB0C1102D8F0BC46
:109C5000BDE8008124425CBF01F5801E9EEAC47FFE
:109C600002D4F0BCBDE80081244238D4F0BCA1F19C
:109C7000C041BDE8004100F043BA4FEAD22242EAB7
:109C800043524FEAD323A7FB02864FEAD02040EA93
:109C9000415007FB03661EEA0E0F4FEAD12105FB78
:109CA000026658BFA6EB0056B6EB00564FEA520EBE
:109CB0004EEAC37E18EB0E0E56EB530EBDD518EBD5
:109CC00002085E417F1C55F10005B6E74FF4801590
:109CD0004FF000074FF000064FF00008ADE7F0BC72
:109CE0004FF0000001F1C04101F00041BDE80081EA
:109CF00011EA0C1F0CEA131500D00CE013EA0C1F3C
:109D000000F025804FF00000F0BC81EA030101F073
:109D10000041BDE80081F0BCBDE8004181EA0301DB
:109D200000F0EEB9F0BCBDE8004170B500F09AF962
:109D3000097EFC3E00F007B881EA03014FF0000005
:109D400001F00041704781EA030100F0D9B9F0BC8D
:109D5000BDE800414FF0000021497047FFFDFBF9CD
:109D6000F7F5F4F2F0EEEDEBE9E8E6E4E3E1E0DE4E
:109D7000DDDBDAD8D7D5D4D3D1D0CFCDCCCBCAC8C0
:109D8000C7C6C5C4C2C1C0BFBEBDBCBBBAB9B8B7E7
:109D9000B6B5B4B3B2B1B0AFAEADACABAAA9A8A8DA
:109DA000A7A6A5A4A3A3A2A1A09F9F9E9D9C9C9BA8
:109DB0009A99999897979695959493939291919053
:109DC0008F8F8E8E8D8C8C8B8B8A898988888787E4
:109DD0008685858484838382828181800000FF0759
:109DE0000000F87F4FEA41034FEA5353A3F5806325
:109DF000D3F11E03C8BFD3F1210C0CDD4FF000429C
:109E000042EAC12242EA505232FA03FC8CEAE17C77
:109E1000ACEBE1707047102BC4BF0020704703F516
:109E2000787CBCF1FF3F04D06FF0004282EA210051
:109E3000704770B500F016F94992248000207047F1
:109E4000F2E710F0004248BF4042B0FA80F310FA47
:109E500003F10AD0C3F11D0303F580634FEA4150BB
:109E600002EB035202EBD12170474FF00000704724
:109E7000B0FA80F310FA03F10AD0C3F11D0303F521
:109E800080634FEA41504FEA035202EBD121704701
:109E90004FF000007047000051EA030C17D41CF586
:109EA000801F58BFBCF5801F00F10680994218BF83
:109EB000704708BF9042704707D711F5801F58BF01
:109EC00013F5801F19D499427047894270471CF5D9
:109ED000801F08D5BCF5801FF7D58B4218BF70478F
:109EE00008BF824270474FF4001C1CEB410F38BF83
:109EF0001CEB430F01D28B42704770B500F0B2F8F3
:109F0000922449004FF000514FF08053FFF706BEF6
:109F1000DFF848C170B51CEA111E1EBF1CEA1315FC
:109F20009EEA0C0F95EA0C0F00F06F8081EA0304A3
:109F300023EA4C134EEAD47E21EA4C1141F48011FD
:109F400043F48013AE44A1FB024CA0FB0365AEF1C9
:109F50007F7E361955EB0C05A1FB034C4CF1000339
:109F6000A0FB021C16EB0C06654153F100030942ED
:109F700018BF46F0010613F4007F0BD14FEA0331FE
:109F80004FEA0530340341EA155140EA16506FF0AC
:109F900003020AE04FEAC3214FEAC520F40241EA76
:109FA000555140EA56506FF0020202EB2E4201EB8F
:109FB000025585EACE710AD05FEA440C18BF24F03E
:109FC000004450F1000041F1000120EAD47040F259
:109FD000FE7C624500D270BDA84214BF4FF08044A1
:109FE0004FF04044002E08BF0024BEF1806FA8BF90
:109FF000A1F1C041BDE8704080F282804FF00000C6
:10A0000001F1C04101F0004170479EEA0C0F0CEADB
:10A01000131518BF95EA0C0F06D04FF0000081EA27
:10A02000030E0EF0004170BD00F01CF88900013EE7
:10A0300000F007B800F009B84FEA430C5FEA5C5C37
:10A0400008D081EA030100F05BB84FEA410C5FEAF7
:10A050005C5CF6D14FF00000014970470000FF073B
:10A060000000F87F0EF1020E2EF0030E5EF8046B76
:10A07000364205D4012A43EB030515F5001F12D81B
:10A08000012841EB010C1CF5001F0CD80ED14FEA42
:10A09000D17C15F5001F0CEB4C0C0CF1020C08BF29
:10A0A0004CEBD37C04E04FF0080C01E04FEAD37C8A
:10A0B0000CEB4C0526FA05F606F00706B6F1040C83
:10A0C00006D20EEB860CBDE870404CF0010C6047E8
:10A0D000DFE80CF0090B02024FF000414FF00000E6
:10A0E000A1F5002170BD19461046012851EB01046D
:10A0F00018BFD4F5001484BF002001F0004170BDEA
:10A100000808A0F500114FEA3101704753EA010C2D
:10A1100017D41CF5801F58BFBCF5801F00F10680C6
:10A120008B4218BF704708BF8242704707D713F5AC
:10A13000801F58BF11F5801F19D48B4270479B4276
:10A1400070471CF5801F08D5BCF5801FF7D59942D4
:10A1500018BF704708BF904270474FF4001C1CEBBB
:10A16000430F38BF1CEB410F01D2994270470FB427
:10A170000CBC03BCFFF7C1BE91EA030F10B581F020
:10A1800000413FF523AC83F0004300F0D5B8000058
:10A190002DE9F04101F5801CBCF5001FC0F2A9803B
:10A1A0004FEA115C21EA0C510CF1FD0C41F48011D5
:10A1B0005FEA5C0C0CF5C07C01D34000494130A43F
:10A1C000890241EA905187028E0E0A0CA45D04FBBD
:10A1D00004F602FB06F6C6F14046A4FB0662F60D45
:10A1E00046EA422606FB06F4A4FB01235242C3F1D1
:10A1F000404338BF5B1EA6FB02420024E6FB03245B
:10A20000D20B42EA4446A6FB0623A1FB02E2A3FBD3
:10A2100007E4E3FB61426442C2F1404E38BFAEF155
:10A22000010EA6FB04234FF00002E6FB0E32A2FB58
:10A2300003463400E2FB6264A1FB06E6A4FB07E8E8
:10A24000E4FB61687642C8F1405838BFA8F10108C4
:10A25000A2FB06E4A3FB08E5E2FB6854A1FB05E6CC
:10A26000A7FB04E8E1FB648618F1200556F100061F
:10A27000A809A8F11B08B10908F03F08B8F10A0FB6
:10A2800040EA86601CD901EB0C51BDE8F08100BFAB
:10A29000FCF5EEE8E2DDD8D3CFCBC7C3C0BDB9B67D
:10A2A000B4B1AEACA9A7A5A3A19F9D9B9A98969582
:10A2B0009392908F8D8C8B89888786858483828109
:10A2C000A0FB006800FB01F208EB4208B8EB87280E
:10A2D00007D5341858EB0104D5D5401C51F10001C5
:10A2E000D1E7341A78EB0104CDD4401E71F100019E
:10A2F000C9E75FEA4C0C5FEA9C5C0DD105D34FF0D7
:10A30000000001F00041BDE8F081BDE8F04170B50A
:10A31000FFF7A8FE6DDBFFBEBDE8F0414FF0000087
:10A32000004970470000F87F10B591EA030F48BF5D
:10A3300083F000433FF54AAB841A71EB030C07D25C
:10A3400012198CF0004C43EB0C03001B61EB0C0169
:10A35000DFF8A4E14FEA1154A4EB135C1EEA430FAB
:10A3600018BF9EEA445F00F0B08023EA6E035242B9
:10A3700021EA0451C3EB6E0338BF5B1EDCF1200EF3
:10A3800025D322FA0CFE10EB0E0043FA0CFE41EB33
:10A390000E01CCF1200E03FA0EFE10EB0E0051F16F
:10A3A0000001CCF1200E29D412FA0EF201EB045177
:10A3B000BDE8104058BF7047401C1CBFB2F1004FB1
:10A3C000704700280CBF491C20F00100704712EBB9
:10A3D000020E43EB030218BF4FF0010E4EEA420299
:10A3E000ACF1200CDCF11E0E54D943FA0CFE10EB3C
:10A3F0000E0051F1FF31CCF11E0ED5D50EF1010E3C
:10A4000012FA0EFE404141EB010101EB445C5FEAB0
:10A410005C5C10D910EBDE7001EB045138BFBEF16B
:10A42000004FBDE8104018BF704700280CBF491C02
:10A4300020F00100704730D24FEAD42C11F5001102
:10A4400024F400641BD0B1FA81F20B3AA41AA41EC2
:10A45000D2F12003914030FA03F31943904001EB0D
:10A46000CC71002C01EB0451BDE81040A8BF70472F
:10A4700001F1C0414FF0000001F000417047B0FA17
:10A4800080F310FA03F100D110BDE41A173C48051F
:10A49000C90AE4E701EB045110BD491001EB045176
:10A4A000BDE810404FEA300002E04FF00001704775
:10A4B0004A0008BF0042F8D0B2F5001F28BF70471D
:10A4C00001F000414FF0000070479EEA445F07D062
:10A4D00011EA5E0FBDE8104004BF00210020704764
:10A4E000BDE8104070B5FFF7BDFD00BF40DFF63E90
:10A4F00083F00041104670470000E0FF43004FEA40
:10A50000D30C4FEA3C0C43401FBF40070CF1605195
:10A5100013F0FE4F70471CF0006F03D100200CF0C9
:10A52000004170470CF0004343EA507010B540EA18
:10A53000CC0000F00EF800BF000000924FEA0001CE
:10A54000FFF7DEBD4FF000414FF00000A1F5002104
:10A5500070470EF1020E2EF0030E5EF8044B2442FB
:10A5600004D44FEA4102B2F17F4F11D84FEA4003C1
:10A57000B3F17F4F0CD80ED14FEAD07CB2F17F4FB0
:10A580000CEB4C0C0CF1020C08BF4CEBD17C04E042
:10A590004FF0080C01E04FEAD17C0CEB4C0324FA9D
:10A5A00003F404F00704B4F1040C06D20EEB840C9F
:10A5B000BDE810404CF0010C6047DFE80CF00708E4
:10A5C00002024FF00040A0F5800010BD0846420096
:10A5D00018BFD2F1807288BF00F0004010BD4FF06C
:10A5E0004070E1EE100A7047FF2141EAD050C005EB
:10A5F00070470CF00F03092B08BF082000F05980AA
:10A600000A2B0BD0082B18BF704708BF1CF0400F57
:10A610000AD04FF000004FF0000170471CF0400FCF
:10A6200018BF4FF0004070471CF0100F08D020F00A
:10A63000704300F07F4242EAD3014FEA4370704713
:10A6400000F0604021F07F4242EA000201F07F40CA
:10A6500040EA727070474FF0FF0C4CF4E06C1CEA5B
:10A6600011531CBF9CEA030C9445C2BFDA4201EBB4
:10A6700002517047002B0DD0BCF1000F0FD0002A03
:10A6800001F00041A4BF41F0E04141F07F614FF093
:10A690000000704701F000414FF00000704750EAA1
:10A6A00001334FF09B0C18BF4CF0806C7FF42EAA46
:10A6B00070471CF4801F11D01CF4E02F03D06FEA08
:10A6C000CC31490070474FF04050EFF3008222F048
:10A6D000704242EA000282F3008870474FF00000A7
:10A6E00070470000000000000000000000000000B3
:10A6F00000003F400000000000000000300040006B
:10A7000030004000000009000BC03D000BC03D00C0
:10A71000090018C024407FE022403180000018006A
:10A7200024C01B000D803240018003801C40274064
:10A730001C80074000401000600000000000000086
:10A7400000000000000000001F80204040200000AA
:10A75000402020401F8000000000090006001F80EC
:10A76000060009000000040004003F80040004000B
:10A770000000001000600000000000000000040065
:10A780000400040004000400000000000040000079
:10A79000000000000000002001C00600380040005A
:10A7A00000001F802040204020401F80000000004B
:10A7B00010403FC000400000000018C0214022406F
:10A7C00024401840000010802040244024401B807A
:10A7D000000002000D0011003FC0014000003C805D
:10A7E000244024402440238000001F802440244033
:10A7F0003440038000003000200027C038002000D3
:10A8000000001B802440244024401B8000001C00CA
:10A8100022C0224022401F800000000000000840AB
:10A8200000000000000000000000046000000000C4
:10A830000000000004000A001100208040400900D0
:10A8400009000900090009000000000040402080C4
:10A8500011000A0004001800200023402400180002
:10A8600000001F802040274029401F40000000407A
:10A8700007C039000F0001C0004020403FC0244005
:10A8800024401B8000001F8020402040204030805A
:10A89000000020403FC0204020401F80000020409A
:10A8A0003FC024402E4030C0000020403FC0244024
:10A8B0002E00300000000F00108020402240338026
:10A8C000020020403FC0040004003FC02040204060
:10A8D00020403FC020402040000000602020202079
:10A8E0003FC02000200020403FC024400B0030C06B
:10A8F000204020403FC020400040004000C03FC0FA
:10A900003C0003C03C003FC0000020403FC00C4062
:10A9100023003FC020001F802040204020401F8097
:10A92000000020403FC024402400180000001F8089
:10A930002140214020E01FA0000020403FC02440D3
:10A94000260019C0004018C0244024402240318015
:10A950000000300020403FC02040300000002000B8
:10A960003F80004000403F80200020003E0001C0AA
:10A97000070038002000380007C03C0007C038003E
:10A980000000204039C0060039C0204000002000EF
:10A99000384007C0384020000000304021C0264029
:10A9A000384020C00000000000007FE04020402030
:10A9B0000000000070000C00038000400000000058
:10A9C000402040207FE00000000000002000400008
:10A9D0002000000000000010001000100010001007
:10A9E0000010000000004000000000000000000017
:10A9F00002800540054003C0004020003FC00440E5
:10AA0000044003800000000003800440044006402E
:10AA1000000000000380044024403FC000400000CC
:10AA200003800540054003400000000004401FC0B3
:10AA3000244024402000000002E00550055006504C
:10AA4000042020403FC00440040003C00040000038
:10AA5000044027C000400000000000100010041057
:10AA600027E00000000020403FC00140070004C074
:10AA70000440204020403FC000400040000007C08C
:10AA8000040007C0040003C00000044007C00440E5
:10AA9000040003C000400000038004400440038021
:10AAA0000000041007F00450044003800000000080
:10AAB00003800440045007F00010044007C0024027
:10AAC000040004000000000006400540054004C0EA
:10AAD0000000000004001F8004400040000004004B
:10AAE00007800040044007C000400400070004C085
:10AAF000018006000400060001C0070001C0060036
:10AB00000000044006C0010006C00440000004101C
:10AB1000071004E00180060004000000044005C0A6
:10AB20000640044000000000000004007BE04020DC
:10AB30000000000000000000FFF000000000000026
:10AB400040207BE004000000000040008000400046
:10AB50002000200040000000000000000000000075
:10AB60000000000000000000000000001FCC000CEE
:10AB70000000000000000000080030006000080035
:10AB8000300060000000022003FC1E20022003FCB5
:10AB90001E200220000000000E1811043FFF108448
:10ABA0000C78000000000F0010840F3800C00778F8
:10ABB00018840078000000780F8410C411240E98C7
:10ABC00000E4008400080800680070000000000035
:10ABD00000000000000000000000000007E018185E
:10ABE000200440020000000040022004181807E082
:10ABF0000000000000000240024001800FF00180D0
:10AC00000240024000000080008000800FF80080B9
:10AC10000080008000000001000D000E0000000018
:10AC20000000000000000000008000800080008024
:10AC30000080008000800000000C000C000000007C
:10AC40000000000000000000000600180060018005
:10AC5000060018002000000007F008081004100487
:10AC6000080807F000000000080408041FFC0004A6
:10AC700000040000000000000E0C1014102410440A
:10AC800011840E0C000000000C18100411041104B3
:10AC900012880C700000000000E003200424082447
:10ACA0001FFC0024000000001F98108411041104F0
:10ACB000108810700000000007F0088811041104CB
:10ACC00018880070000000001C00100010FC130029
:10ACD0001C001000000000000E3811441084108485
:10ACE00011440E38000000000700088C1044104486
:10ACF000088807F00000000000000000030C030CAF
:10AD0000000000000000000000000001010600003B
:10AD1000000000000000000000800140022004103C
:10AD20000808100400000220022002200220022055
:10AD30000220022000000000100408080410022075
:10AD400001400080000000000E001200100C106C8A
:10AD500010800F00000003E00C1813E4142417C443
:10AD6000082807D000000004003C03C41C40074032
:10AD700000E4001C000410041FFC11041104110461
:10AD80000E880070000003E00C181004100410047A
:10AD900010081C10000010041FFC10041004100404
:10ADA000080807F0000010041FFC1104110417C468
:10ADB00010040818000010041FFC1104110017C033
:10ADC00010000800000003E00C18100410041044E8
:10ADD0001C780040000010041FFC108400800080DC
:10ADE00010841FFC10040000100410041FFC100449
:10ADF00010040000000000030001100110011FFEFC
:10AE000010001000000010041FFC110403801464E3
:10AE1000181C1004000010041FFC1004000400049F
:10AE20000004000C000010041FFC1F0000FC1F00A9
:10AE30001FFC1004000010041FFC0C04030000E0C1
:10AE400010181FFC100007F008081004100410046C
:10AE5000080807F0000010041FFC10841080108008
:10AE600010800F00000007F0081810241024101C98
:10AE7000080A07F2000010041FFC1104110011C0A1
:10AE800011300E0C000400000E1C110410841084FC
:10AE900010441C3800001800100010041FFC10049F
:10AEA00010001800000010001FF810040004000437
:10AEB00010041FF8100010001E0011E0001C0070AC
:10AEC00013801C0010001FC0103C00E01F0000E0B9
:10AED000103C1FC000001004180C163401C001C043
:10AEE0001634180C100410001C00130400FC13048A
:10AEF0001C00100000000804101C106410841304CF
:10AF00001C04101800000000000000007FFE40023A
:10AF1000400240020000000030000C00038000608E
:10AF2000001C0003000000004002400240027FFEBF
:10AF30000000000000000000000020004000400071
:10AF4000400020000000000100010001000100019C
:10AF5000000100010001000040004000200000004E
:10AF6000000000000000000000980124014401449A
:10AF7000014400FC000410001FFC008801040104CF
:10AF800000880070000000000070008801040104C7
:10AF90000104008800000000007000880104010422
:10AFA00011081FFC0004000000F8014401440144A2
:10AFB000014400C800000000010401040FFC11045A
:10AFC000110411001800000000D6012901290129EF
:10AFD00001C90106000010041FFC008401000100EB
:10AFE000010400FC000400000104190419FC000421
:10AFF000000400000000000000030001010119012D
:10B0000019FE0000000010041FFC0024004001B4E1
:10B01000010C010400000000100410041FFC0004D7
:10B02000000400000000010401FC0104010001FC17
:10B030000104010000FC010401FC00840100010086
:10B04000010400FC0004000000F8010401040104F4
:10B05000010400F80000010101FF00850104010462
:10B0600000880070000000000070008801040104E6
:10B07000010501FF00010104010401FC0084010439
:10B08000010001800000000000CC01240124012403
:10B0900001240198000000000100010007F80104EC
:10B0A000010400000000010001F800040004000495
:10B0B000010801FC0004010001800170000C001077
:10B0C00001600180010001F0010C003001C000307E
:10B0D000010C01F0010000000104018C00740170FA
:10B0E000018C01040000010101810171000E0018B2
:10B0F00001600180010000000184010C0134014461
:10B100000184010C000000000000000000000100AC
:10B110003EFC400240020000000000000000FFFF73
:10B120000000000000000000400240023EFC010060
:10B13000000000000000000060008000800040006F
:10B14000400020002000404281FE00000121D21476
:10B150000814E2010000080808FF090419111197FA
:10B16000711111151900000000000000FF0000001F
:10B170000080600000004040404040407F4040422E
:10B180004140404040000106F840404040FE404001
:10B190004241FE00000000007F444444447F444498
:10B1A00044447F000000000106F880808080808099
:10B1B0008080C00000000000001F10109070101070
:10B1C00010101F000000404281FE00000121D21437
:10B1D0000814E2010000080808FF0904191111977A
:10B1E0007111111519008080FE848A6418E422A26E
:10B1F000A2FAA2A22200020CF72424012739082A6D
:10B200002AFF2A3E08004080FE0808FC0106F8904C
:10B2100090FC9291FE002021273A2223040817E493
:10B2200024272C340700000000FC09120418E00059
:10B23000E01804020100020242330000000000FF97
:10B240000000000000000001020CF00000000000FF
:10B25000FF0000000000014141417F414141414167
:10B260007F41414101000244A810688400007F42F0
:10B270004242427F000008080FF8080F0002071A38
:10B28000E2020A060300000000FF222222222222FC
:10B2900022FF000000000000001F11315191111128
:10B2A000111F0000000020C000FF0082221A8272DD
:10B2B000061AE202020008080BFF090A040A32C259
:10B2C000320A040202000102040830C00000FC023D
:10B2D0000202020E00000002424242437E4243420A
:10B2E0004242020200004241FE8222A4A8B0A07F96
:10B2F000B0A8A4A222000808FF080907F4949790B8
:10B300009794F4070000800000FF00000000FF1089
:10B310001010101000000001061FE0020CF01F11B9
:10B32000111111101000106080FF80608101020275
:10B33000E40830C000002424257FC44400031C001E
:10B34000FF0010080600020418E0007F424242425B
:10B3500042427F0000000000003F24242424444493
:10B3600044C444040400000204F80402FA12220255
:10B370008242A21A0200020242330000FF9292931C
:10B380009292FE010000003E0202020202FE020250
:10B390000202023F000000003E02020202FF02021F
:10B3A00002023F000000020202FE020202FE02024E
:10B3B000020202020200004040434040407F4141FF
:10B3C000414141400000408000FF0282828282FEB3
:10B3D000828282820200101011131C30D0101017CC
:10B3E000101010101000000000FF22222222222242
:10B3F00022FF000000000000001F113151911111C7
:10B40000111F0000000020C000FF0082221A82727B
:10B41000061AE202020008080BFF090A040A32C2F7
:10B42000320A0402020000001A1C000000000000A2
:10B43000000000000000000000000000000000000C
:10B44000000000000000106080FF806081010202A7
:10B45000E40830C000002424257FC44400031C00FD
:10B46000FF0010080600020418E0007F424242423A
:10B4700042427F0000000000003F24242424444472
:10B4800044C444040400008181828CF0808080FEEA
:10B490008181818F0000083020242424A464242486
:10B4A0002424202830000106F8000804F801028452
:10B4B000681864821F0000001F111111111010FF85
:10B4C000109050131000101810FF202000FF42426F
:10B4D000FE4242FF0000131DF1171111000F080872
:10B4E000FF08080F00000106F890909090FE9090E1
:10B4F0009291FE00000004081724E4242427242C41
:10B50000340407000000000204F80412224282FA08
:10B510008242221202000202423300202F2929FF18
:10B5200029292F200000020CF1012132AAA4A4A491
:10B53000AA320101010000003F2424243FA4642416
:10B540003F2424242000000000FF22222222222265
:10B5500022FF000000000000001F11315191111165
:10B56000111F0000000020C000FF0082221A82721A
:10B57000061AE202020008080BFF090A040A32C296
:10B58000320A04020200008181828CF0808080FEF9
:10B590008181818F0000083020242424A464242485
:10B5A0002424202830000106F8000804F801028451
:10B5B000681864821F0000001F111111111010FF84
:10B5C0001090501310008080FE848800FF929292A9
:10B5D0009292FF000000020CF724261212FE1212B3
:10B5E00012FE121202000000FE042921222428F07B
:10B5F00028242221210002423300000179494949CF
:10B60000494979010000800000FF0000000000C0EF
:10B61000300804021F000001061FE0040404FE05B8
:10B620000888680808004080FE0808FC0010101018
:10B6300010121102FC002021273A222300404F4122
:10B6400041417F0101000000F810101010FE11119F
:10B650001111F9010F0000001F11111111FF11113B
:10B6600011111F0000000106F80202020202FE0290
:10B6700002221A02020000007F40414141415F4125
:10B68000414141414000000204F8040202820212DA
:10B690000AF20202020002024233001012111010DC
:10B6A00010FF10101000800000FF0000FF020400D7
:10B6B00082710C021F000001061FE0003F212121C2
:10B6C0007F41C14101000000FF000181A29488F484
:10B6D00082828181010001061FE02027242424FFAB
:10B6E00024242427200000FF48484A49FE00007E09
:10B6F000111121410700103352921252331800FEEB
:10B700001111214107000001020CF00000000000AF
:10B71000FF0000000000014141417F4141414141A2
:10B720007F4141410100818182828488B0C0B0881C
:10B73000848282818100000008886808080F080858
:10B7400028C808000000818182828488B0C0B08847
:10B75000848282818100000008886808080F080838
:10B7600028C80800000000FF001020408804F800EE
:10B77000000201FE0000001F8044044444455F4471
:10B780004444407F00001018122122FC00FE0A12DF
:10B790006282621A0200405F41417F01007F40489F
:10B7A000464146584000083CC808281D020C7080DD
:10B7B000020102FC0000022223222222020808FFCA
:10B7C0000808080F000044E644484848020204C83C
:10B7D000302844821F00040C35C60418010909FFF3
:10B7E000099252120200020CF1010202C428102830
:10B7F00044820201010000003F2424272424444401
:10B8000044C546000000202241FE804141526AC4E6
:10B81000444A72414000080808FF080A222AA66329
:10B8200022262A2202001018122122FC00FE0A12EF
:10B830006282621A0200405F41417F01007F4048FE
:10B84000464146584000083CC808281D020C70803C
:10B85000020102FC0000022223222222020808FF29
:10B860000808080F0000202241FE800001F1020CB0
:10B87000F00804F30000080808FF080900037A4AEA
:10B880004A4A7A030000101810E020281020408057
:10B89000FF0000C03000040404FF04042020202125
:10B8A00027382120200044E644484A1CE0FF90FE4F
:10B8B00090FC91FF0000040C35C60C003F24A464EA
:10B8C0002424243C00004080FE0808FC00101010D6
:10B8D00010121102FC002021273A222300404F4180
:10B8E00041417F01010010102F2949498F00804FED
:10B8F0004929291F1000010179494949790701792E
:10B900004D4B49790100202241FE800001F1020CDB
:10B91000F00804F30000080808FF080900037A4A49
:10B920004A4A7A030000101810E0202810204080B6
:10B93000FF0000C03000040404FF04042020202184
:10B940002738212020000000F810101010FE1111DF
:10B950001111F9010F0000001F11111111FF111138
:10B9600011111F00000020207E820CF004C892817B
:10B97000FE8090C8040008064031007F404F4A5ABC
:10B980006A4A4A4F400008102040800000FF000033
:10B99000008040300000004040404041424F704233
:10B9A000414040400000106080FF00C10620263169
:10B9B0002D2123E806002424257FC544102949C9E8
:10B9C0004959690F000001020478040202FE222294
:10B9D000222222020200083022222222A2632222F4
:10B9E00022222228300020207E80027E42427E4297
:10B9F0007E42427E02000806403100007F494949EC
:10BA000049497F000000020CF1012132AAA4A4A43C
:10BA1000AA320101010000003F2424243FA4642431
:10BA20003F2424242000000204F8040202820212AF
:10BA30000AF2020202000202423300101211101038
:10BA400010FF10101000007F40405E5252525252C0
:10BA50005E40417F0000202020202F29A96929294C
:10BA60002F20202020000000F810101010FE1111CF
:10BA70001111F9010F0000001F11111111FF111117
:10BA800011111F00000020C000FF00C106F80000D7
:10BA900000FC02021E0008080BFF0908007F40405E
:10BAA000407F0000000044E644484848020204C8C1
:10BAB000302844821F00040C35C60418010909FF10
:10BAC000099252120200202241FE804141526AC472
:10BAD000444A72414000080808FF080A222AA66367
:10BAE00022262A2202008080FE848800FF92929201
:10BAF0009292FF000000020CF724261212FE12128E
:10BB000012FE121202001020C000000201FE00000E
:10BB100000000080700000000007000000FF00002F
:10BB200000040201000010109090909090FF9090FF
:10BB3000909090101000001011121418F0171010AF
:10BB4000101010100000020202FE020202FE0202A9
:10BB5000020202020200004040434040407F414157
:10BB600041414140000000007C40404040FF4040D7
:10BB700048447800000004181057351515F51515C0
:10BB800035571014180000004FBB610567ACDD3F4E
:10BB9000182D4454FB21E93F9BF681D20B73EF3FF4
:10BBA000182D4454FB21F93FE2652F227F2B7A3C6C
:10BBB000075C143326A6813CBDCBF07A8807703C25
:10BBC000075C143326A6913CC4EB98999999C9BF98
:10BBD000711623FEC671BCBF6D9A74AFF2B0B3BFCD
:10BBE0009AFDDE522DDEADBF2F6C6A2C44B4A2BF8D
:10BBF0000D5555555555D53FFF8300922449C23FF9
:10BC00006E204CC5CD45B73F513DD0A0660DB13F2C
:10BC1000EB0D76244B7BA93F11DA22E33AAD903F3E
:10BC2000000000000000F03F000000000000F83FAE
:10BC300000000000000000000000004003B8E23FE8
:10BC4000000000000000000006D0CF43EBFD4C3E9A
:10BC5000033333333333E33FFFAB6FDBB66DDB3F8F
:10BC60004D268F515555D53F01411DA96074D13FD7
:10BC700065DBC9934A86CD3FEF4E454A287ECA3FD1
:10BC80003E5555555555C53F93BDBE166CC166BF53
:10BC90002CDE25AF6A56113FF16BD2C541BDBBBE4C
:10BCA000D0A4BE726937663E0000000000000000AC
:10BCB00000004054FB21F93F3163621A61B4D03D6A
:10BCC0000000601A61B4D03D7370032E8A19A33B43
:10BCD0000000002E8A19A33BC14920259A837B3995
:10BCE00000000000000000006E83F9A22915444EF8
:10BCF000D15727FCC0DD34F5999562DB4190433C78
:10BD0000AB6351FE61C5BBDE3A6E24B7E0D24D4253
:10BD1000EA2E49061C92D1091CEB1DFE3EA729B153
:10BD2000F53582E88444BB2E26709CE9417E5FB4E1
:10BD300039D69139F43953838B5F849C3B28F9BD04
:10BD4000FF97F81F0F9805DE8B112FEF1F6D0A5A12
:10BD5000CF7E366DB709CB27663F464F2DEA5F9EF3
:10BD6000C7BA27757BF1E5EBF739073DEA92528AAE
:10BD7000B15FFB6B085D8D1F7AFE10111111C13F81
:10BD800037D60684F464963F280356C9226D6D3F6A
:10BD90000165F2F2D844433FA69237A0887E143F53
:10BDA000735360DBCB75F3BEFE41B31BBAA1AB3F4F
:10BDB00093846EE9E326823F1583E0FEC8DB573F9C
:10BDC00068108D1AF726303FE9A7F0320FB8123FFE
:10BDD000D47ABF74702AFB3EF8BD00080000002032
:10BDE0002C020000C401000854BE00082C020020F0
:10BDF000CC5E00002002000851847A030A78090111
:10BE0000020304060708091001135AF4156B0142D6
:10BE1000241202120312041205120612071208124B
:10BE200009120A120B120C120D120E120F0215102B
:10BE30000B1CDC0504012C29B4E9B8014C1AAA0139
:10BE4000091B805123FA435A9604015602436402A7
:04BE50003B1900009A
:040000050800018965
:00000001FF
