:020000040800F2
:100000002824002089010008EB1B0008ED1B0008D4
:10001000F11B0008F51B0008F91B00080000000098
:10002000000000000000000000000000FD1B0008B0
:10003000FF1B000800000000011C0008031C000852
:10004000A3010008A3010008A3010008A301000800
:10005000A3010008A3010008A3010008A3010008F0
:10006000A3010008A3010008A3010008A3010008E0
:10007000A3010008A3010008A3010008A3010008D0
:10008000A3010008A3010008A3010008A3010008C0
:10009000A3010008A3010008A3010008A3010008B0
:1000A000A3010008A3010008A3010008A3010008A0
:1000B00017270008BF210008A3010008A3010008BA
:1000C000A3010008A3010008A3010008A301000880
:1000D000A3010008F3280008A3010008A3010008F9
:1000E000A3010008A3010008A301000800F002F822
:1000F00000F03AF80AA090E8000C82448344AAF188
:100100000107DA4501D100F02FF8AFF2090EBAE885
:100110000F0013F0010F18BFFB1A43F0010318473B
:10012000985D0000B85D0000103A24BF78C878C11F
:10013000FAD8520724BF30C830C144BF04680C60ED
:10014000704700000023002400250026103A28BF35
:1001500078C1FBD8520728BF30C148BF0B60704739
:100160001FB51FBD10B510BD03F036FB1146FFF7DC
:10017000F7FF01F027FD03F054FB03B4FFF7F2FF94
:1001800003BC03F055FB00000948804709480047BD
:10019000FEE7FEE7FEE7FEE7FEE7FEE7FEE7FEE737
:1001A000FEE7FEE704480549054A064B7047000094
:1001B000E11C0008ED00000828040020282400208D
:1001C000281400202814002031490143314A1160CD
:1001D000704770B5002100230F22C4780CB32D4C5A
:1001E000246804F4E064C4F5E064210AC1F1040366
:1001F000CA40447804FA03F1847814402143090189
:10020000254C0678A155047804F01F050124AC4064
:1002100005786D114FF0E02606EB8505C5F8004125
:1002200009E0047804F01F050124AC401B4D06785A
:10023000761145F8264070BD194A0A400243154B15
:100240001B1F1A60704739B1124A121D126802430F
:10025000104B1B1D1A6006E00E4A121D12688243E5
:100260000C4B1B1D1A607047042808D14FF0E02189
:10027000096941F004014FF0E022116107E04FF0FD
:10028000E021096921F004014FF0E022116170477B
:100290000000FA050CED00E000E400E080E100E081
:1002A00080FFFF1F10B50446CA48844208D10121CF
:1002B000042000F027FB0021042000F023FB46E08F
:1002C000C548844208D10121082000F01BFB002111
:1002D000082000F017FB3AE0C048844208D1012111
:1002E000102000F00FFB0021102000F00BFB2EE08F
:1002F000BB48844208D10121202000F003FB0021EB
:10030000202000F0FFFA22E0B648844208D1012103
:10031000402000F0F7FA0021402000F0F3FA16E048
:10032000B148844208D10121802000F0EBFA00217D
:10033000802000F0E7FA0AE0AC48844207D10121AE
:10034000801500F0DFFA0021A01500F0DBFA10BDE7
:1003500010B50121084600F0D5FA0021012000F077
:10036000D1FA10BD2DE9F0410246002500260020FB
:1003700000230024002791F803C00CF00F0591F82A
:1003800003C01CF0100F03D091F802C04CEA050521
:1003900091F800C0BCF1000F31D0146800202BE0B0
:1003A0004FF0010C0CFA00F3B1F800C00CEA0306A0
:1003B0009E4220D183004FF00F0C0CFA03F7BC4390
:1003C00005FA03FC4CEA040491F803C0BCF1280FC1
:1003D00006D14FF0010C0CFA00FCC2F814C00AE080
:1003E00091F803C0BCF1480F05D14FF0010C0CFA95
:1003F00000FCC2F810C0401C0828D1D31460B1F82A
:1004000000C0BCF1FF0F34DD546800202EE000F185
:10041000080C4FF0010808FA0CF3B1F800C00CEA20
:1004200003069E4221D183004FF00F0C0CFA03F714
:10043000BC4305FA03FC4CEA040491F803C0BCF188
:10044000280F05D100F1080C08FA0CF8C2F8148046
:1004500091F803C0BCF1480F07D100F1080C4FF030
:10046000010808FA0CF8C2F81080401C0828CED306
:100470005460BDE8F0814FF6FF7101800221817068
:100480000421C17070470246002093680B4201D0DE
:10049000012000E0002070470146886880B2704764
:1004A00002460020D3680B4201D0012000E000206A
:1004B00070470146C86880B270470161704741616A
:1004C00070470AB1016100E041617047C160704747
:1004D0004FF480320A43826181618261826982695C
:1004E000704702460020424B18684FF68073184050
:1004F00040EA021008433E4B186070473D49C8610E
:100500007047F0B50A46002300240021002500F0C2
:100510000046B6F1004F02D1354EF16901E0344E8C
:100520007168C0F3034583B200F44016B6F5401F6E
:1005300008D121F070612E4E766826F070662C4F3F
:100540007E6012E000F48016B6F5801F06D1032607
:1005500006FA05F4A14341F0706106E0460D36014C
:1005600003FA06F6B14341F0706122B1460D36013F
:1005700003FA06F6314300F00046B6F1004F02D10F
:100580001B4EF16101E01A4E7160F0BD30B50022E2
:100590008B071C0F0F2303FA04F2154B08338C1042
:1005A00053F824309343124C08348D1044F825300E
:1005B00023468C1053F824308C07240F00FA04F4DF
:1005C00023430B4C08348D1044F8253030BD0A49C4
:1005D0000860704700080140000C01400010014015
:1005E0000014014000180140001C0140002001409F
:1005F0000000014000002042DC002042DD4800688D
:1006000040F00100DB49086008464068DA490840CC
:10061000D849486008460068D8490840D54908606C
:100620000846006820F4802008600846406820F4EE
:10063000FE0048604FF41F0088607047CD4909688C
:1006400021F48031CB4A11601146096821F48021E0
:100650001160B0F5803F03D0B0F5802F0ED106E0D9
:10066000C449096841F48031C24A116007E0C149B8
:10067000096841F4A021BF4A116000E000BF00BF3B
:10068000704710B501460022002300204A11012ABC
:1006900002D1B84C236806E0022A02D1B54C236A85
:1006A00001E0B44C636A01F01F02012494401C4233
:1006B00001D0012000E0002010BD38B500200090DE
:1006C0000024002500BF3120FFF7DBFF054600981E
:1006D000401C00900098B0F5A06F01D0002DF2D022
:1006E0003120FFF7CEFF08B1012400E000242046AE
:1006F00038BD014600209F4A106820F0F80040EA0B
:10070000C100106070479E49086070470246002093
:10071000984B586820F47C1042EA01031843954B2B
:100720005860704796490866704701460020914A14
:10073000506820F003000843506070478D484068BF
:1007400000F00C007047014600208A4A506820F0F3
:10075000F00008435060704701460020854A506809
:1007600020F4E06008435060704701460020814A51
:10077000506820F4605040EAC1005060704729B1D1
:100780007C4A527A02437B4B5A7204E0794A527A8D
:100790008243784B5A7270477A4908607047014625
:1007A0000020744A506820F440400843506070476D
:1007B0000021754A11706F4A82F82010012802D07A
:1007C000042808D103E001216F4A117004E00521DB
:1007D0006D4A117000E000BF00BF70476B490860B0
:1007E00070476449096A0143624A11627047674968
:1007F00044390860704730B50021002200240023EE
:100800005C4D6D6805F00C0121B1042905D0082963
:1008100023D105E05E4D056022E05D4D05601FE0DF
:10082000544D6D6805F47012524D6D6805F48034B6
:10083000022505EB92421CB9564D554305600BE06D
:100840004C4D6D6815F4003F03D0524D5543056083
:1008500002E04F4D5543056002E04D4D056000BF7D
:1008600000BF444D6D6805F0F00109094A4D6B5C0D
:100870000568DD4045603F4D6D6805F4E061090A9B
:10088000454D6B5C4568DD4085603A4D6D6805F40B
:100890006051C90A404D6B5C4568DD40C560354D0F
:1008A0006D6805F44041890B3C4D6B5CC568B5FB38
:1008B000F3F5056130BD29B12E4A526902432D4B33
:1008C0005A6104E02B4A526982432A4B5A617047AD
:1008D00029B1284A92690243264B9A6104E0254ACD
:1008E00092698243234B9A61704729B1214AD269A8
:1008F0000243204BDA6104E01E4AD26982431D4B59
:10090000DA61704729B11B4AD2680243194BDA6099
:1009100004E0184AD2688243164BDA60704729B166
:10092000144A12690243134B1A6104E0114A126916
:100930008243104B1A617047144940390860704770
:100940000F49C86470470B49C87170470948406A2D
:1009500040F0807007494862704701460020054A10
:1009600092680A4201D0012000E00020704701494E
:1009700088727047001002400000FFF8FFFFF6FE8B
:1009800000004242D800424220100240800442420D
:1009900000127A0000093D00000000201000002035
:1009A00010B50446FE48844208D10121C014FFF767
:1009B000A9FF0021E014FFF7A5FFC4E0B4F1804FC8
:1009C00008D101210846FFF7AAFF00210120FFF707
:1009D000A6FFB8E0F348844208D101210220FFF7C6
:1009E0009EFF00210220FFF79AFFACE0EE48844210
:1009F00008D101210420FFF792FF00210420FFF716
:100A00008EFFA0E0E948844208D101210820FFF7C9
:100A100086FF00210820FFF782FF94E0E44884422B
:100A200008D101211020FFF77AFF00211020FFF7E5
:100A300076FF88E0DF48844208D101212020FFF7BB
:100A40006EFF00212020FFF76AFF7CE0DA48844235
:100A500008D101214014FFF755FF00216014FFF772
:100A600051FF70E0D548844209D10121C804FFF745
:100A700049FF00214FF40020FFF744FF63E0D04816
:100A8000844209D101210805FFF73CFF00214FF402
:100A90008010FFF737FF56E0CA48844209D1012190
:100AA0004805FFF72FFF00214FF40010FFF72AFF42
:100AB00049E0C548844208D101214020FFF72FFFBB
:100AC00000214020FFF72BFF3DE0C048844208D1C1
:100AD00001218020FFF723FF00218020FFF71FFF67
:100AE00031E0BB48844208D101218015FFF717FF90
:100AF0000021A015FFF713FF25E0B648844209D175
:100B000001210804FFF7FEFE00214FF48030FFF7BB
:100B1000F9FE18E0B048844209D101214804FFF7EA
:100B2000F1FE00214FF40030FFF7ECFE0BE0AB4884
:100B3000844208D101218804FFF7E4FE00214FF42C
:100B40008020FFF7DFFE10BD00220288944B984200
:100B50000ED0994B98420BD0B0F1804F08D0914BFA
:100B6000984205D0904B984202D0904B984204D1C5
:100B70004FF68F731A404B881A438D4B984207D01B
:100B80008C4B984204D04FF6FF431A40CB881A434F
:100B900002808B8883850B880385814B98420BD01C
:100BA000854B984208D08B4B984205D08A4B98428F
:100BB00002D08A4B984201D10B7A038601238382AB
:100BC000704770B5002400220023058C4FF6FE7696
:100BD00035400584028C8388048B4FF68F752C403A
:100BE000B51E2C400D882C43751E2A400D892A43C2
:100BF0004D882A436A4DA8420BD06F4DA84208D0B9
:100C0000744DA84205D0744DA84202D0734DA8423D
:100C100013D14FF6F7752A404D892A434FF6FB75DD
:100C20002A408D882A434FF6FF652B404FF6FF552B
:100C30002B408D892B43CD892B4383800483CD8822
:100C40008586028470BD70B5002400220023058CC7
:100C50004FF6EF7635400584028C8388048B48F686
:100C6000FF752C404FF6FF452C400D884FF6FF7660
:100C700006EA05252C434FF6DF752A400D8906EA62
:100C800005152A434D8806EA05152A43444DA84216
:100C900002D0494DA8421DD14FF67F752A404D899B
:100CA0004FF6FF7606EA05152A434FF6BF752A4030
:100CB0008D8806EA05152A434FF6FF352B404FF283
:100CC000FF752B408D8906EA85052B43CD8906EA01
:100CD00085052B4383800483CD880587028470BDFE
:100CE00070B5002400220023058C4FF6FF663540C6
:100CF0000584028C8388848B4FF68F752C404FF6C9
:100D0000FC752C400D882C434FF6FF552A400D8969
:100D10004FF6FF7606EA05252A434D8806EA0525A3
:100D20002A431F4DA84202D0234DA8421DD14FF2A5
:100D3000FF752A404D894FF6FF7606EA05252A43BE
:100D40004FF6FF352A408D8806EA05252A434EF6E0
:100D5000FF752B404DF6FF752B408D8906EA051572
:100D60002B43CD8906EA05152B4383808483CD88E8
:100D70008587028470BD70B5002200230024058C95
:100D80004EF6FF7635400584038C8488828B48F6C6
:100D9000FF752A404FF6FF452A400D8820E00000ED
:100DA000002C01400004004000080040000C0040FE
:100DB000001000400014004000340140004C01408D
:100DC000005001400054014000180040001C004049
:100DD0000020004000400140004401400048014024
:100DE0004FF6FF7606EA05252A434DF6FF752B40A0
:100DF0000D8906EA05352B434D8806EA05352B4358
:100E0000FA4DA84202D0FA4DA84208D14BF6FF7520
:100E10002C408D894FF6FF7606EA85152C43848099
:100E20008283CD88A0F84050038470BD828B4FF23E
:100E3000FF331A408283828B4FF6FF7303EA01234C
:100E40001A4382837047F0B50C46154600220021F4
:100E50000026078C4EF6FF7C07EA0C070784828B7E
:100E6000018C4FF6FF7707EA043640F6FF473A4019
:100E70004FF6FF7707EA05273A434FF6FF7707EA71
:100E800003373A43D94FB8420ED0D94FB8420BD0AE
:100E9000B0F1804F08D0D74FB84205D0D64FB842F6
:100EA00002D0D64FB84206D14DF6FF77394046F40E
:100EB0008057394305E047F6FF57394044F48057DF
:100EC000394382830184F0BD828B4FF6F3731A405D
:100ED0008283828B0A4382837047F0B50C461546A5
:100EE000002200210026078C4FF6FF6C07EA0C0752
:100EF0000784828B018C4FF6FF7707EA04264FF6B2
:100F00000C773A404FF6FF7707EA03172F433A432F
:100F1000B64FB8420ED0B64FB8420BD0B0F1804FAA
:100F200008D0B44FB84205D0B34FB84202D0B34F47
:100F3000B84206D14FF6FF57394046F4807739431F
:100F400005E04FF2FF57394044F4807739438283FC
:100F50000184F0BD028B4FF2FF331A400283028BF3
:100F60004FF6FF7303EA01231A4302837047F0B57B
:100F70000C461546002200210026078C4FF6EF7C18
:100F800007EA0C070784028B018C4FF6FF7707EA0C
:100F9000041640F6FF473A404FF6FF7707EA03375B
:100FA0003A434FF6FF7707EA05273A438F4FB84297
:100FB0000ED08F4FB8420BD0B0F1804F08D08D4F7C
:100FC000B84205D08C4FB84202D08C4FB84206D1FF
:100FD0004FF6DF77394046F01007394305E04FF60A
:100FE0005F77394044F01007394302830184F0BD34
:100FF000028B4FF6F3731A400283028B0A4302837B
:101000007047F0B50C46154600220021068C4FF6BD
:10101000FE773E400684028B018C4FF60C76324000
:101020007E1C06EA03162E433243704EB0420ED0A9
:101030006F4EB0420BD0B0F1804F08D06D4EB04231
:1010400005D06D4EB04202D06C4EB04206D14FF684
:10105000FD76314044F00106314305E04FF6F57668
:10106000314044F00106314302830184F0BD70B584
:1010700005460C465D4885420ED05D4885420BD042
:10108000B5F1804F08D05B48854205D05A4885426B
:1010900002D05A48854200D100E000BF208850B9F4
:1010A0002389A28861882846FFF7ABFFE18828469C
:1010B000FFF79EFF25E0208804280AD12389A28813
:1010C00061882846FFF753FFE1882846FFF742FF73
:1010D00017E0208808280AD12389A2886188284639
:1010E000FFF7FBFEE1882846FFF7EEFE09E02389C3
:1010F000A28861882846FFF7A6FEE1882846FFF708
:1011000095FE70BD2DE9F04105460C4600260127ED
:10111000608808B9022600E00026A088012801D1D5
:10112000022700E001272088A0B92389A2886188CE
:101130002846FFF766FFE1882846FFF759FF238915
:101140003A4631462846FFF712FFE1882846FFF766
:1011500001FF13E02389A28861882846FFF707FF73
:10116000E1882846FFF7F6FE23893A4631462846AD
:10117000FFF747FFE1882846FFF73AFFBDE8F08117
:101180000A884B881A438B881A43CB881A430B89E9
:101190001A434B891A438B891A43A0F8442070479D
:1011A0004FF6FF71818000210180C1804180017272
:1011B00070470021018041808180C180018141818F
:1011C0008181C1817047002101804180012181809E
:1011D0000021C18001817047002101804180818010
:1011E000C18001814181818170470000002C014054
:1011F000003401400004004000080040000C0040A2
:1012000021B1028842F00102028004E002884FF618
:10121000FE731A400280704731B1B0F8442042F4A6
:101220000042A0F8442005E0B0F84420C2F30E02CA
:10123000A0F8442070471AB183890B43838102E0F0
:1012400083898B43838170478182704741EA02031F
:10125000A0F8483070471AB183890B43838102E0BC
:1012600083898B438381704701894FF6F87211405F
:10127000018170470A46002101894FF68F7319409A
:1012800011430181704730B504460D46294620467A
:10129000FFF7F0FF208940F00700208130BD2DE9E5
:1012A000F04104460D4616461F46602D06D13B46CA
:1012B000012231462046FFF75AFE05E03B46012257
:1012C00031462046FFF79DFE29462046FFF7D2FF14
:1012D000208940F007002081BDE8F08130B50C4640
:1012E00000210189C9B24FF6FF7505EA03251543B0
:1012F00025432943018130BD2DE9F04105460E46C5
:1013000017469846002443463A4631462846FFF79A
:10131000E5FF2C894FF6F870044044F007044FF6BF
:101320008F70044044F070042C81BDE8F081F0B56A
:1013300004460D4616461F463B4632462946204681
:10134000FFF7CCFF208940F480402081F0BD01856B
:10135000828270470A46002101884FF68F73194038
:10136000114301807047F0B50C4615461E4600211A
:10137000002200230189028B038C4FF6F877394055
:1013800021434FF6FC473A4040F201173A434FF6EB
:10139000DD773B404FF6FF7707EA06172F433B43C5
:1013A000018102830384F0BD0A460021018B4FF6C0
:1013B0008F7319401143018370470A460021018B46
:1013C00048F6FF7319404FF6FF7303EA02231943EF
:1013D000018370470A460021818B4FF68F731940B5
:1013E0001143818370470A460021818B48F6FF73C1
:1013F00019404FF6FF7303EA0223194381837047B4
:1014000021B1028842F08002028004E002884FF697
:101410007F731A400280704721B1828842F0040233
:10142000828004E082884FF6FB731A408280704706
:1014300021B1828842F00802828004E082884FF65F
:10144000F7731A408280704721B1828842F001020E
:10145000828004E082884FF6FE731A4082807047D3
:101460000A460021018B4FF6F7731940114301839F
:1014700070470A460021018B4FF2FF7319404FF667
:10148000FF7303EA02231943018370470A460021D0
:10149000818B4FF6F77319401143818370470A46D9
:1014A0000021818B4FF2FF7319404FF6FF7303EA5F
:1014B00002231943818370470A460021018B4FF6AE
:1014C000FB7319401143018370470A460021018BC9
:1014D0004FF6FF3319404FF6FF7303EA0223194317
:1014E000018370470A460021818B4FF6FB73194038
:1014F0001143818370470A460021818B4FF6FF33E9
:1015000019404FF6FF7303EA0223194381837047A2
:101510000A460021018B4FF67F7319401143018366
:1015200070470A460021018BC1F30E014FF6FF738D
:1015300003EA02231943018370470A460021818B85
:101540004FF67F7319401143818370470A4600218B
:10155000818BC1F30E014FF6FF7303EA0223194397
:10156000818370470A460021018C4FF6FD731940B4
:101570001143018470470A460021018C4FF6F7732E
:1015800019401143018470470A460021018C4FF62F
:10159000DF7319404FF6FF7303EA02131943018406
:1015A00070470A460021018C4FF67F7319404FF6B1
:1015B000FF7303EA02131943018470470A460021AE
:1015C000018C4FF6FF5319404FF6FF7303EA0223D5
:1015D0001943018470470A460021018C4FF2FF73C2
:1015E00019404FF6FF7303EA022319430184704741
:1015F0000A460021018C4DF6FF7319404FF6FF7328
:1016000003EA023319430184704730B500230124F3
:101610008C40A3B2048C9C430484048C02FA01F530
:10162000ADB22C43048430BD30B5002304248C407B
:10163000A3B2048C9C430484048C02FA01F5ADB27D
:101640002C43048430BD70B50346002000241846A6
:10165000183001258D40ACB21D8CA5431D8409B105
:10166000082909D100EB6100056825F070050560C7
:101670000568154305600EE00D1FC5F34E052844AF
:10168000056825F4E045056005684FF6FF7606EA33
:1016900002263543056070BD21B1028842F0020286
:1016A000028004E002884FF6FD731A400280704702
:1016B00021B1028842F00402028004E002884FF661
:1016C000FB731A400280704721B1828842F0800289
:1016D000828004E082884FF67F731A4082807047D0
:1016E00002884FF6F7731A40028002880A4302808C
:1016F000704782884FF68F731A40828082880A432F
:101700008280704702894FF6F8731A40028102897D
:101710000A430281704702894FF67F731A400281A3
:1017200002890A430281704781847047818570472E
:10173000818670470187704781877047A0F8401005
:10174000704702884FF6FF431A40028002880A431E
:10175000028070470146888E70470146088F7047A7
:101760000146888F70470146B1F840007047014636
:10177000888C70470146088D704702460020138A06
:101780000B4201D0012000E000207047CA430282D2
:10179000704730B50246002000230024158A05EA70
:1017A0000103958905EA010413B10CB1012000E0A1
:1017B000002030BDCA4302827047000010B50446C5
:1017C000FB48844209D101218803FFF79BF80021DF
:1017D0004FF48040FFF796F832E0F648844209D192
:1017E00001214804FFF79BF800214FF40030FFF778
:1017F00096F825E0F048844209D101218804FFF7DA
:101800008EF800214FF48020FFF789F818E0EB48AC
:10181000844209D10121C804FFF781F800214FF467
:101820000020FFF77CF80BE0E548844208D1012155
:101830000805FFF774F800214FF48010FFF76FF8E8
:1018400010BD2DE9F04786B005460E460024A2469D
:1018500000BFA1460027B08900B100BF2F462C8AE7
:101860004CF6FF700440F08804432C82AC894EF69D
:10187000F3100440B0883189084371890843044358
:10188000AC81AC8A4FF6FF400440B0890443AC827F
:1018900001A8FEF7B0FFC648874202D1DDF810A0CC
:1018A00001E0DDF80CA0A88910F4004F08D00AEB85
:1018B000CA0000EB0A1031684900B0FBF1F807E0FC
:1018C0000AEBCA0000EB0A1031688900B0FBF1F89E
:1018D0006420B8FBF0F004012009642101FB1089A9
:1018E000A88910F4004F08D0322000EBC900B0FBEB
:1018F000F1F000F00700044308E0322000EB09108B
:101900006421B0FBF1F000F00F0004432C8106B01D
:10191000BDE8F0874FF41651016000218180C1803D
:1019200001810C21418100218181704710B502465F
:101930000020108A4FF2FF0318400B884C88234385
:101940008C882343CC8823431843108210BD002188
:10195000018041808180C180704721B1828942F439
:101960000052828104E082894DF6FF731A40828121
:101970007047F0B503460024002600250020A1F59D
:1019800010676A3F00D100BF1846C1F3421401F04E
:101990001F06012707FA06F5012C01D10C3004E0DF
:1019A000022C01D1103000E014301AB107682F4327
:1019B000076002E00768AF430760F0BD1AB1838A91
:1019C0000B43838202E0838A8B4383827047028ABF
:1019D0004FF6F0731A400282028A0A43028270476D
:1019E00082894FF2FF731A40828182890A43828181
:1019F000704721B1828942F00202828104E082892B
:101A00004FF6FD731A4082817047028A4FF6DF73EA
:101A10001A400282028A0A430282704721B1028A76
:101A200042F48042028204E0028A4BF6FF731A40BD
:101A300002827047C1F3080282807047014688889D
:101A4000C0F308007047818941F00101818170472E
:101A5000028BD2B20283028B42EA012202837047D8
:101A6000028B02F47F420283028B0A430283704797
:101A700021B1828A42F02002828204E0828A4FF6FB
:101A8000DF731A408282704721B1828A42F01002CD
:101A9000828204E0828A4FF6EF731A408282704796
:101AA00021B1828A42F00802828204E0828A4FF6E3
:101AB000F7731A408282704721B1828942F4004252
:101AC000828103E08289C2F30E028281704721B1D4
:101AD000828A42F40062828204E0828A4FF2FF73BB
:101AE0001A4082827047828A4FF6FB731A408282C4
:101AF000828A0A438282704721B1828A42F00202BE
:101B0000828204E0828A4FF6FD731A408282704717
:101B100002460020B1F5007F00D100BF13880B42C0
:101B200001D0012000E00020704701F40072B2F5FE
:101B3000007F00D100BFCA430280704770B50246E3
:101B40000024002300250020A1F510666A3E00D184
:101B500000BFC1F3421501F01F03012606FA03F38B
:101B6000012D02D19689334006E0022D02D1168A5A
:101B7000334001E0968A33400C12012606FA04F441
:101B80001688344013B10CB1012000E0002070BD74
:101B900010B500220023A1F510646A3C00D100BFFB
:101BA0000A1201249440A3B2DC43048010BD00005B
:101BB000003801400044004000480040004C004014
:101BC0000050004000F08CF8482000F025FD4FF454
:101BD000A060FEF7F9FA00F011FE00F0B3FA00F091
:101BE0006BFD01E001F039F8FCE7704700BFFEE74C
:101BF00000BFFEE700BFFEE700BFFEE7704770478B
:101C0000704770470CB50020019000906B48006849
:101C100040F480306949086000BF6848006800F4FB
:101C2000003000900198401C0190009818B901986C
:101C3000B0F5A06FF1D16148006810F4003F02D008
:101C40000120009001E0002000900098012842D17E
:101C50005B48006840F01000594908600846006879
:101C600020F0030008600846006840F002000860A9
:101C700052484068514948600846406848600846F4
:101C8000406840F4806048600846406820F47C105A
:101C900048600846406840F4E8104860084600681C
:101CA00040F08070086000BF4448006810F0007F7A
:101CB000FAD04248406820F0030040494860084696
:101CC000406840F00200486000BF3C48406800F0B7
:101CD0000C000828F9D10CBD10B5FFF793FF10BD1B
:101CE00010B53648006840F00100344908600846E5
:101CF0004068344908403149486008460068324924
:101D000008402E4908600846006820F480200860DA
:101D10000846406820F4FE0048604FF41F008860C9
:101D2000FFF7DAFF4FF000602849086010BD10B5DA
:101D3000002100200022214B5B6803F00C0121B13F
:101D4000042906D0082928D107E0214B214C236023
:101D500027E01F4B1F4C236023E0184B5B6803F404
:101D60007010164B5B6803F48032022303EB904043
:101D700022B9194B4343174C23600DE00F4B5B68AE
:101D800013F4003F04D0144B4343124C236003E090
:101D90000F4B43430F4C236003E00D4B0D4C23606E
:101DA00000BF00BF054B5B68C3F303130B4CE15C42
:101DB000084B1B68CB40074C236010BD001002404D
:101DC000002002400000FFF8FFFFF6FE08ED00E0F3
:101DD00000127A001400002000093D0018000020C5
:101DE000FEB504460D46D4E904018DE8230094E8CD
:101DF0000F0001F0F4FAFEBD70B504460D4616461C
:101E000032462946204600F096FF70BD2DE9F04786
:101E100005460E46002490E0012C05D155F824001B
:101E200080F0004045F8240055F82400FA4903F0FA
:101E30009BFD0DD855F82400F84903F095FC07D810
:101E400055F82400F54903F083FE45F8240060E0CE
:101E500055F82400F24903F087FD0DD855F8240009
:101E6000F04903F081FC07D855F82410EB4803F043
:101E7000A9FA45F824004CE055F82400E84903F09D
:101E800073FC07D255F82400E44903F09BFA45F8A7
:101E900024003EE055F82400E04903F065FD07D238
:101EA00055F82400DD4903F053FE45F8240030E0E6
:101EB00055F82400DC4903F057FD13D255F82400EF
:101EC000DA4903F051FC0DD255F82400D64903F04D
:101ED0003FFE0746D64903F0A9FD80F0004045F8D3
:101EE000240016E055F82400D24903F03DFD10D23D
:101EF00055F82400D04903F037FC0AD255F82400E5
:101F0000C94903F05FFA0746C94903F05BFA45F88F
:101F1000240055F82400C94903F05AFC8146C849F9
:101F200003F0C4FA8046C54903F04CFA074603F0B3
:101F3000CFFB26F81400601CC4B2042CFFF66CAF73
:101F4000BDE8F0872DE9FC5F83464FF0000A28E0EA
:101F5000CAF10601BB4A32F8110002F0FFFF064643
:101F60000022B94B03F00EF804460022B74B02F0F2
:101F700057FE80460022B44B03F00EF9CDE9000174
:101F800002F06CFD4BF82A00BAF1010F05D15BF8A5
:101F90002A0080F000404BF82A000AF1010000F00E
:101FA000FF0ABAF1040FD3DBBDE8FC9F10B504288B
:101FB00009D0072806DCB1F5FA7F03DB40F6C4132D
:101FC000994200DD10BD142A00DA142247F2305382
:101FD0009A4200DD1A469E4B23F810109D4B1A8042
:101FE00001239D4C237000BFECE770B59A48007840
:101FF000002848D00020984908709648008814218D
:1020000090FBF1F095490880002437E0904830F8C3
:1020100014008C4931F81410884213DD8C4931F8D2
:102020001410884A32F81420881A03F071FB8C4986
:1020300041F82400084650F8240080F0004041F8A0
:1020400024000BE07F4931F81410814A32F8142043
:10205000881A03F05DFB824941F824007F4800881C
:1020600003F06EFB05467E4951F82400294603F033
:102070001DFA7B4941F82400601CC4B2082CC5DB62
:102080000120784908707748007860B37348008869
:10209000401E72490880002423E07048008848B937
:1020A0006B4830F81400674921F8140000206D498E
:1020B000087014E06948008803F042FB064668484F
:1020C00050F82410304603F083FB054603F0E4FA91
:1020D0005F4931F8141008445A4921F81400601C73
:1020E000C4B2082CD9DB70BD08B55F48C06940F0A8
:1020F00002005D49C86142F20F705C4908804720C8
:10210000091F088059482038008840F001005749CD
:102110002039088055482C38008840F00100534988
:102120002C3908801D208DF8000000208DF801005A
:1021300003208DF8020001208DF803006846FEF7A9
:1021400048F808BD08B5FFF7CFFF01210820FEF7CA
:10215000BFFB4FF49070ADF8000010208DF8030025
:1021600003208DF8020069464148FEF7FBF8012183
:102170001020FEF7ADFB4FF4E050ADF8000010204A
:102180008DF8030003208DF8020069463948FEF7F8
:10219000E9F801212020FEF79BFB0420ADF80000A8
:1021A00010208DF8030003208DF8020069463248A4
:1021B000FEF7D8F808BD411C2C4A1180704700B5C5
:1021C0002A481C38008810F0010F70D02B48008876
:1021D00011280ED2DFE800F0DE090E1756636C7985
:1021E000818E96A3ABB8C0CDD20016490888FFF700
:1021F000E2FFCFE01349098840F6C412511A88B2B1
:10220000FFF7D9FFC6E001201D4908600D49488845
:10221000FFF7D1FFBEE00000000087430000B44399
:102220000000B4C3000087C300801D440000344494
:102230000000B442000034C400801DC40080BB44D0
:10224000000007432800002000E060400070974035
:10225000380000204A000020480000204C000020E8
:102260009C0000204E000020001002402C04004082
:10227000000C0140001001400014014050000020FB
:10228000A80122420020DA490860DA49498840F66C
:10229000C412A2EB010188B2FFF78DFF7AE00120A2
:1022A000D5490860D3498888FFF785FF72E077E059
:1022B0000020D1490860CF49898840F6C412A2EBBA
:1022C000010188B2FFF777FF64E00120CB49086085
:1022D000C849C888FFF76FFF5CE00020C749086065
:1022E000C449C98840F6C412A2EB010188B2FFF7C5
:1022F00062FF4FE00120C2490860BE490889FFF72C
:102300005AFF47E00020BE490860BA49098940F6F3
:10231000C412A2EB010188B2FFF74DFF3AE00120A1
:10232000B8490860B3494889FFF745FF32E000200B
:10233000B4490860AF49498940F6C412A2EB0101D3
:1023400088B2FFF738FF25E00120AF490860A949AE
:102350008889FFF730FF1DE00020AB490860A549E0
:10236000898940F6C412A2EB010188B2FFF723FF6E
:1023700010E0A049C889FFF71EFF0BE09D49C989FD
:1023800040F6C412511A88B2FFF715FF00209F498A
:10239000088000BF00BF9D480088401C9B49088002
:1023A0009B48008820F001009949088000BD30B5A5
:1023B0008DB0044600200790089009900A901821DB
:1023C00001A801F0CBF92068019060680290A06834
:1023D0000390E0680490206905906069069007A961
:1023E00001A8FFF7FDFC0BA907A8FFF70FFD0625C5
:1023F00018E0042D0AD1C5F106000BA931F8100030
:102400005538C5F106010BAA22F81100C5F10600E6
:102410000BAA32F810104FF4FA622846FFF7C6FDF7
:10242000681EC5B2022DE4DC0DB030BD10B594B00D
:1024300004464021684601F091F910A8FFF782FD9B
:102440002246694610A8FFF7D7FC14B010BD70B53E
:1024500005460E460024012D01DB062D00DD70BD72
:10246000C5F10704032D2DD0012E15D1694830F890
:102470001400B0F5FA7F05DA4FF4FA70654921F8D7
:102480001400ECE7634A32F81420143A91B2E0B237
:102490001422FFF78BFD15E0A6B95E4830F8140052
:1024A00040F6C411884204DD08465A4921F8140058
:1024B000D5E7584A32F81420143291B2E0B214220F
:1024C000FFF774FD032D2DD1012E15D1514830F8A1
:1024D0001400B0F5AF7F05DA4FF4AF704D4921F825
:1024E0001400BCE74B4A32F81420143A91B2E0B21F
:1024F0001422FFF75BFD15E0A6B9464830F814003A
:1025000040F62821884204DD0846424921F814009B
:10251000A5E7404A32F81420143291B2E0B21422F6
:10252000FFF744FD00BF9AE710B50446012C06D121
:1025300040F2DC524FF41671FFF738FD06E02CB97B
:1025400040F2DC5211460120FFF730FD10BD00B50E
:1025500040F2DC5211460120FFF728FD40F2DC5228
:1025600011460220FFF722FD40F2DC521146032003
:10257000FFF71CFD40F2DC5211460420FFF716FD68
:1025800040F2DC5211460520FFF710FD40F2DC520C
:1025900011460620FFF70AFD00BD00B540F2DC52EF
:1025A0004FF416710120FFF701FD40F2DC52114695
:1025B0000220FFF7FBFC40F2DC5240F60C01032046
:1025C000FFF7F4FC40F2DC5240F66B210420FFF7E9
:1025D000EDFC40F2DC5240F6A4010520FFF7E6FCDA
:1025E00040F2DC5211460620FFF7E0FC00BD00007F
:1025F000A801224228000020AC012242B001224260
:102600008881224294812142A081214250000020F1
:10261000100400403800002010B504466FF004009C
:10262000FDF722FEE11704EB5171C1F3C701614AC6
:1026300011701046007800EB4001C1EBC0104FF65E
:10264000FF7101EAC0005C49088010BD01465A4A8A
:1026500012884A434FF0E0235A6100229A61012216
:102660001A6100BF4FF0E022106910F0010F02D094
:1026700010F4803FF6D000224FF0E0231A619A61F7
:10268000704701464B4A12784A434FF0E0235A61A3
:1026900000229A6101221A6100BF4FF0E022106906
:1026A00010F0010F02D010F4803FF6D000224FF05E
:1026B000E0231A619A6170471FB501210846FEF7B1
:1026C00014F90920ADF8040040F2CF20ADF8000065
:1026D0000020ADF80600ADF8020069464FF08040DA
:1026E000FEF732FA012241218807FEF7A4FD0121FD
:1026F0008807FEF785FD1C208DF80C0002208DF860
:102700000D0003208DF80E0001208DF80F0003A8A6
:10271000FDF75FFD1FBD10B501218807FFF739F8F0
:1027200088B101218807FFF745F824480068401C5C
:10273000224908600A2806D3002008602048006863
:10274000401C1F49086010BD1D4800681D490968EC
:10275000884210D91B4800680A301A4908601A4894
:102760000068401C184908600846007810F0010F06
:1027700001D1012070470020FCE71148006813498F
:102780000968884213D9114800680A300F49086067
:102790000F480068401C0E49086008460068642124
:1027A000B0FBF1F201FB120008B9012070470020D4
:1027B000FCE70000580000205A0000205C000020C8
:1027C0005400002060000020640000206800002009
:1027D0006C00002008B501210820FEF779F84FF4BD
:1027E0000070ADF8000010208DF8030003208DF874
:1027F00002006946FE48FDF7B5FD08BD00B587B08B
:10280000012144F20500FEF763F84FF40070ADF8C3
:10281000140003208DF8160018208DF8170005A964
:10282000F448FDF79FFD4FF48060ADF81400482098
:102830008DF8170005A9EF48FDF794FD4FF41650E9
:1028400001900020ADF80800ADF80A00ADF80C00CA
:10285000ADF810000C20ADF80E0001A9E648FEF717
:10286000F0FF012240F22551E348FFF782F80121F1
:10287000E148FFF772F825208DF8180001208DF847
:10288000190000208DF81A0001208DF81B0006A801
:10289000FDF79FFCFFF79EFF0020D849086007B0B6
:1028A00000BD00BFD449098811F0400FFAD0D249C9
:1028B000091D088000BFD049098811F0400FFAD0E7
:1028C000704710B50246002010E000BFCA4B1B88BD
:1028D00013F0400FFAD0135CC74C241D238000BFB7
:1028E000C54B1B8813F0400FFAD0401C8842ECD334
:1028F00010BD70B540F22551BF48FFF71FF900B970
:1029000070BDBD48FFF79AF8C5B2BD480078C8B998
:10291000552D10D1BB480078401CBA4908700846B4
:10292000007802280ED1002008700120B4490870F8
:10293000B549087006E00020B1490870B249087036
:10294000B0490870AE480078002837D0AF48AE498B
:1029500009784554AC48007802280ED1AB48AA4902
:102960000978405CAA49087008460078012804DA12
:10297000012008700020A2490870A3480078401C7C
:10298000A149087008460178A1480078C01C81421E
:1029900014D1A048007870B9002408E09B48005D7D
:1029A0009D49085501209B490870601CC4B2964897
:1029B00000788442F2DB00209149087000BF9FE755
:1029C00070B588B00646002555208DF800008DF8BA
:1029D00001001B208DF8020000208DF80300002468
:1029E0001DE056F82400C1B2042202EB84020DF867
:1029F0000210C0F30721052202EB84020DF8021039
:102A0000C0F30741062202EB84020DF80210010E0A
:102A1000072202EB84020DF80210601CC4B2062CDF
:102A2000DFDB002406E0A01C1DF80000284485B26E
:102A3000601CC4B21A2CF6DB25F47F408DF81C0014
:102A40006FF47F4000EA25208DF81D009DF80200FC
:102A5000C01CC1B26846FFF734FF08B070BD70B546
:102A600088B00646002555208DF800008DF801003D
:102A70001B208DF8020001208DF8030000241DE0CA
:102A800056F82400C1B2042202EB84020DF80210B1
:102A9000C0F30721052202EB84020DF80210C0F3F7
:102AA0000741062202EB84020DF80210010E0722F4
:102AB00002EB84020DF80210601CC4B2062CDFDBAE
:102AC000002406E0A01C1DF80000284485B2601C0C
:102AD000C4B21A2CF6DB25F47F408DF81C006FF48D
:102AE0007F4000EA25208DF81D009DF80200C01CE3
:102AF000C1B26846FFF7E5FE08B070BD30B58DB0D5
:102B00004448007808B90DB030BD4348C578072D5A
:102B10006CD2DFE805F0040B128A9095980001A8AA
:102B2000FFF784FC01A8FFF74BFF90E007A8FFF731
:102B300009FA07A8FFF793FF89E0002436480179D6
:102B4000204661F30700044633484179204661F38B
:102B50000F20044630488179204661F3174004462F
:102B60002D48C179204661F31F60044601944FF05F
:102B700000042948017A204661F3070004462648EC
:102B8000417A204661F30F2004462348817A20468B
:102B900061F3174004462048C17A204661F31F6064
:102BA000044602944FF000041B48017B204661F369
:102BB000070004461848417B204661F30F20044675
:102BC0001548817B204661F3174004461248C17BBB
:102BD000204661F31F6004460394104804904FF0B0
:102BE000000005900E48069001A81BE02EE00000B2
:102BF000000C01400008014000380140A48121423E
:102C0000740000207300002075000020C001002027
:102C10007600002072000020BC00002066A632C3AF
:102C20000000B442FFF7C3FB11E0154A1179507957
:102C3000FFF70DFC0BE012490879FFF775FC06E081
:102C4000FFF785FC03E0FFF7A8FC00E000BF00BF32
:102C500000200C49087000BF55E710B5FFF774FD60
:102C600008B1FFF7C2F9FFF788FD30B106480068E8
:102C70006FEA00000549C1F8A401FFF73FFF10BD4E
:102C8000BC00002072000020A4812142008021426B
:102C90002DE9F04780460F46404600F040FB18B94A
:102CA000384600F03CFB10B1FE48046840E0404666
:102CB00000F01CFB10B3384600F018FBF0B1002107
:102CC000404602F051FE01D2012501E04FF0FF35F0
:102CD0000021384602F048FE01D2012601E04FF003
:102CE000FF36304602F014FD8146284602F010FD02
:102CF0008246494601F0D6FA044619E000213846DA
:102D000002F096FC0FD10021404602F02DFE01D2C8
:102D1000E54C0DE00021404602F026FD01D2E34CD7
:102D200006E0002404E03946404601F0BBFA0446C0
:102D30002046BDE8F0872DE9F04FC3B006460D46AA
:102D40009346DB49306802F043FDDA49059002F012
:102D5000ADFB3060D849706802F034FBD449049070
:102D600002F036FDD349059002F0A0FB7060D04917
:102D7000B06802F02DFDCF49059002F097FBB060DE
:102D8000CB49F06802F024FDCA49059002F08EFBA1
:102D9000F060306801F086FD0D90306801F0C2FCF3
:102DA0000990706801F07EFD0C90706801F0BAFC2B
:102DB0000890B06801F076FD0B90B06801F0B2FCAD
:102DC0000790F06801F06EFD0A90F06801F0AAFC2F
:102DD000069009982E900D9880F00040B749059014
:102DE00002F0F6FC32900D9836900020099902F01E
:102DF000EFFC3A900D982F90B049099802F0E8FC4A
:102E00003390099880F00040379000200D9902F02F
:102E1000DFFC3B9008981E900C9880F000402290B8
:102E200000210C9802F0D4FC2690A548089902F0E5
:102E3000CFFC2A900C981F9008982390089880F057
:102E400000400021059002F0C3FC27909C480C999B
:102E500002F0BEFC2B900020309031902090219009
:102E60004FF07E5034900020359024902590934868
:102E70003890002039904FF07E5028900020299003
:102E800090483C904FF07E503D9000202C904FF0A9
:102E90007E502D9000244FE02EA850F824000D9075
:102EA0002EA9201D51F82000099004F1080051F8C6
:102EB00020000C9004F10C0051F8200008904FF015
:102EC000000A35E04FEA8A091EAA09F1030052F808
:102ED0002010089802F07CFC1EAA059009F102005F
:102EE00052F820100C9802F073FC1EAA039009F10E
:102EF000010052F82010099802F06AFC01901EA807
:102F000050F829100D9802F063FC0090019902F02E
:102F100059FA0290039902F055FA0490059902F0CB
:102F200051FA04EB09010EAA42F821000AF1010A44
:102F3000BAF1040FC6DB641C042CADDB07981E90AD
:102F40000B9880F00040229000210B9802F040FC8A
:102F500026905D48079902F03BFC2A900B981F9041
:102F600007982390079880F000400021059002F018
:102F70002FFC279054480B9902F02AFC2B9000203C
:102F800020902190249025904FF07E502890002092
:102F900029902C904FF07E502D9000244FE00EA8E9
:102FA00050F824000D900EA9201D51F82000099022
:102FB00004F1080051F820000C9004F10C0051F8C5
:102FC000200008904FF0000A35E04FEA8A091EAA57
:102FD00009F1030052F82010089802F0F9FB1EAA2C
:102FE000059009F1020052F820100C9802F0F0FB55
:102FF0001EAA039009F1010052F82010099802F06E
:10300000E7FB01901EA850F829100D9802F0E0FB94
:103010000090019902F0D6F90290039902F0D2F9DA
:103020000490059902F0CEF904EB09012EAA42F8AA
:1030300021000AF1010ABAF1040FC6DB641C042C5A
:10304000ADDB06981E900A9880F000402290002187
:103050000A9802F0BDFB26901C48069902F0B8FBC6
:103060002A900A981F9006982390069880F00040B6
:103070000021059002F0ACFB279014480A9902F059
:10308000A7FB2B90002020902190249025904FF0BA
:103090007E502890002029902C904FF07E502D904B
:1030A000002464E090000020DB0FC93FDB0FC9BFA4
:1030B000DB0F4940000034430000B44232318D241C
:1030C0000000D0420000B0409A19B1421FC5214310
:1030D0002EA850F824000D902EA9201D51F8200094
:1030E000099004F1080051F820000C9004F10C0044
:1030F00051F8200008904FF0000A34E04FEA8A09A6
:103100001EAA09F1030052F82010089802F060FB93
:103110001EAA059009F1020052F820100C9802F046
:1031200057FB1EAA039009F1010052F820100998DC
:1031300002F04EFB01901EA850F829100D9802F0E5
:1031400047FB0090019902F03DF90290039902F0CB
:1031500039F90490059902F035F904EB090145F8B5
:1031600021000AF1010ABAF1040FC7DB641C042C28
:10317000AEDB286A20F000404FF07E51049002F050
:10318000E7FC20F000404FF01651059002F0ECFAF9
:1031900024D20027B8460021286A02F0E5FB09D2B4
:1031A000D5E90510FFF774FD059002F0DFF8CDE9D1
:1031B0003E010AE0D5E90101FFF76AFD80F0004019
:1031C000059002F0D3F8CDE93E01286A00F0D6FF61
:1031D000059002F0CBF8419140902DE029682869D4
:1031E000FFF756FD80F00040059002F0BFF807465B
:1031F0008846D5E90901FFF74BFD80F000400590B6
:1032000002F0B4F8CDE93E013846414601F034FA07
:10321000CDE9000101F022FC0290296A02F0D8FAFF
:103220000390296802F042F9049001F065F90590D5
:1032300002F09CF8419140900022234B38464146D1
:1032400001F0A0FE214A224BCDE9040101F0E8FC87
:103250000746884600221C4B4199409801F092FE97
:103260001A4A1B4BCDE9040101F0DAFC4191409070
:103270000022154BDDE93E0101F084FE134A144B98
:10328000CDE9040101F0CCFCCDE93E01286BCBF87F
:103290000000686BCBF80400A86BCBF80800384638
:1032A000414601F0DBFBCBF80C004199409801F05E
:1032B000D5FBCBF81000DDE93E0101F0CFFBCBF8E8
:1032C000140043B0BDE8F08F00806640182D4454D0
:1032D000FB21094070B504460D462046294600F002
:1032E000D5FA08B1012070BD0020FCE770B5044696
:1032F000204602F03BF8054600F0C8FA08B101206C
:1033000070BD0020FCE770B504460D4620462946F6
:1033100000F0CAFA08B1012070BD0020FCE770B5CA
:103320000446204602F022F8054600F0BDFA08B136
:10333000012070BD0020FCE72DE9F04780460F46D4
:103340004046FFF7ECFF18B93846FFF7E8FF10B129
:10335000F248046840E04046FFF7C8FF10B3384623
:10336000FFF7C4FFF0B10021404602F0FDFA01D2A0
:10337000012501E04FF0FF350021384602F0F4FA54
:1033800001D2012601E04FF0FF36304602F0C0F9CD
:103390008146284602F0BCF98246494600F082FF89
:1033A000044619E00021384602F042F90FD100210D
:1033B000404602F0D9FA01D2D94C0DE00021404636
:1033C00002F0D2F901D2D74C06E0002404E03946DD
:1033D000404600F067FF04462046BDE8F0872DE92F
:1033E000FF4FA7B082469346369DCF49359802F0ED
:1033F000EFF9CE49089002F059F80B90CA49349879
:1034000002F0E6F9C949089002F050F88146C64931
:103410002A9802F0DDF9C549089002F047F80A90B1
:103420000B9801F07FF90D900B9801F03BFA0B908F
:10343000484601F077F90646484601F033FA8146DE
:103440000A9801F06FF90C900A9801F02BFA0A9093
:1034500030460C9902F0BCF90E9086F000400890BE
:103460000A9902F0B5F91190CDF85090DDE90B10F2
:1034700002F0AEF909904946099802F0A9F90890BE
:103480000A990D9802F0A4F90790089901F09AFFA3
:103490000F90DDE90C1002F09BF9804649460B982D
:1034A00002F096F907900A9902F092F941460890C5
:1034B00002F0BCFA129086F0004008900B9902F0DE
:1034C00087F915904946404602F082F90890DDE9F7
:1034D0000A1002F07DF90790089902F039FB10906C
:1034E00049460D9802F074F907900A9902F070F9B4
:1034F0000890099901F066FF139031460D9802F08B
:1035000067F9169000241CE0A70004EB44000EA904
:1035100051F8200017A941F8270004EB4400401C93
:103520000EA951F8201017AA781C42F8201004EBBD
:103530004400801C0EA951F82010B81C42F820103D
:10354000641C032CE0DB1F9880F00040079020995A
:10355000FFF7F2FE7449089001F034FF064630464A
:1035600001F0A0F90690289902F032F9089030464F
:1035700001F0D8F85146069002F02AF90790089910
:1035800001F020FF0A906A481D9902F021F9089085
:103590000A9902F04BFA80466548199902F018F929
:1035A00064490890584602F0D3FA0790089902F04F
:1035B000CFFA0C900C99084602F00AF941460490A3
:1035C000404602F005F90390049901F0FBFE5A49C8
:1035D000059002F0BDFA5949069002F0B9FA58492F
:1035E000079001F063FF089000F038FD0D900D98F2
:1035F00001F058F95349089002F0EAF80B900D9841
:1036000001F090F80C9050480C9902F0E1F84F4905
:10361000089001F0D7FE814649480C9902F0D8F88D
:1036200044490890584602F093FA4249019058469E
:1036300002F08EFA0090019902F0CAF803900A99FC
:10364000084602F0C5F80290039901F0BBFE3B4921
:10365000049002F07DFA3849059002F079FA3C496D
:10366000069002F075FA0790089902F071FA80F05E
:1036700000484146404602F0ABF8494603904846B0
:1036800002F0A6F801900B99084602F0A1F800900C
:10369000019901F097FE0290039902F059FA049003
:1036A00001F0C6F980F00040069088F000400590D7
:1036B0000699FFF741FE089048460B99FFF73CFE3C
:1036C00080F000400790089901F07CFE804631466A
:1036D000204802F07DF828601D991998FFF72CFE0C
:1036E0004146059002F034FA06900D9902F030FA46
:1036F0001849079002F06CF81749089002F028FA70
:10370000686014480D9902F063F8A86041461148BA
:1037100002F05EF8E8602BB0BDE8F08F900000206A
:10372000DB0FC93FDB0FC9BFDB0F4940000034434B
:103730001FC521430000B040D208F54500002946CE
:10374000CDE48F46297003C729700347EFD2DF46C7
:103750001173CC46E12E65420000B4424FF00002E6
:1037600000B5134694469646203922BFA0E80C5077
:10377000A0E80C50B1F12001BFF4F7AF090728BF52
:10378000A0E80C5048BF0CC05DF804EB890028BFCE
:1037900040F8042B08BF704748BF20F8022B11F0F7
:1037A000804F18BF00F8012B704770477047704773
:1037B00010B500F009F8006810BD10B5044600F01F
:1037C00003F8046010BD000000487047C4030020E7
:1037D00000487047C40300207546FFF7F9FFAE4666
:1037E00005006946534620F00700854618B020B50D
:1037F000FCF7D8FCBDE820404FF000064FF0000772
:103800004FF000084FF0000B21F00701AC46ACE888
:10381000C009ACE8C009ACE8C009ACE8C0098D46F5
:1038200070470446AFF300802046FCF7A6FC00007A
:1038300001491820ABBEFEE7260002007047490090
:1038400050EAC12018BF04204A0D18BF40F0010003
:1038500040F2FF72B2EB515F08BF40F00200012856
:1038600008BF052070474100080218BF04200A0E57
:1038700018BF40F001004FF07F4232EA010108BF5B
:1038800040F00200012808BF0520704713B5054924
:103890000198B1EB400F03D1009808B901201CBD7D
:1038A0000020FCE70000E0FF13B5DDE900200AB1CD
:1038B000012200E0002240EA020121F00040024A19
:1038C000101AC00F1CBD00000000F07F2DE9F74F5B
:1038D000144696B00021C4E902111799089121F00D
:1038E0000045CA498D4206DC1799C4E9000119B0A8
:1038F0000020BDE8F08FC649DFF818A3A9423CDDDF
:103900000899C54E0029C54FC54A1799534619DD78
:1039100001F042FC554506D0C24AC34B01F03CFCC5
:10392000C4E900010AE04FF0D352BF4B01F034FC70
:1039300032463B4601F030FCC4E9000119B00120D9
:10394000BDE8F08F01F0BCF8554506D0B54AB64B3E
:1039500001F0B6F8C4E900010AE04FF0D352B24BCF
:1039600001F0AEF832463B4601F0AAF8C4E9000186
:1039700019B04FF0FF30BDE8F08FAC49A94217995C
:1039800078DB21F000488346A94AAA4B414601F062
:10399000F9FA0022A84B01F093F801F099FA099086
:1039A00001F0C5FA06460F469D4A534601F0EAFA71
:1039B0005A46434601F0E4FB80468A46994A9A4BB0
:1039C0003046394601F0DEFA2A0D01250B924246B7
:1039D000534601F0D5FB032DC4E9000139D00B9803
:1039E000C1F30A51401A05EB45111139814230DA11
:1039F0009248C346784400EB0510CDF81CA00C900B
:103A0000D0E900233046394601F0BCFACDE9020185
:103A100002460B465846079901F0BEFB80468A468F
:103A200002460B465846079901F0B6FBDDE9022332
:103A300001F0B2FB83460C9803913946D0E902238A
:103A4000304601F09FFA5A46039B01F0A5FB6D1C1E
:103A5000BDE708980028A2BF099819B0BDE8F08F0B
:103A6000616881F000416160099819B04042BDE889
:103A7000F08FFFE7C1F3130141F480110E91179904
:103A8000C1F30A51A1F2F532511102F01F08C8F139
:103A90002002129200220C920D92694A7A4402EBA3
:103AA000810101F1140C0DA95FF00607DCF800207C
:103AB000DCF8045002FA08F3129AD1F800A025FAB3
:103AC00002F21A430E9BA2FB0356A2FB00329A4459
:103AD00015449A4534BF4FF0010B4FF0000B51F8DD
:103AE000043C05EB0B0E7344954234BF01220022C7
:103AF0001644BBF1000F02D0AB4202D903E0AB4247
:103B000001D2012200E000223244C1F800A041E9C4
:103B10000223091FACF1040C7F1EC7D10898DDE910
:103B20000A6500F10050800F11900898099F8000ED
:103B300001F0FDF980468A46384601F00FFA6FF031
:103B40001D0202F0ACF807463046059101F006FA76
:103B50006FF03D0202F0A3F8CDE90310284601F012
:103B6000FDF96FF05D0202F09AF8064602460B4638
:103B70000191DDE9031000F0A3FF3A46059B00F038
:103B80009FFF4246534600F09BFF00200D468346B0
:103B90004246534601F000FB3A46059B01F0FCFA11
:103BA000DDE9033201F0F8FA3246019B01F0E8FA50
:103BB000DFF89480234A434601F0E4F906460F46B5
:103BC000224A234B5846294601F0DCF932463B464F
:103BD00000F076FF0F4606464FF0A842434658468F
:103BE000294601F0CFF932463B4600F069FF179AAB
:103BF00012F0004F04D0119A81F00041524211920C
:103C0000C4E90001119819B0BDE8F08FFB21E93F2C
:103C10007CD90240FB21F93F7370032E8A19A33B24
:103C2000000040543163621A61B4D03DFB21394138
:103C300083C8C96D305FE43F0000E03FB02300005F
:103C400038230000182D4454FB21F93D3326A611DA
:103C5000460B113C2DE9FF4D21F0004807460C466C
:103C6000B8F1795F08DA01F033F9002801BF0020CC
:103C7000324904B0BDE8F08D3A4623461046194655
:103C800001F080F9054602462D480E460B460621F6
:103C9000784400F05DF82A46334601F073F9DDE917
:103CA000022382468B463846214601F06BF90446D2
:103CB0000F4652465B462846314601F063F92246DC
:103CC0003B4601F069FA07468A464FF0FF32284624
:103CD000314601F0E4FF1B4A90450ADA3A46534662
:103CE00001F05AFA04B00022BDE8F04D134B01F088
:103CF00047BA154A4245A8BFA8F500154FF0000481
:103D0000B8BF124D22462B4601F046FA06468846B9
:103D100022462B460020094901F03EFA04460D4692
:103D20003A4653463046414601F036FA04B0224640
:103D30002B46BDE8F04D01F023BA00000000F03F33
:103D4000E42000003333D33F0000E93F0000D23FBE
:103D50002DE9F0414F1E00EBC7010446D1E90001F7
:103D600015461E4637F006020DD02A46334601F0AE
:103D700009F97F1E04EBC703D3E9002300F0A0FE7E
:103D800037F00602F1D1022F25D0042F13D0062FD1
:103D900018BFBDE8F0812A46334601F0F3F8D4E9B4
:103DA0000A2300F08DFE2A46334601F0EBF8D4E9F1
:103DB000082300F085FE2A46334601F0E3F8D4E9F3
:103DC000062300F07DFE2A46334601F0DBF8D4E9F5
:103DD000042300F075FE2A46334601F0D3F8D4E9F7
:103DE000022300F06DFE2A46334601F0CBF8D4E9F9
:103DF0000023BDE8F04100F063BE00002DE9FF4D57
:103E0000054621F0004084B00C46B0F1795F0BDA32
:103E10002846FFF714FD042808BF00F065F828467F
:103E200008B02146BDE8F08D2A460B46104601F049
:103E3000A9F806460F462A46234601F0A3F8804615
:103E400026488A4632463B4605217844FFF780FFE4
:103E500083461098029160B3214A224B4046514656
:103E600001F090F8CDE900015A4640465146029BC8
:103E700001F088F882468846DDE906014FF0FF32FE
:103E800001F00DFF5246434601F086F932463B46AB
:103E900001F078F8DDE9062301F07EF9DDE9002381
:103EA00001F07AF908B02A462346BDE8F04D01F04A
:103EB00067B90B465A463046394601F063F8084A5E
:103EC000084B00F0FDFD4246534601F05BF808B098
:103ED0002A462346BDE8F04D00F0F2BD4220000026
:103EE000495555555555C5BF024A0020110701F0E7
:103EF000D6BE000001FDFFFF6FF05E01080701F074
:103F0000FCBE00002DE9F04D0E4614464FF07F41F7
:103F1000B1EB440F9EBF4FF0FF313160BDE8F08D33
:103F20004FF0004040EA0421C4F3C75078384311F1
:103F300000F01F00DFF814C1C0F12002FC445CF85F
:103F400023500CEB83038540D3F804C02CFA02F70E
:103F50002F439D680CFA00FC25FA02F8DB6805FA8D
:103F600000F023FA02F240EA02054CEA080CA7FB33
:103F70000132ACFB01C0A5FB015101EB0C058D42E8
:103F800034BF4FF0010C4FF0000CC1186144BCF17C
:103F9000000F02D0814202D903E0814201D2012008
:103FA00000E00020104400F120024FEA9218800641
:103FB000CA0C40EA42304F03C6F8008001F0A8FB6B
:103FC0008246384601F0BCFB6FF0120101F095FE0D
:103FD0000746284601F0B4FB6FF0250101F08DFE85
:103FE00083463946504601F0EDF9594601F0EAF9A9
:103FF00000F500656FF30B055146284601F0A8FD5A
:10400000394601F0A5FD594601F010FD104901F0B7
:10401000DFFB07460F49284601F0DAFB394601F07D
:10402000D1F907460C49284601F0D2FB394601F088
:10403000C9F914F0004F08BFBDE8F08DC8F18051F8
:1040400080F000403160BDE8F08D0000301F0000BE
:10405000DB0FC92F22AAFD290000C92F2DE9F0414D
:1040600004464FF01A4000EB4400B0F1C85F204610
:104070001AD94FF0CC41B1EB440F84BF3548BDE8AD
:10408000F0814FF07F41B1EB440F04D2BDE8F04125
:10409000012101F032BE0120FFF78FFBBDE8F041A6
:1040A0000021084601F002BA4FF0FC41B1EB440F89
:1040B0001CD224F000404FF07E5101F0B7FC4FF0CD
:1040C000FF3101F01AFE074600F0B2FC14F0004F79
:1040D0001DBF214E214D80F00040002608BF35460F
:1040E0004FF0404101F074FB044605E01C4E1D4DAD
:1040F000014601F06DFB07461B49384601F068FB9D
:104100001A4901F05FF9394601F062FB184901F0E4
:1041100059F9394601F05CFB164901F053F939466B
:1041200001F056FB144901F04DF98046394620460E
:1041300001F04EFB414601F04BFB07462946204665
:1041400001F074FC394601F003FD3146BDE8F04151
:1041500001F038B9DB0FC93F0000494022AA7D3A7F
:104160000000C93F22AAFD3924FE1C3DC78AD83C65
:104170001E67383D1B93993DAFAA2A3E2DE9F041B9
:1041800004464FF00E4000EB4400B0F1506F204663
:1041900020D94FF0E441B1EB440F08D9FFF763FB9E
:1041A000042808BFFFF7A8FE2046BDE8F0814FF0C5
:1041B0007F41B1EB440F04D2BDE8F041012101F091
:1041C0009CBD0120FFF7F9FABDE8F0410021084647
:1041D00001F06CB94FF0FC41B1EB440F1CD224F05C
:1041E00000404FF07E5101F021FC4FF0FF3101F013
:1041F00084FD074600F01CFC14F0004F1DBF204E4C
:10420000204D80F00040204E08BF204D4FF040412F
:1042100001F0DEFA044605E000263546014601F0CD
:10422000D7FA07461A49384601F0D2FA194901F07F
:10423000C9F8394601F0CCFA174901F0C3F83946FC
:1042400001F0C6FA154901F0BDF8394601F0C0FA8F
:10425000134901F0B7F880463946204601F0B8FA14
:10426000414601F0B5FA07462946204601F0AAF872
:10427000394601F0A7F83146BDE8F04101F0A2B897
:104280000000C9BF22AAFDB90000C93F22AAFD391A
:1042900024FE1C3DC78AD83C1E67383D1B93993DC0
:1042A000AFAA2A3E2DE9F0474FF0684202EB4003E7
:1042B0000C460546B3F1654F3CBF02EB4102B2F13B
:1042C000654F3FD34FF07F42B2EB400F28BFB2EBB8
:1042D000410F03D2BDE8F04701F074B840EA010392
:1042E0005B0008BF44F0FF410AD0B2EB400F08BFAB
:1042F000B2EB410F06D125F0804024F08041054605
:104300000C461FE0B2EB400F12BF5FEA410245F0DE
:10431000FF4004F0004115D04FEA410292EA400309
:1043200010D4002AB4BF4FF03E564FF09F4631469E
:1043300001F04EFA05463146204601F049FA04469E
:1043400028462146C0F3C753C1F3C7529A1A1B2A05
:1043500006DD10F0004F14BF54485548BDE8F08703
:1043600012F11A0F17DA11F0004F06D010F0004FBB
:104370000CBF50485048BDE8F0872146284601F060
:1043800095F80446FFF76FFA042808BFFFF7B4FD5D
:104390002046BDE8F0874200B2EB410F25D910F06E
:1043A000004F19BF454F464E464F474E224685F0B7
:1043B000004415460A4680F0004110460A1A520091
:1043C000B2F1807F3ED248404049DFF804A110F0AE
:1043D000004F18D04FF03F48384601F0B9FB074670
:1043E0005146304601F0B4FB17E011F0004F04BF16
:1043F00000263746E2D010F0004F19BF354F364E39
:10440000364F374EDAE74FF07C58384600F0DAFF87
:1044100007465146304600F0D5FF0646414628463D
:1044200001F0D6F9214600F0CDFF824621464046F4
:1044300001F0CEF9294601F0F9FA514601F036F8BB
:10444000044604E02146284601F030F804460146BF
:1044500001F0BEF98046234901F0BAF9224900F083
:10446000B1FF414601F0B4F9204900F0ABFF4146ED
:1044700001F0AEF91E4900F0A5FF414601F0A8F990
:104480001C4900F09FFF05464146204601F0A0F977
:10449000294601F09DF9314600F094FF214600F0D5
:1044A00091FF3946BDE8F04700F08CBFDB0FC9BF74
:1044B000DB0FC93FDB0F4940DB0F49C00000C9BF1C
:1044C00022AAFDB90000C93F22AAFD390060ED3ED5
:1044D000C30ACE37000049C022AA7DBA0000494075
:1044E00022AA7D3A2DAD65BD8FB8D53D0FB511BE61
:1044F00061C84C3EA8AAAABE2DE9F0410746044671
:104500004FF00E4000EB4400B0F1145F20D34FF0A9
:10451000E440B0EB440F09D93846FFF7A4F904286A
:1045200008BFFFF7E9FC3846BDE8F0814FF07F4057
:10453000B0EB440F05D22046BDE8F041012101F067
:10454000DCBB14F0004F14BF3D483E48BDE8F0818D
:104550004FF0FE40B0EB440F24BF00252E460CD296
:1045600014F0004F19BF384E384D394E394D2146A1
:10457000394800F09BFF074604464FF0FC40B0EB83
:10458000440F2CD23549DFF8D88014F0004F0AD000
:104590004FF03F44304601F0DBFA064641462846DC
:1045A00001F0D6FA09E04FF07C54304600F00AFFE3
:1045B00006464146284600F005FF05462146384696
:1045C00001F006F94FF07E5100F0FCFE80462146D6
:1045D000384601F0BDFA414600F068FF074639460B
:1045E000084601F0F5F880461E4901F0F1F81E4931
:1045F00000F0E8FE414601F0EBF81C4900F0E2FE55
:10460000414601F0E5F81A4900F0DCFE414601F0B0
:10461000DFF8184900F0D6FE04464146384601F05E
:10462000D7F8214601F0D4F8294600F0CBFE3946F0
:1046300000F0C8FE3146BDE8F04100F0C3BE000006
:10464000DB0FC9BFDB0FC93F0000C9BF22AAFDB9FC
:104650000000C93F22AAFD39000080BF0060ED3E86
:10466000C30ACE372DAD65BD8FB8D53D0FB511BE90
:1046700061C84C3EA8AAAABE00B5284B21F0004252
:1046800087B09A42DCBF0022134631DD244B9A42A8
:104690000DD168B94FF00100FFF78FF8002207B085
:1046A0001346104611465DF804EB00F0B9BA06DB7C
:1046B00007B04FF001025DF804EB01F0F0BA02AA76
:1046C000FFF704F910F0030104BF0DF1080CBCE87A
:1046D0000F000DD0012001290ED0022914D00DF1B8
:1046E000080C0090BCE80F00FFF788FB07B000BD86
:1046F000FFF7B0FA07B000BD0DF1080C0090BCE860
:104700000F00FFF77BFB05E00DF1080CBCE80F0084
:10471000FFF7A0FA07B081F0004100BDFB21E93F9F
:104720000000F07F2DE9F8430446024650486946F0
:10473000B0EB420F09D94FF0E640B0EB420F94BF07
:1047400000204FF0FF30009034E04A4B22F0004050
:1047500083422BD94849204601F03AF801F036F956
:10476000804600F099FF00F0030000904349404666
:1047700001F02EF805464249404601F029F8064668
:104780004049404601F024F807463F49404601F0C1
:104790001FF8214601F04AF9394601F0D9F93146AE
:1047A00001F0D6F9294601F0D3F902E01046FFF7EF
:1047B000A9FB04462546009C002C18DA6800B0F1DD
:1047C0007F4F3CBF4FF07E50BDE8F88309D14FF0DA
:1047D0000100FEF7F2FFBDE8F8430021084600F0B3
:1047E00065BE2846BDE8F843012101F086BA294696
:1047F00014F0010F08461CD000F0EAFF06462349DA
:1048000000F0E6FF224901F011F9314600F0E0FF27
:10481000204900F0D7FD314600F0DAFF294600F0CC
:10482000D7FF294600F0CEFD14F0020F1CD0BDE8E2
:10483000F88300F0CDFF0546174900F0C9FF17497E
:1048400000F0C0FD294600F0C3FF154900F0BAFD95
:10485000294600F0BDFF4FF07E5100F0B3FD14F08B
:10486000020F08BFBDE8F88380F00040BDE8F88380
:10487000B61F927E490E494683F9223F1A61342CB5
:104880000020A23300A0FD390000C93F336D4C3930
:10489000DA82083CA0AA2ABEB93AB2BACA9F2A3D17
:1048A000DDFFFFBE2DE9F843044602465348694642
:1048B000B0EB420F09D94FF0E640B0EB420F94BF86
:1048C00000204FF0FF30009034E04D4B22F00040CC
:1048D00083422BD94B49204600F07AFF01F076F84D
:1048E000804600F0D9FE00F00300009046494046A3
:1048F00000F06EFF05464549404600F069FF064658
:104900004349404600F064FF07464249404600F0F4
:104910005FFF214601F08AF8394601F019F9314666
:1049200001F016F9294601F013F902E01046FFF7ED
:10493000E9FA04462546009C002C1DDA6800B0F117
:104940007F4F09D22846FEF78EFF042808BFFFF7E5
:10495000D3FA2846BDE8F88308D10120FEF72DFFE1
:10496000BDE8F8430021084600F0A0BD2846BDE898
:10497000F843012101F0C1B9294614F0010F08469E
:104980001ED000F025FF0546234900F021FF2349F2
:1049900000F018FD294600F01BFF214900F012FD30
:1049A000294600F015FF4FF07E5100F00BFD14F08A
:1049B000020F08BFBDE8F88380F00040BDE8F8832F
:1049C00000F006FF0646174900F002FF164901F005
:1049D0002DF8314600F0FCFE144900F0F3FC31469E
:1049E00000F0F6FE294600F0F3FE294600F0EAFC4E
:1049F00014F0020FE0D1BDE8F8830000B61F927EEC
:104A0000490E494683F9223F1A61342C0020A23313
:104A100000A0FD390000C93FB93AB2BACA9F2A3D89
:104A2000DDFFFFBE336D4C39DA82083CA0AA2ABEF6
:104A300070B5054601F004F8044620F00040C0F1CE
:104A4000FF40C00F08D025F00040C0F1FF40C00F6C
:104A500004BF0120FEF7B1FE204670BD21F00042E8
:104A6000A2F16052B2F5801F01F0004328BFD2F1DD
:104A70007F6C0BD95FEA001C43EAC20242EB507024
:104A800018BF704728BF20F001007047B2F5801FA3
:104A9000BCBF184670474FEA410C1CF5001F02D2FC
:104AA000084600F05CBF70B500F016FB00000089FE
:104AB000FFF7F6BF4FF00040A0F580007047000000
:104AC00010B591EA030F48BF83F0004300F16C83F7
:104AD000841A71EB030C05D2121943EB0C03001B73
:104AE00061EB0C01DFF824E14FEA1154A4EB135CF5
:104AF0001EEA430F18BF9EEA445F73D023EA0E03F9
:104B0000DCF1200E21EA045143F4801332D322FA5F
:104B10000CFE10EB0E0023FA0CFE41EB0E01CCF163
:104B2000200E03FA0EFE10EB0E0051F10001B1F55C
:104B3000801FCCF1200E32D201EB045112FA0EF29A
:104B4000BDE8104058BF7047401C38BF5FEA4202C2
:104B500018BF7047002814BF20F0010041F1000188
:104B60004FEA410313F5001F38BF7047A1F1C04160
:104B700000F000BB012A43EB0302ACF1200CDCF196
:104B80001F0E32BF4FF0000E23FA0CF310EB0300A0
:104B900041EB0451B4EB115FD0D0A1EB045101F50E
:104BA000801149085FEA300001EB04510ED350F147
:104BB000000038BF12FA0EFE08D1BDE81040C9E768
:104BC000401C38BF5FEA4202CAD1C3E7BDE81040CB
:104BD0004FEA410313F5001F38BF7047A1F1C041F0
:104BE00000F0C8BA9EEA445F08D011EA5E0FBDE843
:104BF000104004BF01F0004100207047BDE81040A4
:104C000070B500F069FA00BF64FBBE3E0000E0FF33
:104C100002494FF0000001F010B800BF0000F87F1B
:104C20002DE9C04130B4DFF8A0C23CEA111418BF2E
:104C30003CEA131400F0EC8081EA03051CEA11142D
:104C400044EAD57418BF1CEA131500F0C780A4EB22
:104C500005044FF0004545EAC12145EAC32341EA76
:104C6000505143EA525304F17F74994204F50034E1
:104C70004FEAC0204FEAC22208BF904200F09C8059
:104C80004FEA13650FF24016765D4FEA134506FBB7
:104C900005F7C7F1807706FB07F74FEAD737A7FB81
:104CA00003687642C8F58038A7FB06CE38BFA8F166
:104CB000010807FB08E64FF0000EA6FB028CE6FB9E
:104CC00003CEDCF1000CCEF1004E38BFAEF1010E88
:104CD000A6FB0C584FF000074FF00005E6FB0E87CF
:104CE000A1FB08C6A0FB07CE16EB0E0645F100059A
:104CF000E1FB076515F1E04E7EBFA4F580345FEA65
:104D000046066D4116F1800745F100054FEA172769
:104D10004FEA066647EA0567A6F1DE46B6F1805F10
:104D20004FEA15251FD9384624F0010C05EBC47154
:104D3000BCF1FE6F01EB0C1102D8F0BCBDE80081A4
:104D400024425CBF01F5801E9EEAC47F02D4F0BC01
:104D5000BDE80081244238D4F0BCA1F1C041BDE8D7
:104D6000004100F007BA4FEAD22242EA43524FEA2A
:104D7000D323A7FB02864FEAD02040EA415007FB2D
:104D800003661EEA0E0F4FEAD12105FB026658BFEB
:104D9000A6EB0056B6EB00564FEA520E4EEAC37E23
:104DA00018EB0E0E56EB530EBDD518EB02085E4104
:104DB0007F1C55F10005B6E74FF480154FF0000752
:104DC0004FF000064FF00008ADE7F0BC4FF00000D8
:104DD00001F1C04101F00041BDE8008111EA0C1F62
:104DE0000CEA131500D00CE013EA0C1F00F025802C
:104DF0004FF00000F0BC81EA030101F00041BDE882
:104E00000081F0BCBDE8004181EA030100F0B2B9C5
:104E1000F0BCBDE8004170B500F05EF9097EFC3ED3
:104E200000F007B881EA03014FF0000001F00041F3
:104E3000704781EA030100F09DB9F0BCBDE8004174
:104E40004FF0000021497047FFFDFBF9F7F5F4F240
:104E5000F0EEEDEBE9E8E6E4E3E1E0DEDDDBDAD815
:104E6000D7D5D4D3D1D0CFCDCCCBCAC8C7C6C5C473
:104E7000C2C1C0BFBEBDBCBBBAB9B8B7B6B5B4B38A
:104E8000B2B1B0AFAEADACABAAA9A8A8A7A6A5A475
:104E9000A3A3A2A1A09F9F9E9D9C9C9B9A99999839
:104EA0009797969595949393929191908F8F8E8EDC
:104EB0008D8C8C8B8B8A8989888887878685858469
:104EC00084838382828181800000FF070000F87F55
:104ED0004FEA41034FEA5353A3F58063D3F11E0316
:104EE000C8BFD3F1210C0CDD4FF0004242EAC122D1
:104EF00042EA505232FA03FC8CEAE17CACEBE170FE
:104F00007047102BC4BF0020704703F5787CBCF1BC
:104F1000FF3F04D06FF0004282EA2100704770B575
:104F200000F0DAF84992248000207047F2E710F090
:104F3000004248BF4042B0FA80F310FA03F10AD0B1
:104F4000C3F11D0303F580634FEA415002EB0352A6
:104F500002EBD12170474FF000007047B0FA80F3A8
:104F600010FA03F10AD0C3F11D0303F580634FEA81
:104F700041504FEA035202EBD12170474FF000003D
:104F800070470000DFF848C170B51CEA111E1EBF53
:104F90001CEA13159EEA0C0F95EA0C0F00F06F80C7
:104FA00081EA030423EA4C134EEAD47E21EA4C1131
:104FB00041F4801143F48013AE44A1FB024CA0FBEA
:104FC0000365AEF17F7E361955EB0C05A1FB034C52
:104FD0004CF10003A0FB021C16EB0C06654153F1DB
:104FE0000003094218BF46F0010613F4007F0BD1FD
:104FF0004FEA03314FEA0530340341EA155140EAE4
:1050000016506FF003020AE04FEAC3214FEAC520B1
:10501000F40241EA555140EA56506FF0020202EBA9
:105020002E4201EB025585EACE710AD05FEA440CAC
:1050300018BF24F0004450F1000041F1000120EAC3
:10504000D47040F2FE7C624500D270BDA84214BF0D
:105050004FF080444FF04044002E08BF0024BEF1C2
:10506000806FA8BFA1F1C041BDE8704080F282808E
:105070004FF0000001F1C04101F0004170479EEA8D
:105080000C0F0CEA131518BF95EA0C0F06D04FF061
:10509000000081EA030E0EF0004170BD00F01CF824
:1050A0008900013E00F007B800F009B84FEA430C50
:1050B0005FEA5C5C08D081EA030100F05BB84FEA6C
:1050C000410C5FEA5C5CF6D14FF00000014970478B
:1050D0000000FF070000F87F0EF1020E2EF0030E15
:1050E0005EF8046B364205D4012A43EB030515F53F
:1050F000001F12D8012841EB010C1CF5001F0CD831
:105100000ED14FEAD17C15F5001F0CEB4C0C0CF1C5
:10511000020C08BF4CEBD37C04E04FF0080C01E01C
:105120004FEAD37C0CEB4C0526FA05F606F0070691
:10513000B6F1040C06D20EEB860CBDE870404CF0C4
:10514000010C6047DFE80CF0090B02024FF0004150
:105150004FF00000A1F5002170BD1946104601284E
:1051600051EB010418BFD4F5001484BF002001F0F6
:10517000004170BD0808A0F500114FEA31017047E9
:1051800091EA030F10B581F000413FF5A1AC83F027
:10519000004300F009B8000010B591EA030F48BFC2
:1051A00083F000433FF594AC841A71EB030C07D2F3
:1051B00012198CF0004C43EB0C03001B61EB0C014B
:1051C000DFF8A4E14FEA1154A4EB135C1EEA430F8D
:1051D00018BF9EEA445F00F0B08023EA6E0352429B
:1051E00021EA0451C3EB6E0338BF5B1EDCF1200ED5
:1051F00025D322FA0CFE10EB0E0043FA0CFE41EB15
:105200000E01CCF1200E03FA0EFE10EB0E0051F150
:105210000001CCF1200E29D412FA0EF201EB045158
:10522000BDE8104058BF7047401C1CBFB2F1004F92
:10523000704700280CBF491C20F00100704712EB9A
:10524000020E43EB030218BF4FF0010E4EEA42027A
:10525000ACF1200CDCF11E0E54D943FA0CFE10EB1D
:105260000E0051F1FF31CCF11E0ED5D50EF1010E1D
:1052700012FA0EFE404141EB010101EB445C5FEA92
:105280005C5C10D910EBDE7001EB045138BFBEF14D
:10529000004FBDE8104018BF704700280CBF491CE4
:1052A00020F00100704730D24FEAD42C11F50011E4
:1052B00024F400641BD0B1FA81F20B3AA41AA41EA4
:1052C000D2F12003914030FA03F31943904001EBEF
:1052D000CC71002C01EB0451BDE81040A8BF704711
:1052E00001F1C0414FF0000001F000417047B0FAF9
:1052F00080F310FA03F100D110BDE41A173C480501
:10530000C90AE4E701EB045110BD491001EB045157
:10531000BDE810404FEA300002E04FF00001704756
:105320004A0008BF0042F8D0B2F5001F28BF7047FE
:1053300001F000414FF0000070479EEA445F07D043
:1053400011EA5E0FBDE8104004BF00210020704745
:10535000BDE8104070B5FFF7BFFE00BF40DFF63E6E
:1053600083F00041104670470000E0FF43004FEA21
:10537000D30C4FEA3C0C43401FBF40070CF1605177
:1053800013F0FE4F70471CF0006F03D100200CF0AB
:10539000004170470CF0004343EA507010B540EAFA
:1053A000CC0000F096FA00BF000000924FEA000126
:1053B000FFF7E0BE4FF000414FF00000A1F50021E3
:1053C0007047000090EA010F48BF81F0004100F1F2
:1053D000C683421A3CBF801A89184FEAD0524FF058
:1053E0007F4C1CEA410FA2EBD15318BF9CEA026F1D
:1053F00000F03B804FF0004C4CEA00204CEA0121C9
:1054000021FA03FC10EB0C0C1ED202F1FF325FEA12
:105410001C2040EBC25038BF70471CF07F0F4FEA92
:10542000400C18BFBCF17F4F38BF7047C3F1200359
:10543000994008BF20F00100BCF17F4F38BF704792
:10544000A0F1C04000F08BBA4FEA3C00000A40EBEC
:10545000C25028BF1CF0FF0F4FEA400CE6D018BF27
:10546000BCF17F4F38BF7047EAE79CEA026F05D076
:1054700010EA5C0F08BF00F00040704710B500F064
:1054800028FA00BF64FBBE3E014800F0D6BB00BF57
:105490000000C07F401058BFC0F14040491058BFC5
:1054A000C1F140418142EFF3008070474FF47F0C1F
:1054B0001CEAD0121EBF1CEAD11392EA0C0F93EA29
:1054C0000C0F00F0858090EA010F48BF42F4807213
:1054D00040F4000C41F400002CF07F4120F07F40AC
:1054E00000B58142A2EB03020FF2081CACEB504E58
:1054F000C0F100009EF800E04FEA4E0E00FB0EFCEB
:1055000038BF49004FEA2C1C02F5FA020CFB0EF3DF
:105510004FEACE1E4FEA112C4FEAC1210EEB635E1B
:1055200042EB22420EFB0CFC4FEA1C5300FB031122
:105530004FEA112C4FEA01310EFB0CFC4FEADC4C18
:1055400000FB0C11C14228BF09184CEB03335DF876
:1055500004EB10EB410143EBC250B2F57C0F38BFB6
:10556000704729D512F0F00F1CBF00F1C04000F0C9
:1055700000407047008182838485868788898B8C70
:105580008D8E8F919293959697999A9C9D9FA0A2AC
:10559000A3A5A7A8AAACAEB0B2B3B5B7B9BCBEC0FC
:1055A000C2C5C7C9CCCED1D4D7D9DCDFE2E6E9EC9D
:1055B000F0F3F7FAFE0000004FEA400C0CF1807C9B
:1055C000BCF17E4F28BF7047B0F1C04000F0C7B9B2
:1055D00090EA010F0CEAD11348BF42F48072624591
:1055E00038BF634507D213F47F0F16D080EA01005D
:1055F00000F00040704710B500F06BF9097EFC3EEA
:1056000000F005B880EA010000F00040704780EA31
:10561000010000F0004000F0A2B912F47F0F04BFB7
:105620000248704780EA010000F099B90000C07F8D
:1056300050EA010C00F113801CF5000F58BFBCF5B7
:10564000000F01D48842704707D710F5000F58BFEC
:1056500011F5000F15D488427047894270471CF538
:10566000000F04D5BCF5000FF7D5814270474FF00D
:10567000807C1CEB400F38BF1CEB410F01D28142F4
:10568000704710B500F025F9922449004FF0005002
:105690004FF08051FFF7FEBE41000B0ED3F19E028A
:1056A00008D950F400034FEA032323FA02F048BF5D
:1056B0004042704710B500F00CF900BF49922480B9
:1056C000002070476FF0004282EA2000704700001F
:1056D000C10DD1F19E0206DB4FEA002343F00043E7
:1056E00023FA02F07047004207D54FEA4001B1F1BA
:1056F000FE4F02D24FF00000704710B500F0E9F8FD
:1057000049922480002070476FEA20007047000013
:1057100010F0004148BF4042B0FA80F310FA03F2A3
:10572000C3F19D030BD051EAC35101EB1220530684
:1057300038BF704700F1010008BF20F0010070473A
:10574000B0FA80F310FA03F2C3F19D030AD0D90531
:1057500001EB1220530638BF704700F1010008BF6B
:1057600020F001007047000050EA010C00F11380A6
:105770001CF5000F58BFBCF5000F01D488427047DC
:1057800007D710F5000F58BF11F5000F15D4884248
:105790007047894270471CF5000F04D5BCF5000F17
:1057A000F7D5814270474FF0807C1CEB400F38BF2B
:1057B0001CEB410F01D28142704710B500F089F80F
:1057C000922449004FF000504FF08051FFF762BE25
:1057D0004FF47F0C1CEAD0121EBF1CEAD11392EAD0
:1057E0000C0F93EA0C0F00F0478090EA010F48BFBE
:1057F00042F480724FF0004C4CEA00204CEA012148
:1058000002EB0302A0FB0113A2F50002002918BF5E
:1058100043F001035B0028BF4FEA330342EB22420F
:105820005FEA132C4CEBC2502EBFBCEB436FB2F5BA
:105830007C0F70474FEA036CBCF1004F08BF20F0AB
:105840000100B2F57C0F38BF70470BD582F0FF0224
:1058500012F5803FC8BF704700F1C040D8BF00F0CC
:105860000040704700F5000C5FEA4C0C48BF7047E1
:10587000B0F1C04000F073B890EA010F0CEAD11308
:1058800048BF42F48072624538BF634504D280EA63
:10589000010000F00040704710B500F01AF800BF9A
:1058A0008900013E00F007B800F009B85FEA410C3A
:1058B0005FEA1C6C08D080EA010000F050B85FEA93
:1058C000400C5FEA1C6CF6D14FF00040A0F5800060
:1058D00070470EF1020E2EF0030E5EF8044B2442C8
:1058E00004D44FEA4102B2F17F4F11D84FEA40038E
:1058F000B3F17F4F0CD80ED14FEAD07CB2F17F4F7D
:105900000CEB4C0C0CF1020C08BF4CEBD17C04E00E
:105910004FF0080C01E04FEAD17C0CEB4C0324FA69
:1059200003F404F00704B4F1040C06D20EEB840C6B
:10593000BDE810404CF0010C6047DFE80CF00708B0
:1059400002024FF00040A0F5800010BD0846420062
:1059500018BFD2F1807288BF00F0004010BDFF2157
:1059600041EAD050C005704751EA000C00F11380A5
:105970001CF5000F58BFBCF5000F01D481427047E1
:1059800007D711F5000F58BF10F5000F15D481424D
:105990007047894270471CF5000F04D5BCF5000F15
:1059A000F7D5884270474FF0807C1CEB410F38BF21
:1059B0001CEB400F01D28842704780EA010081EA67
:1059C000000180EA0100FFF7F8BE00005FEA400C2A
:1059D0005FEA1C6CBCF17F0314D4D3F1170240F3CF
:1059E0001C804FF0010C0CFA02FCACF101030340E7
:1059F000B3EB5C0220EA030008BF10EA0C0F88BF7B
:105A000060447047B3F1FF3F28BF5FEA002C00F00D
:105A1000004088BF40F07E507047BCF1FF0FB8BF18
:105A2000704710B5FFF755FF40DBB6BE80F0004071
:105A300090EA010F7FF5CDAC81F0004100F08FB806
:105A40004FEAD051002988BFD1F1FF0240F27580A2
:105A500001F17D014FEA002070B5490840F0004097
:105A600038BF40080EA2430E040CD25C02FB02F3C6
:105A700004FB03F3C3F14043A3FB0254ED0D45EADD
:105A8000442202FB02F3A0FB03546D42C4F14044E4
:105A900038BF641EA2FB05350023E2FB0453EA0B6A
:105AA00042EA4342A0FB023212F14004A2F1210378
:105AB000E40903F07F031F2B32D904EBC15070BD02
:105AC000FEFAF7F3F0ECE9E6E4E1DEDCD9D7D4D274
:105AD000D0CECCCAC8C6C4C2C1BFBDBCBAB9B7B6A5
:105AE000B4B3B2B0AFAEACABAAA9A8A7A6A4A3A208
:105AF000A1A09F9E9E9D9C9B9A99989797969594FE
:105B00009393929190908F8E8E8D8C8C8B8A8A89B4
:105B10008988878786868584848383828281818041
:105B200004FB04F6B6EB004603D5E64248BF641C0E
:105B3000C3E7A64258BF641CBFE711F0FF0F02D1B4
:105B400000F00040704710B5FFF7C3FE7FDBFFBEDB
:105B500090EA010F48BF81F000413FF53AAC421A8C
:105B600004D882F00042A0EB020011444FEAD05268
:105B70004FF07F4C1CEA410FA2EBD15318BF9CEAB7
:105B8000026F4AD04FF0004C4CEA00204CEA012151
:105B900021FA03FCB0EB0C0C0FD412F0FE0F36D040
:105BA0005FEA4C001DD5001240EBC25038BF704771
:105BB0001CF03F0F18BF70470BE0A2F101025FEA33
:105BC0001C2040EBC25038BF70471CF07F0F18BF3D
:105BD0007047C3F12003994014BF401E20F001001C
:105BE000704780084FEA122308BF7047B0FA80FC64
:105BF000A2EB0C02CCF1280C60FA0CF093EA122F05
:105C000004BF00EBC25070474FEAC3707047130ADD
:105C10005FEADC1008BF7047F6E79CEA026F04D029
:105C200010EA5C0F08BF0020704710B5FFF751FE67
:105C300040DFF63E81F0004070470CF00F03092B67
:105C400008BF082000F07F800A2B0BD0082B18BF5C
:105C5000704708BF1CF0400F0AD04FF000004FF013
:105C6000000170471CF0400F18BF4FF00040704714
:105C70001CF0100F08D020F0704300F07F4242EA81
:105C8000D3014FEA4370704700F0604021F07F423B
:105C900042EA000201F07F4040EA727070474FF024
:105CA000FF0C4CF4E06C1CEA11531CBF9CEA030C83
:105CB0009445C2BFDA4201EB02517047002B0DD070
:105CC000BCF1000F0FD0002A01F00041A4BF41F049
:105CD000E04141F07F614FF00000704701F000416A
:105CE0004FF00000704750EA01334FF09B0C18BF93
:105CF0004CF0806C7EF48CAF70474FF0FF0212EADC
:105D0000D0521CBF92F0FF038B42C2BFD14200EBC6
:105D1000C1507047002A0AD0002B0BD0002900F098
:105D20000040A4BF40F0FE4040F40000704700F087
:105D30000040704743024FF00B0C18BF4CF0806CD2
:105D40007FF4A2AB70471CF4801F11D01CF4E02F2D
:105D500003D06FEACC31490070474FF04050EFF369
:105D6000008222F0704242EA000282F3008870470B
:105D70004FF00000704700004C5555555555A53F54
:105D80007751C1166CC156BF9015CB19A001FA3ED0
:105D9000AD529C804F7E92BEC4B1B4BD9EEE213EFA
:105DA000D43888BEE9FAA8BD00004054FB21F93F71
:105DB0003163621A61B4D03D0000601A61B4D03D15
:105DC0007370032E8A19A33B0000002E8A19A33B8F
:105DD000C14920259A837B390000000000000000A3
:105DE0006E83F9A22915444ED15727FCC0DD34F546
:105DF000999562DB4190433CAB6351FE61C5BBDECC
:105E00003A6E24B7E0D24D42EA2E49061C92D109DF
:105E10001CEB1DFE3EA729B1F53582E88444BB2E5C
:105E200026709CE9417E5FB439D69139F4395383A9
:105E30008B5F849C3B28F9BDFF97F81F0F9805DE08
:105E40008B112FEF1F6D0A5ACF7E366DB709CB2706
:105E5000663F464F2DEA5F9EC7BA27757BF1E5EB9B
:105E6000F739073DEA92528AB15FFB6B085D8D1FDF
:105E7000000000006E83F9A22915444ED15727FC7B
:105E8000C0DD34F5999562DB4190433CAB6351FE34
:105E9000A6F810111111813FD561C119A0012ABFC7
:105EA0007DFEB157E31DC73EEB9C2B8AE6E55ABE4B
:105EB0007CD5CF5A3AD9E53DD85E000800000020D5
:105EC0009C00000028010008745F00089C0000206E
:105ED0008C230000440100080000000001020304BC
:105EE00001020304060708090204060800A24A0486
:105EF000000000000000000001020304060708097A
:105F0000DC05DC05DC05DC05DC05DC05DC05DC0589
:105F1000DC05DC05DC05DC05DC05DC05DC05DC0579
:105F20000000D00700000000010000000000000099
:105F30000000000000000000010000000000000060
:105F4000010000000000000000000000000001004F
:105F5000000000000000F87F000000000000F07F5B
:105F6000000000000000F0FF0000C07F0000807F04
:045F7000000080FFAE
:04000005080000ED02
:00000001FF
